:100000000C946B000C9488000C9488000C9488006D
:100010000C9488000C9488000C9488000C94290897
:100020000C9488000C9488000C9488000C94880030
:100030000C9488000C9488000C9488000C94880020
:100040000C9488000C9488000C9488000C94880010
:100050000C9488000C9488000C9488000C94880000
:100060000C9488000C9488003F024E02E502EA02DC
:10007000EF02650258027C0296029C10B910B9107A
:10008000E409120A480A760A910AC60AF50A290BF7
:10009000620B910BB910B910B910B910B910B910A1
:1000A000B910C50B020C3E0C800CC20CFE0C370DB7
:1000B000740D8D0DAE0DDC0D0A0E2C0E4B0E690E5F
:1000C000760EB20EF40E310F6D0F920FB70FD60FE2
:1000D00000103A105A1011241FBECFEFD8E0DEBF37
:1000E000CDBF12E0A0E0B1E0E6E0FBE602C0059083
:1000F0000D92A031B107D9F722E0A0E1B2E001C032
:100100001D92AE34B207E1F70E94FF300C948135A6
:100110000C94000080911B0290911C02883B9B4034
:100120000CF450C0EBE3F2E020911B0230911C0272
:1001300080819181821B930B91838083359682E02D
:10014000EA34F80789F7E9E2F2E020911B023091E6
:100150001C0280819181821B930B91838083369650
:1001600022E0EB33F20789F785E090E090930D01F0
:1001700080930C0110921C0210921B0283E090E00D
:1001800090930301809302018091070187FF05C0CE
:100190008091070181508093070180910501909122
:1001A000060108977CF48091050190910601019663
:1001B00090930601809305018091050190910601BD
:1001C0000C94391108958091100118168CF481E077
:1001D00090E0909303018093020110921A028091A3
:1001E0000E018093280280911001815080931001AC
:1001F000089580910F01181684F482E090E09093A6
:1002000003018093020188EF80931A021092280262
:1002100080910F01815080930F010895AF92CF928A
:10022000EF92FF920F931F93F801EC0DF11D8E17C3
:100230009F07A4F4840F911D081719077CF4C701C8
:100240008A0D911D681779074CF4620F711D81E0CA
:1002500090E0E616F70624F080E002C080E090E02F
:100260001F910F91FF90EF90CF90AF900895AF92B4
:10027000CF92EF92FF920F931F93CF93DF93CBE335
:10028000D2E060911D0270911E0280911B0290913C
:100290001C02EA80FB8008811981605F7F4F28E0A3
:1002A000A22ECC8021E048E00E940E01009731F49C
:1002B000259622E0CA34D20721F702C081E090E0FF
:1002C000DF91CF911F910F91FF90EF90CF90AF9062
:1002D00008956F927F928F929F92AF92CF92EF92FA
:1002E000FF920F931F93CF93DF9360900201709062
:1002F00003013BE3832E32E0932EF401C281D381CC
:1003000060911D0270911E0280911B0290911C024F
:100310000081118128E0A22EC4807E0120E140E10D
:100320000E940E01892BD9F080910A0190910B0156
:100330008C179D0744F46097D0931E02C0931D0252
:10034000612C712C0CC080910A0190910B01C8178F
:10035000D9072CF42896D0931E02C0931D02F5E015
:100360008F0E911C8AE4881682E0980631F670920E
:10037000030160920201DF91CF911F910F91FF90D5
:10038000EF90CF90AF909F908F907F906F90089557
:10039000AF92CF92EF92FF920F931F93CF93DF9381
:1003A000CBE3D2E060911D0270911E0280911B028E
:1003B00090911C02EA80FB800881198128E0A22E1E
:1003C000CC8020E140E10E940E01009731F4259697
:1003D00022E0CA34D20731F702C081E090E0DF9119
:1003E000CF911F910F91FF90EF90CF90AF90089514
:1003F0002F923F924F925F926F927F928F929F9235
:10040000AF92BF92CF92DF92EF92FF920F931F9322
:10041000CF93DF93C9E2D2E04CE9842E99249A94D9
:1004200053E0252E312C62E0662E712C4424439437
:10043000512CE4E1DE2EF2E3BF2E60911D0270919B
:100440001E0280911B0290911C02EA80FB800881B1
:10045000198128E0A22E38E0C32E20E140E10E945D
:100460000E01892B09F4E2C0EC81FD813197E9305E
:10047000F10508F0BAC0EC5CFF4F0C94AB318091F1
:100480000401853008F0AFC0809104018F5F809334
:100490000401809104010E94BF12A5C08091040153
:1004A00081508093040170920101609200019BC011
:1004B000809105019091060108970CF094C08091FD
:1004C00005019091060101960CC080910501909163
:1004D000060102970CF087C08091050190910601FA
:1004E00001979093060180930501809105019091F9
:1004F00006010E94391177C0409105015091060113
:100500008091160290911702A0911802B0911902E1
:10051000B49E9001B59E300D1124A901330F660BD6
:10052000770B840F951FA61FB71F3CC020910501B4
:100530003091060140911602509117026091180205
:1005400070911902D29EC001D39E900D1124092EE4
:10055000000CAA0BBB0B84179507A607B70748F03A
:10056000109216021092170210921802109219029D
:1005700021C0409105015091060180911602909191
:100580001702A0911802B0911902D49E9001D59E35
:10059000300D1124A901330F660B770B841B950BCB
:1005A000A60BB70B8093160290931702A093180224
:1005B000B09319026091160270911702809118028F
:1005C000909119020E9409110EC05092110240929E
:1005D000100209C0709211026092100204C03092A1
:1005E0001102209210021D821C8220910C01309178
:1005F0000D016A817B8188819981820F931F0E94FE
:100600005721998288829B828A8240910A01509167
:100610000B0160911D0270911E0200911002109159
:10062000110221E385E090E00E948716269682E081
:10063000CB33D80709F001CFDF91CF911F910F91F4
:10064000FF90EF90DF90CF90BF90AF909F908F90F2
:100650007F906F905F904F903F902F900895809182
:100660001D0290911E028E3691055CF0809104016E
:1006700081508093040183E090E090930101809386
:1006800000010E948A0080911D0290911E029093A9
:100690000B0180930A0180911B0290911C029093A0
:1006A000200280931F024091050150910601609144
:1006B000070180911B0290911C020E94C1300E9490
:1006C000F8018091020190910301892B81F58091BD
:1006D0001002909111028130910579F050F0823032
:1006E000910591F00397C9F483E080930F0182E0B4
:1006F0000FC082E080930F010BC082E080930F0156
:100700008093100188E107C082E080930F0183E0AD
:10071000809310018CE080930E010E943701892B99
:1007200031F483E090E09093030180930201809183
:10073000020190910301029741F483E090E09093CD
:100740000301809302010E9469018091280218161A
:10075000F4F580910201909103010197C1F5209178
:1007600005013091060180912802821B80932802A6
:10077000809105019091060120911B0230911C028D
:10078000880F991F820F931F90931C0280931B0266
:10079000209105013091060180910C0190910D018D
:1007A000220F331F821B930B90930D0180930C013A
:1007B0000E94C801892B59F08091040181508093D7
:1007C000040182E090E09093010180930001809108
:1007D0002802181684F0809102019091030101977C
:1007E00051F40E943701892B31F483E090E090931B
:1007F000030180930201809102019091030103970C
:10080000C9F420911A0280911D0290911E02820F5C
:10081000911D27FD9A9590931E0280931D02809151
:100820001A0285302CF480911A028F5F80931A028D
:100830000E94690180911B0290911C0264E670E0A5
:100840000E947531892BE9F480911602909117026C
:10085000A0911802B09119020196A11DB11D8093BB
:10086000160290931702A0931802B0931902609198
:1008700016027091170280911802909119020E943D
:100880000911209105013091060180911B02909180
:100890001C02820F931F90931C0280931B022091D5
:1008A00005013091060180910C0190910D01821B90
:1008B000930B90930D0180930C0108958091110189
:1008C000803309F0BAC28091000190910101833018
:1008D000910541F08430910509F47EC0892B09F01F
:1008E00030C211C14B9925C081E3809311010E9450
:1008F0004E0860932102709322028093230290930A
:10090000240260910801809109010E9427128091C0
:10091000080190E0C89724F480910801865F01C027
:100920008DE28093080160910801809109010E9485
:100930008F114A9925C081E3809311010E944E08CE
:1009400060932102709322028093230290932402E9
:1009500060910801809109010E942712809108018D
:1009600090E0C79724F0809108018A5001C081E48B
:100970008093080160910801809109010E948F1104
:100980004E995BC281E3809311010E944E086093EF
:10099000210270932202809323029093240280917B
:1009A00008018D3231F482E090E090930101809350
:1009B00000018091080180910801813409F03DC255
:1009C0000E9419090E94771184E090E09093010140
:1009D0008093000187E38FC04B9925C081E380930A
:1009E00011010E944E0860932102709322028093AD
:1009F00023029093240260910801809109010E94D2
:100A000027128091080190E0C89724F48091080192
:100A1000865F01C08DE2809308016091080180919A
:100A200009010E948F114A9925C081E38093110129
:100A30000E944E0860932102709322028093230249
:100A40009093240260910801809109010E9427126D
:100A50008091080190E0C79724F0809108018A50A6
:100A600001C081E48093080160910801809109012F
:100A70000E948F114E99E1C181E3809311010E9480
:100A80004E08609321027093220280932302909378
:100A90002402809108018D3249F482E090E0909325
:100AA00006018093050185E080930701809108018C
:100AB000873349F484E090E0909306018093050128
:100AC00083E08093070180910801813449F486E036
:100AD00090E0909306018093050181E080930701E7
:100AE0000E9419090E945F1183E090E09093010138
:100AF000809300018DE2809308016091080180914C
:100B000009010C948F114A991BC081E38093110154
:100B10000E944E0860932102709322028093230268
:100B200090932402209105013091060180911D02CD
:100B300090911E02821B930B90931E0280931D02C4
:100B40004B991BC081E3809311010E944E08609372
:100B50002102709322028093230290932402209119
:100B600005013091060180911D0290911E02820FB5
:100B7000931F90931E0280931D024D9929C081E31B
:100B8000809311010E944E0860932102709322020B
:100B90008093230290932402209105013091060155
:100BA00080911B0290911C02820F931F90931C0254
:100BB00080931B02209105013091060180910C0168
:100BC00090910D01821B930B90930D0180930C016A
:100BD0004C9929C081E3809311010E944E086093D3
:100BE0002102709322028093230290932402209189
:100BF00005013091060180911B0290911C02821B1D
:100C0000930B90931C0280931B022091050130915D
:100C1000060180910C0190910D01820F931F90931A
:100C20000D0180930C014E990FC081E38093110157
:100C30000E94F9000E944E086093210270932202E4
:100C400080932302909324024F990FC081E38093F5
:100C500011010E94E3000E944E08609321027093EC
:100C600022028093230290932402359922C081E3CB
:100C7000809311010E944E0860932102709322021A
:100C8000809323029093240283E090E090930101EB
:100C9000809300010E9419090E945F118DE28093E8
:100CA00009018093080160910801809109010E9467
:100CB0008F113499C2C081E3809311010E944E08C4
:100CC0006093210270932202809323029093240266
:100CD00081E090E090930101809300014FEF60E686
:100CE00070E080E090E00E9465094FEF64E670E0FC
:100CF00080E090E00E9465094FEF60E670E081E0DF
:100D000090E00E9465094FEF64E670E081E090E0BA
:100D10000E9465094FEF60E670E083E090E00E947A
:100D200065094FEF64E670E083E090E00E9465099A
:100D30004FEF60E670E084E090E00E9465094FEFBD
:100D400076C0359922C081E3809311010E944E083C
:100D500060932102709322028093230290932402D5
:100D600083E090E090930101809300010E941909B3
:100D70000E945F118DE280930901809308016091C8
:100D80000801809109010E948F11349956C081E3B6
:100D9000809311010E944E086093210270932202F9
:100DA000809323029093240280910001909101018D
:100DB000892B39F481E090E0909301018093000148
:100DC0000895109201011092000140E060E670E089
:100DD00080E090E00E94650940E064E670E080E019
:100DE00090E00E94650940E060E670E081E090E0FC
:100DF0000E94650940E064E670E081E090E00E94B6
:100E0000650940E060E670E083E090E00E946509DB
:100E100040E064E670E083E090E00E94650940E015
:100E200060E670E084E090E00E94650940E064E6DE
:100E300070E084E090E00C94650908950F931F938F
:100E400060911B0270911C0220911F0230912002C0
:100E500080910C0190910D01621B730B0E942A136B
:100E600060911B0270911C0220911F0230912002A0
:100E700080910C0190910D01621B730B0E94FD1279
:100E800040910A0150910B0160911D0270911E0268
:100E9000009110021091110220E385E090E00E9481
:100EA00087161F910F9108950F931F93CF93DF9390
:100EB00080910401811115C0109216021092170240
:100EC000109218021092190283E08093040182E0CC
:100ED00090E0909306018093050110921102109208
:100EE00010020E9419090E942C300E94862F8091C6
:100EF00004010E94BF126091160270911702809146
:100F00001802909119020E94091180910501909197
:100F100006010E94391185E090E090930D018093C5
:100F20000C0180910C0190910D010E94E112C1E031
:100F3000D0E0D0930B01C0930A0140910A01509177
:100F40000B01009110021091110220E360E070E0AB
:100F500085E090E00E94871610921C0210921B02FE
:100F600010921E0210921D0210921A0283E090E06D
:100F70009093030180930201D0930101C09300017B
:100F8000DF91CF911F910F9108950E94590884E03D
:100F90000E94E30784E00E94FE070E9416320E942E
:100FA00017088AB183708AB98BB18C6F8BB987B1FE
:100FB0008F7C87B988B1806388B90E94C7080E9476
:100FC0002C300C94862F97B121E030E0082E01C020
:100FD000220F0A94EAF72095292327B997E89093DE
:100FE0007A00806480937C0080917A008064809392
:100FF0007A0080917A0086FDFCCF089590917C0064
:10100000907F90937C0090917C008F70982B9093B0
:101010007C0080917A00806480937A0080917A00CD
:1010200086FDFCCF80917800909179000895109210
:10103000B20082E08093B00085E08093B1008DE73C
:101040008093B300E0E7F0E0808182608083789451
:1010500008951F920F920FB60F9211248F939F93B2
:10106000AF93BF9380914A0290914B02A0914C02A2
:10107000B0914D020196A11DB11D80934A0290933B
:101080004B02A0934C02B0934D02BF91AF919F9140
:101090008F910F900FBE0F901F901895F89460914C
:1010A0004A0270914B0280914C0290914D027894CB
:1010B0000895E1ECF0E080818861808387E690E02C
:1010C0009093C5008093C40008959091C00095FF4F
:1010D000FCCF8093C60080E090E00895CF93DF932B
:1010E000EC018991882319F00E946508FACFDF91FD
:1010F000CF9108951F93CF93DF93EC01FE011491DC
:10110000812F0E946508112311F02196F7CFDF91FE
:10111000CF911F910895CF93DF93CDB7DEB72A9774
:101120000FB6F894DEBF0FBECDBF4AE0BE016F5FC1
:101130007F4F0E942132CE0101960E946E082A96AE
:101140000FB6F894DEBF0FBECDBFDF91CF910895EB
:101150008091C00087FFFCCF8091C6000895611187
:10116000299A27E030E090E02D98AC01022E02C0D1
:10117000559547950A94E2F740FF02C02B9A01C0AB
:101180002B982D9A2150310978F729980895CF93FB
:10119000DF93259A239A249A219A209A2C9A2998A7
:1011A0002D98289A85E38A95F1F70000289860E049
:1011B00081EF0E94AF0860E087E60E94AF0860E020
:1011C00086EC0E94AF0860E080E40E94AF0860E017
:1011D00080E50E94AF0860E08BE20E94AF0860E00B
:1011E0008BEE0E94AF0860E081E80E94AF0860E0EB
:1011F0008FE50E94AF0860E089E80E94AF08C0E474
:10120000D0E161E080E00E94AF082197D1F760E073
:1012100080E00E94AF0860E080E10E94AF0860E0DB
:1012200080E60E94AF0860E08FEADF91CF910C94D6
:10123000AF08CF93DF9360E080E00E94AF0860E0EA
:1012400080E10E94AF0860E080E60E94AF08C0E441
:10125000D0E161E080E00E94AF082197D1F760E023
:1012600080E00E94AF0860E080E10E94AF0860E08B
:1012700080E6DF91CF910C94AF081F93CF93DF935B
:10128000C82F162FD42F60E08F700E94AF088C2FCC
:1012900082958F7060E0805F0E94AF0860E080E61A
:1012A000810F0E94AF0861E08D2FDF91CF911F91D8
:1012B0000C94AF0880528B3330F4E82FF0E0EA5EF4
:1012C000FE4F8081089580E00895CF92DF92EF92E3
:1012D000FF920F931F93CF93DF93803A910508F00D
:1012E00051C06936710508F04DC0042F7C01EB0137
:1012F000D595C795D595C7956B0183E0C822DD24A8
:10130000C114D10421F46C2F8E2D0E943D0981E07F
:10131000C816D10411F484E00BC082E0C816D104D1
:1013200011F480E105C083E0C816D10459F580E4CA
:10133000089F80011124D02E8091250290E0E816AC
:10134000F90649F48091260290E0C817D90719F4EC
:10135000D0902702D02A4D2D6C2F8E2D0E943D0952
:10136000E0922502C0932602D0922702CF5F412F40
:101370006C2F8E2D0E943D09E0922502C09326021B
:1013800010932702DF91CF911F910F91FF90EF9063
:10139000DF90CF900895CF92DF92EF92FF920F935C
:1013A0001F93CF93DF93082E000C990BAA0BBB0B56
:1013B000FC01BD97EE32F10508F0DBC6042FC62F05
:1013C000E35CFF4F0C94AB3110E0D0E040EFB8018C
:1013D000CE010E946509780184E0E80EF11C4FE31C
:1013E000B701CE010E9465096E018FEFC81AD80AB5
:1013F0004CE0B801C6010E9465094CECB701C6017A
:101400000E9465096E0182E0C80ED11C4CE0B80153
:10141000C6010E94650943ECB701C6010E94650937
:101420002396A9C210E0D0E040E3B801CE010E94AB
:101430006509780184E0E80EF11C40ECB701CE01AB
:101440000E9465096E018FEFC81AD80A4CEFB801E7
:10145000C6010E9465094FEFB701C6010E946509E8
:101460006E0182E0C80ED11C40E0B801C6010E94A6
:10147000650940ECB701C6010E946509239640E06A
:10148000B801CE010E94650940E0B701CE0167C6F0
:1014900010E0D0E040E3B801CE010E946509780178
:1014A00084E0E80EF11C40EFB701CE010E9465090F
:1014B0006E018FEFC81AD80A4CE0B801C6010E942D
:1014C00065094CECB701C6010E9465096E0182E016
:1014D000C80ED11C4CE0B801C6010E94650943EC5E
:1014E000B701C6010E9465092396B9C410E0D0E097
:1014F00040E3B801CE010E946509780184E0E80E5E
:10150000F11C40E3B701CE010E9465096E018FEF27
:10151000C81AD80A4CE0B801C6010E94650940EC1F
:10152000EBC010E0D0E040ECB801CE010E946509AC
:10153000780184E0E80EF11C4FE0B701CE010E9473
:1015400065096E018FEFC81AD80A40E3B801C601D9
:101550000E9465094CE0B701C6010E9465096E0151
:1015600082E0C80ED11C4CEFB801C6010E9465098B
:101570004FEFB701C6010E94650923964CE0B70101
:10158000CE010E94650940E0B80180CF10E0D0E0B4
:101590004CEFB801CE010E946509780184E0E80EA5
:1015A000F11C43ECB701CE010E9465096E018FEF7B
:1015B000C81AD80A4CE0B801C6010E94650943EC7C
:1015C000B701C6010E9465096E0182E0C80ED11CF8
:1015D0004CE0B801C6010E94650943ECB701C601A1
:1015E0000E94650923964CE005C510E0D0E040EC70
:1015F000B801CE010E946509780184E0E80EF11C73
:101600004FE3B701CE010E9465096E018FEFC81A42
:10161000D80A40E3B801C6010E94650943ECB7014E
:10162000C6010E9465096E0182E0C80ED11C4CE023
:10163000B801C6010E94650943ECB701C6010E94CA
:10164000650923964CE0B801CE010E9465094CE380
:101650001CCF10E0D0E04CE3B801CE010E94650938
:101660006E018FEFC81AD80A4CE0B801C6010E947B
:101670006509780184E0E80EF11C4CEFB701C60162
:101680000E9465096E0182E0C80ED11C4CE0B801D1
:10169000C6010E94650943E0B701C6010E946509C1
:1016A0006E0183E0C80ED11C4CEFB801C6010E9448
:1016B000650940E0B701CE010E94650940E0B7012D
:1016C000C6014DC510E0D0E040EFB801CE010E9448
:1016D0006509780184E0E80EF11C4CE3B701CE0106
:1016E0000E9465096E018FEFC81AD80A4CE0B80154
:1016F000C6010E94650943ECB701C6010E94650955
:101700006E0182E0C80ED11C4CE0B801C6010E94F7
:10171000650943ECB701C6010E946509239640EFB5
:1017200092CF10E0D0E040EFB801CE010E946509F1
:101730006E018FEFC81AD80A4CE0B801C6010E94AA
:101740006509780184E0E80EF11C43ECB701C6019D
:101750000E9465096E0182E0C80ED11C4CE0B80100
:10176000C6010E94650943ECB701C6010E946509E4
:101770006E0183E0C80ED11C40EFB801C6010E9483
:1017800065094FE3B701C6017DCE10E0D0E040EF20
:10179000B801CE010E946509780184E0E80EF11CD1
:1017A0004FEFB701CE010E9465096E018FEFC81A95
:1017B000D80A4CE0B801C6010E94650943E0B701B0
:1017C000C6010E9465096E0182E0C80ED11C4CE082
:1017D000B801C6010E94650943E0B701C6010E9435
:1017E00065096E0183E0C80ED11C4CE0B801C6014A
:1017F0000E94650943E0B701C6010E94650924966D
:1018000040EFF8C310E0D0E04CEFB801CE010E94E9
:101810006509780184E0E80EF11C4FEFB701CE01B5
:101820000E9465096E018FEFC81AD80A4CE0B80112
:10183000C6010E94650943ECB701C6010E94650913
:101840006E0182E0C80ED11C4CE0B801C6010E94B6
:10185000650943ECB701C6010E9465096E0183E08A
:10186000C80ED11C4CE0B801C6010E94650943ECCA
:10187000B701C6010E946509249651CF10E0D0E05F
:1018800040EFB801CE010E946509780184E0E80EBE
:10189000F11C4FE3B701CE010E9465096E018FEF85
:1018A000C81AD80A4CE0B801C6010E94650940EC8C
:1018B000B701C6010E9465096E0182E0C80ED11C05
:1018C0004CE0B801C6010E94650940ECB701C601B1
:1018D0000E9465096E0183E0C80ED11C4CE0B8017E
:1018E000C6010E94650940ECB701C6010E94650966
:1018F000249640E3B801CE010E94650940E3C5CDBE
:1019000010E0D0E04CEFB801CE010E9465097801EB
:1019100084E0E80EF11C4FEFB701CE010E9465098B
:101920006E018FEFC81AD80A4CE0B801C6010E94B8
:10193000650940ECB701C6010E9465096E0182E0AD
:10194000C80ED11C4CE0B801C6010E94650940ECEC
:10195000B701C6010E9465096E0183E0C80ED11C63
:101960004CE0B801C6010E94650940ECB701C60110
:101970000E946509249640EFB801CE010E946509D6
:101980004FE383CD10E0D0E04CEFB801CE010E94D0
:101990006509780184E0E80EF11C4FEFB701CE0134
:1019A0000E9465096E018FEFC81AD80A4CE0B80191
:1019B000C6010E94650943ECB701C6010E94650992
:1019C0006E0182E0C80ED11C4CE0B801C6010E9435
:1019D000650943ECB701C6010E9465096E0183E009
:1019E000C80ED11C4CE0B801C6010E94650943EC49
:1019F000B701C6010E9465092496AEC010E0D0E090
:101A00004CEFB801CE010E946509780184E0E80E30
:101A1000F11C4FEFB701CE010E9465096E018FEFF7
:101A2000C81AD80A4CE0B801C6010E94650943E013
:101A3000B701C6010E9465096E0182E0C80ED11C83
:101A40004CE0B801C6010E94650943E0B701C60138
:101A50000E9465096E0183E0C80ED11C4CE0B801FC
:101A6000C6010E94650943E0B701C60157C210E0F4
:101A7000D0E040EFB801CE010E946509780184E012
:101A8000E80EF11C4FE3B701CE010E9465096E011B
:101A90008FEFC81AD80A4CE0B801C6010E94650948
:101AA00040ECB701C6010E9465096E0182E0C80ED4
:101AB000D11C4CE0B801C6010E94650943ECB70196
:101AC000C6010E9465096E0183E0C80ED11C4CE07E
:101AD000B801C6010E94650943ECB701C6010E9426
:101AE0006509249640E3AFCD10E0D0E04CEFB8019B
:101AF000CE010E946509780184E0E80EF11C4FEFE9
:101B0000B701CE010E94650943E0B701CE010196FD
:101B10000E94650943E0B701D6C010E0D0E04CE078
:101B2000B801CE010E946509780184E0E80EF11C3D
:101B300040ECB701CE010E9465096E018FEFC81A13
:101B4000D80A4CEFB801C6010E9465094FEFB701F2
:101B5000C6010E94650922964CE0E8C210E0D0E080
:101B60004CE0B801CE010E946509780184E0E80EDE
:101B7000F11C40E3B701CE010E9465096E018FEFB1
:101B8000C81AD80A4CE0B801C6010E94650940ECA9
:101B9000B701C6010E9465096E0182E0C80ED11C22
:101BA0004CE0B801C6010E94650940ECB701C601CE
:101BB0000E9465092396D9C110E0D0E04CEFB8012E
:101BC000CE010E946509780184E0E80EF11C4FEF18
:101BD000B701CE010E9465096E018FEFC81AD80ABD
:101BE00043E0B801C6010E94650943E0B701C601A0
:101BF0000E9465096E0182E0C80ED11C40ECB8015C
:101C0000C6010E9465094CE0B701C6010E94650942
:101C1000239629C210E0D0E04CEFB801CE010E941B
:101C200065090C5F1F4F4FEFB801CE010E94650997
:101C300040ECB801CE0101960E94650940ECB80164
:101C4000CE0102960E94650940ECB801CE010396D0
:101C50000E94650940EC2AC210E0D0E04CEFB801C8
:101C6000CE010E946509780184E0E80EF11C4FEF77
:101C7000B701CE010E94650940E3B801CE0101968B
:101C80000E94650940ECB801CE0102960E946509E8
:101C900040E3B801A9C110E0D0E04CEFB801CE019B
:101CA0000E946509780184E0E80EF11C4FEFB7014E
:101CB000CE010E94650940E3B801CE0101960E9461
:101CC000650940ECB801CE0102960E94650943E027
:101CD0008AC110E0D0E040EFB801CE010E94650952
:101CE000780184E0E80EF11C4FE316CE10E0D0E05E
:101CF0004CEFB801CE010E946509780184E0E80E3E
:101D0000F11C4FEFB701CE010E9465096E018FEF04
:101D1000C81AD80A4CE0B801C6010E94650943E020
:101D2000B701C6010E9465096E0182E0C80ED11C90
:101D30004CE0B801C6010E94650943E0B701C60145
:101D40000E9465096E0183E0C80ED11C4CE0B80109
:101D5000C6010E94650943E0B701C6010E946509FA
:101D600040EFA4C110E0D0E040EFB801CE010E94E6
:101D70006509780184E0E80EF11C4FE3B701CE015C
:101D80000E9465096E018FEFC81AD80A4CE0B801AD
:101D9000C6010E94650940ECB701C6010E946509B1
:101DA0006E0182E0C80ED11C4CE0B801C6010E9451
:101DB00065094CECB701C6010E9465096E0183E01C
:101DC000C80ED11C4CE0B801C6010E94650940E371
:101DD000B701C6010E946509249640EFB801CE0103
:101DE0000E9465094FEC51CB10E0D0E040EFB80104
:101DF000CE010E946509780184E0E80EF11C4FEFE6
:101E0000B701CE010E9465096E018FEFC81AD80A8A
:101E10004CE0B801C6010E94650943E0B701C60164
:101E20000E9465096E0182E0C80ED11C4CE0B80129
:101E3000C6010E9465094FE0B701C6010E9465090D
:101E40006E0183E0C80ED11C4CE0B801C6010E94AF
:101E5000650943E3B701C6010E946509249640EF76
:101E600065C110E0D0E040EFB801CE010E946509E5
:101E7000780184E0E80EF11C40ECB701CE010E942D
:101E800065096E018FEFC81AD80A4CE0B801C60187
:101E90000E94650943ECB701C6010E9465096E0105
:101EA00082E0C80ED11C4CE0B801C6010E94650951
:101EB00043ECB701C6010E9465096E0183E0C80EBC
:101EC000D11C4CE0B801C6010E94650943ECB70182
:101ED000C6010E9465092496B5CB10E0D0E04CE025
:101EE000B801CE010E9465094CE0B801CE0101960F
:101EF0000E9465097E0182E0E80EF11C4CEFB801FA
:101F0000C7010E946509B8016C5F7F4F4FEFC701A1
:101F10000E9465094CE0B801CE0103960E94650954
:101F20004CE0C4C010E0D0E04CEFB801CE010E94FC
:101F30006509780184E0E80EF11C4FE3B701CE019A
:101F40000E94650940ECB701CE0101960E94650927
:101F500040ECB701CE0102960E94650940ECB70142
:101F6000CE0103960E94650924964CEF05CD10E042
:101F7000D0E04CEFB801CE010E946509780184E001
:101F8000E80EF11C4FE0B701CE0101960E946509F1
:101F900040EFB701CE0102960E9465094FE0B701FC
:101FA000CE0103960E9465094CEF80C010E0D0E09E
:101FB0004CEFB801CE010E946509780184E0E80E7B
:101FC000F11C4FEFB701CE010E94650940E3B70154
:101FD000CE0101960E9465094CE0B701CE01029640
:101FE0000E94650940E3B701CE0103960E9465098E
:101FF00024964CEFB801CE010E9465094FEF45CA07
:1020000010E0D0E04CE3B801CE010E9465097801F0
:1020100084E0E80EF11C40EFB701CE010E94650993
:102020006E018FEFC81AD80A40ECB801C6010E94B1
:1020300065094CE0B701C6010E94650943E0B7019C
:10204000CE0102960E9465096E0183E0C80ED11C84
:1020500040ECB801C6010E9465094CE0B701C60119
:102060000E94650924964CE3B801CE010E946509DF
:1020700040EF0BCA10E0D0E04CE3B801CE010E9463
:10208000650940ECB801CE0101960E946509B801CE
:102090006C5F7F4F4FEFCE0102960E94650940ECC6
:1020A000B801CE0103960E9465094CE3B801CE0148
:1020B000049655C010E0D0E04CE0B801CE010E947B
:1020C0006509780184E0E80EF11C40EFB701CE010C
:1020D0000E9465096E018FEFC81AD80A4CE0B8015A
:1020E000C6010E9465094CECB701C6010E94650952
:1020F0006E0182E0C80ED11C4CE0B801C6010E94FE
:10210000650943ECB701C6010E9465096E0183E0D1
:10211000C80ED11C4CECB801C6010E94650940EC08
:10212000B701C6010E94650924964CE3B801CE01AF
:102130000E94650940ECA9C910E00C5F1F4FD0E078
:1021400043E0B801CE010E94650943E0B801CE0129
:1021500001960E94650943E0B801CE010296DF9125
:10216000CF911F910F91FF90EF90DF90CF900C9443
:102170006509DF91CF911F910F91FF90EF90DF9054
:10218000CF900895AF92BF92CF92DF92EF92FF92DD
:102190000F931F93CF93DF93D62EC42E8C01D0E0E4
:1021A000C0E0E62EF12C5801F8018081882331F13E
:1021B000C7018C0F911D8B3991054CF04D2F4C0DA3
:1021C0006C2F6D0D8DE20E94CB09D75FC0E04D2FC3
:1021D0004C0D6C2F6D0DD8018D918D010E94CB0996
:1021E000D501EC91E052EB3328F4F0E0EA5EFE4FCB
:1021F000608101C060E0C60FCF5FD5CFDF91CF9186
:102200001F910F91FF90EF90DF90CF90BF90AF9014
:1022100008950F931F93CF93DF93CDB7DEB76297E7
:102220000FB6F894DEBF0FBECDBF9F938F937F9301
:102230006F9384EC91E09F938F938E010F5F1F4FFC
:102240001F930F930E94463240E66DE6C8010E943C
:10225000C2100FB6F894DEBF0FBECDBF62960FB6A8
:10226000F894DEBF0FBECDBFDF91CF911F910F91CC
:1022700008950F931F93CF93DF9300D0CDB7DEB7B0
:102280009F938F938AEC91E09F938F938E010F5FC2
:102290001F4F1F930F930E94463240E662E3C8012E
:1022A0000E94C2100F900F900F900F900F900F9000
:1022B0000F900F90DF91CF911F910F91089549E1F9
:1022C00067E38DEC91E00E94C2104DE267E388ED78
:1022D00091E00E94C21047E367E384EE91E00E9420
:1022E000C21041E467E38EEE91E00C94C21049E124
:1022F00067E38EEE91E00E94C2104DE267E38BEF40
:1023000091E00E94C21047E367E382E092E00E94FE
:10231000C21041E467E389E092E00C94C210CF92CE
:10232000DF92EF92FF920F931F93CF93DF93062FCD
:1023300010E0C82FD0E040ECB801CE010E94650942
:10234000780184E0E80EF11C4CE0B701CE010E9458
:1023500065096E018FEFC81AD80A40ECB801C601B2
:102360000E9465094CE0B701C6010E9465096E0133
:1023700082E0C80ED11C40ECB801C6010E9465097C
:102380004CE0B701C6010E9465096E0183E0C80EEA
:10239000D11C40ECB801C6010E9465094CE0B701B0
:1023A000C6010E9465096E0184E0C80ED11C40EC94
:1023B000B801C6010E9465094CE0B701C6010E9440
:1023C00065096E0185E0C80ED11C4CE0B801C6015C
:1023D0000E94650940ECB701C6010E9465096E01C3
:1023E00086E0C80ED11C4CE3B801C6010E94650905
:1023F00040EFB701C6010E9465096E0187E0C80E73
:10240000D11C40EFB801C6010E9465094CE3B70139
:10241000C6010E9465096E0188E0C80ED11C40EC1F
:10242000B801C6010E9465094FE0B701C6010E94CC
:10243000650943E0B701CE010996DF91CF911F9165
:102440000F91FF90EF90DF90CF900C946509CF92A1
:10245000DF92EF92FF920F931F93CF93DF93062F9C
:1024600010E0C82FD0E040E0B801CE010E9465091D
:10247000780184E0E80EF11C40E0B701CE010E9433
:1024800065096E018FEFC81AD80A40E0B801C6018D
:102490000E94650940E0B701C6010E9465096E010E
:1024A00082E0C80ED11C40E0B801C6010E94650957
:1024B00040E0B701C6010E9465096E0183E0C80EC5
:1024C000D11C40E0B801C6010E94650940E0B70197
:1024D000C6010E9465096E0184E0C80ED11C40E06F
:1024E000B801C6010E94650940E0B701C6010E941B
:1024F00065096E0185E0C80ED11C40E0B801C60137
:102500000E94650940E0B701C6010E9465096E019D
:1025100086E0C80ED11C40E0B801C6010E946509E2
:1025200040E0B701C6010E9465096E0187E0C80E50
:10253000D11C40E0B801C6010E94650940E0B70126
:10254000C6010E9465096E0188E0C80ED11C40E0FA
:10255000B801C6010E94650940E0B701C6010E94AA
:10256000650940E0B701CE010996DF91CF911F9137
:102570000F91FF90EF90DF90CF900C946509EF9250
:10258000FF920F931F93CF93DF9391E4E92EF12CE9
:1025900000E010E0C82FD0E00C171D075CF460E6E7
:1025A00070E0C7010E946F1B0F5F1F4F88E0E80EAD
:1025B000F11CF2CFDF91CF911F910F91FF90EF901F
:1025C00008951F93CF93DF93C0E0D0E015E01C9FE8
:1025D000F0011D9FF00D1124E55CFD4F40815181FC
:1025E0006281738184810E94F01B2196C330D105E2
:1025F00071F7DF91CF911F910895BF92CF92DF9233
:10260000EF92FF920F931F93CF93DF937C016B01A7
:10261000C0E0D0E085E0B82EBC9EF001BD9EF00D7C
:102620001124E55CFD4F8601970140815181628153
:10263000738184810E94FC1C2196C330D10561F70F
:10264000DF91CF911F910F91FF90EF90DF90CF908E
:10265000BF900895EF92FF920F931F93CF93DF9354
:102660008C017B01C9E2D2E04C815D816A817B8172
:10267000888199819701800F911F0E94FE1E2696E6
:1026800082E0CB33D80781F7DF91CF911F910F9173
:10269000FF90EF9008958F929F92AF92BF92CF924A
:1026A000DF92EF92FF920F931F93CF93DF934C0132
:1026B000EB0140E00E9465096E0184E0C80ED11C68
:1026C00040E0B601C4010E9465097E0188E0E80E81
:1026D000F11C40E0B701C4010E9465098E01045F4E
:1026E0001F4F40E0B801C4010E94650954018FEFFB
:1026F000A81AB80A40E0BE01C5010E94650940E081
:10270000B601C5010E94650940E0B701C5010E94FC
:10271000650940E0B801C5010E946509540182E0E5
:10272000A80EB11C40E0BE01C5010E94650940E051
:10273000B601C5010E94650940E0B701C5010E94CC
:10274000650940E0B801C5010E946509540183E0B4
:10275000A80EB11C40E0BE01C5010E94650940E021
:10276000B601C5010E94650940E0B701C5010E949C
:10277000650940E0B801C5010E946509540184E083
:10278000A80EB11C40E0BE01C5010E94650940E0F1
:10279000B601C5010E94650940E0B701C5010E946C
:1027A000650940E0B801C5010E946509540185E052
:1027B000A80EB11C40E0BE01C5010E94650940E0C1
:1027C000B601C5010E94650940E0B701C5010E943C
:1027D000650940E0B801C5010E946509540186E021
:1027E000A80EB11C40E0BE01C5010E94650940E091
:1027F000B601C5010E94650940E0B701C5010E940C
:10280000650940E0B801C5010E946509540187E0EF
:10281000A80EB11C40E0BE01C5010E94650940E060
:10282000B601C5010E94650940E0B701C5010E94DB
:10283000650940E0B801C5010E946509540188E0BE
:10284000A80EB11C40E0BE01C5010E94650940E030
:10285000B601C5010E94650940E0B701C5010E94AB
:10286000650940E0B801C5010E946509540189E08D
:10287000A80EB11C40E0BE01C5010E94650940E000
:10288000B601C5010E94650940E0B701C5010E947B
:10289000650940E0B801C5010E94650954018AE05C
:1028A000A80EB11C40E0BE01C5010E94650940E0D0
:1028B000B601C5010E94650940E0B701C5010E944B
:1028C000650940E0B801C5010E94650954018BE02B
:1028D000A80EB11C40E0BE01C5010E94650940E0A0
:1028E000B601C5010E94650940E0B701C5010E941B
:1028F000650940E0B801C5010E94650954018CE0FA
:10290000A80EB11C40E0BE01C5010E94650940E06F
:10291000B601C5010E94650940E0B701C5010E94EA
:10292000650940E0B801C5010E94650954018DE0C8
:10293000A80EB11C40E0BE01C5010E94650940E03F
:10294000B601C5010E94650940E0B701C5010E94BA
:10295000650940E0B801C5010E94650954018EE097
:10296000A80EB11C40E0BE01C5010E94650940E00F
:10297000B601C5010E94650940E0B701C5010E948A
:10298000650940E0B801C5010E9465098FE0880E25
:10299000911C40E0BE01C4010E94650940E0B601FF
:1029A000C4010E94650940E0B701C4010E946509A5
:1029B00040E0B801C401DF91CF911F910F91FF90CA
:1029C000EF90DF90CF90BF90AF909F908F900C943E
:1029D00065098F929F92AF92BF92CF92DF92EF9252
:1029E000FF920F931F93CF93DF934C01EB014FEFB7
:1029F0000E9465096E0184E0C80ED11C4FEFB6013C
:102A0000C4010E9465097E0188E0E80EF11C4FEFC9
:102A1000B701C4010E9465098E01045F1F4F4FEF8B
:102A2000B801C4010E94650954018FEFA81AB80AC1
:102A30004FEFBE01C5010E9465094FEFB601C50108
:102A40000E9465094FEFB701C5010E9465094FEF6C
:102A5000B801C5010E946509540182E0A80EB11CAD
:102A60004FEFBE01C5010E9465094FEFB601C501D8
:102A70000E9465094FEFB701C5010E9465094FEF3C
:102A8000B801C5010E946509540183E0A80EB11C7C
:102A90004FEFBE01C5010E9465094FEFB601C501A8
:102AA0000E9465094FEFB701C5010E9465094FEF0C
:102AB000B801C5010E946509540184E0A80EB11C4B
:102AC0004FEFBE01C5010E9465094FEFB601C50178
:102AD0000E9465094FEFB701C5010E9465094FEFDC
:102AE000B801C5010E946509540185E0A80EB11C1A
:102AF0004FEFBE01C5010E9465094FEFB601C50148
:102B00000E9465094FEFB701C5010E9465094FEFAB
:102B1000B801C5010E946509540186E0A80EB11CE8
:102B20004FEFBE01C5010E9465094FEFB601C50117
:102B30000E9465094FEFB701C5010E9465094FEF7B
:102B4000B801C5010E946509540187E0A80EB11CB7
:102B50004FEFBE01C5010E9465094FEFB601C501E7
:102B60000E9465094FEFB701C5010E9465094FEF4B
:102B7000B801C5010E946509540188E0A80EB11C86
:102B80004FEFBE01C5010E9465094FEFB601C501B7
:102B90000E9465094FEFB701C5010E9465094FEF1B
:102BA000B801C5010E946509540189E0A80EB11C55
:102BB0004FEFBE01C5010E9465094FEFB601C50187
:102BC0000E9465094FEFB701C5010E9465094FEFEB
:102BD000B801C5010E94650954018AE0A80EB11C24
:102BE0004FEFBE01C5010E9465094FEFB601C50157
:102BF0000E9465094FEFB701C5010E9465094FEFBB
:102C0000B801C5010E94650954018BE0A80EB11CF2
:102C10004FEFBE01C5010E9465094FEFB601C50126
:102C20000E9465094FEFB701C5010E9465094FEF8A
:102C3000B801C5010E94650954018CE0A80EB11CC1
:102C40004FEFBE01C5010E9465094FEFB601C501F6
:102C50000E9465094FEFB701C5010E9465094FEF5A
:102C6000B801C5010E94650954018DE0A80EB11C90
:102C70004FEFBE01C5010E9465094FEFB601C501C6
:102C80000E9465094FEFB701C5010E9465094FEF2A
:102C9000B801C5010E94650954018EE0A80EB11C5F
:102CA0004FEFBE01C5010E9465094FEFB601C50196
:102CB0000E9465094FEFB701C5010E9465094FEFFA
:102CC000B801C5010E9465098FE0880E911C4FEF85
:102CD000BE01C4010E9465094FEFB601C4010E9404
:102CE00065094FEFB701C4010E9465094FEFB801B4
:102CF000C401DF91CF911F910F91FF90EF90DF9072
:102D0000CF90BF90AF909F908F900C9465098F9259
:102D10009F92AF92BF92CF92DF92EF92FF920F936A
:102D20001F93CF93DF936417750719F4213309F0CC
:102D3000C9C47B01EC01BA010E944B13013011059B
:102D400009F458C308F423C10230110509F424C260
:102D50000330110509F0B6C4670188E0C80ED11C24
:102D600040E3B601CE010E94650987010C5F1F4F49
:102D70005E018FEFA81AB80A40E8B801C5010E94A9
:102D800065094AE5B601C5010E9465095E0182E058
:102D9000A80EB11C40EAB801C5010E9465094AEDC0
:102DA000B601C5010E94650947018CE0880E911C9F
:102DB0004CEFB401C5010E9465095E0183E0A80ED5
:102DC000B11C48E2B801C5010E9465094FEFB4018A
:102DD000C5010E9465095E0184E0A80EB11C48EAA5
:102DE000B801C5010E9465094AEBB601C5010E9400
:102DF00065094EE2B401C5010E9465095E0185E0E6
:102E0000A80EB11C4CEFB701C5010E9465094BEA41
:102E1000B801C5010E9465094AEBB601C5010E94CF
:102E200065094AE3B401C5010E9465095E0186E0B7
:102E3000A80EB11C4FE9B701C5010E94650949EB15
:102E4000B801C5010E9465094BE3B601C5010E94A6
:102E500065095E0187E0A80EB11C4FE5B701C50109
:102E60000E9465094DEFB801C5010E9465094FE355
:102E7000B601C5010E9465095E0188E0A80EB11C7B
:102E80004CE9B701C5010E94650949EBB801C501CC
:102E90000E9465094BEBB601C5010E9465094AEE27
:102EA000B401C5010E9465095E0189E0A80EB11C4C
:102EB00048EAB801C5010E9465094AEBB601C5019F
:102EC0000E9465094AEEB401C5010E9465095E01D0
:102ED0008AE0A80EB11C48E2B801C5010E9465094C
:102EE00040ECB401C5010E94650948E2B801CE0179
:102EF0000B960E9465095E018CE0A80EB11C4FE59F
:102F0000B701C5010E94650949E6B801C5010E94E3
:102F1000650945E5B601C5010E94650945EFB401A3
:102F2000C5010E9465095E018DE0A80EB11C4CE34D
:102F3000B701C5010E94650940EAB801C5010E94B8
:102F400065094CE3B401C5010E9465095E018EE08C
:102F5000A80EB11C40EFB701C5010E94650940E50C
:102F6000B801C5010E9465094FE0B401C5010E9486
:102F700065092F9640ECB701CE010E9465094FED1F
:102F8000B801CE010E9465094FEFB60187C38701E2
:102F90000C5F1F4F40E4B801CE010E946509670134
:102FA00088E0C80ED11C41E0B601CE010E9465093F
:102FB0005E018FEFA81AB80A40E4B801C5010E946B
:102FC000650941E0B601C5010E9465095E0182E024
:102FD000A80EB11C40ECB801C5010E94650943E090
:102FE000B601C5010E9465095E0183E0A80EB11C0F
:102FF00040EFB801C5010E94650947018CE0880EC9
:10300000911C4CEFB401C5010E9465095E0184E08A
:10301000A80EB11C40EFB801C5010E94650944E14A
:10302000B401C5010E9465095E0185E0A80EB11CCE
:1030300040EAB701C5010E94650942EFB801C50128
:103040000E94650945E1B401C5010E9465095E0160
:1030500086E0A80EB11C48EAB701C5010E946509C7
:103060004EEFB801C5010E9465094FE5B601C501E3
:103070000E94650945E0B401C5010E9465095E0131
:1030800087E0A80EB11C4AE5B701C5010E94650999
:103090004DEFB801C5010E9465094FE5B601C501B4
:1030A0000E94650941E0B401C5010E9465095E0105
:1030B00088E0A80EB11C4AEDB701C5010E94650960
:1030C0004DEFB801C5010E9465094FE5B601C50184
:1030D0000E9465095E0189E0A80EB11C4AE5B701AE
:1030E000C5010E9465094DEFB801C5010E9465093F
:1030F0004FE5B601C5010E9465095E018AE0A80E90
:10310000B11C4AEDB701C5010E9465094DEFB80138
:10311000C5010E9465094FE5B601C5010E94650918
:1031200045EDB401C5010E9465095E018BE0A80E62
:10313000B11C42E0B701C5010E94650940EFB8012A
:10314000C5010E94650940E4B601C5010E946509F8
:1031500045EDB401C5010E9465097E018CE0E80ED1
:10316000F11C40EFB801C7010E94650940ECB401B1
:10317000C7010E9465094CE3B801CE010D960E947B
:10318000650944E1B801CE010E960E94650944E14B
:10319000B801CE010F9688C267018CE0C80ED11C21
:1031A00040ECB601CE010E94650987010C5F1F4FFC
:1031B0005E018FEFA81AB80A40EFB801C5010E945E
:1031C0006509470188E0880E911C4FE5B401C501EF
:1031D0000E94650940EFB601C5010E9465095E01C4
:1031E00082E0A80EB11C43E0B701C5010E94650949
:1031F0004CEFB801C5010E9465094FE1B401C5015A
:103200000E9465094CEFB601C5010E9465095E0187
:1032100083E0A80EB11C4FE0B701C5010E9465090B
:103220004FE3B801C5010E9465094FEFB601C50122
:103230000E9465095E0184E0A80EB11C4FE3B7014E
:10324000C5010E9465094FEFB801C5010E946509DB
:103250004FEFB401C5010E9465094FEFB601C501EA
:103260000E9465095E0185E0A80EB11C4FEFB70111
:10327000C5010E9465094FEFB801C5010E946509AB
:103280004FEFB401C5010E9465094FEFB601C501BA
:103290000E9465095E0186E0A80EB11C4FE9B701E6
:1032A000C5010E9465094DEFB801C5010E9465097D
:1032B0004FEFB401C5010E9465094FEFB601C5018A
:1032C0000E9465095E0187E0A80EB11C4FE5B701B9
:1032D000C5010E9465094DEFB801C5010E9465094D
:1032E0004FEFB401C5010E9465094FEFB601C5015A
:1032F0000E9465095E0188E0A80EB11C4CE9B70187
:10330000C5010E9465094DEFB801C5010E9465091C
:103310004FEFB401C5010E9465094FEFB601C50129
:103320000E9465095E0189E0A80EB11C4CEFB8014E
:10333000C5010E9465094FEFB401C5010E946509EE
:103340004FEFB601C5010E9465094CEFB801CE01EF
:103350000A960E9465094CE3B801CE010B960E94C3
:1033600065094CE3B801CE010C960E9465095E0127
:103370008DE0A80EB11C4FEBB701C5010E94650995
:1033800040EFB801C5010E94650948EAB401C501D2
:103390000E94650940EAB601C5010E9465095E0107
:1033A0008EE0A80EB11C47EBB701C5010E9465096C
:1033B0004AE5B801C5010E9465094AEAB401C501A0
:1033C0000E9465094AEAB601C5010E9465092F9667
:1033D0004FE3B701CE010E9465094AE9B801CE0169
:1033E0000E9465094AE8B401CE010E9465094AE0DD
:1033F000B60159C18701085F1F4F42E0B801CE01F5
:103400000E946509670184E0C80ED11C5E018FEF40
:10341000A81AB80A40EFB601C5010E9465094BE041
:10342000B801C5010E94650947018CE0880E911C16
:1034300042E0B401C5010E9465095E0182E0A80E68
:10344000B11C4CEFB601C5010E9465094FEBB801F4
:10345000C5010E94650940EFB401C5010E946509DC
:103460005E0183E0A80EB11C4FE3B601C5010E94C6
:10347000650940EAB801C5010E9465094DEFB40134
:10348000C5010E9465095E0184E0A80EB11C43E0FD
:10349000B701C5010E9465094FEFB601C5010E9441
:1034A00065094BE7B801C5010E94650945E3B40110
:1034B000C5010E9465095E0185E0A80EB11C4FEFB1
:1034C000B701C5010E9465094AEFB601C5010E9416
:1034D00065094FEFB801C5010E94650945E1B401D6
:1034E000C5010E9465095E0186E0A80EB11C4FEF80
:1034F000B701C5010E94650947EAB601C5010E94EE
:1035000065094EEFB801C5010E94650944E5B401A3
:10351000C5010E9465095E0187E0A80EB11C4FED50
:10352000B701C5010E94650947E5B601C5010E94C2
:1035300065094EEFB801C5010E94650943E5B40174
:10354000C5010E9465095E0188E0A80EB11C4CE52A
:10355000B701C5010E94650947E5B601C5010E9492
:1035600065094DEFB801C5010E9465094FEFB4012F
:10357000C5010E9465095E0189E0A80EB11C4FEFEC
:10358000B601C5010E94650943E0B801C5010E946A
:1035900065094FEFB401C5010E9465095E018AE02B
:1035A000A80EB11C40ECB701C5010E9465094FEFA0
:1035B000B601C5010E9465094FEFB801C5010E941F
:1035C00065095E018BE0A80EB11C40EFB701C50193
:1035D0000E9465094AEAB601C5010E9465094AEAE6
:1035E000B801C5010E94650943E0B401C5010E940C
:1035F00065095E018CE0A80EB11C4CEAB701C5015B
:103600000E94650945E5B601C5010E94650945E9C5
:10361000B801C5010E9465094EE0B401C5010E94D0
:1036200065095E018DE0A80EB11C4CE6B701C5012D
:103630000E94650945E7B601C5010E94650945E597
:10364000B801C5010E9465094EE0B401C5010E94A0
:1036500065095E018EE0A80EB11C4CE6B701C501FC
:103660000E9465094DEFB601C5010E9465094FE54D
:10367000B801C5010E9465094EE0B401C5010E9470
:1036800065092F9640EFB701CE010E9465094FEF03
:10369000B601CE010E9465094FEFB801CE010E942C
:1036A000650943E0B401CE01DF91CF911F910F91E5
:1036B000FF90EF90DF90CF90BF90AF909F908F9052
:1036C0000C946509DF91CF911F910F91FF90EF90BE
:1036D000DF90CF90BF90AF909F908F900895CF9242
:1036E000DF92EF92FF920F931F93CF93DF938C01A2
:1036F000EB014CEF0E94650968018FEFC81AD80AE8
:103700004FEFBE01C6010E9465097E0184E0E80E0C
:10371000F11C43E0B701C6010E946509680182E01F
:10372000C80ED11C4FEFBE01C6010E9465094FE0D3
:10373000B701C6010E946509680183E0C80ED11C6B
:103740004CEFBE01C6010E9465094FE3B701C601F7
:103750000E946509680184E0C80ED11C40EFBE01DB
:10376000C6010E9465094FEFB701C6010E946509B5
:10377000680185E0C80ED11C4CEFBE01C6010E9455
:1037800065094FE3B701C6010E946509680186E03B
:10379000C80ED11C4FEFBE01C6010E9465094FE063
:1037A000B701C6010E946509680187E0C80ED11CF7
:1037B0004FEFBE01C6010E94650943E0B701C60193
:1037C0000E9465094CEFBE01C8010896DF91CF91B8
:1037D0001F910F91FF90EF90DF90CF900C946509AF
:1037E0008F929F92AF92BF92CF92DF92EF92FF9211
:1037F0000F931F93CF93DF9300D000D01F92CDB7CC
:10380000DEB749835A836B837C838D83EB80FC8096
:1038100009811A81A12CB12C670184E0C80ED11C4A
:103820008D8190E0A816B90608F0D4C04FEFB7011B
:10383000C8010E94650946E5B601C8010E946509F4
:1038400048018FEF881A980A4FEBB701C4010E9414
:10385000650946E5B601C4010E946509480182E098
:10386000880E911C4FEAB701C4010E94650945E525
:10387000B601C4010E946509480183E0880E911CCD
:103880004FE6B701C4010E94650945E5B601C401D0
:103890000E946509480184E0880E911C4FEAB70137
:1038A000C4010E94650945E5B601C4010E9465098D
:1038B000480185E0880E911C4FEBB701C4010E94BE
:1038C000650945E5B601C4010E946509480186E025
:1038D000880E911C4FEBB701C4010E94650946E5B3
:1038E000B601C4010E946509480187E0880E911C59
:1038F0004FEFB701C4010E9465094AE5B601C40152
:103900000E946509480188E0880E911C4FEFB701BD
:10391000C4010E94650946E5B601C4010E9465091B
:10392000480189E0880E911C4FEBB701C4010E9449
:10393000650946E5B601C4010E94650948018AE0AF
:10394000880E911C4FEBB701C4010E94650945E543
:10395000B601C4010E94650948018BE0880E911CE4
:103960004FE6B701C4010E94650945E5B601C401EF
:103970000E94650948018CE0880E911C4FE6B70152
:10398000C4010E94650945E5B601C4010E946509AC
:1039900048018DE0880E911C4FEAB701C4010E94D6
:1039A000650945E5B601C4010E94650948018EE03C
:1039B000880E911C4FEBB701C4010E94650946E5D2
:1039C000B601C4010E9465098FE0A80EB11C015F19
:1039D0001F4F26CF0F900F900F900F900F90DF91F9
:1039E000CF911F910F91FF90EF90DF90CF90BF90FC
:1039F000AF909F908F9008952F923F924F925F9239
:103A00006F927F928F929F92AF92BF92CF92DF92EE
:103A1000EF92FF920F931F93CF93DF93CDB7DEB753
:103A200027970FB6F894DEBF0FBECDBF49835A83E8
:103A30006B837C8319011F830E8349805A800B811D
:103A40001C81C12CD12C682E712CC80104967C01DC
:103A50005201A60CB71CA20EB31E8E819F81C81600
:103A6000D9068CF445018C0C9D1C40E0B801C401C2
:103A70000E94650940E0B701C4010E9465099FEFFB
:103A8000C91AD90AEACF420C531C4FEFB801C20140
:103A90000E94650946E5B701C2010E9465096201FD
:103AA0009FEFC91AD90A4FEBB801C6010E946509F8
:103AB00046E5B701C6010E946509620182E0C80EB1
:103AC000D11C4FEAB801C6010E94650945E5B7015E
:103AD000C6010E946509620193E0C90ED11C4FE640
:103AE000B801C6010E94650945E5B701C6010E94FB
:103AF0006509620184E0C80ED11C4FEAB801C60115
:103B00000E94650945E5B701C6010E946509620189
:103B100095E0C90ED11C4FEBB801C6010E946509A2
:103B200045E5B701C6010E946509620186E0C80E3D
:103B3000D11C4FEBB801C6010E94650946E5B701EB
:103B4000C6010E946509620197E0C90ED11C4FEFC2
:103B5000B801C6010E9465094AE5B701C6010E9485
:103B60006509620188E0C80ED11C4FEFB801C6019B
:103B70000E94650946E5B701C6010E946509620118
:103B800099E0C90ED11C4FEBB801C6010E9465092E
:103B900046E5B701C6010E94650962018AE0C80EC8
:103BA000D11C4FEBB801C6010E94650945E5B7017C
:103BB000C6010E94650962019BE0C90ED11C4FE657
:103BC000B801C6010E94650945E5B701C6010E941A
:103BD000650962018CE0C80ED11C4FE6B801C60130
:103BE0000E94650945E5B701C6010E9465096201A9
:103BF0009DE0C90ED11C4FEAB801C6010E946509BB
:103C000045E5B701C6010E94650962018EE0C80E54
:103C1000D11C4FEBB801C6010E94650946E5B7010A
:103C2000C6010E946509460C571C62019FE0C91A33
:103C3000D1084FEFB801C6010E94650946E5B701FA
:103C4000C6010E94650962018EE0C81AD1084FEBD7
:103C5000B801C6010E94650946E5B701C6010E9488
:103C6000650962019DE0C91AD1084FEAB801C60191
:103C70000E94650945E5B701C6010E946509620118
:103C80008CE0C81AD1084FE6B801C6010E94650948
:103C900045E5B701C6010E94650962019BE0C91AAA
:103CA000D1084FEAB801C6010E94650945E5B70190
:103CB000C6010E94650962018AE0C81AD1084FEB6B
:103CC000B801C6010E94650945E5B701C6010E9419
:103CD0006509620199E0C91AD1084FEBB801C60124
:103CE0000E94650946E5B701C6010E9465096201A7
:103CF00088E0C81AD1084FEFB801C6010E946509D3
:103D00004AE5B701C6010E946509620197E0C91A38
:103D1000D1084FEFB801C6010E94650946E5B70119
:103D2000C6010E946509620186E0C81AD1084FEBFE
:103D3000B801C6010E94650946E5B701C6010E94A7
:103D40006509620195E0C91AD1084FEBB801C601B7
:103D50000E94650945E5B701C6010E946509620137
:103D600084E0C81AD1084FE6B801C6010E9465096F
:103D700045E5B701C6010E946509620193E0C91AD1
:103D8000D1084FE6B801C6010E94650945E5B701B3
:103D9000C6010E946509620182E0C81AD1084FEA93
:103DA000B801C6010E94650945E5B701C6010E9438
:103DB000650991E0491A51084FEBB801C2010E9410
:103DC000650946E5B701C20127960FB6F894DEBF34
:103DD0000FBECDBFDF91CF911F910F91FF90EF905C
:103DE000DF90CF90BF90AF909F908F907F906F901B
:103DF0005F904F903F902F900C9465094F925F9287
:103E00006F927F928F929F92AF92BF92CF92DF92EA
:103E1000EF92FF920F931F93CF93DF932C013B01FF
:103E2000EA01790100E010E06C0188E0C80ED11CC5
:103E30005B0184E0A80EB11C0E151F0584F4460139
:103E4000800E911E40E0B301C4010E94650940E06C
:103E5000B501C4010E9465090F5F1F4FEDCFC3304C
:103E6000D10509F4E3C008F048C0C130D10509F418
:103E700090C0229709F00AC24CEFB301C2010E9420
:103E80006509E30124964FE3BE01C2010E94650962
:103E900082010F5F1F4F4FE7B301C8010E94650900
:103EA0004FEFBE01C8010E9465090F5F1F4F4FE72A
:103EB000B301C8010E94650945EFBE01C8010E9417
:103EC00065090F5F1F4F4FEFB301C8010E946509DD
:103ED00047EDBE01C8010E9465090F5F1F4F47E50E
:103EE000B301C8010E9465094FEDBE01C8010E94DF
:103EF00065090F5F1F4F47E7EBC0C830D10509F4D4
:103F0000F4C0C930D10509F44FC1279709F0BEC1EB
:103F100044EFB301C2010E946509E301249647E31F
:103F2000BE01C2010E94650982010F5F1F4F4DED66
:103F3000B301C8010E9465094DEDBE01C8010E9490
:103F400065090F5F1F4F47E5B301C8010E9465096E
:103F500045EFBE01C8010E9465090F5F1F4F4FEF7B
:103F6000B301C8010E94650947EFBE01C8010E9464
:103F700065090F5F1F4F4FEFB301C8010E9465092C
:103F800047EFBE01C8010E9465090F5F1F4F4FEF49
:103F90009FC044E7B301C2010E946509E301249672
:103FA00047E1BE01C2010E94650982010F5F1F4FF8
:103FB0004DEDB301C8010E94650945E5BE01C80188
:103FC0000E9465090F5F1F4F47E5B301C8010E94BA
:103FD000650945E5BE01C8010E9465090F5F1F4FD5
:103FE00047EDB301C8010E9465094FE7BE01C80152
:103FF0000E9465090F5F1F4F4DE7B301C8010E9482
:10400000650945E7BE01C8010E9465090F5F1F4FA2
:1040100045E5B301C8010E94650945E7BE01C80135
:104020000E9465090F5F1F4F4DEFABC044E7B3011E
:10403000C2010E946509E301249645E1BE01C20167
:104040000E94650982010F5F1F4F4DEDB301C8014A
:104050000E94650945E5BE01C8010E9465090F5F20
:104060001F4F4DEFB301C8010E9465094FE7BE0124
:10407000C8010E9465090F5F1F4F45E5B301C801E4
:104080000E94650945E7BE01C8010E9465090F5FEE
:104090001F4F45E5B301C8010E9465094FE5BE0108
:1040A000C8010E9465090F5F1F4F45EDB301C801AC
:1040B0000E94650945E5BE01C8010E9465090F5FC0
:1040C0001F4F4DE7B301C8010E94650945E5BDC01A
:1040D000B301C8010E9465094FEDBE01C8010E94ED
:1040E00065090F5F1F4F47E5ABC044E5B301C2014F
:1040F0000E946509E301249645E1BE01C2010E94C8
:10410000650982010F5F1F4F45E7B301C8010E9497
:10411000650945E5BE01C8010E9465090F5F1F4F93
:104120004DEDB301C8010E94650945E5BE01C80116
:104130000E9465090F5F1F4F4DEDB301C8010E943A
:10414000650945E5BE01C8010E9465090F5F1F4F63
:104150004DEDB301C8010E94650945E7BE01C801E4
:104160000E9465090F5F1F4F4DEDB301C8010E940A
:1041700065094DEDBE01C8010E9465090F5F1F4F23
:1041800047E5B301C8010E9465094FE7BE01C801B8
:104190000E94650987E0480E511C44E5B301C20145
:1041A0000E94650945E15EC04CEDB301C2010E9469
:1041B0006509E30124964FE3BE01C2010E9465092F
:1041C00082010F5F1F4F47E7B301C8010E946509D5
:1041D0004FEFBE01C8010E9465090F5F1F4F4FE5F9
:1041E000B301C8010E94650945EDBE01C8010E94E6
:1041F00065090F5F1F4F4FEFB301C8010E946509AA
:104200004FEDBE01C8010E9465090F5F1F4F4FEFC0
:10421000B301C8010E9465094FEDBE01C8010E94AB
:1042200065090F5F1F4F4FEFB301C8010E94650979
:104230004FEDBE01C8010E9465090F5F1F4F45E5A4
:10424000B301C8010E94650945EDBE01C8010E9485
:10425000650987E0480E511C4CEFB301C2010E9472
:1042600065094FE3BE01C201DF91CF911F910F910C
:10427000FF90EF90DF90CF90BF90AF909F908F9086
:104280007F906F905F904F900C946509DF91CF9174
:104290001F910F91FF90EF90DF90CF90BF90AF9064
:1042A0009F908F907F906F905F904F900895CF92E6
:1042B000DF92EF92FF920F931F93CF93DF93EC0166
:1042C0008B0140E00E946509780184E0E80EF11C52
:1042D00040E0B701CE010E9465096E018FEFC81A58
:1042E000D80A40E0B801C6010E94650940E0B70164
:1042F000C6010E9465096E0182E0C80ED11C40E033
:10430000B801C6010E94650940E0B701C6010E94DC
:1043100065096E0183E0C80ED11C40E0B801C601FA
:104320000E94650940E0B701C6010E9465096E015F
:1043300084E0C80ED11C40E0B801C6010E946509A6
:1043400040E0B701C6010E9465096E0185E0C80E14
:10435000D11C40E0B801C6010E94650940E0B701E8
:10436000C6010E9465096E0186E0C80ED11C40E0BE
:10437000B801C6010E94650940E0B701C6010E946C
:104380006509279640E0B801CE010E94650940E02A
:10439000B701CE01DF91CF911F910F91FF90EF9068
:1043A000DF90CF900C946509EF92FF920F931F93CB
:1043B000CF93DF934CE060E270E082E190E00E94F6
:1043C000650943E060E270E083E190E00E946509E6
:1043D00043E060E270E084E190E00E94650943E020
:1043E00060E270E085E190E00E9465094CE368E2DC
:1043F00070E085E190E00E94650940EC6CE170E0BE
:1044000086E190E00E94650943E060E270E086E1A9
:1044100090E00E94650940EC64E270E086E190E083
:104420000E9465094FE068E270E086E190E00E943A
:1044300065094FE060E370E086E190E00E94650965
:104440004CEF64E370E086E190E00E9465094FEF75
:1044500068E370E086E190E00E94650940EC6CE161
:1044600070E087E190E00E94650940EF64E270E04F
:1044700087E190E00E94650943E068E270E087E12F
:1044800090E00E9465094CEF6CE270E087E190E0FB
:104490000E946509C4E3D0E04FEFBE0187E190E0E0
:1044A0000E9465092496C034D105B1F740EF6CE154
:1044B00070E088E190E00E9465094FEF64E270E0EF
:1044C00088E190E00E94650940EF68E270E088E1D1
:1044D00090E00E9465094FE06CE270E088E190E0B6
:1044E0000E9465094CEF68E370E088E190E00E946B
:1044F00065094FEF6CE370E088E190E00E94650988
:104500004FE360E470E088E190E00E94650940EFCD
:104510006CE170E089E190E00E94650940EC60E2A6
:1045200070E089E190E00E9465094FE364E270E089
:1045300089E190E00E9465094FE368E270E089E15B
:1045400090E00E9465094FE060E370E089E190E04F
:104550000E9465094CEF60E470E089E190E00E9400
:10456000650943E064E470E089E190E00E94650938
:1045700040EF6CE170E08AE190E00E94650940EC58
:1045800060E270E08AE190E00E9465094FEF64E22A
:1045900070E08AE190E00E9465094FE068E270E017
:1045A0008AE190E00E94650940EF6CE270E08AE1E8
:1045B00090E00E9465094FEC60E370E08AE190E0D2
:1045C0000E94650904E310E04FEFB8018AE190E032
:1045D0000E9465090C5F1F4F00341105A9F74FE3D6
:1045E00060E470E08AE190E00E9465094FE364E4D2
:1045F00070E08AE190E00E94650940EF6CE170E0B4
:104600008BE190E00E94650940EF60E270E08BE191
:1046100090E00E9465094FEF64E270E08BE190E06A
:104620000E94650940E368E270E08BE190E00E943F
:104630006509CCE2D0E04FEFBE018BE190E00E9433
:1046400065092496C834D105B1F740EF6CE170E0FC
:104650008CE190E00E9465094CEF60E270E08CE133
:1046600090E00E9465094FE364E270E08CE190E025
:104670000E9465094CEF68E270E08CE190E00E94D6
:104680006509CCE2D0E04FEFBE018CE190E00E94E2
:1046900065092496C834D105B1F74FE068E470E0AD
:1046A0008CE190E00E9465094CEF6CE170E08DE1D7
:1046B00090E00E9465094CEF60E270E08DE190E0CF
:1046C0000E9465094FEC64E270E08DE190E00E9489
:1046D0006509C8E2D0E04FEFBE018DE190E00E9495
:1046E00065092496C434D105B1F74FE364E470E062
:1046F0008DE190E00E9465094FE368E470E08DE190
:1047000090E00E9465094CEF6CE170E08EE190E072
:104710000E9465094FEF60E270E08EE190E00E9438
:10472000650943EF64E270E08EE190E00E94650964
:1047300088E2E82EF12C4FEFB7018EE190E00E9465
:10474000650984E0E80EF11C88E4E816F10499F7A5
:1047500040EF68E470E08EE190E00E9465094CEF64
:104760006CE170E08FE190E00E946509B0E2EB2E11
:10477000F12C4FEFB7018FE190E00E94650984E0D2
:10478000E80EF11C88E4E816F10499F743EC68E4BC
:1047900070E08FE190E00E94650943E06CE470E016
:1047A0008FE190E00E94650940E364E170E080E2FF
:1047B00090E00E94650943E068E470E080E290E0E8
:1047C0000E9465094CE06CE470E080E290E00E9499
:1047D000650940E364E170E081E290E00E946509D0
:1047E000ACE1EA2EF12C4FEFB70181E290E00E949C
:1047F000650984E0E80EF11C88E4E816F10499F7F5
:104800004FE068E470E081E290E00E94650940E3D7
:104810006CE470E081E290E00E9465094CE064E1A4
:1048200070E082E290E00E94650940EC68E170E08F
:1048300082E290E00E9465094FEC6CE170E082E258
:1048400090E00E946509F0E2EF2EF12C4FEFB701E6
:1048500082E290E00E94650984E0E80EF11C88E4A1
:10486000E816F10499F74FE368E470E082E290E023
:104870000E9465094CE064E170E083E290E00E94F0
:10488000650940EF68E170E083E290E00E9465090D
:1048900043EF6CE170E083E290E00E946509E0E2A2
:1048A000EE2EF12C4FEFB70183E290E00E946509F4
:1048B00084E0E80EF11C88E4E816F10499F74FE370
:1048C00068E470E083E290E00E9465094FE064E1F3
:1048D00070E084E290E00E94650940EF68E170E0DA
:1048E00084E290E00E9465094CEF6CE170E084E2A4
:1048F00090E00E94650970E2E72EF12C4FEFB701BE
:1049000084E290E00E94650984E0E80EF11C8CE4EA
:10491000E816F10499F74FE064E170E085E290E079
:104920000E9465094CE368E170E085E290E00E9436
:1049300065096CE1E62EF12C4FEFB70185E290E0BE
:104940000E94650984E0E80EF11C8CE4E816F1048D
:1049500099F740EC60E170E086E290E00E94650922
:104960004FE064E170E086E290E00E9465094FE369
:1049700068E170E086E290E00E9465095CE1E52E66
:10498000F12C4FEFB70186E290E00E94650984E0C8
:10499000E80EF11C8CE4E816F10499F743E06CE4AE
:1049A00070E086E290E00E94650940EC60E170E012
:1049B00087E290E00E9465094FEF64E170E087E2D2
:1049C00090E00E9465094FEC68E170E087E290E0BA
:1049D0000E9465094CE1E42EF12C4FEFB70187E20C
:1049E00090E00E94650984E0E80EF11C8CE4E81672
:1049F000F10499F743E06CE470E087E290E00E94F4
:104A0000650940EC60E170E088E290E00E94650991
:104A10004FEF64E170E088E290E00E9465094FEC9E
:104A200068E170E088E290E00E9465093CE1E32ED5
:104A3000F12C4FEFB70188E290E00E94650984E015
:104A4000E80EF11C8CE4E816F10499F74FE06CE4F1
:104A500070E088E290E00E9465094CEF60E170E050
:104A600089E290E00E9465094FEF64E170E089E21D
:104A700090E00E94650943EC68E170E089E290E013
:104A80000E9465092CE1E22EF12C4FEFB70189E27B
:104A900090E00E94650984E0E80EF11C8CE4E816C1
:104AA000F10499F74FE06CE470E089E290E00E9435
:104AB00065094CEF60E170E08AE290E00E946509D0
:104AC0004FEF64E170E08AE290E00E94650943EFF5
:104AD00068E170E08AE290E00E9465099CE1E92EBD
:104AE000F12C4FEFB7018AE290E00E94650984E063
:104AF000E80EF11C8CE4E816F10499F74FE06CE441
:104B000070E08AE290E00E9465094CEF60E170E09D
:104B10008BE290E00E9465094FEF64E170E08BE268
:104B200090E00E9465094CEF68E170E08BE290E054
:104B30000E9465094FEF6CE170E08BE290E00E940B
:104B400065094FEF60E270E08BE290E00E9465093A
:104B50004FEF64E270E08BE290E00E9465094FEF56
:104B600068E270E08BE290E00E94650943E06CE24D
:104B700070E08BE290E00E9465094FE360E370E033
:104B80008BE290E00E94650940EF68E370E08BE201
:104B900090E00E9465094FEC6CE370E08BE290E0DE
:104BA0000E94650980E4E82EF12C4FEFB7018BE2FB
:104BB00090E00E94650984E0E80EF11C8CE4E816A0
:104BC000F10499F74FE36CE470E08BE290E00E940F
:104BD00065094CEF60E170E08CE290E00E946509AD
:104BE00043EF64E170E08CE290E00E9465094CEFD5
:104BF00068E170E08CE290E00E946509BCE1EB2E78
:104C0000F12C4FEFB7018CE290E00E94650984E03F
:104C1000E80EF11C8CE2E816F10499F740EF60E32E
:104C200070E08CE290E00E94650940EC68E370E07F
:104C30008CE290E00E946509ACE3EA2EF12C4FEF84
:104C4000B7018CE290E00E94650984E0E80EF11C57
:104C50008CE4E816F10499F74FE36CE470E08CE221
:104C600090E00E9465094CEF60E170E08DE290E019
:104C70000E94650943E364E170E08DE290E00E94E8
:104C80006509F8E1EF2EF12C4FEFB7018DE290E0CE
:104C90000E94650984E0E80EF11C8CE2E816F1043C
:104CA00099F740EC68E370E08DE290E00E946509BE
:104CB0004FE36CE370E08DE290E00E9465094CEFF9
:104CC00060E470E08DE290E00E946509E4E4EE2E7D
:104CD000F12C4FEFB7018DE290E00E94650984E06E
:104CE000E80EF11C80E5E816F10499F74CEF60E15D
:104CF00070E08EE290E00E94650943E364E170E0B9
:104D00008EE290E00E94650978E1E72EF12C4FEFEA
:104D1000B7018EE290E00E94650984E0E80EF11C84
:104D200088E2E816F10499F74FE368E270E08EE25A
:104D300090E00E9465094FE36CE370E08EE290E042
:104D40000E9465094CEF60E470E08EE290E00E9402
:104D5000650964E4E62EF12C4FEFB7018EE290E096
:104D60000E94650984E0E80EF11C80E5E816F10474
:104D700099F740EF60E170E08FE290E00E946509F2
:104D800043E064E170E08FE290E00E94650958E141
:104D9000E52EF12C4FEFB7018FE290E00E946509FC
:104DA00084E0E80EF11C88E2E816F10499F74FE37D
:104DB00068E270E08FE290E00E9465094FE36CE3E7
:104DC00070E08FE290E00E94650940EF60E470E0DF
:104DD0008FE290E00E94650944E4E42EF12C4FEF4D
:104DE000B7018FE290E00E94650984E0E80EF11CB3
:104DF00080E5E816F10499F743E060E570E08FE2A2
:104E000090E00E94650940EF60E170E080E390E08F
:104E10000E94650943EC64E170E080E390E00E9449
:104E2000650938E1E32EF12C4FEFB70180E390E004
:104E30000E94650984E0E80EF11C8CE2E816F1049A
:104E400099F74FE36CE370E080E390E00E9465091E
:104E500043E060E470E080E390E00E9465094CEF7D
:104E600064E470E080E390E00E9465094FEF68E43D
:104E700070E080E390E00E9465094FEF6CE470E021
:104E800080E390E00E94650943E060E570E080E324
:104E900090E00E9465094CEC60E170E081E390E0F5
:104EA0000E94650943EC64E170E081E390E00E94B8
:104EB000650928E1E22EF12C4FEFB70181E390E084
:104EC0000E94650984E0E80EF11C8CE2E816F1040A
:104ED00099F74EE36CE370E081E390E00E9465098E
:104EE00043E060E470E081E390E00E94650994E4AF
:104EF000E92EF12C4FEFB70181E390E00E946509A4
:104F000084E0E80EF11C80E5E816F10499F74FE023
:104F100060E570E081E390E00E9465094CEF60E19C
:104F200070E082E390E00E94650943EC64E170E088
:104F300082E390E00E94650988E1E82EF12C4FEFB2
:104F4000B70182E390E00E94650984E0E80EF11C5D
:104F500084E2E816F10499F74FEC64E270E082E332
:104F600090E00E9465094FEF68E270E082E390E014
:104F70000E9465094CEF6CE370E082E390E00E94D0
:104F8000650943E160E470E082E390E00E94650916
:104F9000B4E4EB2EF12C4FEFB70182E390E00E94D6
:104FA000650984E0E80EF11C80E5E816F10499F744
:104FB0004FE060E570E082E390E00E94650940EF19
:104FC00060E170E083E390E00E94650940EC64E1F9
:104FD00070E083E390E00E946509A8E1EA2EF12CDD
:104FE0004FEFB70183E390E00E94650984E0E80E8B
:104FF000F11C84E2E816F10499F74FEC64E270E0EA
:1050000083E390E00E9465094FEF68E270E083E37C
:1050100090E00E9465094CEF6CE370E083E390E060
:105020000E94650943E360E470E083E390E00E943E
:105030006509F4E4EF2EF12C4FEFB70183E390E024
:105040000E94650984E0E80EF11C80E5E816F10491
:1050500099F74FE360E570E083E390E00E94650913
:105060004FEF60E170E084E390E00E9465094FEC4F
:1050700064E170E084E390E00E9465094FEF68E12D
:1050800070E084E390E00E9465094FEF6CE170E00E
:1050900084E390E00E9465094FEC60E270E084E3F5
:1050A00090E00E94650943EF64E270E084E390E0E1
:1050B0000E94650943EF68E270E084E390E00E949B
:1050C00065094CEF6CE370E084E390E00E946509B1
:1050D00043E360E470E084E390E00E946509E4E467
:1050E000EE2EF12C4FEFB70184E390E00E946509AA
:1050F00084E0E80EF11C80E5E816F10499F74FE32F
:1051000060E570E084E390E00E9465094CEF60E1A7
:1051100070E085E390E00E94650943EC64E170E093
:1051200085E390E00E9465094FEF68E170E085E358
:1051300090E00E9465094FEF6CE170E085E390E03C
:105140000E94650943EF60E270E085E390E00E9411
:10515000650940E364E270E085E390E00E94650940
:105160004CEF68E270E085E390E00E94650940EF53
:105170006CE370E085E390E00E9465094FE360E432
:1051800070E085E390E00E94650974E4E72EF12C5D
:105190004FEFB70185E390E00E94650984E0E80ED7
:1051A000F11C84E5E816F10499F740EF60E170E046
:1051B00086E390E00E94650943EC64E170E086E3D9
:1051C00090E00E9465094FEF68E170E086E390E0AF
:1051D0000E9465094FEF6CE170E086E390E00E9469
:1051E000650943E360E270E086E390E00E946509B0
:1051F0004FEF68E270E086E390E00E94650943E0CB
:105200006CE270E086E390E00E94650940EF6CE399
:1052100070E086E390E00E9465094FE360E470E08F
:1052200086E390E00E94650964E4E62EF12C4FEFDE
:10523000B70186E390E00E94650984E0E80EF11C66
:1052400084E5E816F10499F743E064E570E086E34D
:1052500090E00E94650940E36CE070E087E390E035
:105260000E94650940EC60E170E087E390E00E94F5
:1052700065094FEC64E170E087E390E00E94650906
:105280004FEF68E170E087E390E00E9465094FEF1F
:105290006CE170E087E390E00E94650940EC60E219
:1052A00070E087E390E00E94650943EF64E270E0FC
:1052B00087E390E00E9465094FEF68E270E087E3C2
:1052C00090E00E94650943E06CE270E087E390E0C3
:1052D0000E94650940EC6CE370E087E390E00E9477
:1052E00065094FE360E470E087E390E00E946509A0
:1052F00054E4E52EF12C4FEFB70187E390E00E94D4
:10530000650984E0E80EF11C84E5E816F10499F7DC
:105310004FE064E570E087E390E00E94650940ECAF
:105320006CE070E088E390E00E94650940EC60E189
:1053300070E088E390E00E9465094FEC64E170E062
:1053400088E390E00E94650948E1E42EF12C4FEFDC
:10535000B70188E390E00E94650984E0E80EF11C43
:105360008CE2E816F10499F74FE06CE270E088E314
:1053700090E00E94650940EC6CE370E088E390E007
:105380000E9465094FE360E470E088E390E00E94CA
:10539000650934E4E32EF12C4FEFB70188E390E088
:1053A0000E94650984E0E80EF11C84E5E816F1042A
:1053B00099F74FE364E570E088E390E00E946509A7
:1053C00040EC6CE070E089E390E00E94650943E006
:1053D00060E170E089E390E00E94650924E1E22E3B
:1053E000F12C4FEFB70189E390E00E94650984E05A
:1053F000E80EF11C8CE2E816F10499F74FE36CE239
:1054000070E089E390E00E94650940E46CE370E09D
:1054100089E390E00E9465094FE760E470E089E36A
:1054200090E00E94650994E4E92EF12C4FEFB7015A
:1054300089E390E00E94650984E0E80EF11C88E5AC
:10544000E816F10499F743E068E570E089E390E03D
:105450000E94650980E1E82EF12C4FEFB7018AE345
:1054600090E00E94650984E0E80EF11C80E3E816F4
:10547000F10499F743E060E370E08AE390E00E9472
:1054800065094FEFB8018AE390E00E9465090C5F5F
:105490001F4F00351105A9F743E060E570E08AE38E
:1054A00090E00E9465094FEF64E570E08AE390E0C8
:1054B0000E9465094FE068E570E08AE390E00E9491
:1054C00065094FE364E070E08BE390E00E946509BA
:1054D0004CEF60E170E08BE390E00E94650904E12D
:1054E00010E04FEFB8018BE390E00E9465090C5F7C
:1054F0001F4F00331105A9F74FE060E370E08BE325
:1055000090E00E9465094DEF60E470E08BE390E06D
:105510000E9465094DEF64E470E08BE390E00E9427
:1055200065094FEF68E470E08BE390E00E94650945
:105530004FEF6CE470E08BE390E00E94650943E07C
:1055400060E570E08BE390E00E94650940EC64E563
:1055500070E08BE390E00E9465094FEF68E570E032
:105560008BE390E00E9465094FEF64E070E08CE30C
:1055700090E00E94650943E068E070E08CE390E011
:105580000E94650940EF60E170E08CE390E00E94CA
:10559000650904E110E04FEFB8018CE390E00E9450
:1055A00065090C5F1F4F00331105A9F74FE360E356
:1055B00070E08CE390E00E9465094CEF60E470E0DD
:1055C0008CE390E00E9465094CEF64E470E08CE3AA
:1055D00090E00E9465094FEF68E470E08CE390E092
:1055E0000E9465094FEF6CE470E08CE390E00E944C
:1055F00065094FE060E570E08CE390E00E9465098A
:1056000040EF68E570E08CE390E00E9465094FE3AD
:105610006CE570E08CE390E00E94650940EF64E087
:1056200070E08DE390E00E9465094FE368E070E070
:105630008DE390E00E94650904E110E04FEFB801AE
:105640008DE390E00E9465090C5F1F4F0433110544
:10565000A9F740E868E370E08DE390E00E946509F7
:1056600040EF60E470E08DE390E00E9465094FEF49
:10567000BE018DE390E00E9465092496C435D105F2
:10568000B1F740EF6CE570E08DE390E00E946509B2
:105690004FEF60E670E08DE390E00E9465094FEF08
:1056A00068E070E08EE390E00E94650943E06CE002
:1056B00070E08EE390E00E946509C5E04FEF64E181
:1056C00070E08EE390E00E946509C150B9F740E8B0
:1056D00068E270E08EE390E00E9465094AE06CE2C7
:1056E00070E08EE390E00E9465094FEF60E370E0A8
:1056F0008EE390E00E94650943E064E370E08EE38E
:1057000090E00E94650940E868E370E08EE390E075
:105710000E94650940EF60E470E08EE390E00E9433
:1057200065094FEF64E470E08EE390E00E94650944
:105730004FEF68E470E08EE390E00E9465094FE06F
:105740006CE470E08EE390E00E94650940EF68E051
:1057500070E08FE390E00E9465094FE36CE070E039
:105760008FE390E00E9465094CEF64E170E08FE305
:1057700090E00E946509C8E1D0E04FEFBE018FE3E1
:1057800090E00E9465092496C432D105B1F74FE339
:1057900064E270E08FE390E00E9465094AE26CE207
:1057A00070E08FE390E00E9465094CEF60E370E0E9
:1057B0008FE390E00E9465094FE364E370E08FE3BC
:1057C00090E00E9465094CEB68E370E08FE390E0A5
:1057D0000E94650948E06CE370E08FE390E00E946E
:1057E000650940EC60E470E08FE390E00E94650999
:1057F0004FEF64E470E08FE390E00E9465094FEFA3
:1058000068E470E08FE390E00E9465094FE06CE48B
:1058100070E08FE390E00E946509CCE0D0E04FEFAC
:10582000BE0180E490E00E9465092496C432D1054F
:10583000B1F74FE364E270E080E490E00E94650914
:1058400048E26CE270E080E490E00E94650940EF7D
:1058500060E370E080E490E00E9465094FEF64E34C
:1058600070E080E490E00E9465094FE368E370E037
:1058700080E490E00E94650948E06CE370E080E419
:1058800090E00E94650940EC60E470E080E490E004
:105890000E9465094FEF64E470E080E490E00E94AC
:1058A000650943EF68E470E080E490E00E946509D8
:1058B0004FE36CE470E080E490E00E9465094CEFF7
:1058C0006CE070E081E490E00E946509C0E1D0E006
:1058D0004FEFBE0181E490E00E9465092496C43236
:1058E000D105B1F74FE364E270E081E490E00E94FB
:1058F000650948E26CE270E081E490E00E9465098D
:1059000040EC60E370E081E490E00E9465094FEFB5
:1059100064E370E081E490E00E9465094FEF68E382
:1059200070E081E490E00E94650942E06CE370E081
:1059300081E490E00E9465094FEF64E470E081E447
:1059400090E00E94650943EC68E470E081E490E037
:105950000E9465094FE06CE470E081E490E00E94F1
:10596000650940EC60E170E082E490E00E94650926
:10597000C4E1D0E04FEFBE0182E490E00E946509EF
:105980002496C432D105B1F74FE364E270E082E4BB
:1059900090E00E94650940E26CE270E082E490E0F1
:1059A0000E9465094FEF64E370E082E490E00E949A
:1059B00065094FEF68E370E082E490E00E946509BA
:1059C00043E26CE370E082E490E00E9465094CEFF2
:1059D00064E470E082E490E00E9465094FE068E4CE
:1059E00070E082E490E00E9465094FEF68E170E0AA
:1059F00083E490E00E9465094FEF6CE170E083E47E
:105A000090E00E94650940EF60E270E083E490E07E
:105A10000E9465094FEF64E270E083E490E00E9429
:105A2000650940EA6CE270E083E490E00E94650959
:105A30004CEF64E370E083E490E00E9465094FEF6F
:105A400068E370E083E490E00E94650948E26CE35B
:105A500070E083E490E00E94650940EF64E470E048
:105A600083E490E00E9465094FE068E470E083E41D
:105A700090E00E9465094CEF64E170E084E490E0FE
:105A80000E9465094FEF68E170E084E490E00E94B5
:105A900065094FEF6CE170E084E490E00E946509D5
:105AA00040EC60E270E084E490E00E9465094FEF12
:105AB00064E270E084E490E00E94650940EA6CE2F0
:105AC00070E084E490E00E94650942E060E370E0E9
:105AD00084E490E00E94650940EF64E370E084E4B0
