:100000000C9462000C947F000C947F000C947F0091
:100010000C947F000C947F000C947F000C94170AC2
:100020000C947F000C947F000C947F000C947F0054
:100030000C947F000C947F000C947F000C947F0044
:100040000C947F000C947F000C947F000C947F0034
:100050000C947F000C947F000C947F000C947F0024
:100060000C947F000C947F0052126F126F12D20B0F
:10007000ED0B1A0C480C630C920CC10CF50C210D05
:10008000500D6F126F126F126F126F126F126F128C
:100090007F0DBC0DF80D3A0E470E830EBC0EF90E07
:1000A000120F330F610F8F0FB10FD00FEE0F2A1009
:1000B0006610A810E510211146116B118A11B411B8
:1000C000EE110E1211241FBECFEFD8E0DEBFCDBF60
:1000D00011E0A0E0B1E0EAEEF9E202C005900D9275
:1000E000AE38B107D9F721E0AEE8B1E001C01D920A
:1000F000A93BB207E1F70E9473130C94F3140C941C
:100100000000CF93DF9300D000D01F92CDB7DEB7B1
:1001100025E0829FC0011124FC01EA55FE4F85E0D5
:10012000DE01119601900D928A95E1F729813A81BD
:100130004B815C816D8170E080E090E00F900F90CA
:100140000F900F900F90DF91CF910895CF92DF9293
:10015000EF92FF920F931F93CF93DF938C01EB01EC
:100160004CEF0E94530B68018FEFC81AD80A4FEF6B
:10017000BE01C6010E94530B7E0184E0E80EF11C13
:1001800043E0B701C6010E94530B680182E0C80E2C
:10019000D11C4FEFBE01C6010E94530B4FE0B701C7
:1001A000C6010E94530B680183E0C80ED11C4CEFBE
:1001B000BE01C6010E94530B4FE3B701C6010E9466
:1001C000530B680184E0C80ED11C40EFBE01C6018C
:1001D0000E94530B4FEFB701C6010E94530B6801F9
:1001E00085E0C80ED11C4CEFBE01C6010E94530B26
:1001F0004FE3B701C6010E94530B680186E0C80EA9
:10020000D11C4FEFBE01C6010E94530B4FE0B70156
:10021000C6010E94530B680187E0C80ED11C4FEF46
:10022000BE01C6010E94530B43E0B701C6010E9404
:10023000530B4CEFBE01C8010896DF91CF911F917F
:100240000F91FF90EF90DF90CF900C94530BCF92D3
:10025000DF92EF92FF920F931F93CF93DF93EC0106
:100260008B014FEF0E94530B780184E0E80EF11CE4
:1002700046E5B701CE010E94530B6E018FEFC81AFD
:10028000D80A4FEBB801C6010E94530B46E5B701EF
:10029000C6010E94530B6E0182E0C80ED11C4FEACA
:1002A000B801C6010E94530B45E5B701C6010E9483
:1002B000530B6E0183E0C80ED11C4FE6B801C60196
:1002C0000E94530B45E5B701C6010E94530B6E0116
:1002D00084E0C80ED11C4FEAB801C6010E94530B3E
:1002E00045E5B701C6010E94530B6E0185E0C80EBB
:1002F000D11C4FEBB801C6010E94530B46E5B70174
:10030000C6010E94530B6E0186E0C80ED11C4FEF50
:10031000B801C6010E94530B4AE6B701C6010E940C
:10032000530B6E0187E0C80ED11C4FEFB801C60118
:100330000E94530B4FE6B701C6010E94530B6E019A
:1003400088E0C80ED11C4FEFB801C6010E94530BC4
:100350004BE6B701C6010E94530B6E0189E0C80E3F
:10036000D11C4FEFB801C6010E94530B4AE5B701FB
:10037000C6010E94530B6E018AE0C80ED11C4FEBE0
:10038000B801C6010E94530B46E5B701C6010E94A1
:10039000530B6E018BE0C80ED11C4FEAB801C601A9
:1003A0000E94530B45E5B701C6010E94530B6E0135
:1003B0008CE0C80ED11C4FE6B801C6010E94530B59
:1003C00045E5B701C6010E94530B6E018DE0C80ED2
:1003D000D11C4FEAB801C6010E94530B45E5B70195
:1003E000C6010E94530B2E964FEBB801CE010E941E
:1003F000530B46E5B701CE01DF91CF911F910F91CD
:10040000FF90EF90DF90CF900C94530BBF92CF9260
:10041000DF92EF92FF920F931F93CF93DF93B62E4D
:1004200086958695082F10E0C5E089E190E06C0183
:10043000C01AD10A85E7B81216C0D0E040E06D2F8F
:100440008C2F0E942B0BDF5FD931C1F7CF5FCD30EE
:1004500089F7DF91CF911F910F91FF90EF90DF907F
:10046000CF90BF90089584E6B812F0CF7801EC14D5
:10047000FD0464F740E06E2D8C2F0E942B0B8FEF54
:10048000E81AF80AF4CF2F923F924F925F926F9240
:100490007F928F929F92AF92BF92CF92DF92EF9214
:1004A000FF920F931F93CF93DF9300D000D0CDB76F
:1004B000DEB76417750709F41EC18B019C838B831B
:1004C00060910501709106016C5F7F4F40E00E94D2
:1004D000530B609105017091060140E08B819C8176
:1004E0000E94530B6091050170910601AB80BC80A6
:1004F0008FEFA81AB80A6C5F7F4F40E0C5010E94D9
:10050000530B609105017091060140E0C5010E9406
:10051000530B6091050170910601CB80DC8092E065
:10052000C90ED11C6C5F7F4F40E0C6010E94530B87
:10053000609105017091060140E0C6010E94530BD5
:1005400060910501709106018B809C8083E0880E8C
:10055000911C6C5F7F4F40E0C4010E94530B60917F
:1005600005017091060140E0C4010E94530B6091A7
:100570000501709106016B807C8094E0690E711C0E
:100580006C5F7F4F40E0C3010E94530B60910501F7
:100590007091060140E0C3010E94530B6091050178
:1005A000709106014B805C8085E0480E511C6C5FA9
:1005B0007F4F40E0C2010E94530B60910501709192
:1005C000060140E0C2010E94530B60910501709149
:1005D00006012B803C8096E0290E311C6C5F7F4F1A
:1005E00040E0C1010E94530B60910501709106012A
:1005F00040E0C1010E94530B60910501709106011A
:100600008B819C8107969A83898340E00E94530BDB
:1006100060910501709106016C5F7F4F40E0898118
:100620009A810E94530B780194E0E90EF11C48EF87
:10063000B7018B819C810E94530B42E0B801C50138
:100640000E94530B42E0B701C5010E94530B4AEAD6
:10065000B801C6010E94530B4EEAB701C6010E94C1
:10066000530B4AE7B801C4010E94530B4EE2B70195
:10067000C4010E94530B4AE5B801C3010E94530B09
:100680004EE2B701C3010E94530B48E7B801C20113
:100690000E94530B4EEAB701C2010E94530B43E084
:1006A000B801C1010E94530B42ECB701C1010E9485
:1006B000530B4CEFB80189819A810E94530B4DE393
:1006C000B70189819A810F900F900F900F90DF9161
:1006D000CF911F910F91FF90EF90DF90CF90BF903F
:1006E000AF909F908F907F906F905F904F903F90D2
:1006F0002F900C94530B0F900F900F900F90DF9151
:10070000CF911F910F91FF90EF90DF90CF90BF900E
:10071000AF909F908F907F906F905F904F903F90A1
:100720002F900895CF93DF9390E041E050E820E0D0
:1007300085E0E6EAF1E0608171813481EB01C30F6D
:10074000D11DDA01A20FB11DAC17BD071CF4232F78
:10075000AB01892F35969F5F933069F7DF91CF9179
:100760000895CF93DF9390E04FEF5FE720E085E0BF
:10077000E6EAF1E0608171813481EB01C30FD11DA4
:10078000DA01A20FB11DCA17DB071CF4232FAB013E
:10079000892F35969F5F933069F7DF91CF91089548
:1007A0000F931F93CF93DF9304E610E0C0E0D0E0F7
:1007B0008091040190E0C817D9074CF464E070E020
:1007C000C8010E94A6002196085F1F4FF1CFDF915C
:1007D000CF911F910F91089585E0E5E1F1E0A6EA40
:1007E000B1E001900D928A95E1F785E0EAE1F1E050
:1007F000ABEAB1E001900D928A95E1F785E0EFE177
:10080000F1E0A0EBB1E001900D928A95E1F7089537
:10081000EF92FF920F931F93CF93DF937B01EC0135
:100820008C01040F111DC017D10734F4B701CE019C
:100830000E9427012F96F7CFDF91CF911F910F9143
:10084000FF90EF900895AF92BF92CF92DF92EF9218
:10085000FF920F931F93CF93DF936C018B01EC01F9
:10086000C40FD11D5E018FEFA81AB80A40E0C50180
:100870000E94530B780184E0E80EF11C40E0B701C0
:10088000C5010E94530B5E0182E0A80EB11C40E03E
:10089000B801C5010E94530B40E0B701C5010E9499
:1008A000530B5E0183E0A80EB11C40E0B801C50106
:1008B0000E94530B40E0B701C5010E94530B5E013B
:1008C00084E0A80EB11C40E0B801C5010E94530BA2
:1008D00040E0B701C5010E94530B5E0185E0A80E00
:1008E000B11C40E0B801C5010E94530B40E0B701C4
:1008F000C5010E94530B5E0186E0A80EB11C40E0CA
:10090000B801C5010E94530B40E0B701C5010E9428
:10091000530B5E0187E0A80EB11C40E0B801C50191
:100920000E94530B40E0B701C5010E94530B5E01CA
:1009300088E0A80EB11C40E0B801C5010E94530B2D
:1009400040E0B701C5010E94530B5E0189E0A80E8B
:10095000B11C40E0B801C5010E94530B40E0B70153
:10096000C5010E94530B5E018AE0A80EB11C40E055
:10097000B801C5010E94530B40E0B701C5010E94B8
:10098000530B5E018BE0A80EB11C40E0B801C5011D
:100990000E94530B40E0B701C5010E94530B2C96F7
:1009A00040E0B801CE010E94530B40E0B701CE01F8
:1009B0000E94530BB801C601DF91CF911F910F9197
:1009C000FF90EF90DF90CF90BF90AF900C942701F5
:1009D000CF93DF93C6EAD1E020910A0130910B0159
:1009E0006A817B81888199814C81820F931F0E944B
:1009F0002304259681E0C53BD80771F7DF91CF919D
:100A00000895CF93DF93C6EAD1E020910A01309197
:100A10000B016A817B81888199814C81820F931FB0
:100A20000E940804259681E0C53BD80771F7DF9145
:100A3000CF910895FF920F931F93CF93DF93CDB77C
:100A4000DEB72A970FB6F894DEBF0FBECDBF4E8338
:100A50005F83688779878A870E946D1460E074E0FD
:100A60000E94C8138C01F090100165E170E00E94B3
:100A7000C813FC0134968A852E813F81280F311DD1
:100A8000C8016DE270E00E94C8134E96280F391F0E
:100A90003A832983AF01440F551F440F551F5C83D0
:100AA0004B836F2DFF0C770BC8010E94C8136FE0BA
:100AB000689F600D11243A815C8170E080E090E0D5
:100AC0002A960FB6F894DEBF0FBECDBFDF91CF914F
:100AD0001F910F91FF900895CF93DF9300D000D026
:100AE0001F92CDB7DEB729833A834B835C836D8336
:100AF000833068F495E0899FD0011124AA55BE4F38
:100B000085E0FE01319601900D928A95E1F70F90F4
:100B10000F900F900F900F90DF91CF9108951F933A
:100B2000CF93DF93CDB7DEB72F970FB6F894DEBF24
:100B30000FBECDBF0E94B103182F0E9481002B87EA
:100B40003C874D875E876F878091980190919901CE
:100B50002B853C85260F311D05972817390774F41E
:100B60000E9492030E948100942F752F862FA90165
:100B7000692F0E941A05812F0E946C052F960FB6CF
:100B8000F894DEBF0FBECDBFDF91CF911F910895C6
:100B90008091980190919901883B9B400CF44AC048
:100BA000F89420919801309199018091A60190913B
:100BB000A701821B930B9093A7018093A60120911C
:100BC0009801309199018091AB019091AC01821B09
:100BD000930B9093AC018093AB01209198013091DD
:100BE00099018091B0019091B101821B930B909378
:100BF000B1018093B00185E090E090930B01809368
:100C00000A01809110018150809310011092990186
:100C10001092980180910E0190910F01019690938E
:100C20000F0180930E0183E090E090930301809385
:100C30000201789408954FEF69E18FE90E942B0B30
:100C400080910801181684F481E090E090930301EC
:100C500080930201109297018CE08093A50180910E
:100C600008018150809308010895809107011816AA
:100C700084F482E090E0909303018093020188EF76
:100C8000809397011092A501809107018150809374
:100C900007010895AF92CF92EF92FF920F931F93A7
:100CA000F801EC0DF11D8E179F07A4F4840F911D20
:100CB000081719077CF4C7018A0D911D6817790779
:100CC0004CF4620F711D81E090E0E616F70624F007
:100CD00080E002C080E090E01F910F91FF90EF90C4
:100CE000CF90AF900895AF92CF92EF92FF920F9373
:100CF0001F93CF93DF93C6EAD1E060919A01709180
:100D00009B018091980190919901EA80FB80088174
:100D10001981685F7F4F28E0A22ECC8021E048E057
:100D20000E944A06009731F4259621E0C53BD20780
:100D300021F702C081E090E0DF91CF911F910F91E8
:100D4000FF90EF90CF90AF9008958F929F92AF92C7
:100D5000BF92CF92DF92EF92FF920F931F93CF93A8
:100D6000DF93D0908E0133E0B32E25E0D29EC001F8
:100D70001124FC01EA55FE4F4F01C281D3816091DD
:100D80009A0170919B018091980190919901008145
:100D9000118128E0A22EC4807E0128E048E00E9454
:100DA0004A06009709F470C0D0928E019092A40177
:100DB0008092A3011092970120919A0130919B019A
:100DC00080919A0190919B01285F3F4F2C1B3D0B16
:100DD00037FF03C03195219531098C1B9D0B089677
:100DE00097FF03C091958195910928173907BCF0A9
:100DF000109203011092020120919A0130919B01FF
:100E000080919A0190919B01C21BC8508C0F911D3B
:100E1000C7FD9A9590939B0180939A014AC02091B7
:100E20009A0130919B0180919A0190919B01285FDA
:100E30003F4F2C1B3D0B37FF03C0319521953109E6
:100E40008C1B9D0B089697FF03C091958195910986
:100E50008217930774F120919A0130919B01809140
:100E60009A0190919B01C21BC85F8C0F911DC7FD19
:100E70009A9590939B0180939A0183E090E09093E0
:100E800003018093020115C0D394F3E0FD1508F42B
:100E9000D12CBA94B11069CFD0928E019092A40156
:100EA0008092A30123E030E03093030120930201FC
:100EB00002C081E090E0DF91CF911F910F91FF90F0
:100EC000EF90DF90CF90BF90AF909F908F9008955C
:100ED000AF92BF92CF92DF92EF92FF920F931F9348
:100EE00080919A0190919B018E36910534F082E0B9
:100EF00090E0909301018093000180919A0190917C
:100F00009B01909306018093050180910A019091C5
:100F10000B0190930D0180930C010E948F050E949C
:100F2000C8058091020190910301892B79F482E038
:100F300080930701809308010E947306892B31F486
:100F400083E090E09093030180930201809102017D
:100F500090910301029711F40E94A5068091A501CA
:100F60004091020150910301181664F5413051057A
:100F700049F520910E0130910F018091A501821B4E
:100F80008093A50180910E0190910F01209198010D
:100F900030919901880F991F820F931F90939901A7
:100FA0008093980120910E0130910F0180910A01E8
:100FB00090910B01220F331F821B930B90930B0117
:100FC00080930A018091A501811105C0413051052E
:100FD00011F40E94A50680910201909103010397EC
:100FE000C9F42091970180919A0190919B01820F01
:100FF000911D27FD9A9590939B0180939A01809172
:10100000970185302CF4809197018F5F8093970131
:101010000E94A50640910E0150910F01A0908F01F2
:10102000B0909001C0909101D0909201E090930116
:10103000F09094010091950110919601952F990FD0
:10104000990B9A01492F592F692F792F892F0E94C7
:10105000041420938F013093900140939101509399
:101060009201609393017093940180939501909302
:10107000960120910E0130910F018091980190917D
:101080009901820F931F9093990180939801209169
:101090000E0130910F0180910A0190910B01821B8A
:1010A000930B90930B0180930A011F910F91FF9076
:1010B000EF90DF90CF90BF90AF900895809109019D
:1010C000803309F0E8C035990DC081E380930901B0
:1010D0000E943C0A60939C0170939D0180939E0145
:1010E00090939F0134991EC081E3809309010E946F
:1010F0003C0A60939C0170939D0180939E019093A4
:101100009F018091000190910101892B39F481E0C8
:1011100090E0909301018093000104C010920101BE
:10112000109200018091000190910101892B09F03A
:10113000B2C04A991BC081E3809309010E943C0A16
:1011400060939C0170939D0180939E0190939F01F9
:1011500020910E0130910F0180919A0190919B0195
:10116000821B930B90939B0180939A014B991BC018
:1011700081E3809309010E943C0A60939C01709373
:101180009D0180939E0190939F0120910E013091CB
:101190000F0180919A0190919B01820F931F909370
:1011A0009B0180939A014D9929C081E380930901A5
:1011B0000E943C0A60939C0170939D0180939E0164
:1011C00090939F0120910E0130910F018091980121
:1011D00090919901820F931F9093990180939801A8
:1011E00020910E0130910F0180910A0190910B0125
:1011F000821B930B90930B0180930A014C9929C099
:1012000081E3809309010E943C0A60939C017093E2
:101210009D0180939E0190939F0120910E0130913A
:101220000F018091980190919901821B930B9093EB
:1012300099018093980120910E0130910F018091C6
:101240000A0190910B01820F931F90930B018093E1
:101250000A014E990FC081E3809309010E9435066F
:101260000E943C0A60939C0170939D0180939E01B3
:1012700090939F014F990FC081E3809309010E94D1
:101280001B060E943C0A60939C0170939D01809311
:101290009E0190939F0108950E94D0030E94E8044C
:1012A000409105015091060160919A0170919B0156
:1012B00085E090E00C944302CF93DF93809104018A
:1012C00081508093040180910401811113C0109218
:1012D0008F01109290011092910110929201109240
:1012E000930110929401109295011092960183E05F
:1012F0008093040182E090E090930F0180930E01AF
:101300000E94070B0E94EC030E94D00385E090E04E
:1013100090930B0180930A010E940105C1E0D0E087
:10132000D0930601C093050140910501509106013B
:1013300060E070E085E090E00E9443021092990125
:101340001092980110929B0110929A0110929701AD
:1013500083E090E09093030180930201D093010118
:10136000C0930001DF91CF9108950E94470A84E065
:101370000E94D10984E00E94EC090E9472140E942C
:10138000050A8AB183708AB98BB18C6F8BB987B12A
:101390008F7C87B988B1806388B90E94B50A0C94A4
:1013A000EC0397B121E030E0082E01C0220F0A942F
:1013B000EAF72095292327B997E890937A0080646B
:1013C00080937C0080917A00806480937A00809181
:1013D0007A0086FDFCCF089590917C00907F9093D9
:1013E0007C0090917C008F70982B90937C00809172
:1013F0007A00806480937A0080917A0086FDFCCF29
:10140000809178009091790008951092B20082E066
:101410008093B00085E08093B1008DE78093B300A6
:10142000E0E7F0E0808182608083789408951F92E5
:101430000F920FB60F9211248F939F93AF93BF9388
:101440008091B5019091B601A091B701B091B8011A
:101450000196A11DB11D8093B5019093B601A09393
:10146000B701B093B801BF91AF919F918F910F9049
:101470000FBE0F901F901895F8946091B501709170
:10148000B6018091B7019091B80178940895E1EC8C
:10149000F0E080818861808387E690E09093C500CA
:1014A0008093C40008959091C00095FFFCCF809375
:1014B000C60080E090E00895CF93DF93EC0189911E
:1014C000882319F00E94530AFACFDF91CF91089533
:1014D0001F93CF93DF93EC01FE011491812F0E94A3
:1014E000530A112311F02196F7CFDF91CF911F916D
:1014F0000895CF93DF93CDB7DEB72A970FB6F89450
:10150000DEBF0FBECDBF4AE0BE016F5F7F4F0E94BE
:101510007D14CE0101960E945C0A2A960FB6F894BB
:10152000DEBF0FBECDBFDF91CF9108958091C00087
:1015300087FFFCCF8091C60008956111299A27E0AA
:1015400030E090E02D98AC01022E02C055954795F1
:101550000A94E2F740FF02C02B9A01C02B982D9A03
:101560002150310978F729980895CF93DF93259A70
:10157000239A249A219A209A2C9A29982D98289A6D
:1015800085E38A95F1F70000289860E081EF0E94DA
:101590009D0A60E087E60E949D0A60E086EC0E945A
:1015A0009D0A60E080E40E949D0A60E080E50E9460
:1015B0009D0A60E08BE20E949D0A60E08BEE0E9433
:1015C0009D0A60E081E80E949D0A60E08FE50E942C
:1015D0009D0A60E089E80E949D0AC0E4D0E161E0D4
:1015E00080E00E949D0A2197D1F760E080E00E9490
:1015F0009D0A60E080E10E949D0A60E080E60E9412
:101600009D0A60E08FEADF91CF910C949D0ACF9301
:10161000DF9360E080E00E949D0A60E080E10E942C
:101620009D0A60E080E60E949D0AC0E4D0E161E08E
:1016300080E00E949D0A2197D1F760E080E00E943F
:101640009D0A60E080E10E949D0A60E080E6DF91F3
:10165000CF910C949D0A1F93CF93DF93C82F162F21
:10166000D42F60E08F700E949D0A8C2F82958F701E
:1016700060E0805F0E949D0A60E080E6810F0E942A
:101680009D0A61E08D2FDF91CF911F910C949D0AEF
:1016900080528B3330F4E82FF0E0EC5DFE4F808118
:1016A000089580E00895CF92DF92EF92FF920F931A
:1016B0001F93CF93DF93803A910508F051C06936AC
:1016C000710508F04DC0042F7C01EB01D595C7953D
:1016D000D595C7956B0183E0C822DD24C114D104E0
:1016E00021F46C2F8E2D0E942B0B81E0C816D104A3
:1016F00011F484E00BC082E0C816D10411F480E13B
:1017000005C083E0C816D10459F580E4089F800124
:101710001124D02E8091A00190E0E816F90649F43A
:101720008091A10190E0C817D90719F4D090A201C7
:10173000D02A4D2D6C2F8E2D0E942B0BE092A001F4
:10174000C093A101D092A201CF5F412F6C2F8E2DAB
:101750000E942B0BE092A001C093A1011093A20163
:10176000DF91CF911F910F91FF90EF90DF90CF907D
:101770000895CF92DF92EF92FF920F931F93CF9332
:10178000DF93082E000C990BAA0BBB0BFC01BD9735
:10179000EE32F10508F0A3C6042FC62FEC5CFF4F14
:1017A0000C94FE1310E0D0E040EFB801CE010E948F
:1017B000530B780184E0E80EF11C4FE3B701CE0132
:1017C0000E94530B6E018FEFC81AD80A4CE0B80183
:1017D000C6010E94530B4CEC78C110E0D0E040E30E
:1017E000B801CE010E94530B680184E0C80ED11CE1
:1017F00040ECB601CE010E94530B7E018FEFE81A38
:10180000F80A4CEFB801C7010E94530B4FEFB60125
:10181000C7010E94530B7E0182E0E80EF11C40E0FC
:10182000B801C7010E94530BBE016C5F7F4F40ECB3
:10183000C7014BC610E0D0E040E3B801CE010E94E2
:10184000530B780184E0E80EF11C40EFB701CE01A4
:101850000E94530B6E018FEFC81AD80A4CE0B801F2
:10186000C6010E94530B4CECB701C6010E94530BFA
:101870006E0182E0C80ED11C4CE0B801C6010E9486
:10188000530B43ECB701C6010E94530B23969BC434
:1018900010E0D0E040E3B801CE010E94530B780184
:1018A00084E0E80EF11C40E3B701CE010E94530B27
:1018B0006E018FEFC81AD80A4CE0B801C6010E9429
:1018C000530B40ECD8C010E0D0E040ECB801CE01A2
:1018D0000E94530B780184E0E80EF11C4FE0B70141
:1018E000CE010E94530B6E018FEFC81AD80A40E355
:1018F000B801C6010E94530B4CE0B701C6010E941B
:10190000530B6E0182E0C80ED11C4CEFB801C6012A
:101910000E94530B4FEFB701C6010E94530B4CE0DE
:10192000B7018CC010E0D0E04CEFB801CE010E94AE
:10193000530B780184E0E80EF11C43ECB701CE01B3
:101940000E94530B6E018FEFC81AD80A4CE0B80101
:10195000C6010E94530B43ECB701C6010E94530B12
:101960006E0182E0C80ED11C4CE0B801C6010E9495
:10197000530B43ECB701C6010E94530B23964CE076
:10198000EDC410E0D0E040ECB801CE010E94530B52
:10199000780184E0E80EF11C4FE3B701CE010E940C
:1019A000530B6E018FEFC81AD80A40E3B801C60185
:1019B0000E94530B43ECB701C6010E94530B6E010A
:1019C00082E0C80ED11C4CE0B801C6010E94530B46
:1019D00043ECB701C6010E94530B23964CE0B801BB
:1019E000CE010E94530B4CE35AC510E0D0E04CE30B
:1019F000B801CE010E94530B7E018FEFE81AF80A5E
:101A00004CE0B801C7010E94530B680184E0C80E86
:101A1000D11C4CEFB601C7010E94530B7E0182E03E
:101A2000E80EF11C4CE0B801C7010E94530B43E0E3
:101A3000B601C7010E94530B4CEFB801CE010396CB
:101A400044C510E0D0E040EFB801CE010E94530B36
:101A5000780184E0E80EF11C4CE3B701CE010E944E
:101A6000530B6E018FEFC81AD80A4CE0B801C601BB
:101A70000E94530B43ECB701C6010E94530B6E0149
:101A800082E0C80ED11C4CE0B801C6010E94530B85
:101A900043ECB701C6010E94530B239640EF9FCF42
:101AA00010E0D0E040EFB801CE010E94530B6E0170
:101AB0008FEFC81AD80A4CE0B801C6010E94530B38
:101AC000780184E0E80EF11C43ECB701C6010E94E6
:101AD000530B6E0182E0C80ED11C4CE0B801C60168
:101AE0000E94530B43ECB701C6010E94530B23968F
:101AF00040EFB801CE010E94530B4FE3D0C410E079
:101B0000D0E040EFB801CE010E94530B780184E091
:101B1000E80EF11C4FEFB701CE010E94530B6E018E
:101B20008FEFC81AD80A4CE0B801C6010E94530BC7
:101B300043E0B701C6010E94530B6E0182E0C80E5C
:101B4000D11C4CE0B801C6010E94530B43E0B70121
:101B5000C6010E94530B6E0183E0C80ED11C4CE0FD
:101B6000B801C6010E94530B43E0B701C6010E94B1
:101B7000530B249640EFF2C310E0D0E04CEFB801D5
:101B8000CE010E94530B780184E0E80EF11C4FEF68
:101B9000B701CE010E94530B6E018FEFC81AD80A0D
:101BA0004CE0B801C6010E94530B43ECB701C601DB
:101BB0000E94530B6E0182E0C80ED11C4CE0B801AC
:101BC000C6010E94530B43ECB701C6010E94530BA0
:101BD0006E0183E0C80ED11C4CE0B801C6010E9422
:101BE000530B43ECB701C6010E94530B249656CF0A
:101BF00010E0D0E040EFB801CE010E94530B780115
:101C000084E0E80EF11C4FE3B701CE010E94530BB4
:101C10006E018FEFC81AD80A4CE0B801C6010E94C5
:101C2000530B40ECB701C6010E94530B6E0182E0DA
:101C3000C80ED11C4CE0B801C6010E94530B40EC09
:101C4000B701C6010E94530B6E0183E0C80ED11C80
:101C50004CE0B801C6010E94530B40ECB701C6012D
:101C60000E94530B249640E3B801CE010E94530B0F
:101C700040E315C410E0D0E04CEFB801CE010E9463
:101C8000530B780184E0E80EF11C4FEFB3C110E074
:101C9000D0E04CEFB801CE010E94530B780184E0F4
:101CA000E80EF11C4FEFB701CE010E94530B6E01FD
:101CB0008FEFC81AD80A4CE0B801C6010E94530B36
:101CC00043ECB701C6010E94530B6E0182E0C80EBF
:101CD000D11C4CE0B801C6010E94530B43ECB70184
:101CE000C6010E94530B6E0183E0C80ED11C4CE06C
:101CF000B801C6010E94530B43ECB701C6010E9414
:101D0000530B2496AEC010E0D0E04CEFB801CE01EA
:101D10000E94530B780184E0E80EF11C4FEFB701ED
:101D2000CE010E94530B6E018FEFC81AD80A4CE007
:101D3000B801C6010E94530B43E0B701C6010E94DF
:101D4000530B6E0182E0C80ED11C4CE0B801C601F5
:101D50000E94530B43E0B701C6010E94530B6E0172
:101D600083E0C80ED11C4CE0B801C6010E94530BA1
:101D700043E0B701C60186C210E0D0E040EFB801F1
:101D8000CE010E94530B780184E0E80EF11C4FE372
:101D9000B701CE010E94530B6E018FEFC81AD80A0B
:101DA0004CE0B801C6010E94530B40ECB701C601DC
:101DB0000E94530B6E0182E0C80ED11C4CE0B801AA
:101DC000C6010E94530B43ECB701C6010E94530B9E
:101DD0006E0183E0C80ED11C4CE0B801C6010E9420
:101DE000530B43ECB701C6010E94530B249640E30A
:101DF000F6CD10E0D0E04CEFB801CE010E94530BBD
:101E0000780184E0E80EF11C4FEFB701CE010E948B
:101E1000530B43E0B701CE0101960E94530B43E000
:101E2000B701D6C010E0D0E04CE0B801CE010E946E
:101E3000530B780184E0E80EF11C40ECB701CE01B1
:101E40000E94530B6E018FEFC81AD80A4CEFB801ED
:101E5000C6010E94530B4FEFB701C6010E94530BFE
:101E600022964CE017C310E0D0E04CE0B801CE0160
:101E70000E94530B780184E0E80EF11C40E3B701A7
:101E8000CE010E94530B6E018FEFC81AD80A4CE0A6
:101E9000B801C6010E94530B40ECB701C6010E9475
:101EA000530B6E0182E0C80ED11C4CE0B801C60194
:101EB0000E94530B40ECB701C6010E94530B2396BE
:101EC00008C210E0D0E04CEFB801CE010E94530BE5
:101ED000780184E0E80EF11C4FEFB701CE010E94BB
:101EE000530B6E018FEFC81AD80A43E0B801C60140
:101EF0000E94530B43E0B701C6010E94530B6E01D1
:101F000082E0C80ED11C40ECB801C6010E94530B00
:101F10004CE0B701C6010E94530B239658C210E053
:101F2000D0E04CEFB801CE010E94530B0C5F1F4F65
:101F30004FEFB801CE010E94530B40ECB801CE0127
:101F400001960E94530B40ECB801CE0102960E940C
:101F5000530B40ECB801CE0103960E94530B40ECAA
:101F600059C210E0D0E04CEFB801CE010E94530BF3
:101F7000780184E0E80EF11C4FEFB701CE010E941A
:101F8000530B40E3B801CE0101960E94530B40EC85
:101F9000B801CE0102960E94530B40E3B801D8C1AC
:101FA00010E0D0E04CEFB801CE010E94530B780155
:101FB00084E0E80EF11C4FEFB701CE010E94530BF5
:101FC00040E3B801CE0101960E94530B40ECB801EA
:101FD000CE0102960E94530B43E0B9C110E0D0E05D
:101FE00040EFB801CE010E94530B780184E0E80E67
:101FF000F11C4FE3B701CE010E94530B6E018FEF2E
:10200000C81AD80A4CE0B801C6010E94530B40EC34
:10201000B701C6010E94530B6E0182E0C80ED11CAD
:102020004CE0B801C6010E94530B40ECB701C60159
:102030000E94530B6E0183E0C80ED11C4CE0B80126
:10204000C6010E94530B40ECB701C6010E94530B1E
:1020500024964ECD10E0D0E04CEFB801CE010E94A6
:10206000530B780184E0E80EF11C4FEFB701CE016D
:102070000E94530B6E018FEFC81AD80A4CE0B801CA
:10208000C6010E94530B43E0B701C6010E94530BE7
:102090006E0182E0C80ED11C4CE0B801C6010E945E
:1020A000530B43E0B701C6010E94530B6E0183E05E
:1020B000C80ED11C4CE0B801C6010E94530B43E08E
:1020C000B701C6010E94530B40EFA4C110E0D0E05D
:1020D00040EFB801CE010E94530B780184E0E80E76
:1020E000F11C4FE3B701CE010E94530B6E018FEF3D
:1020F000C81AD80A4CE0B801C6010E94530B40EC44
:10210000B701C6010E94530B6E0182E0C80ED11CBC
:102110004CE0B801C6010E94530B4CECB701C6015C
:102120000E94530B6E0183E0C80ED11C4CE0B80135
:10213000C6010E94530B40E3B701C6010E94530B36
:10214000249640EFB801CE010E94530B4FECA7C17B
:1021500010E0D0E040EFB801CE010E94530B7801AF
:1021600084E0E80EF11C4FEFB701CE010E94530B43
:102170006E018FEFC81AD80A4CE0B801C6010E9460
:10218000530B43E0B701C6010E94530B6E0182E07E
:10219000C80ED11C4CE0B801C6010E94530B4FE0A1
:1021A000B701C6010E94530B6E0183E0C80ED11C1B
:1021B0004CE0B801C6010E94530B43E3B701C601CE
:1021C0000E94530B249640EF65C110E0D0E040EF31
:1021D000B801CE010E94530B780184E0E80EF11C97
:1021E00040ECB701CE010E94530B6E018FEFC81A6D
:1021F000D80A4CE0B801C6010E94530B43ECB7016A
:10220000C6010E94530B6E0182E0C80ED11C4CE047
:10221000B801C6010E94530B43ECB701C6010E94EE
:10222000530B6E0183E0C80ED11C4CE0B801C6010F
:102230000E94530B43ECB701C6010E94530B249636
:10224000CDCB10E0D0E04CE0B801CE010E94530BA2
:102250004CE0B801CE0101960E94530B7E0182E052
:10226000E80EF11C4CEFB801C7010E94530BB801F6
:102270006C5F7F4F4FEFC7010E94530B4CE0B801DA
:10228000CE0103960E94530B4CE0C4C010E0D0E096
:102290004CEFB801CE010E94530B780184E0E80EA8
:1022A000F11C4FE3B701CE010E94530B40ECB70184
:1022B000CE0101960E94530B40ECB701CE0102966D
:1022C0000E94530B40ECB701CE0103960E94530BC2
:1022D00024964CEF0ECC10E0D0E04CEFB801CE01CC
:1022E0000E94530B780184E0E80EF11C4FE0B70127
:1022F000CE0101960E94530B40EFB701CE0102962A
:102300000E94530B4FE0B701CE0103960E94530B7E
:102310004CEF80C010E0D0E04CEFB801CE010E943D
:10232000530B780184E0E80EF11C4FEFB701CE01AA
:102330000E94530B40E3B701CE0101960E94530B5C
:102340004CE0B701CE0102960E94530B40E3B70167
:10235000CE0103960E94530B24964CEFB801CE0198
:102360000E94530B4FEF9BC010E0D0E04CE3B8014C
:10237000CE010E94530B780184E0E80EF11C40EF7F
:10238000B701CE010E94530B6E018FEFC81AD80A15
:1023900040ECB801C6010E94530B4CE0B701C601E6
:1023A0000E94530B43E0B701CE0102960E94530BEB
:1023B0006E0183E0C80ED11C40ECB801C6010E943A
:1023C000530B4CE0B701C6010E94530B24964CE31B
:1023D000B801CE010E94530B40EF61C010E0D0E085
:1023E0004CE3B801CE010E94530B40ECB801CE0182
:1023F00001960E94530BB8016C5F7F4F4FEFCE01E7
:1024000002960E94530B40ECB801CE0103960E9445
:10241000530B4CE3B801CE01049657C010E0D0E056
:102420004CE0B801CE010E94530B780184E0E80E25
:10243000F11C40EFB701CE010E94530B6E018FEFEC
:10244000C81AD80A4CE0B801C6010E94530B4CECE4
:10245000B701C6010E94530B6E0182E0C80ED11C69
:102460004CE0B801C6010E94530B43ECB701C60112
:102470000E94530B6E0183E0C80ED11C4CECB801D6
:10248000C6010E94530B40ECB701C6010E94530BDA
:1024900024964CE3B801CE010E94530B40ECB701E7
:1024A000CE0113C010E00C5F1F4FD0E043E0B80135
:1024B000CE010E94530B43E0B801CE0101960E9469
:1024C000530B43E0B801CE010296DF91CF911F91EB
:1024D0000F91FF90EF90DF90CF900C94530BDF9112
:1024E000CF911F910F91FF90EF90DF90CF900895C3
:1024F000AF92BF92CF92DF92EF92FF920F931F9312
:10250000CF93DF93D62EC42E8C01D0E0C0E0E62E10
:10251000F12C5801F8018081882331F1C7018C0F1B
:10252000911D8B3991054CF04D2F4C0D6C2F6D0D7D
:102530008DE20E94B90BD75FC0E04D2F4C0D6C2F80
:102540006D0DD8018D918D010E94B90BD501EC91D3
:10255000E052EB3328F4F0E0EC5DFE4F608101C007
:1025600060E0C60FCF5FD5CFDF91CF911F910F9164
:10257000FF90EF90DF90CF90BF90AF900895CF92F3
:10258000DF92EF92FF920F931F93CF93DF93062F6B
:1025900010E0C82FD0E040ECB801CE010E94530BF0
:1025A000780184E0E80EF11C4CE0B701CE010E94F6
:1025B000530B6E018FEFC81AD80A40ECB801C60160
:1025C0000E94530B4CE0B701C6010E94530B6E01F1
:1025D00082E0C80ED11C40ECB801C6010E94530B2A
:1025E0004CE0B701C6010E94530B6E0183E0C80E98
:1025F000D11C40ECB801C6010E94530B4CE0B7015E
:10260000C6010E94530B6E0184E0C80ED11C40EC41
:10261000B801C6010E94530B4CE0B701C6010E94ED
:10262000530B6E0185E0C80ED11C4CE0B801C60109
:102630000E94530B40ECB701C6010E94530B6E0180
:1026400086E0C80ED11C4CE3B801C6010E94530BB2
:1026500040EFB701C6010E94530B6E0187E0C80E20
:10266000D11C40EFB801C6010E94530B4CE3B701E7
:10267000C6010E94530B6E0188E0C80ED11C40ECCD
:10268000B801C6010E94530B4FE0B701C6010E947A
:10269000530B43E0B701CE010996DF91CF911F9113
:1026A0000F91FF90EF90DF90CF900C94530B4FE081
:1026B00067E38FE591E00E94781243E267E38AE6E0
:1026C00091E00E9478124DE267E386E791E00E9474
:1026D000781247E367E380E891E00E94781263E2B2
:1026E00088E20C94BF120E94B50980E50E94530A4B
:1026F0002FEF83ED90E3215080409040E1F700C040
:1027000000008AE00E94530A2FEF83ED90E32150EE
:1027100080409040E1F700C0000082E2882E912CBA
:10272000A12CB12CC0E30E943C0AA50194010E9497
:10273000DC13672B682B692BA1F480910001909129
:102740000101029711F40E945C090E945E088091C9
:10275000000190910101892B21F40E9468070E94D9
:102760004C09C0909C01D0909D01E0909E01F0909A
:102770009F010E943C0A26E9C20ED11CE11CF11CFB
:102780006C157D058E059F0570F2C0930901CBCFB6
:1027900097FB072E16F4009407D077FD09D00E940E
:1027A0000D1407FC05D03EF4909581959F4F089538
:1027B000709561957F4F0895A1E21A2EAA1BBB1B4D
:1027C000FD010DC0AA1FBB1FEE1FFF1FA217B307FD
:1027D000E407F50720F0A21BB30BE40BF50B661F13
:1027E000771F881F991F1A9469F7609570958095D7
:1027F00090959B01AC01BD01CF010895EE0FFF1F25
:102800000590F491E02D09942A0D3B1D4C1D5D1D92
:102810006E1D7F1D801F911F0895AA1BBB1B51E1D8
:1028200007C0AA1FBB1FA617B70710F0A61BB70B40
:10283000881F991F5A95A9F780959095BC01CD01E5
:1028400008958F929F92AF92BF92CF92DF92EF92B4
:10285000FF92CF93DF93EC01688179818A819B811C
:10286000611571058105910521F464E279ED8BE52F
:1028700097E02DE133EF41E050E00E94B2144901AE
:102880005A019B01AC01A7EAB1E40E94D1146B018B
:102890007C01ACEEB4EFA50194010E94DF14DC01D1
:1028A000CB018C0D9D1DAE1DBF1DB7FF03C0019751
:1028B000A109B04888839983AA83BB839F77DF915E
:1028C000CF91FF90EF90DF90CF90BF90AF909F900F
:1028D0008F9008950E942114089581E191E00E9453
:1028E00021140895A0E0B0E08093110190931201AB
:1028F000A0931301B09314010895BB274A3031F41B
:10290000992322F4BDE2909581959F4F0C948914F0
:10291000BB27FB015527AA27880F991FAA1FA417B9
:1029200010F0A41B83955051B9F7A05DAA3308F0AD
:10293000A95DA193009779F7B111B1931192CB01E1
:102940000C94A214DC01FC01672F71917723E1F74D
:10295000329704C07C916D9370836291AE17BF076C
:10296000C8F30895052E97FB1EF400940E94C91425
:1029700057FD07D00E94DC1307FC03D04EF40C94E3
:10298000C91450954095309521953F4F4F4F5F4F5B
:10299000089590958095709561957F4F8F4F9F4FCB
:1029A00008950E94E414A59F900DB49F900DA49FDC
:1029B000800D911D11240895B7FF0C94D1140E942D
:1029C000D114821B930B0895A29FB001B39FC00145
:1029D000A39F700D811D1124911DB29F700D811D4B
:0A29E0001124911D0895F894FFCF13
:1029EA000200030004010002023005000500020093
:1029FA000601000000000034005A5B003C003CC89D
:102A0A000050005A0300000000000000000000000F
:102A1A000003000004030404040404040404000082
:102A2A000000000000050505050505050503040568
:102A3A0005050505050505050505000505050548FE
:102A4A00415550544D454E5545004E455545532028
:102A5A00535049454C004849474853434F52450053
:0E2A6A0053434857495249474B4549540000D1
:00000001FF
