:100000000C9434000C9451000C9451000C94510049
:100010000C9451000C9451000C9451000C94040465
:100020000C9451000C9451000C9451000C9451000C
:100030000C9451000C9451000C9451000C945100FC
:100040000C9451000C9451000C9451000C945100EC
:100050000C9451000C9451000C9451000C945100DC
:100060000C9451000C94510011241FBECFEFD8E026
:10007000DEBFCDBF11E0A0E0B1E0E0E0FFE002C0F4
:1000800005900D92AA32B107D9F728E0AAE2B1E0B3
:1000900001C01D92A636B207E1F70E94D6060C9465
:1000A0007E070C9400008091300195E0899FF0015B
:1000B0001124E75BF74F118210821382128214829F
:1000C0008F5F853018F48093300102C010923001A8
:1000D00089E498E09093C1048093C004089585E07A
:1000E000E1E1F1E0A9E4B8E001900D928A95E1F731
:1000F00085E0E6E1F1E0AEE4B8E001900D928A958A
:10010000E1F785E0EBE1F1E0A3E5B8E001900D92C5
:100110008A95E1F785E0E0E2F1E0A8E5B8E001903A
:100120000D928A95E1F785E0E5E2F1E0ADE5B8E012
:1001300001900D928A95E1F789E498E09093C104CB
:100140008093C0040895EF92FF920F931F93CF9373
:10015000DF937B01EC018C01040F111DC017D10747
:100160003CF44FEFB701CE010E9449062196F6CF2D
:10017000DF91CF911F910F91FF90EF900895CF9352
:1001800089E498E09093C1048093C004C5E0E091B5
:10019000C004F091C10460910C0170910D01A09117
:1001A0000A01B0910B0122813381620F731F80819C
:1001B000918144818A0F9B1F0E94A3008091C004FB
:1001C0009091C10405969093C1048093C004C150DE
:1001D000F1F689E498E09093C1048093C004CF9134
:1001E0000895CF93DF93C5E0D0E04FEF64E370E074
:1001F000CE010E9449064FEF68E370E0CE010E94F5
:1002000049062196CD30D10581F7DF91CF91089530
:10021000CF93DF93C0912C01D0912D0180912C01BF
:1002200090912D0107968C179D07A4F060912E01E7
:1002300070912F014FEFCE010E94490660912E016F
:1002400070912F016C5F7F4F4FEFCE010E944906E6
:100250002196E4CFDF91CF9108954FEF69E18FE9C7
:100260000E94180580910301181684F481E090E043
:10027000909301018093000110922B0186E08093FE
:10028000C2048091030181508093030108958091FD
:100290000201181684F482E090E0909301018093AB
:1002A000000188EF80932B011092C204809102011B
:1002B0008150809302010895AF92CF92EF92FF9206
:1002C0000F931F93F801EC0DF11D8E179F07A4F4F7
:1002D000840F911D081719077CF4C7018A0D911D21
:1002E000681779074CF4620F711D81E090E0E61603
:1002F000F70624F080E002C080E090E01F910F91AB
:10030000FF90EF90CF90AF900895AF92EF92FF9251
:10031000C7018A0D911D681779074CF4620F711D92
:1003200081E090E0E616F70624F080E002C080E06D
:1003300090E0FF90EF90AF9008958F929F92AF92D0
:10034000BF92CF92DF92EF92FF920F931F93CF93C2
:10035000DF93D090300135E0B32E25E0D29EC0016E
:100360001124FC01E75BF74F4F01C281D3816091FB
:100370002E0170912F0180912C0190912D0100810F
:10038000118124E0A22EC4807E0128E048E00E9472
:100390005C010097E1F1D09230019092C10480920B
:1003A000C004109201011092000110922B01809163
:1003B0002E0190912F0120912C0130912D019E0151
:1003C0002C5F3F4F82179307BCF50896C817D907D3
:1003D0009CF580912E0190912F01C81BC8500C2EC6
:1003E000000CDD0B80912E0190912F018C0F9D1F31
:1003F00090932F0180932E0180910C0190910D011B
:100400008C1B9D0B90930D0180930C0115C0D39410
:10041000F4E0FD1508F4D12CBA94B1109ECFD0921F
:1004200030019092C1048092C00423E030E0309308
:1004300001012093000102C081E090E0DF91CF91A3
:100440001F910F91FF90EF90DF90CF90BF90AF90F2
:100450009F908F900895E091300185E0E89FF00132
:100460001124E75BF74FF093C104E093C00480913F
:100470002C0190912D01448120813181240F311D67
:100480000A97281739073CF441E061E070E081E009
:1004900090E00E94530089E498E09093C104809317
:1004A000C00408950E942B028091000190910101E7
:1004B000892B41F482E08093020183E08093030161
:1004C0000E949D018091000190910101029711F419
:1004D0000E949D018091C204209100013091010190
:1004E0001816D4F421303105B9F48091C20481503A
:1004F0008093C20480912C0190912D0104969093D9
:100500002D0180932C0180910A0190910B01049799
:1005100090930B0180930A018091C204811105C060
:100520002130310511F40E949D01809100019091CC
:100530000101039719F520912B0180912E019091D3
:100540002F01820F911D27FD9A9590932F01809383
:100550002E0120912B0180910C0190910D01821BA5
:10056000910927FD939590930D0180930C01809143
:100570002B018F5F80932B010E949D0180912C01A4
:1005800090912D01029690932D0180932C018091E2
:100590000A0190910B01029790930B0180930A013D
:1005A000089580910901803309F0C4C035990DC0C8
:1005B00081E3809309010E942904609331017093C3
:1005C0003201809333019093340134990DC081E35B
:1005D000809309010E9429046093310170933201D4
:1005E00080933301909334014A991FC081E3809333
:1005F00009010E94290460933101709332018093B4
:1006000033019093340180912E0190912F01029734
:1006100090932F0180932E0180910C0190910D01F8
:10062000029690930D0180930C014B991FC081E3BA
:10063000809309010E942904609331017093320173
:10064000809333019093340180912E0190912F017A
:10065000029690932F0180932E0180910C0190912E
:100660000D01029790930D0180930C014D991FC0CD
:1006700081E3809309010E94290460933101709302
:100680003201809333019093340180912C01909139
:100690002D01029690932D0180932C0180910A01E7
:1006A00090910B01029790930B0180930A014C9952
:1006B0001FC081E3809309010E94290460933101E6
:1006C00070933201809333019093340180912C0117
:1006D00090912D01029790932D0180932C01809190
:1006E0000A0190910B01029690930B0180930A01ED
:1006F0004E990FC081E3809309010E9447010E9437
:1007000029046093310170933201809333019093F7
:1007100034014F990FC081E3809309010E942D019C
:100720000E94290460933101709332018093330158
:100730009093340108950E9408010E94F1000E94E4
:10074000BF000E9499060C94CF050E94340480E0FB
:100750000E94BE030E94F2038AB183708AB98BB1F2
:100760008C6F8BB987B18F7C87B988B1806388B96A
:100770000E94A2040E9478050C946F0097B121E0BA
:1007800030E0082E01C0220F0A94EAF720952923B1
:1007900027B997E890937A00806480937C008091D9
:1007A0007A00806480937A0080917A0086FDFCCF85
:1007B000089590917C00907F90937C0090917C00B4
:1007C0008F70982B90937C0080917A008064809346
:1007D0007A0080917A0086FDFCCF8091780090911C
:1007E000790008951092B20082E08093B00085E015
:1007F0008093B1008DE78093B300E0E7F0E0808163
:1008000082608083789408951F920F920FB60F92A2
:1008100011248F939F93AF93BF938091620890911F
:100820006308A0916408B09165080196A11DB11DEF
:100830008093620890936308A0936408B09365085E
:10084000BF91AF919F918F910F900FBE0F901F900E
:100850001895F8946091620870916308809164081B
:100860009091650878940895E1ECF0E080818861CA
:10087000808387E690E09093C5008093C40008953C
:100880009091C00095FFFCCF8093C60080E090E07F
:100890000895CF93DF93EC018991882319F00E948A
:1008A0004004FACFDF91CF9108951F93CF93DF9348
:1008B000EC01FE011491812F0E944004112311F0DC
:1008C0002196F7CFDF91CF911F910895CF93DF93BA
:1008D000CDB7DEB72A970FB6F894DEBF0FBECDBFF7
:1008E0004AE0BE016F5F7F4F0E944907CE0101962B
:1008F0000E9449042A960FB6F894DEBF0FBECDBF02
:10090000DF91CF9108958091C00087FFFCCF809147
:10091000C60008956111299A27E030E090E02D98F3
:10092000AC01022E02C0559547950A94E2F740FFAC
:1009300002C02B9A01C02B982D9A2150310978F7CB
:1009400029980895CF93DF93259A239A249A219A80
:10095000209A2C9A29982D98289A85E38A95F1F760
:100960000000289860E081EF0E948A0460E087E63A
:100970000E948A0460E086EC0E948A0460E080E4C1
:100980000E948A0460E080E50E948A0460E08BE2B5
:100990000E948A0460E08BEE0E948A0460E081E895
:1009A0000E948A0460E08FE50E948A0460E089E882
:1009B0000E948A04C0E4D0E161E080E00E948A04E1
:1009C0002197D1F760E080E00E948A0460E080E136
:1009D0000E948A0460E080E60E948A0460E08FEA58
:1009E000DF91CF910C948A04CF93DF9360E080E095
:1009F0000E948A0460E080E10E948A0460E080E650
:100A00000E948A04C0E4D0E161E080E00E948A0490
:100A10002197D1F760E080E00E948A0460E080E1E5
:100A20000E948A0460E080E6DF91CF910C948A04F2
:100A30001F93CF93DF93C82F162FD42F60E08F70B2
:100A40000E948A048C2F82958F7060E0805F0E94E4
:100A50008A0460E080E6810F0E948A0461E08D2FA5
:100A6000DF91CF911F910C948A0485EC94E09093D0
:100A7000BF048093BE048CE291E020910E0130917E
:100A80000F0140911001E091BE04F091BF04219349
:100A900031934193F093BF04E093BE04019769F74B
:100AA00085EC94E09093BF048093BE0408958AE39C
:100AB00091E09093C4048093C3048CE291E0209170
:100AC0000E0130910F014091100120933A013093B3
:100AD0003B0140933C012091BE043091BF042D5F47
:100AE0003F4F3093BF042093BE04019741F7089510
:100AF00085EC94E09093BF048093BE048AE391E078
:100B00009093C4048093C3048CE291E020910E0181
:100B100030910F0140911001A091BE04B091BF042B
:100B20002D933D934D9320910E0130910F014091F3
:100B30001001E091C304F091C404219331934193D7
:100B4000B093BF04A093BE04F093C404E093C30425
:100B50000197E1F685EC94E09093BF048093BE0486
:100B60008AE391E09093C4048093C3040895803A8B
:100B7000A8F4653698F4E091BE04F091BF04808338
:100B8000618342833396F093BF04E093BE04809167
:100B900039018F5F80933901809139010895FF9267
:100BA0000F931F93CF93DF938AE391E09093C40454
:100BB0008093C304C0E0D0E0E091C304F091C4048A
:100BC00080818F3F71F040E061810E941805809123
:100BD000C3049091C40403969093C4048093C30407
:100BE00002C0CCE2D1E02196CC3281E0D80724F3D8
:100BF0008AE391E09093C4048093C3040E94570554
:100C000085EC94E09093BF048093BE04C0E0D0E0F4
:100C1000E091BE04F091BF0410811F3FE9F0F18024
:100C20000281402F6F2D812F0E941805E091C3048F
:100C3000F091C4041083F18202833396F093C404CC
:100C4000E093C3048091BE049091BF0403969093F7
:100C5000BF048093BE0402C0CCE2D1E02196CC3226
:100C600081E0D807ACF285EC94E09093BF048093C8
:100C7000BE048AE391E09093C4048093C3040E946D
:100C8000350510923901DF91CF911F910F91FF909F
:100C90000895CF92DF92EF92FF920F931F93CF931D
:100CA000DF93803A9105E0F569367105C8F5C42FE8
:100CB0007C018B0115950795159507956B0183E0D0
:100CC000C822DD24C114D10421F4602F8E2D0E948E
:100CD000B70581E0C816D10411F484E00BC082E0AE
:100CE000C816D10411F480E105C083E0C816D10410
:100CF000B9F480E4C89FE00111244C2F602F8E2DA1
:100D00000E94B70561E0600F4D2F8E2DDF91CF91CE
:100D10001F910F91FF90EF90DF90CF900C94B7054B
:100D2000DF91CF911F910F91FF90EF90DF90CF90C7
:100D3000089580E090E0A8ECB4E0E5ECF4E02081D8
:100D40002F3F61F131817281AC016C916F3FD1F025
:100D5000621316C011966C911197631311C012960D
:100D60006C911297672B2083318362832C931196A9
:100D70003C93119712966C93129720813181728166
:100D8000139602C04CE251E04F5F5F4F4C3261E07E
:100D90005607DCF2DF011696339602C08CE291E032
:100DA00001968C3221E0920754F208950E94A50327
:100DB00080E50E9440042FEF83ED90E321508040B6
:100DC0009040E1F700C000008AE00E9440042FEF4D
:100DD00083ED90E3215080409040E1F700C0000097
:100DE00088E290E09093360180933501909338012A
:100DF0008093370182E2882E912CA12CB12CC0E384
:100E00000E942904A50194010E942707672B682BE3
:100E1000692B31F40E94D1020E9452020E949B036E
:100E2000C0903101D0903201E0903301F090340154
:100E30000E94290426E9C20ED11CE11CF11C6C158C
:100E40007D058E059F05E0F2C0930901D9CFA1E28F
:100E50001A2EAA1BBB1BFD010DC0AA1FBB1FEE1F34
:100E6000FF1FA217B307E407F50720F0A21BB30B7F
:100E7000E40BF50B661F771F881F991F1A9469F7FB
:100E800060957095809590959B01AC01BD01CF0157
:100E90000895BB274A3031F4992322F4BDE290959E
:100EA00081959F4F0C945507BB27FB015527AA2717
:100EB000880F991FAA1FA41710F0A41B83955051E7
:100EC000B9F7A05DAA3308F0A95DA193009779F75F
:100ED000B111B1931192CB010C946E07DC01FC01AE
:100EE000672F71917723E1F7329704C07C916D935E
:100EF00070836291AE17BF07C8F30895F894FFCFCF
:100F00000300020300000C00503005003400FFFF16
:100F1000FF00000C00505A001E0028C800140032C8
:0A0F20002C011E003290012800325F
:00000001FF
