:100000000C9434000C9451000C9451000C94510049
:100010000C9451000C9451000C9451000C94C8099C
:100020000C9451000C9451000C9451000C9451000C
:100030000C9451000C9451000C9451000C945100FC
:100040000C9451000C9451000C9451000C945100EC
:100050000C9451000C9451000C9451000C945100DC
:100060000C9451000C94510011241FBECFEFD8E026
:10007000DEBFCDBF11E0A0E0B1E0E8E5FCE102C0E9
:1000800005900D92A633B107D9F728E0A6E3B1E0B9
:1000900001C01D92AF36B207E1F70E94C10C0C946B
:1000A0002A0E0C940000CF93DF9300D000D01F9253
:1000B000CDB7DEB725E0829FC0011124FC01EE5AC6
:1000C000F74F85E0DE01119601900D928A95E1F7D8
:1000D00029813A814B815C816D8170E080E090E004
:1000E0000F900F900F900F900F90DF91CF91089588
:1000F0002F923F924F925F926F927F928F929F9238
:10010000AF92BF92CF92DF92EF92FF920F931F9325
:10011000CF93DF93CDB7DEB7AE970FB6F894DEBFBF
:100120000FBECDBF8C017EA76DA74FE10E942B0CA7
:1001300038018FEF681A780A4BE56DA57EA5C301DB
:100140000E942B0C280192E0490E511C4BE66DA534
:100150007EA5C2010E942B0CC80103969A83898355
:100160004BEA6DA57EA50E942B0CC80104969C83CA
:100170008B834BE56DA57EA50E942B0CC8010596CF
:100180009E838D834BE56DA57EA50E942B0CC80137
:10019000069698878F834BE56DA57EA50E942B0C54
:1001A000C80107969A8789874BE56DA57EA50E94B1
:1001B0002B0CC80108969C878B874BE56DA57EA507
:1001C0000E942B0CC80109969E878D874BE56DA573
:1001D0007EA50E942B0CC8010A96988B8F874BE650
:1001E0006DA57EA50E942B0CC8010B969A8B898B5E
:1001F0004BE66DA57EA50E942B0CC8010C969C8B2E
:100200008B8B4BEA6DA57EA50E942B0CC8010D9629
:100210009E8B8D8B4BEA6DA57EA50E942B0CC80191
:100220000E96988F8F8B4BE66DA57EA50E942B0CAA
:10023000C8010F969A8F898F4BE56DA57EA50E9408
:100240002B0CC80140969C8F8B8F4BE56DA57EA52E
:100250000E942B0CC80141969E8F8D8F4BE56DA59A
:100260007EA50E942B0CC801429698A38F8F4BE667
:100270006DA57EA50E942B0CC80143969AA389A365
:100280004BEA6DA57EA50E942B0CC80144969CA349
:100290008BA34BEA6DA57EA50E942B0CC801459649
:1002A0009EA38DA34BE66DA57EA50E942B0CC801D5
:1002B000469698A78FA34BE56DA57EA50E942B0CB3
:1002C000C80147969AA789A74BE56DA57EA50E9410
:1002D0002B0CC80148969CA78BA74BE56DA57EA566
:1002E0000E942B0C180199E1290E311C4BE56DA5DC
:1002F0007EA5C1010E942B0C48018AE1880E911C49
:100300004BE66DA57EA5C4010E942B0C58019BE114
:10031000A90EB11C4BE66DA57EA5C5010E942B0C54
:1003200068018CE1C80ED11C4BE56DA57EA5C60108
:100330000E942B0C78019DE1E90EF11C4FE16DA5A7
:100340007EA5C7010E942B0C8DA59EA504969EA795
:100350008DA74FE1BC01C8010E942B0C4BE56DA598
:100360007EA5C3010E942B0C4BE66DA57EA5C201A4
:100370000E942B0C4BEA6DA57EA589819A810E9473
:100380002B0C4BE56DA57EA58B819C810E942B0CCF
:100390004BE56DA57EA58D819E810E942B0C4BE5C2
:1003A0006DA57EA58F8198850E942B0C4BE56DA5D0
:1003B0007EA589859A850E942B0C4BE56DA57EA5AF
:1003C0008B859C850E942B0C4BE56DA57EA58D85AC
:1003D0009E850E942B0C4BE66DA57EA58F85988986
:1003E0000E942B0C4BE66DA57EA589899A890E94F7
:1003F0002B0C4BEA6DA57EA58B899C890E942B0C4A
:100400004BEA6DA57EA58D899E890E942B0C4BE63B
:100410006DA57EA58F89988D0E942B0C4BE56DA54F
:100420007EA5898D9A8D0E942B0C4BE56DA57EA52E
:100430008B8D9C8D0E942B0C4BE56DA57EA58D8D23
:100440009E8D0E942B0C4BE66DA57EA58F8D98A1ED
:100450000E942B0C4BEA6DA57EA589A19AA10E9452
:100460002B0C4BEA6DA57EA58BA19CA10E942B0CA9
:100470004BE66DA57EA58DA19EA10E942B0C4BE5A0
:100480006DA57EA58FA198A50E942B0C4BE56DA5AF
:100490007EA589A59AA50E942B0C4BE56DA57EA58E
:1004A0008BA59CA50E942B0C4BE56DA57EA5C101DB
:1004B0000E942B0C4BE66DA57EA5C4010E942B0C5F
:1004C0004BE66DA57EA5C5010E942B0C4BE56DA5E5
:1004D0007EA5C6010E942B0C4FE16DA57EA5C7012C
:1004E000AE960FB6F894DEBF0FBECDBFDF91CF91B1
:1004F0001F910F91FF90EF90DF90CF90BF90AF9042
:100500009F908F907F906F905F904F903F902F9033
:100510000C942B0CCF93DF9390E041E050E820E067
:1005200085E0E2E5F8E0608171813481EB01C30F81
:10053000D11DDA01A20FB11DAC17BD071CF4232F8A
:10054000AB01892F35969F5F953069F7DF91CF9189
:100550000895CF93DF9390E04FEF5FE720E085E0D1
:10056000E2E5F8E0608171813481EB01C30FD11DB8
:10057000DA01A20FB11DCA17DB071CF4232FAB0150
:10058000892F35969F5F953069F7DF91CF91089558
:1005900085E0E1E1F1E0A2E5B8E001900D928A95F5
:1005A000E1F785E0E6E1F1E0A7E5B8E001900D9222
:1005B0008A95E1F785E0EBE1F1E0ACE5B8E0019088
:1005C0000D928A95E1F785E0E0E2F1E0A1E6B8E07E
:1005D00001900D928A95E1F785E0E5E2F1E0A6E66B
:1005E000B8E001900D928A95E1F70895DF92EF92BD
:1005F000FF920F931F93CF93DF93D82E092F7B0188
:10060000142F4FEF60E080E00E94DC0ACD2DD02F48
:10061000CE01810F911D8C01C017D10734F4B701B1
:10062000CE010E9478006E96F7CFDF91CF911F9197
:100630000F91FF90EF90DF9008958F929F92AF926D
:10064000BF92CF92DF92EF92FF920F931F93CF93BF
:10065000DF93EC017B010091090110910A01809167
:10066000050190910601081B190B809107019091DB
:10067000080180910B0190910C016E01C40ED11CF8
:1006800046010C0D1D1D5B0184E0A80EB11C8016F7
:10069000910674F440E0B701C4010E942B0C40E0C5
:1006A000B501C4010E942B0C8FEF881A980AEFCF76
:1006B000209107013091080180910B0190910C016C
:1006C0002817390791F087010C5F1F4FCC15DD0506
:1006D00064F440E0B701CE010E942B0C40E0B80169
:1006E000CE010E942B0C2196F1CFDF91CF911F916B
:1006F0000F91FF90EF90DF90CF90BF90AF909F90C1
:100700008F900895CF93DF93C2E5D8E06091070101
:1007100070910801E0910501F09106012A813B8169
:10072000620F731F888199814C818E0F9F1F0E94D9
:100730001D03259688E0CB36D80741F7DF91CF918E
:100740000895CF93DF93C2E5D8E0609107017091DF
:100750000801E0910501F09106012A813B81620FB9
:10076000731F888199814C818E0F9F1F0E94F60212
:10077000259688E0CB36D80741F7DF91CF910895D1
:100780000F931F93CF93DF93CDB7DEB72A970FB6A2
:10079000F894DEBF0FBECDBF4E835F836887798735
:1007A0008A870E94A40D60E074E00E940E0D8C0107
:1007B00064E670E00E940E0DC297E885F985E80FA7
:1007C000F91F8A852E813F81280F311DC80169E1FB
:1007D00070E00E940E0D0196280F391F3A8329837D
:1007E000FC83EB83C80164E070E00E940E0D6EE1B3
:1007F000689F600D11243A814E2F5C8170E080E08B
:1008000090E02A960FB6F894DEBF0FBECDBFDF9101
:10081000CF911F910F910895CF93DF9300D000D017
:100820001F92CDB7DEB729833A834B835C836D83F8
:10083000853068F495E0899FD0011124AE5AB74FF6
:1008400085E0FE01319601900D928A95E1F70F90B7
:100850000F900F900F900F90DF91CF9108951F93FD
:10086000CF93DF93CDB7DEB72F970FB6F894DEBFE7
:100870000FBECDBF0E94A902182F0E9453002B87E4
:100880003C874D875E876F8720913B0130913C010B
:100890008B859C85860F911D8217930774F40E94A7
:1008A0008A020E945300942F752F862FA901692F69
:1008B0000E94C003812F0E940C042F960FB6F8945B
:1008C000DEBF0FBECDBFDF91CF911F910895809104
:1008D0003B0190913C01883E93400CF458C0E2E506
:1008E000F8E020913B0130913C0180819181821B95
:1008F000930B9183808320913D0130913E01828151
:100900009381821B930B93838283359688E0EB3629
:10091000F80739F720913D0130913E0180913D016A
:1009200090913E01821B930B90933E0180933D0179
:1009300020913D0130913E01809107019091080185
:10094000820F931F909308018093070120913B0130
:1009500030913C0180913B0190913C01821B930BB3
:1009600090933C0180933B0120913B0130913C01ED
:100970008091050190910601820F931F90930601CB
:10098000809305014FEF60E080E00C94DC0A08954D
:10099000CF93DF93C5E0D0E04FEF64E370E0CE018A
:1009A0000E942B0C4FEF68E370E0CE010E942B0CED
:1009B0002196CD30D10581F7DF91CF910895CF9366
:1009C000DF93C0913B01D0913C0180913B0190911C
:1009D0003C0107968C179D07A4F060913D01709132
:1009E0003E014FEFCE010E942B0C60913D017091B2
:1009F0003E016C5F7F4F4FEFCE010E942B0C219682
:100A0000E4CFDF91CF9108954FEF69E18FE90E9424
:100A1000DC0A80910301181684F481E090E0909341
:100A200001018093000110923A0186E08093CB048B
:100A30008091030181508093030108958091020108
:100A4000181684F482E090E09093010180930001F5
:100A500088EF80933A011092CB048091020181507B
:100A6000809302010895CF93DF93C2E5D8E06091AF
:100A70000B0170910C01E0910901F0910A012A81AA
:100A80003B81620F731F888199814C818E0F9F1F5C
:100A90000E941D03259688E0CB36D80741F7DF91E9
:100AA000CF910895AF92CF92EF92FF920F931F9341
:100AB000F801EC0DF11D8E179F07A4F4840F911D12
:100AC000081719077CF4C7018A0D911D681779076B
:100AD0004CF4620F711D81E090E0E616F70624F0F9
:100AE00080E002C080E090E01F910F91FF90EF90B6
:100AF000CF90AF9008954F925F926F927F928F92B6
:100B00009F92AF92CF92EF92FF920F931F93CF934A
:100B1000DF9300D000D01F92CDB7DEB792E5892ECB
:100B200098E0992E662E712C482E512CE0900701EA
:100B3000F09008010091050110910601F4018281F5
:100B40009381E80EF91E80819181080F191F88E0BA
:100B5000A82EC48020E140E1B301C2010E945205E9
:100B6000892B19F085E0F4010BC0F5E08F0E911C84
:100B70008BE6881688E09806C9F685E0EAE2F1E09F
:100B8000DE01119601900D928A95E1F729813A8153
:100B90004B815C816D8170E080E090E00F900F9060
:100BA0000F900F900F90DF91CF911F910F91FF90B9
:100BB000EF90CF90AF909F908F907F906F905F90CD
:100BC0004F900895AF92BF92CF92DF92EF92FF9233
:100BD0000F931F93CF93DF93C82FD0E06E018FE068
:100BE000C80ED11C062F10E058018FE0A80EB11CD2
:100BF000CC16DD067CF07801AE14BF044CF040E06A
:100C0000B701CE010E942B0C84E0E80EF11CF4CF5A
:100C10002196EECFDF91CF911F910F91FF90EF9032
:100C2000DF90CF90BF90AF900895EF92FF920F9317
:100C30001F93CF93DF9300D000D01F92CDB7DEB7C4
:100C400000E010E0612F802F0E947B0529833A830A
:100C50004B835C836D83E980FA808FEFE816F8069A
:100C6000D1F04FEF60E080E00E94DC0A6091070164
:100C70007091080180910501909106012B813C81C2
:100C8000620F731F4D818E0D9F1D0E941D03612FEA
:100C9000802F0E94E205105F1037A1F6005F003A36
:100CA00081F60F900F900F900F900F90DF91CF91E2
:100CB0001F910F91FF90EF900895AF92EF92FF92E6
:100CC000C7018A0D911D681779074CF4620F711DD9
:100CD00081E090E0E616F70624F080E002C080E0B4
:100CE00090E0FF90EF90AF900895EF92FF92620F27
:100CF000711D81E090E0E616F70614F080E090E0C8
:100D0000FF90EF900895AF92EF92FF92EA0CF11CE2
:100D100081E090E06E157F0514F080E090E0FF9098
:100D2000EF90AF9008958F929F92AF92BF92CF9223
:100D3000DF92EF92FF920F931F93CF93DF93D090A8
:100D4000380135E0B32E25E0D29EC0011124FC010C
:100D5000EE5AF74F4F01C281D38160913D017091EE
:100D60003E0180913B0190913C010081118128E07E
:100D7000A22EC4807E0128E048E00E945205009720
:100D800009F486C0D09238019092CA048092C904B6
:100D900010923A0120913D0130913E0180913D0138
:100DA00090913E01285F3F4F2C1B3D0B37FF03C046
:100DB0003195219531098C1B9D0B089697FF03C037
:100DC0009195819591092817390714F11092010125
:100DD0001092000180913D0190913E01C81BC850C6
:100DE0000C2E000CDD0B80913D0190913E018C0F8B
:100DF0009D1F90933E0180933D018091070190914A
:100E000008018C1B9D0B909308018093070155C02E
:100E100020913D0130913E0180913D0190913E0134
:100E2000285F3F4F2C1B3D0B37FF03C031952195A9
:100E300031098C1B9D0B089697FF03C091958195F6
:100E4000910982179307CCF180913D0190913E0169
:100E5000C81BC85F0C2E000CDD0B80913D019091EA
:100E60003E018C0F9D1F90933E0180933D01809128
:100E70000701909108018C1B9D0B909308018093B2
:100E8000070183E090E0909301018093000115C079
:100E9000D394F4E0FD1508F4D12CBA94B11053CFDB
:100EA000D09238019092CA048092C90423E030E0C5
:100EB000309301012093000102C081E090E0DF91B6
:100EC000CF911F910F91FF90EF90DF90CF90BF9047
:100ED000AF909F908F9008958091050190910601A9
:100EE00090930A0180930901809107019091080174
:100EF00090930C0180930B010E942F040E946704C1
:100F00008091000190910101892B39F482E0809356
:100F10000201809303010E94930680910001909149
:100F20000101029711F40E9493068091CB04209155
:100F30000001309101011816D4F421303105B9F4C3
:100F40008091CB0481508093CB0480913B019091A0
:100F50003C01049690933C0180933B0180910501F4
:100F6000909106010497909306018093050180916A
:100F7000CB04811105C02130310511F40E94930684
:100F80008091000190910101039719F520913A0198
:100F900080913D0190913E01820F911D27FD9A9510
:100FA00090933E0180933D0120913A018091070189
:100FB00090910801821B910927FD93959093080158
:100FC0008093070180913A018F5F80933A010E94DC
:100FD000930680913B0190913C01029690933C01D5
:100FE00080933B01809105019091060102979093B7
:100FF000060180930501089580910401803309F072
:10100000DCC035990DC081E3809304010E94ED0995
:1010100060933F017093400180934101909342019E
:1010200034991EC081E3809304010E94ED0960930E
:101030003F01709340018093410190934201809160
:10104000360190913701892B39F481E090E090933B
:1010500037018093360104C0109237011092360197
:101060008091360190913701892B09F0A6C04A99E9
:101070001FC081E3809304010E94ED0960933F014A
:1010800070934001809341019093420180913D0112
:1010900090913E01029790933E0180933D01809193
:1010A000070190910801029690930801809307012F
:1010B0004B991FC081E3809304010E94ED09609366
:1010C0003F017093400180934101909342018091D0
:1010D0003D0190913E01029690933E0180933D0127
:1010E00080910701909108010297909308018093E5
:1010F00007014D991FC081E3809304010E94ED090F
:1011000060933F01709340018093410190934201AD
:1011100080913B0190913C01029690933C01809319
:101120003B01809105019091060102979093060181
:10113000809305014C991FC081E3809304010E94B4
:10114000ED0960933F0170934001809341019093BA
:10115000420180913B0190913C01029790933C01A8
:1011600080933B0180910501909106010296909336
:101170000601809305014E990FC081E3809304011D
:101180000E941E050E94ED0960933F01709340018B
:1011900080934101909342014F990FC081E3809366
:1011A00004010E9404050E94ED0960933F017093C1
:1011B000400180934101909342010895CF92DF92C4
:1011C000EF92FF920F931F93CF93DF93062F10E0C0
:1011D000C82FD0E04CE3B801CE010E942B0C78015F
:1011E00084E0E80EF11C4FE3B701CE010E942B0C06
:1011F0006E018FEFC81AD80A48E0B801C6010E94F4
:101200002B0C47E5B701C6010E942B0C6E0182E052
:10121000C80ED11C4AE0B801C6010E942B0C47E55C
:10122000B701C6010E942B0C6E0183E0C80ED11CD1
:101230004AE0B801C6010E942B0C47E5B701C60180
:101240000E942B0C6E0184E0C80ED11C4AE0B8014C
:10125000C6010E942B0C4BE5B701C6010E942B0C66
:101260006E0185E0C80ED11C4AEEB801C6010E948D
:101270002B0C47E5B701C6010E942B0C6E0186E0DE
:10128000C80ED11C42ECB801C6010E942B0C43E0F1
:10129000B701C6010E942B0C42E0B801CE010796AF
:1012A000DF91CF911F910F91FF90EF90DF90CF9042
:1012B0000C942B0C0E9433050E94A10364E370E0A0
:1012C00085E090E00C94DE080E94F80984E00E941A
:1012D000820984E00E949D090E94A90D0E94B6091E
:1012E0008AB183708AB98BB18C6F8BB987B18F7CCF
:1012F00087B988B1806388B90E94660A0E94F90A9A
:101300000C94C80297B121E030E0082E01C0220FF2
:101310000A94EAF72095292327B997E890937A0051
:10132000806480937C0080917A00806480937A004E
:1013300080917A0086FDFCCF089590917C00907F8B
:1013400090937C0090917C008F70982B90937C0000
:1013500080917A00806480937A0080917A0086FD83
:10136000FCCF809178009091790008951092B2009E
:1013700082E08093B00085E08093B1008DE7809398
:10138000B300E0E7F0E08081826080837894089584
:101390001F920F920FB60F9211248F939F93AF93CA
:1013A000BF9380916B0890916C08A0916D08B091EB
:1013B0006E080196A11DB11D80936B0890936C0877
:1013C000A0936D08B0936E08BF91AF919F918F91DC
:1013D0000F900FBE0F901F901895F89460916B08B6
:1013E00070916C0880916D0890916E0878940895C2
:1013F000E1ECF0E080818861808387E690E0909363
:10140000C5008093C40008959091C00095FFFCCF63
:101410008093C60080E090E00895CF93DF93EC01C5
:101420008991882319F00E94040AFACFDF91CF91A5
:1014300008951F93CF93DF93EC01FE011491812F48
:101440000E94040A112311F02196F7CFDF91CF916A
:101450001F910895CF93DF93CDB7DEB72A970FB6CC
:10146000F894DEBF0FBECDBF4AE0BE016F5F7F4F75
:101470000E94B40DCE0101960E940D0A2A960FB665
:10148000F894DEBF0FBECDBFDF91CF91089580915C
:10149000C00087FFFCCF8091C60008956111299A92
:1014A00027E030E090E02D98AC01022E02C0559567
:1014B00047950A94E2F740FF02C02B9A01C02B988F
:1014C0002D9A2150310978F729980895CF93DF9309
:1014D000259A239A249A219A209A2C9A29982D9811
:1014E000289A85E38A95F1F70000289860E081EF5B
:1014F0000E944E0A60E087E60E944E0A60E086EC99
:101500000E944E0A60E080E40E944E0A60E080E59E
:101510000E944E0A60E08BE20E944E0A60E08BEE71
:101520000E944E0A60E081E80E944E0A60E08FE56A
:101530000E944E0A60E089E80E944E0AC0E4D0E1B1
:1015400061E080E00E944E0A2197D1F760E080E0E0
:101550000E944E0A60E080E10E944E0A60E080E650
:101560000E944E0A60E08FEADF91CF910C944E0A00
:10157000CF93DF9360E080E00E944E0A60E080E15C
:101580000E944E0A60E080E60E944E0AC0E4D0E16C
:1015900061E080E00E944E0A2197D1F760E080E090
:1015A0000E944E0A60E080E10E944E0A60E080E600
:1015B000DF91CF910C944E0A1F93CF93DF93C82FE6
:1015C000162FD42F60E08F700E944E0A8C2F8295C8
:1015D0008F7060E0805F0E944E0A60E080E6810FBD
:1015E0000E944E0A61E08D2FDF91CF911F910C94E4
:1015F0004E0ACF93DF93CEECD4E0E3E4F1E08091A8
:101600002F0190913001A091310189939993A99371
:1016100081939193A19324E0E73CF207B1F7DF9126
:10162000CF910895843629F0853631F4E3E4F1E072
:1016300005C0EEECF4E002C0E0E0F0E0CF018C5732
:101640009C4F20912F013091300140913101219325
:1016500031934193E817F907D1F70895443619F407
:10166000EEECF4E004C04536D9F4E3E4F1E020E028
:1016700030E00EC04181741779F09F3F11F42CE2E5
:1016800031E033962F5F3F4F2C3291E0390744F41D
:1016900090816913F2CFEECF42818413EECF03C065
:1016A00080E090E0089581E090E00895CF92DF928D
:1016B000EF92443629F0453631F4E3E4F1E005C019
:1016C000EEECF4E002C0E0E0F0E020E030E0C090BA
:1016D0003201D0903301E09034019081961309C01B
:1016E0009181971306C09281981303C0C082D18262
:1016F000E28290819F3F11F42CE231E033962F5F1C
:101700003F4F2C3291E0390744F3EF90DF90CF90B8
:101710000895FF920F931F93CF93DF93603AD8F50C
:101720007536C8F5C42FF82E072F162F0E942E0BE2
:10173000892B89F5C43629F0C53631F4C3E4D1E0EC
:1017400005C0CEECD4E002C0C0E0D0E045E6612F99
:10175000702F8F2D0E942E0B892B59F045E6612F9B
:10176000702F8F2DDF91CF911F910F91FF900C94CF
:10177000560B80E090E028812F3F11F0283C29F49F
:1017800018830983FA828CE291E0239601968C32C9
:1017900021E0920784F3DF91CF911F910F91FF9089
:1017A0000895CF92DF92EF92FF920F931F93CF9302
:1017B000DF93C0E0D0E0E3E4F1E080818F3F59F0B7
:1017C0008F010D5F1F4F883C21F040E061810E9436
:1017D000DC0AF80102C0CCE2D1E02196CC3221E053
:1017E000D2075CF385E60E94120BE12CF12CCEECC3
:1017F000D4E003E411E088818F3FB1F0FE0133961D
:101800006F01883C79F04A8169810E94DC0A9981E4
:101810008A812881F801208391838283E6010D5F0C
:101820001F4F06C0EF0104C08CE2E82EFF24F394A2
:10183000FFEFEF1AFF0A2CE2E21621E0F206DCF2DB
:1018400084E6DF91CF911F910F91FF90EF90DF9091
:10185000CF900C94120BCF92DF92EF92FF920F93E6
:101860001F93CF93DF93803A9105E0F569367105B8
:10187000C8F5C42F7C018B01159507951595079523
:101880006B0183E0C822DD24C114D10421F4602F50
:101890008E2D0E94DC0A81E0C816D10411F484E088
:1018A0000BC082E0C816D10411F480E105C083E0CA
:1018B000C816D104B9F480E4C89FE00111244C2F6C
:1018C000602F8E2D0E94DC0A61E0600F4D2F8E2D5F
:1018D000DF91CF911F910F91FF90EF90DF90CF900C
:1018E0000C94DC0ADF91CF911F910F91FF90EF9044
:1018F000DF90CF900895CF92DF92EF9280E090E05A
:10190000A1EDB4E0EEECF4E0C0903201D0903301F0
:10191000E090340140814F3F49F1518172819C0137
:101920006C916F3FB9F0641313C011966C911197CD
:1019300065130EC012966C911297672B40835183EA
:101940006283CD92DD92EC92129740815181728137
:10195000139602C02CE231E02F5F3F4F2C3261E042
:101960003607F4F2DF011696339602C08CE291E05E
:1019700001968C3221E092076CF2EF90DF90CF90CD
:1019800008950E94640980E50E94040A2FEF83ED08
:1019900090E3215080409040E1F700C000008AE0D1
:1019A0000E94040A2FEF83ED90E321508040904085
:1019B000E1F700C0000082E2882E912CA12CB12C0E
:1019C000C0E30E94ED09A50194010E94220D672B3E
:1019D000682B692B61F40E94FC078091360190917D
:1019E0003701892B21F40E946C070E945A09C0908C
:1019F0003F01D0904001E0904101F09042010E94EF
:101A0000ED0926E9C20ED11CE11CF11C6C157D0507
:101A10008E059F05B0F2C0930401D3CF97FB072E2C
:101A200016F4009407D077FD09D00E94440D07FCFE
:101A300005D03EF4909581959F4F089570956195DE
:101A40007F4F0895A1E21A2EAA1BBB1BFD010DC0FA
:101A5000AA1FBB1FEE1FFF1FA217B307E407F5075E
:101A600020F0A21BB30BE40BF50B661F771F881F3A
:101A7000991F1A9469F760957095809590959B01D0
:101A8000AC01BD01CF010895AA1BBB1B51E107C0EA
:101A9000AA1FBB1FA617B70710F0A61BB70B881FFE
:101AA000991F5A95A9F780959095BC01CD0108958D
:101AB0008F929F92AF92BF92CF92DF92EF92FF925E
:101AC000CF93DF93EC01688179818A819B816115D5
:101AD00071058105910521F464E279ED8BE597E0CC
:101AE0002DE133EF41E050E00E94E90D49015A0138
:101AF0009B01AC01A7EAB1E40E94080E6B017C01D6
:101B0000ACEEB4EFA50194010E94160EDC01CB01EE
:101B10008C0D9D1DAE1DBF1DB7FF03C00197A10910
:101B2000B04888839983AA83BB839F77DF91CF9145
:101B3000FF90EF90DF90CF90BF90AF909F908F90ED
:101B400008950E94580D08958DE091E00E94580D6F
:101B50000895A0E0B0E080930D0190930E01A09352
:101B60000F01B09310010895BB274A3031F4992337
:101B700022F4BDE2909581959F4F0C94C00DBB2738
:101B8000FB015527AA27880F991FAA1FA41710F039
:101B9000A41B83955051B9F7A05DAA3308F0A95D45
:101BA000A193009779F7B111B1931192CB010C94E5
:101BB000D90DDC01FC01672F71917723E1F7329792
:101BC00004C07C916D9370836291AE17BF07C8F318
:101BD0000895052E97FB1EF400940E94000E57FDF9
:101BE00007D00E94220D07FC03D04EF40C94000E87
:101BF00050954095309521953F4F4F4F5F4F089539
:101C000090958095709561957F4F8F4F9F4F089568
:101C10000E941B0EA59F900DB49F900DA49F800D58
:101C2000911D11240895B7FF0C94080E0E94080E10
:101C3000821B930B0895A29FB001B39FC001A39F85
:101C4000700D811D1124911DB29F700D811D1124F5
:081C5000911D0895F894FFCFE7
:101C580003000202300500340005003400010000D2
:101C68000000000C005A5B001E003CC80014005A1B
:101C78002C011E0078900128001EFFFFFFFF00FFC7
:061C8800FFFFC8C8C80000
:00000001FF
