:100000000C9434000C9451000C9451000C94510049
:100010000C9451000C9451000C9451000C9421024A
:100020000C9451000C9451000C9451000C9451000C
:100030000C9451000C9451000C9451000C945100FC
:100040000C9451000C9451000C9451000C945100EC
:100050000C9451000C9451000C9451000C945100DC
:100060000C9451000C94510011241FBECFEFD8E026
:10007000DEBFCDBF11E0A0E0B1E0EAEEF7E002C0E4
:1000800005900D92A430B107D9F722E0A4E0B1E0C9
:1000900001C01D92AD33B207E1F70E9452030C94E8
:1000A000F3030C9400008DE091E090930C01809399
:1000B0000B0184E690E02091010130910201409112
:1000C0000301E0910B01F0910C01219331934193D5
:1000D000F0930C01E0930B01019769F78DE091E03B
:1000E00090930C0180930B010895803AE0F46536FB
:1000F000D0F4E0910B01F0910C0180836183428385
:100100003396F0930C01E0930B0180910A018F5F0D
:1001100080930A0180910A01843628F04FEF60E055
:1001200080E00C9435030895CF93DF938DE091E048
:1001300090930C0180930B01C0E0D0E0E0910B01A3
:10014000F0910C0180818F3F71F0428161810E94AA
:10015000350380910B0190910C01039690930C0153
:1001600080930B0102C0C4E6D0E02196C436D105CD
:100170002CF38DE091E090930C0180930B01DF91C3
:10018000CF910C9453000F931F93CF93DF93803A3A
:1001900008F04CC0653608F049C0162FC82FD62F7E
:1001A000D695D69529F040E06FEF6D0F0E9475004F
:1001B00040E06D2F8C2F0E94750001E00D0F40E094
:1001C000602F8C2F0E947500612F637079F4DD23FE
:1001D00031F040E06FEF6D0F8C2F0E9475004FEFF4
:1001E0006D2F8C2F0E94750040E018C0613039F4EB
:1001F0004CEF6D2F8C2F0E94750043E00FC06230D2
:1002000039F440EF6D2F8C2F0E9475004FE006C02F
:1002100040EC6D2F8C2F0E9475004FE3602F8C2FC8
:10022000DF91CF911F910F910C947500DF91CF91C9
:100230001F910F91089580910001803309F08CC0C7
:1002400035990DC081E3809300010E9446026093BE
:10025000040170930501809306019093070134997E
:100260000DC081E3809300010E9446026093040167
:100270007093050180930601909307014A9912C07B
:1002800081E3809300010E94460260930401709311
:100290000501809306019093070180910901815027
:1002A000809309014B9912C081E3809300010E9461
:1002B00046026093040170930501809306019093B8
:1002C0000701809109018F5F809309014D9912C048
:1002D00081E3809300010E944602609304017093C1
:1002E00005018093060190930701809108018F5FBB
:1002F000809308014C9912C081E3809300010E9411
:100300004602609304017093050180930601909367
:100310000701809108018150809308014E990DC01A
:1003200081E3809300010E94460260930401709370
:10033000050180930601909307014F990DC081E359
:10034000809300010E9446026093040170930501AE
:1003500080930601909307010895CF93DF93C8EC33
:10036000D0E04FEF69E189E10E9475002197C9F75C
:1003700060910901809108010E94C300DF91CF9133
:100380000C949400089508950E94510280E00E9408
:10039000DB010E940F028AB183708AB98BB18C6F26
:1003A0008BB987B18F7C87B988B1806388B90E9487
:1003B000BF020C94530097B121E030E0082E01C039
:1003C000220F0A94EAF72095292327B997E89093FA
:1003D0007A00806480937C0080917A0080648093AE
:1003E0007A0080917A0086FDFCCF089590917C0080
:1003F000907F90937C0090917C008F70982B9093CD
:100400007C0080917A00806480937A0080917A00E9
:1004100086FDFCCF8091780090917900089510922C
:10042000B20082E08093B00085E08093B1008DE758
:100430008093B300E0E7F0E080818260808378946D
:1004400008951F920F920FB60F9211248F939F93CE
:10045000AF93BF938091390290913A02A0913B02F1
:10046000B0913C020196A11DB11D80933902909379
:100470003A02A0933B02B0933C02BF91AF919F918F
:100480008F910F900FBE0F901F901895F894609168
:10049000390270913A0280913B0290913C0278942B
:1004A0000895E1ECF0E080818861808387E690E048
:1004B0009093C5008093C40008959091C00095FF6B
:1004C000FCCF8093C60080E090E00895CF93DF9347
:1004D000EC018991882319F00E945D02FACFDF9127
:1004E000CF9108951F93CF93DF93EC01FE011491F8
:1004F000812F0E945D02112311F02196F7CFDF9129
:10050000CF911F910895CF93DF93CDB7DEB72A9790
:100510000FB6F894DEBF0FBECDBF4AE0BE016F5FDD
:100520007F4F0E94BE03CE0101960E9466022A966A
:100530000FB6F894DEBF0FBECDBFDF91CF91089507
:100540008091C00087FFFCCF8091C60008956111A3
:10055000299A27E030E090E02D98AC01022E02C0ED
:10056000559547950A94E2F740FF02C02B9A01C0C7
:100570002B982D9A2150310978F729980895CF9317
:10058000DF93259A239A249A219A209A2C9A2998C3
:100590002D98289A85E38A95F1F70000289860E065
:1005A00081EF0E94A70260E087E60E94A70260E058
:1005B00086EC0E94A70260E080E40E94A70260E04F
:1005C00080E50E94A70260E08BE20E94A70260E043
:1005D0008BEE0E94A70260E081E80E94A70260E023
:1005E0008FE50E94A70260E089E80E94A702C0E4AC
:1005F000D0E161E080E00E94A7022197D1F760E09E
:1006000080E00E94A70260E080E10E94A70260E013
:1006100080E60E94A70260E08FEADF91CF910C9400
:10062000A702CF93DF9360E080E00E94A70260E022
:1006300080E10E94A70260E080E60E94A702C0E479
:10064000D0E161E080E00E94A7022197D1F760E04D
:1006500080E00E94A70260E080E10E94A70260E0C3
:1006600080E6DF91CF910C94A7021F93CF93DF9385
:10067000C82F162FD42F60E08F700E94A7028C2FF6
:1006800082958F7060E0805F0E94A70260E080E644
:10069000810F0E94A70261E08D2FDF91CF911F9102
:1006A0000C94A7020E94C40180E50E945D022FEF16
:1006B00083ED90E3215080409040E1F700C00000BE
:1006C0008AE00E945D022FEF83ED90E3215080408D
:1006D0009040E1F700C0000088E280930801809319
:1006E000090182E2882E912CA12CB12CC0E30E943A
:1006F0004602A50194010E949C03672B682B692B7D
:1007000021F40E941B010E94AD01C0900401D09011
:100710000501E0900601F09007010E94460226E9DB
:10072000C20ED11CE11CF11C6C157D058E059F05C8
:10073000F0F2C0930001DBCFA1E21A2EAA1BBB1B73
:10074000FD010DC0AA1FBB1FEE1FFF1FA217B3079D
:10075000E407F50720F0A21BB30BE40BF50B661FB3
:10076000771F881F991F1A9469F760957095809577
:1007700090959B01AC01BD01CF010895BB274A3084
:1007800031F4992322F4BDE2909581959F4F0C940A
:10079000CA03BB27FB015527AA27880F991FAA1F49
:1007A000A41710F0A41B83955051B9F7A05DAA338C
:1007B00008F0A95DA193009779F7B111B193119257
:1007C000CB010C94E303DC01FC01672F71917723CB
:1007D000E1F7329704C07C916D9370836291AE17FC
:0A07E000BF07C8F30895F894FFCF97
:0407EA0030FFFFFFDE
:00000001FF
