:100000000C9474000C9491000C9491000C94910049
:100010000C9491000C9491000C9491000C94130892
:100020000C9491000C9491000C9491000C9491000C
:100030000C9491000C9491000C9491000C949100FC
:100040000C9491000C9491000C9491000C949100EC
:100050000C9491000C9491000C9491000C949100DC
:100060000C9491000C94910024023302C302C80244
:10007000CD02430236025A027402A40AB60AC80A22
:10008000DA0AEC0AFE0A100B220B340BF1250E26BD
:100090000E26391F671F9D1FCB1FE61F1B204A20FE
:1000A0007E20B720E6200E260E260E260E260E26D1
:1000B0000E260E261A2157219321D52117225322CD
:1000C0008C22C922E222032331235F238123A02330
:1000D000BE23CB23072449248624C224E7240C25ED
:1000E0002B2555258F25AF2511241FBECFEFD8E036
:1000F000DEBFCDBF12E0A0E0B1E0ECE6FAE502C061
:1001000005900D92AA38B107D9F722E0AAE8B2E02B
:1001100001C01D92A83CB207E1F70E9481280C940F
:10012000342D0C94000080910401815080930401CF
:1001300082E090E090930101809300010895809106
:10014000950290919602883893410CF450C0E5EBEB
:10015000F2E0209195023091960280819181821B7C
:10016000930B91838083359682E0E43CF80789F70E
:10017000E3EAF2E02091950230919602808191812C
:10018000821B930B91838083369622E0E53BF20736
:1001900089F785E090E090930D0180930C01109217
:1001A00096021092950283E090E090930301809371
:1001B00002018091070187FF05C0809107018150EE
:1001C00080930701809105019091060108977CF4C6
:1001D000809105019091060101969093060180930C
:1001E000050180910501909106010C94870B0895FB
:1001F0008091100118168CF481E090E09093030137
:10020000809302011092940280910E018093A202C9
:1002100080911001815080931001089580910F0109
:10022000181684F482E090E0909303018093020119
:1002300088EF809394021092A20280910F01815066
:1002400080930F010895AF92CF92EF92FF920F9398
:100250001F93F801EC0DF11D8E179F07A4F4840F76
:10026000911D081719077CF4C7018A0D911D6817A5
:1002700079074CF4620F711D81E090E0E616F706F5
:1002800024F080E002C080E090E01F910F91FF9089
:10029000EF90CF90AF900895AF92CF92EF92FF92F0
:1002A0000F931F93CF93DF93C5EBD2E0609197023A
:1002B000709198028091950290919602EA80FB805D
:1002C00008811981605F7F4F28E0A22ECC8021E059
:1002D00048E00E942301009731F4259622E0C43CB7
:1002E000D20721F702C081E090E0DF91CF911F910A
:1002F0000F91FF90EF90CF90AF9008958F929F92C3
:10030000AF92CF92EF92FF920F931F93CF93DF9311
:1003100035EB832E32E0932EF401C281D3816091BC
:1003200097027091980280919502909196020081B7
:10033000118128E0A22EC4807E0120E140E10E94CC
:100340002301892B31F180910A0190910B010F96C5
:100350008C179D0754F46097D0939802C09397022E
:10036000109203011092020114C080910A01909131
:100370000B019E01295F3F4F2817390744F4289647
:10038000D0939802C09397021092940202C00E94E8
:100390009300F5E08F0E911C84EC881682E098069D
:1003A00009F0BACFDF91CF911F910F91FF90EF909D
:1003B000CF90AF909F908F9008952F923F924F9241
:1003C0005F926F927F928F929F92AF92BF92CF92E5
:1003D000DF92EF92FF920F931F93CF93DF93C3EAC5
:1003E000D2E04CE9842E99249A9453E0252E312CA6
:1003F00062E0662E712C44244394512CE4E1DE2EFD
:10040000F2E3BF2E6091970270919802809195025D
:1004100090919602EA80FB800881198128E0A22E43
:1004200038E0C32E20E140E10E942301892B09F42A
:10043000DBC0EC81FD813197E930F10508F0B3C0F4
:10044000EC5CFF4F0C942D2980910401853008F05D
:10045000A8C0809104018F5F809304018091040102
:100460000E94790C9EC00E9493009BC08091050160
:100470009091060108970CF094C08091050190912D
:10048000060101960CC0809105019091060102972A
:100490000CF087C08091050190910601019790931F
:1004A00006018093050180910501909106010E944B
:1004B000870B77C040910501509106018091900211
:1004C00090919102A0919202B0919302B49E9001FA
:1004D000B59E300D1124A901330F660B770B840FE5
:1004E000951FA61FB71F3CC0209105013091060142
:1004F000409190025091910260919202709193020A
:10050000D29EC001D39E900D1124092E000CAA0B7F
:10051000BB0B84179507A607B70748F01092900207
:1005200010929102109292021092930221C0409177
:100530000501509106018091900290919102A09145
:100540009202B0919302D49E9001D59E300D112459
:10055000A901330F660B770B841B950BA60BB70B0A
:100560008093900290939102A0939202B093930291
:100570006091900270919102809192029091930209
:100580000E94570B0EC050928B0240928A0209C003
:1005900070928B0260928A0204C030928B02209289
:1005A0008A021D821C8220910C0130910D016A810A
:1005B0007B8188819981820F931F0E94C21D99823D
:1005C00088829B828A8240910A0150910B0160913E
:1005D00097027091980200918A0210918B0221E398
:1005E00085E090E00E944409269682E0C53BD8074A
:1005F00009F008CFDF91CF911F910F91FF90EF90FD
:10060000DF90CF90BF90AF909F908F907F906F9032
:100610005F904F903F902F90089580919702909116
:1006200098028E36910514F00E9493000E949F005C
:10063000809197029091980290930B0180930A0108
:10064000809195029091960290939A0280939902DC
:10065000409105015091060160910701809195023A
:10066000909196020E9439280E94DD01809102013A
:1006700090910301892B81F580918A0290918B02E0
:100680008130910579F050F08230910591F0039717
:10069000C9F483E080930F0182E00FC082E0809371
:1006A0000F010BC082E080930F018093100188E15D
:1006B00007C082E080930F0183E0809310018CE0FB
:1006C00080930E010E944C01892B31F483E090E06D
:1006D00090930301809302018091020190910301A4
:1006E000029741F483E090E090930301809302012C
:1006F0000E947E018091A20218168CF58091020161
:1007000090910301019759F520910501309106015F
:100710008091A202821B8093A20280910501909198
:1007200006012091950230919602880F991F820F41
:10073000931F90939602809395022091050130912A
:10074000060180910C0190910D01220F331F821B35
:10075000930B90930D0180930C010E947E01809178
:10076000A202181684F08091020190910301019772
:1007700051F40E944C01892B31F483E090E0909376
:10078000030180930201809102019091030103977C
:10079000C9F4209194028091970290919802820F5F
:1007A000911D27FD9A9590939802809397028091CE
:1007B000940285302CF4809194028F5F8093940290
:1007C0000E947E01809195029091960264E670E00D
:1007D0000E94F728892B31F580910501909106013F
:1007E0004091900250919102609192027091930217
:1007F000092E000CAA0BBB0B840F951FA61FB71F59
:100800008093900290939102A0939202B0939302EE
:100810006091900270919102809192029091930266
:100820000E94570B2091050130910601809195029D
:1008300090919602820F931F909396028093950257
:10084000209105013091060180910C0190910D01DC
:10085000821B930B90930D0180930C01089580915E
:100860001101803309F071C2809100019091010162
:100870008330910569F020F4892B09F433C120C23B
:100880008430910509F497C0059709F418C118C27E
:100890004B9925C081E3809311010E943808609331
:1008A0009B0270939C0280939D0290939E026091A4
:1008B0000801809109010E94881E8091080190E042
:1008C000CD9724F480910801885F01C08CE2809369
:1008D000080160910801809109010E94F01D4A9968
:1008E00025C081E3809311010E94380860939B0228
:1008F00070939C0280939D0290939E0260910801E8
:10090000809109010E94881E8091080190E0C4979F
:1009100024F080910801885001C084E4809308018C
:1009200060910801809109010E94F01D4F990DC24C
:1009300081E3809311010E94380860939B027093B9
:100940009C0280939D0290939E02809108018C32BC
:1009500031F482E090E09093010180930001809156
:100960000801843349F460E070E0CB010E947728ED
:100970000E947D280E94570B809108018C3389F4D6
:100980000E94D90B84E090E09093010180930001D4
:1009900084E38093080160910801809109010E941D
:1009A000F01D80910801843409F0CFC10E94FB0B37
:1009B00085E090E0BFC14B9925C081E38093110190
:1009C0000E94380860939B0270939C0280939D0262
:1009D00090939E0260910801809109010E94881EF7
:1009E0008091080190E0C59724F480910801885F08
:1009F00001C08CE280930801609108018091090197
:100A00000E94F01D4A9925C081E3809311010E9444
:100A1000380860939B0270939C0280939D02909390
:100A20009E0260910801809109010E94881E8091B8
:100A3000080190E0C49724F080910801885001C01B
:100A40008CE38093080160910801809109010E9464
:100A5000F01D4F997AC181E3809311010E943808FB
:100A600060939B0270939C0280939D0290939E02E0
:100A7000809108018C3249F482E090E09093060165
:100A80008093050184E080930701809108018433FD
:100A900049F484E090E0909306018093050182E0A0
:100AA00080930701809108018C3359F486E090E02F
:100AB00090930601809305011092070102C04F999F
:100AC00044C183E090E090930101809300010E9473
:100AD000AD0B8CE2809308016091080180910901BF
:100AE0000C94F01D4A991BC081E3809311010E9470
:100AF000380860939B0270939C0280939D029093B0
:100B00009E022091050130910601809197029091FB
:100B10009802821B930B90939802809397024B99B3
:100B20001BC081E3809311010E94380860939B02EF
:100B300070939C0280939D0290939E0220910501E8
:100B4000309106018091970290919802820F931F35
:100B500090939802809397024D9929C081E38093E6
:100B600011010E94380860939B0270939C0280934D
:100B70009D0290939E022091050130910601809183
:100B8000950290919602820F931F90939602809304
:100B90009502209105013091060180910C01909100
:100BA0000D01821B930B90930D0180930C014C99C6
:100BB00029C081E3809311010E94380860939B0251
:100BC00070939C0280939D0290939E022091050158
:100BD000309106018091950290919602821B930BB1
:100BE0009093960280939502209105013091060121
:100BF00080910C0190910D01820F931F90930D0134
:100C000080930C014E990FC081E3809311010E94E3
:100C10000E010E94380860939B0270939C0280939F
:100C20009D0290939E024F990FC081E38093110122
:100C30000E94F8000E94380860939B0270939C0207
:100C400080939D0290939E02359923C081E3809307
:100C500011010E94380860939B0270939C0280935C
:100C60009D0290939E0283E090E090930101809317
:100C70000001109204010E94AD0B8CE380930901E6
:100C80008CE28093080160910801809109010E9423
:100C9000F01D34995AC081E3809311010E943808F5
:100CA00060939B0270939C0280939D0290939E029E
:100CB00081E090E090930101809300010C94231750
:100CC000359921C081E3809311010E943808609317
:100CD0009B0270939C0280939D0290939E0283E0FE
:100CE00090E090930101809300010E94AD0B8CE392
:100CF000809309018CE28093080160910801809142
:100D000009010E94F01D349920C081E380931101F4
:100D10000E94380860939B0270939C0280939D020E
:100D200090939E028091000190910101892B39F4EA
:100D300081E090E09093010180930001089510926A
:100D40000101109200010C94EB1608950F931F936C
:100D500060919502709196022091990230919A02C9
:100D600080910C0190910D01621B730B0E94E40CA9
:100D700060919502709196022091990230919A02A9
:100D800080910C0190910D01621B730B0E94B70CB6
:100D9000809102019091030140910A0150910B0151
:100DA0006091970270919802019731F000918A0248
:100DB00010918B0220E303C004E010E021E385E002
:100DC00090E00E9444091F910F9108950F931F9383
:100DD00083E090E0909301018093000180930401EF
:100DE00084E090E0909306018093050182E0809377
:100DF000070110928B0210928A020E94030944E3B9
:100E000064E384EC91E00E9497090E947D280091A0
:100E100090021091910220919202309193026017FA
:100E200071078207930780F444E46CE28EEC91E052
:100E30000E949709609190027091910280919202B4
:100E4000909193020E947728109290021092910242
:100E500010929202109293022FEF87EA91E62150AE
:100E600080409040E1F700C0000083E090E0909364
:100E70000101809300010E94AD0B8CE38093090176
:100E80008CE28093080160910801809109011F9113
:100E90000F910C94F01D0F931F93CF93DF938091CC
:100EA0000401811106C0DF91CF911F910F910C9425
:100EB000E6060E9403090E94A4270E94FD26809155
:100EC00004010E94790C60919002709191028091CE
:100ED0009202909193020E94570B8091050190918C
:100EE00006010E94870B85E090E090930D018093AE
:100EF0000C0180910C0190910D010E949B0CC1E0AE
:100F0000D0E0D0930B01C0930A0140910A015091A7
:100F10000B0100918A0210918B0220E360E070E0E7
:100F200085E090E00E9444090E94231710929602E7
:100F300010929502109298021092970210929402C9
:100F400083E090E09093030180930201D09301012C
:100F5000C0930001DF91CF911F910F9108950E94DE
:100F6000430884E00E94CD0784E00E94E8070E94C5
:100F700098290E9401088AB183708AB98BB18C6F5D
:100F80008BB987B18F7C87B988B1806388B90E949B
:100F9000B1080E94A4270C94FD2697B121E030E00F
:100FA000082E01C0220F0A94EAF72095292327B9B9
:100FB00097E890937A00806480937C0080917A0017
:100FC000806480937A0080917A0086FDFCCF08953A
:100FD00090917C00907F90937C0090917C008F702A
:100FE000982B90937C0080917A00806480937A00A3
:100FF00080917A0086FDFCCF8091780090917900F5
:1010000008951092B20082E08093B00085E0809352
:10101000B1008DE78093B300E0E7F0E0808182606B
:101020008083789408951F920F920FB60F92112427
:101030008F939F93AF93BF938091C4029091C50209
:10104000A091C602B091C7020196A11DB11D809367
:10105000C4029093C502A093C602B093C702BF9189
:10106000AF919F918F910F900FBE0F901F90189589
:10107000F8946091C4027091C5028091C60290916B
:10108000C70278940895E1ECF0E080818861808364
:1010900087E690E09093C5008093C40008959091F6
:1010A000C00095FFFCCF8093C60080E090E00895DB
:1010B000CF93DF93EC018991882319F00E944F08A8
:1010C000FACFDF91CF9108951F93CF93DF93EC0177
:1010D000FE011491812F0E944F08112311F02196D7
:1010E000F7CFDF91CF911F910895CF93DF93CDB7C5
:1010F000DEB72A970FB6F894DEBF0FBECDBF4AE029
:10110000BE016F5F7F4F0E94A329CE0101960E940E
:1011100058082A960FB6F894DEBF0FBECDBFDF91F8
:10112000CF9108958091C00087FFFCCF8091C600C9
:1011300008956111299A27E030E090E02D98AC01E4
:10114000022E02C0559547950A94E2F740FF02C06F
:101150002B9A01C02B982D9A2150310978F72998A4
:101160000895CF93DF93259A239A249A219A209A5F
:101170002C9A29982D98289A85E38A95F1F70000F2
:10118000289860E081EF0E94990860E087E60E945D
:10119000990860E086EC0E94990860E080E40E9473
:1011A000990860E080E50E94990860E08BE20E9467
:1011B000990860E08BEE0E94990860E081E80E9447
:1011C000990860E08FE50E94990860E089E80E9434
:1011D0009908C0E4D0E161E080E00E94990821977D
:1011E000D1F760E080E00E94990860E080E10E9411
:1011F000990860E080E60E94990860E08FEADF913C
:10120000CF910C949908CF93DF9360E080E00E9427
:10121000990860E080E10E94990860E080E60E9401
:101220009908C0E4D0E161E080E00E94990821972C
:10123000D1F760E080E00E94990860E080E10E94C0
:10124000990860E080E6DF91CF910C9499081F9394
:10125000CF93DF93C82F162FD42F60E08F700E949A
:1012600099088C2F82958F7060E0805F0E949908AA
:1012700060E080E6810F0E94990861E08D2FDF9188
:10128000CF911F910C949908EF92FF920F931F93A7
:10129000CF937B016417750719F4213309F041C01E
:1012A000BA01C82F0E94050D0230110541F178F4F2
:1012B00001151105D9F00130110599F56E2D8C2F0E
:1012C000CF911F910F91FF90EF900C94E513033095
:1012D0001105F1F00430110521F56E2D8C2FCF9101
:1012E0001F910F91FF90EF900C94C80E6E2D8C2FD4
:1012F000CF911F910F91FF90EF900C9438106E2DAD
:101300008C2FCF911F910F91FF90EF900C945A1159
:101310006E2D8C2FCF911F910F91FF90EF900C9419
:10132000A712CF911F910F91FF90EF900895AF9268
:10133000BF92CF92DF92EF92FF920F931F93CF93C2
:10134000DF93D62EC42E8C01D0E0C0E0E62EF12C27
:101350005801F8018081882331F1C7018C0F911D5C
:101360008B3991054CF04D2F4C0D6C2F6D0D8DE28E
:101370000E94201FD75FC0E04D2F4C0D6C2F6D0DCC
:10138000D8018D918D010E94201FD501EC91E05272
:10139000EB3328F4F0E0EA5EFE4F608101C060E0CC
:1013A000C60FCF5FD5CFDF91CF911F910F91FF90E7
:1013B000EF90DF90CF90BF90AF90089580528B3325
:1013C00030F4E82FF0E0EA5EFE4F8081089580E07F
:1013D000089568E280E00E94492661E482E60E9466
:1013E00038106DE286E70E94E51365E586E70E9406
:1013F0005A1161E482E80E94A7126DE080E00C942B
:101400006826CF92DF92EF92FF920F931F93CF93B4
:10141000DF93803A910508F051C06936710508F0F4
:101420004DC0042F7C01EB01D595C795D595C79587
:101430006B0183E0C822DD24C114D10421F46C2F98
:101440008E2D0E94270981E0C816D10411F484E092
:101450000BC082E0C816D10411F480E105C083E01E
:10146000C816D10459F580E4089F80011124D02EBC
:1014700080919F0290E0E816F90649F48091A0025D
:1014800090E0C817D90719F4D090A102D02A4D2DA9
:101490006C2F8E2D0E942709E0929F02C093A0021C
:1014A000D092A102CF5F412F6C2F8E2D0E94270971
:1014B000E0929F02C093A0021093A102DF91CF910E
:1014C0001F910F91FF90EF90DF90CF9008954F9272
:1014D0005F926F927F928F929F92AF92BF92CF92C4
:1014E000DF92EF92FF920F931F93CF93DF932C0124
:1014F0003B01EA01790100E010E06C0188E0C80ED0
:10150000D11C5B0184E0A80EB11C0E151F0584F4EC
:101510004601800E911E40E0B301C4010E94010A01
:1015200040E0B501C4010E94010A0F5F1F4FEDCFDB
:10153000FE013197E930F10508F0A8C0E35CFF4FE8
:10154000B301C2010C942D29DF91CF911F910F910E
:10155000FF90EF90DF90CF90BF90AF909F908F90D3
:101560007F906F905F904F900C945D19DF91CF91B9
:101570001F910F91FF90EF90DF90CF90BF90AF90B1
:101580009F908F907F906F905F904F900C94DA199E
:10159000DF91CF911F910F91FF90EF90DF90CF904F
:1015A000BF90AF909F908F907F906F905F904F9083
:1015B0000C94571ADF91CF911F910F91FF90EF90EC
:1015C000DF90CF90BF90AF909F908F907F906F9063
:1015D0005F904F900C94D41ADF91CF911F910F918F
:1015E000FF90EF90DF90CF90BF90AF909F908F9043
:1015F0007F906F905F904F900C94511BDF91CF9133
:101600001F910F91FF90EF90DF90CF90BF90AF9020
:101610009F908F907F906F905F904F900C94CE1B17
:10162000DF91CF911F910F91FF90EF90DF90CF90BE
:10163000BF90AF909F908F907F906F905F904F90F2
:101640000C944B1CDF91CF911F910F91FF90EF9065
:10165000DF90CF90BF90AF909F908F907F906F90D2
:101660005F904F900C94C81CDF91CF911F910F9108
:10167000FF90EF90DF90CF90BF90AF909F908F90B2
:101680007F906F905F904F900C94451DDF91CF91AC
:101690001F910F91FF90EF90DF90CF90BF90AF9090
:1016A0009F908F907F906F905F904F9008950F93D1
:1016B0001F93CF93DF93CDB7DEB762970FB6F89441
:1016C000DEBF0FBECDBF9F938F937F936F938CED43
:1016D00091E09F938F938E010F5F1F4F1F930F9386
:1016E0000E94C82940E66DE6C8010E9497090FB61E
:1016F000F894DEBF0FBECDBF62960FB6F894DEBF82
:101700000FBECDBFDF91CF911F910F9108950F9321
:101710001F93CF93DF9300D0CDB7DEB79F938F9306
:1017200082EE91E09F938F938E010F5F1F4F1F9367
:101730000F930E94C82940E662E3C8010E949709FE
:101740000F900F900F900F900F900F900F900F90A1
:10175000DF91CF911F910F9108950E94030960E0DE
:1017600080E00E94682668E280E00E94492648E105
:1017700069E485EE91E00E9497094CE269E480EF0C
:1017800091E00E94970944E369E48CEF91E00E94A4
:1017900097090E947D280E94570B4CE369E48CE076
:1017A00092E00E94970944E469E48AE192E00C9493
:1017B00097090E94030960E080E00E94682668E2C1
:1017C00080E00E94492648E169E48CE092E00E94B2
:1017D00097094CE269E484E292E00E94970944E3AD
:1017E00069E48BE292E00E9497094CE369E482E3AA
:1017F00092E00C9497090E94030960E080E00E9447
:10180000682668E170E080E590E00E945D1948E19B
:101810006AE589E392E00E94970964E270E080E55E
:1018200090E00E94CE1B44E26AE58EE392E00E94C3
:10183000970960E370E080E590E00E94C81C40E3F7
:101840006AE589E492E00E94970960E470E084E12F
:1018500090E00E94571A4AE46AE083E592E00E9411
:10186000970968E58FE00E94E51360E470E086E484
:1018700090E00E94D41A4AE468E38AE592E00E946C
:10188000970968E581E40E945A1160E470E088E7F6
:1018900090E00E94511B4AE46EE683E692E00E94CB
:1018A000970968E583E70E94A71268E170E085E088
:1018B00090E00E94DA1948E16FE08AE692E00E9427
:1018C000970964E270E085E090E00E944B1C44E2DE
:1018D0006FE085E792E00E94970960E370E085E0A1
:1018E00090E00E94451D40E36FE08EE792E00C948B
:1018F0009709EF92FF920F931F93CF93DF9391E499
:10190000E92EF12C00E010E0C82FD0E00C171D07E5
:101910005CF460E670E0C7010E945E150F5F1F4F28
:1019200088E0E80EF11CF2CFDF91CF911F910F916B
:10193000FF90EF9008951F93CF93DF93C0E0D0E026
:1019400015E01C9FF0011D9FF00D1124EB54FD4F7D
:10195000408151816281738184810E94DF152196CB
:10196000C330D10571F7DF91CF911F910895BF92D8
:10197000CF92DF92EF92FF920F931F93CF93DF935B
:101980007C016B01C0E0D0E085E0B82EBC9EF00188
:10199000BD9EF00D1124EB54FD4F8601970140814F
:1019A00051816281738184810E945B172196C330CB
:1019B000D10561F7DF91CF911F910F91FF90EF90CB
:1019C000DF90CF90BF900895EF92FF920F931F93F7
:1019D000CF93DF938C017B01C3EAD2E04C815D8120
:1019E0006A817B81888199819701800F911F0E9474
:1019F000670A269682E0C53BD80781F7DF91CF9131
:101A00001F910F91FF90EF900895CF92DF92EF9288
:101A1000FF921F93CF93DF936B017C0111E1C0E034
:101A2000D0E0B6016C0F7D1F40E0C7010E94010AA3
:101A30002496C031D105A9F711508FEFE81AF80AA2
:101A40001111EDCFDF91CF911F91FF90EF90DF90BB
:101A5000CF9008958F929F92AF92BF92CF92DF92D4
:101A6000EF92FF920F931F93CF93DF934C01EB0103
:101A70004FEF0E94010A6E0184E0C80ED11C4FEFA7
:101A8000B601C4010E94010A7E0188E0E80EF11C43
:101A90004FEFB701C4010E94010A8E01045F1F4F7E
:101AA0004FEFB801C4010E94010A54018FEFA81A38
:101AB000B80A4FEFBE01C5010E94010A4FEFB601FF
:101AC000C5010E94010A4FEFB701C5010E94010A3A
:101AD0004FEFB801C5010E94010A540182E0A80E2F
:101AE000B11C4FEFBE01C5010E94010A4FEFB601C4
:101AF000C5010E94010A4FEFB701C5010E94010A0A
:101B00004FEFB801C5010E94010A540183E0A80EFD
:101B1000B11C4FEFBE01C5010E94010A4FEFB60193
:101B2000C5010E94010A4FEFB701C5010E94010AD9
:101B30004FEFB801C5010E94010A540184E0A80ECC
:101B4000B11C4FEFBE01C5010E94010A4FEFB60163
:101B5000C5010E94010A4FEFB701C5010E94010AA9
:101B60004FEFB801C5010E94010A540185E0A80E9B
:101B7000B11C4FEFBE01C5010E94010A4FEFB60133
:101B8000C5010E94010A4FEFB701C5010E94010A79
:101B90004FEFB801C5010E94010A540186E0A80E6A
:101BA000B11C4FEFBE01C5010E94010A4FEFB60103
:101BB000C5010E94010A4FEFB701C5010E94010A49
:101BC0004FEFB801C5010E94010A540187E0A80E39
:101BD000B11C4FEFBE01C5010E94010A4FEFB601D3
:101BE000C5010E94010A4FEFB701C5010E94010A19
:101BF0004FEFB801C5010E94010A540188E0A80E08
:101C0000B11C4FEFBE01C5010E94010A4FEFB601A2
:101C1000C5010E94010A4FEFB701C5010E94010AE8
:101C20004FEFB801C5010E94010A540189E0A80ED6
:101C3000B11C4FEFBE01C5010E94010A4FEFB60172
:101C4000C5010E94010A4FEFB701C5010E94010AB8
:101C50004FEFB801C5010E94010A54018AE0A80EA5
:101C6000B11C4FEFBE01C5010E94010A4FEFB60142
:101C7000C5010E94010A4FEFB701C5010E94010A88
:101C80004FEFB801C5010E94010A54018BE0A80E74
:101C9000B11C4FEFBE01C5010E94010A4FEFB60112
:101CA000C5010E94010A4FEFB701C5010E94010A58
:101CB0004FEFB801C5010E94010A54018CE0A80E43
:101CC000B11C4FEFBE01C5010E94010A4FEFB601E2
:101CD000C5010E94010A4FEFB701C5010E94010A28
:101CE0004FEFB801C5010E94010A54018DE0A80E12
:101CF000B11C4FEFBE01C5010E94010A4FEFB601B2
:101D0000C5010E94010A4FEFB701C5010E94010AF7
:101D10004FEFB801C5010E94010A54018EE0A80EE0
:101D2000B11C4FEFBE01C5010E94010A4FEFB60181
:101D3000C5010E94010A4FEFB701C5010E94010AC7
:101D40004FEFB801C5010E94010A8FE0880E911C77
:101D50004FEFBE01C4010E94010A4FEFB601C4015A
:101D60000E94010A4FEFB701C4010E94010A4FEF20
:101D7000B801C401DF91CF911F910F91FF90EF90B7
:101D8000DF90CF90BF90AF909F908F900C94010AFE
:101D90008F929F92AF92BF92CF92DF92EF92FF927B
:101DA0000F931F93CF93DF93C62FD0E06E0194E083
:101DB000C90ED11C882E912C43E0B601C4010E94AB
:101DC000010A7E0188E0E80EF11C40ECB701C40175
:101DD0000E94010A54019FEFA91AB90A44E0BE010A
:101DE000C5010E94010A43E3B601C5010E94010A30
:101DF00040ECB701C5010E94010A8E01045F1F4F2C
:101E000040E1B801C5010E94010A540182E0A80E18
:101E1000B11C44E0BE01C5010E94010A43E3B601C2
:101E2000C5010E94010A4CECB701C5010E94010ADC
:101E300040E1B801C5010E94010A540193E0A90ED6
:101E4000B11C44E3BE01C5010E94010A43E3B6018F
:101E5000C5010E94010A4CECB701C5010E94010AAC
:101E60004CE0B801C5010E94010A540184E0A80EAB
:101E7000B11C40E3BE01C5010E94010A43E0B60166
:101E8000C5010E94010A4CECB701C5010E94010A7C
:101E90004CE0B801C5010E94010A540195E0A90E69
:101EA000B11C40E3BE01C5010E94010A43E4B60132
:101EB000C5010E94010A40ECB701C5010E94010A58
:101EC0004CE0B801C5010E94010A540186E0A80E49
:101ED000B11C40E3BE01C5010E94010A4CE0B801FB
:101EE000C5010E94010A540197E0A90EB11C44E00B
:101EF000B601C5010E94010A40E1B701C5010E9477
:101F0000010A540188E0A80EB11C4CE0BE01C501D5
:101F10000E94010A41E4B701C5010E94010A40E3A1
:101F2000B801C5010E94010A540199E0A90EB11C33
:101F30004CE0BE01C5010E94010A41E0B701C501A4
:101F40000E94010A40E3B801C5010E94010A540140
:101F50008AE0A80EB11C4CE0BE01C5010E94010A36
:101F600042E0B601C5010E94010A40E8B701C5017F
:101F70000E94010A40E3B801C5010E94010A540110
:101F80009BE0A90EB11C40E3BE01C5010E94010AFD
:101F900042E0B601C5010E94010A40E8B701C5014F
:101FA0000E94010A4CE0B801C5010E94010A5401D7
:101FB0008CE0A80EB11C43E3BE01C5010E94010ADA
:101FC00040E2B601C5010E94010A48E0B701C5011F
:101FD0000E94010A4CECB801C5010E94010A54019B
:101FE0009DE0A90EB11C43ECBE01C5010E94010A8F
:101FF00043ECB801C5010E94010A54018EE0A80E0D
:10200000B11C4CE0BE01C5010E94010A43E0B601CB
:10201000C5010E94010A40ECB701C5010E94010AF6
:1020200040E3B801C5010E94010A9FE0890E911C9E
:1020300040E3BE01C4010E94010A4CEFB601C40195
:102040000E94010A4FE3B701C4010E94010A4CE05B
:10205000B801C401DF91CF911F910F91FF90EF90D4
:10206000DF90CF90BF90AF909F908F900C94010A1B
:102070008F929F92AF92BF92CF92DF92EF92FF9298
:102080000F931F93CF93DF93E62EF12C87010C5F04
:102090001F4FC82FD0E040E4B801CE010E94010AD2
:1020A000670188E0C80ED11C41E0B601CE010E9454
:1020B000010A5E018FEFA81AB80A40E4B801C50111
:1020C0000E94010A41E0B601C5010E94010A5E01B9
:1020D00082E0A80EB11C40ECB801C5010E94010AC3
:1020E00043E0B601C5010E94010A5E0183E0A80E2B
:1020F000B11C40EFB801C5010E94010A47018CE004
:10210000880E911C4CEFB401C5010E94010A5E01CA
:1021100084E0A80EB11C40EFB801C5010E94010A7D
:1021200044E1B401C5010E94010A5E0185E0A80EE8
:10213000B11C40EAB701C5010E94010A42EFB80193
:10214000C5010E94010A45E1B401C5010E94010ACE
:102150005E0186E0A80EB11C48EAB701C5010E94E5
:10216000010A4EEFB801C5010E94010A4FE5B60110
:10217000C5010E94010A45E0B401C5010E94010A9F
:102180005E0187E0A80EB11C4AE5B701C5010E94B7
:10219000010A4DEFB801C5010E94010A4FE5B601E1
:1021A000C5010E94010A41E0B401C5010E94010A73
:1021B0005E0188E0A80EB11C4AEDB701C5010E947E
:1021C000010A4DEFB801C5010E94010A4FE5B601B1
:1021D000C5010E94010A5E0189E0A80EB11C4AE512
:1021E000B701C5010E94010A4DEFB801C5010E9467
:1021F000010A4FE5B601C5010E94010A5E018AE0AD
:10220000A80EB11C4AEDB701C5010E94010A4DEFAD
:10221000B801C5010E94010A4FE5B601C5010E943F
:10222000010A45EDB401C5010E94010A5E018BE07F
:10223000A80EB11C42E0B701C5010E94010A40EF9F
:10224000B801C5010E94010A40E4B601C5010E941F
:10225000010A45EDB401C5010E94010A7E018CE02E
:10226000E80EF11C40EFB801C7010E94010A40ECE2
:10227000B401C7010E94010A4CE3B801CE010D96DA
:102280000E94010A44E1B801CE010E960E94010AA3
:1022900044E1B801CE010F96DF91CF911F910F91CC
:1022A000FF90EF90DF90CF90BF90AF909F908F9076
:1022B0000C94010A8F929F92AF92BF92CF92DF92BD
:1022C000EF92FF920F931F93CF93DF93062F10E0AF
:1022D00078019CE0E90EF11C882E912C40ECB701AE
:1022E000C4010E94010AE801249654018FEFA81A44
:1022F000B80A40EFBE01C5010E94010A680198E0DA
:10230000C90ED11C4FE5B601C5010E94010A40EF7C
:10231000B701C5010E94010A540182E0A80EB11C58
:1023200043E0B801C5010E94010A4CEFBE01C5019E
:102330000E94010A4FE1B601C5010E94010A4CEF5B
:10234000B701C5010E94010A540193E0A90EB11C16
:102350004FE0B801C5010E94010A4FE3BE01C5016B
:102360000E94010A4FEFB701C5010E94010A540102
:1023700084E0A80EB11C4FE3B801C5010E94010A18
:102380004FEFBE01C5010E94010A4FEFB601C50122
:102390000E94010A4FEFB701C5010E94010A5401D2
:1023A00095E0A90EB11C4FEFB801C5010E94010ACA
:1023B0004FEFBE01C5010E94010A4FEFB601C501F2
:1023C0000E94010A4FEFB701C5010E94010A5401A2
:1023D00086E0A80EB11C4FE9B801C5010E94010AB0
:1023E0004DEFBE01C5010E94010A4FEFB601C501C4
:1023F0000E94010A4FEFB701C5010E94010A540172
:1024000097E0A90EB11C4FE5B801C5010E94010A71
:102410004DEFBE01C5010E94010A4FEFB601C50193
:102420000E94010A4FEFB701C5010E94010A540141
:1024300088E0A80EB11C4CE9B801C5010E94010A50
:102440004DEFBE01C5010E94010A4FEFB601C50163
:102450000E94010A4FEFB701C5010E94010A540111
:1024600099E0A90EB11C4CEFBE01C5010E94010A02
:102470004FEFB601C5010E94010A4FEFB701C50138
:102480000E94010A4CEFBE01C4010A960E94010A93
:102490004CE3BE01C4010B960E94010A4CE3BE014D
:1024A000C4010C960E94010A54018DE0A80EB11CD3
:1024B0004FEBB801C5010E94010A40EFBE01C50102
:1024C0000E94010A48EAB601C5010E94010A40EAD9
:1024D000B701C5010E94010A54019EE0A90EB11C7A
:1024E00047EBB801C5010E94010A4AE5BE01C501DA
:1024F0000E94010A4AEAB601C5010E94010A4AEA9D
:10250000B701C5010E94010A8FE0880E911C4FE3BC
:10251000B801C4010E94010A4AE9BE01C4010E9437
:10252000010A4AE8B601C4010E94010A4AE0B70163
:10253000C401DF91CF911F910F91FF90EF90DF9039
:10254000CF90BF90AF909F908F900C94010A8F9284
:102550009F92AF92BF92CF92DF92EF92FF920F9332
:102560001F93CF93DF93862E912C640198E0C90EC0
:10257000D11CC82FD0E040E3B601CE010E94010A71
:1025800084010C5F1F4F7E018FEFE81AF80A40E8C4
:10259000B801C7010E94010A4AE5B601C7010E94BD
:1025A000010A5E0192E0A90EB11C40EAB801C50122
:1025B0000E94010A4AEDB601C5010E94010A740198
:1025C0008CE0E80EF11C4CEFB701C5010E94010A36
:1025D0005E0193E0A90EB11C48E2B801C5010E945A
:1025E000010A4FEFB701C5010E94010A5E0184E0B4
:1025F000A80EB11C48EAB801C5010E94010A4AEBC5
:10260000B601C5010E94010A4EE2B701C5010E9450
:10261000010A5E0195E0A90EB11C4CEFB401C501A1
:102620000E94010A4BEAB801C5010E94010A4AEB67
:10263000B601C5010E94010A4AE3B701C5010E9423
:10264000010A5E0186E0A80EB11C4FE9B401C50184
:102650000E94010A49EBB801C5010E94010A4BE33F
:10266000B601C5010E94010A5E0197E0A90EB11CE6
:102670004FE5B401C5010E94010A4DEFB801C50143
:102680000E94010A4FE3B601C5010E94010A5E01E2
:1026900088E0A80EB11C4CE9B401C5010E94010AF2
:1026A00049EBB801C5010E94010A4BEBB601C50117
:1026B0000E94010A4AEEB701C5010E94010A5E01AB
:1026C00099E0A90EB11C48EAB801C5010E94010AAF
:1026D0004AEBB601C5010E94010A4AEEB701C501E5
:1026E0000E94010A5E018AE0A80EB11C48E2B8010E
:1026F000C5010E94010A40ECB701C5010E94010A10
:1027000048E2B801CE010B960E94010A5E019CE0EE
:10271000A90EB11C4FE5B401C5010E94010A49E6AA
:10272000B801C5010E94010A45E5B601C5010E9434
:10273000010A45EFB701C5010E94010A5E018DE063
:10274000A80EB11C4CE3B401C5010E94010A40EA85
:10275000B801C5010E94010A4CE3B701C5010E94FE
:10276000010A5E019EE0A90EB11C40EFB401C50153
:102770000E94010A40E5B801C5010E94010A4FE02C
:10278000B701C5010E94010A2F9640ECB401CE01A9
:102790000E94010A4FEDB801CE010E94010A4FEFDD
:1027A000B601CE010E94010A43E0B701CE01DF91DC
:1027B000CF911F910F91FF90EF90DF90CF90BF903E
:1027C000AF909F908F900C94010A8F929F92AF923E
:1027D000BF92CF92DF92EF92FF920F931F93CF930E
:1027E000DF93062F10E0E8012896882E912C42E016
:1027F000BE01C4010E94010A780184E0E80EF11CC8
:1028000054018FEFA81AB80A40EFB701C5010E9422
:10281000010A4BE0BE01C5010E94010A68018CE07B
:10282000C80ED11C42E0B601C5010E94010A540144
:1028300082E0A80EB11C4CEFB701C5010E94010A4D
:102840004FEBBE01C5010E94010A40EFB601C50170
:102850000E94010A540183E0A80EB11C4FE3B701A6
:10286000C5010E94010A40EABE01C5010E94010A99
:102870004DEFB601C5010E94010A540184E0A80E83
:10288000B11C43E0B801C5010E94010A4FEFB70136
:10289000C5010E94010A4BE7BE01C5010E94010A61
:1028A00045E3B601C5010E94010A540185E0A80E66
:1028B000B11C4FEFB801C5010E94010A4AEFB701F0
:1028C000C5010E94010A4FEFBE01C5010E94010A25
:1028D00045E1B601C5010E94010A540186E0A80E37
:1028E000B11C4FEFB801C5010E94010A47EAB701C8
:1028F000C5010E94010A4EEFBE01C5010E94010AF6
:1029000044E5B601C5010E94010A540187E0A80E02
:10291000B11C4FEDB801C5010E94010A47E5B7019E
:10292000C5010E94010A4EEFBE01C5010E94010AC5
:1029300043E5B601C5010E94010A540188E0A80ED2
:10294000B11C4CE5B801C5010E94010A47E5B70179
:10295000C5010E94010A4DEFBE01C5010E94010A96
:102960004FEFB601C5010E94010A540189E0A80E8B
:10297000B11C4FEFB701C5010E94010A43E0BE013F
:10298000C5010E94010A4FEFB601C5010E94010A6C
:1029900054018AE0A80EB11C40ECB801C5010E94A8
:1029A000010A4FEFB701C5010E94010A4FEFBE01B6
:1029B000C5010E94010A54018BE0A80EB11C40EF32
:1029C000B801C5010E94010A4AEAB701C5010E9487
:1029D000010A4AEABE01C5010E94010A43E0B601AC
:1029E000C5010E94010A54018CE0A80EB11C4CEAFA
:1029F000B801C5010E94010A45E5B701C5010E9461
:102A0000010A45E9BE01C5010E94010A4EE0B60176
:102A1000C5010E94010A54018DE0A80EB11C4CE6CC
:102A2000B801C5010E94010A45E7B701C5010E942E
:102A3000010A45E5BE01C5010E94010A4EE0B6014A
:102A4000C5010E94010A54018EE0A80EB11C4CE69B
:102A5000B801C5010E94010A4DEFB701C5010E94EE
:102A6000010A4FE5BE01C5010E94010A4EE0B60110
:102A7000C5010E94010A8FE0880E911C40EFB80149
:102A8000C4010E94010A4FEFB701C4010E94010A6C
:102A90004FEFBE01C4010E94010A43E0B601C40128
:102AA000DF91CF911F910F91FF90EF90DF90CF902A
:102AB000BF90AF909F908F900C94010ACF92DF92BD
:102AC000EF92FF920F931F93CF93DF938C01EB0153
:102AD0004CEF0E94010A68018FEFC81AD80A4FEF25
:102AE000BE01C6010E94010A7E0184E0E80EF11CCD
:102AF00043E0B701C6010E94010A680182E0C80EE6
:102B0000D11C4FEFBE01C6010E94010A4FE0B70180
:102B1000C6010E94010A680183E0C80ED11C4CEF77
:102B2000BE01C6010E94010A4FE3B701C6010E941F
:102B3000010A680184E0C80ED11C40EFBE01C60145
:102B40000E94010A4FEFB701C6010E94010A680105
:102B500085E0C80ED11C4CEFBE01C6010E94010ADF
:102B60004FE3B701C6010E94010A680186E0C80E62
:102B7000D11C4FEFBE01C6010E94010A4FE0B70110
:102B8000C6010E94010A680187E0C80ED11C4FEF00
:102B9000BE01C6010E94010A43E0B701C6010E94BE
:102BA000010A4CEFBE01C8010896DF91CF911F9139
:102BB0000F91FF90EF90DF90CF900C94010A8F92CD
:102BC0009F92AF92BF92CF92DF92EF92FF920F93BC
:102BD0001F93CF93DF9300D000D01F92CDB7DEB705
:102BE00049835A836B837C838D83EB80FC800981CE
:102BF0001A81A12CB12C670184E0C80ED11C8D81F3
:102C000090E0A816B90608F0D4C04FEFB701C8018C
:102C10000E94010A47E5B601C8010E94010A480165
:102C20008FEF881A980A4FEFB701C4010E94010A7A
:102C300045E5B601C4010E94010A480182E0880E00
:102C4000911C4FE7B701C4010E94010A45E5B60196
:102C5000C4010E94010A480183E0880E911C4FEFD5
:102C6000B701C4010E94010A47E5B601C4010E94F0
:102C7000010A480184E0880E911C4FEFB701C4019E
:102C80000E94010A45E5B601C4010E94010A4801FB
:102C900085E0880E911C4FE7B701C4010E94010A2C
:102CA00045E5B601C4010E94010A480186E0880E8C
:102CB000911C4FEFB701C4010E94010A47E5B6011C
:102CC000C4010E94010A480187E0880E911C4FEF61
:102CD000B701C4010E94010A45E5B601C4010E9482
:102CE000010A480188E0880E911C4FE7B701C40132
:102CF0000E94010A45E5B601C4010E94010A48018B
:102D000089E0880E911C4FEFB701C4010E94010AAF
:102D100047E5B601C4010E94010A48018AE0880E15
:102D2000911C4FEFB701C4010E94010A45E5B601AD
:102D3000C4010E94010A48018BE0880E911C4FE7F4
:102D4000B701C4010E94010A45E5B601C4010E9411
:102D5000010A48018CE0880E911C4FEFB701C401B5
:102D60000E94010A47E5B601C4010E94010A480118
:102D70008DE0880E911C4FEFB701C4010E94010A3B
:102D800045E5B601C4010E94010A48018EE0880EA3
:102D9000911C4FE7B701C4010E94010A45E5B60145
:102DA000C4010E94010A8FE0A80EB11C015F1F4FF1
:102DB00026CF0F900F900F900F900F90DF91CF9133
:102DC0001F910F91FF90EF90DF90CF90BF90AF9049
:102DD0009F908F90089540E060E670E080E090E082
:102DE0000E94010A40E064E670E080E090E00E940A
:102DF000010A40E060E670E081E090E00E94010A94
:102E000040E064E670E081E090E00E94010A40E06A
:102E100060E670E083E090E00E94010A40E064E632
:102E200070E083E090E00E94010A40E060E670E01C
:102E300084E090E00E94010A40E064E670E084E0F3
:102E400090E00C94010A4FEF60E670E080E090E0C3
:102E50000E94010A4FEF64E670E080E090E00E947B
:102E6000010A4FEF60E670E081E090E00E94010A05
:102E70004FEF64E670E081E090E00E94010A4FEFBE
:102E800060E670E083E090E00E94010A4FEF64E6A4
:102E900070E083E090E00E94010A4FEF60E670E08E
:102EA00084E090E00E94010A4FEF64E670E084E065
:102EB00090E00C94010A2F923F924F925F926F9292
:102EC0007F928F929F92AF92BF92CF92DF92EF92BA
:102ED000FF920F931F93CF93DF93CDB7DEB7279762
:102EE0000FB6F894DEBF0FBECDBF49835A836B8304
:102EF0007C8319011F830E8349805A800B811C81BA
:102F0000C12CD12C682E712CC80104967C01520171
:102F1000A60CB71CA20EB31E8E819F81C816D906BF
:102F20008CF445018C0C9D1C40E0B801C4010E944A
:102F3000010A40E0B701C4010E94010A9FEFC91ACB
:102F4000D90AEACF420C531C4FEFB801C2010E94CC
:102F5000010A47E5B701C2010E94010A62019FEF21
:102F6000C91AD90A4FEFB801C6010E94010A45E506
:102F7000B701C6010E94010A620182E0C80ED11C9D
:102F80004FE7B801C6010E94010A45E5B701C60135
:102F90000E94010A620193E0C90ED11C4FEFB801F3
:102FA000C6010E94010A47E5B701C6010E94010A55
:102FB000620184E0C80ED11C4FEFB801C6010E9427
:102FC000010A45E5B701C6010E94010A620195E0C8
:102FD000C90ED11C4FE7B801C6010E94010A45E5A0
:102FE000B701C6010E94010A620186E0C80ED11C29
:102FF0004FEFB801C6010E94010A47E5B701C601BB
:103000000E94010A620197E0C90ED11C4FEFB8017E
:10301000C6010E94010A45E5B701C6010E94010AE6
:10302000620188E0C80ED11C4FE7B801C6010E94BA
:10303000010A45E5B701C6010E94010A620199E053
:10304000C90ED11C4FEFB801C6010E94010A47E525
:10305000B701C6010E94010A62018AE0C80ED11CB4
:103060004FEFB801C6010E94010A45E5B701C6014C
:103070000E94010A62019BE0C90ED11C4FE7B80112
:10308000C6010E94010A45E5B701C6010E94010A76
:1030900062018CE0C80ED11C4FEFB801C6010E943E
:1030A000010A47E5B701C6010E94010A62019DE0DD
:1030B000C90ED11C4FEFB801C6010E94010A45E5B7
:1030C000B701C6010E94010A62018EE0C80ED11C40
:1030D0004FE7B801C6010E94010A45E5B701C601E4
:1030E0000E94010A460C571C62019FE0C91AD108D0
:1030F0004FEFB801C6010E94010A47E5B701C601BA
:103100000E94010A62018EE0C81AD1084FEFB8018F
:10311000C6010E94010A45E5B701C6010E94010AE5
:1031200062019DE0C91AD1084FE7B801C6010E94AB
:10313000010A45E5B701C6010E94010A62018CE05F
:10314000C81AD1084FEFB801C6010E94010A47E52D
:10315000B701C6010E94010A62019BE0C91AD108A9
:103160004FEFB801C6010E94010A45E5B701C6014B
:103170000E94010A62018AE0C81AD1084FE7B8012B
:10318000C6010E94010A45E5B701C6010E94010A75
:10319000620199E0C91AD1084FEFB801C6010E9437
:1031A000010A47E5B701C6010E94010A620188E0F1
:1031B000C81AD1084FEFB801C6010E94010A45E5BF
:1031C000B701C6010E94010A620197E0C91AD1083D
:1031D0004FE7B801C6010E94010A45E5B701C601E3
:1031E0000E94010A620186E0C81AD1084FEFB801B7
:1031F000C6010E94010A47E5B701C6010E94010A03
:10320000620195E0C91AD1084FEFB801C6010E94CA
:10321000010A45E5B701C6010E94010A620184E086
:10322000C81AD1084FE7B801C6010E94010A45E556
:10323000B701C6010E94010A620193E0C91AD108D0
:103240004FEFB801C6010E94010A47E5B701C60168
:103250000E94010A620182E0C81AD1084FEFB8014A
:10326000C6010E94010A45E5B701C6010E94010A94
:1032700091E0491A51084FE7B801C2010E94010AC2
:1032800045E5B701C20127960FB6F894DEBF0FBE21
:10329000CDBFDF91CF911F910F91FF90EF90DF9005
:1032A000CF90BF90AF909F908F907F906F905F90E6
:1032B0004F903F902F900C94010ACF92DF92EF92A3
:1032C000FF920F931F93CF93DF93EC018B0144E7A1
:1032D0000E94010A780184E0E80EF11C47E1B70181
:1032E000CE010E94010A6E018FEFC81AD80A4DED77
:1032F000B801C6010E94010A45E5B701C6010E9456
:10330000010A6E0182E0C80ED11C47E5B801C60172
:103310000E94010A45E5B701C6010E94010A6E013B
:1033200083E0C80ED11C47EDB801C6010E94010A16
:103330004FE7B701C6010E94010A6E0184E0C80E82
:10334000D11C4DE7B801C6010E94010A45E7B7014B
:10335000C6010E94010A6E0185E0C80ED11C45E538
:10336000B801C6010E94010A45E7B701C6010E94E3
:10337000010A6E0186E0C80ED11C4DEFB801C601EE
:103380000E94010A4FE7B701C6010E94010A279671
:1033900044E5B801CE010E94010A45E1B701CE0122
:1033A000DF91CF911F910F91FF90EF90DF90CF9021
:1033B0000C94010ACF92DF92EF92FF920F931F932A
:1033C000CF93DF93EC018B014CEF0E94010A78014F
:1033D00084E0E80EF11C4FE3B701CE010E94010A20
:1033E0006E018FEFC81AD80A4FE7B801C6010E94D4
:1033F000010A4FEFB701C6010E94010A6E0182E087
:10340000C80ED11C4FE7B801C6010E94010A45EF62
:10341000B701C6010E94010A6E0183E0C80ED11CEB
:103420004FEFB801C6010E94010A47EDB701C6017E
:103430000E94010A6E0184E0C80ED11C47E5B80164
:10344000C6010E94010A4FEDB701C6010E94010AA0
:103450006E0185E0C80ED11C47E7B801C6010E9485
:10346000010A4FEDB701C6010E94010A6E0186E014
:10347000C80ED11C47E5B801C6010E94010A45EDFE
:10348000B701C6010E94010A27964CEFB801CE0190
:103490000E94010A4FE3B701CE01DF91CF911F9146
:1034A0000F91FF90EF90DF90CF900C94010ACF9294
:1034B000DF92EF92FF920F931F93CF93DF93EC0174
:1034C0008B0144E70E94010A780184E0E80EF11CB8
:1034D00045E1B701CE010E94010A6E018FEFC81AC3
:1034E000D80A4DEDB801C6010E94010A45E5B701B1
:1034F000C6010E94010A6E0182E0C80ED11C4DEF88
:10350000B801C6010E94010A4FE7B701C6010E9437
:10351000010A6E0183E0C80ED11C45E5B801C60161
:103520000E94010A45E7B701C6010E94010A6E0127
:1035300084E0C80ED11C45E5B801C6010E94010A0D
:103540004FE5B701C6010E94010A6E0185E0C80E71
:10355000D11C45EDB801C6010E94010A45E5B7013D
:10356000C6010E94010A6E0186E0C80ED11C4DE71B
:10357000B801C6010E94010A45E5B701C6010E94D3
:10358000010A27964CEFB801CE010E94010A4FE3D1
:10359000B701CE01DF91CF911F910F91FF90EF9076
:1035A000DF90CF900C94010ACF92DF92EF92FF92BE
:1035B0000F931F93CF93DF93EC018B0144E50E949F
:1035C000010A780184E0E80EF11C45E1B701CE0163
:1035D0000E94010A6E018FEFC81AD80A4DE5B801A2
:1035E000C6010E94010A4DEFB701C6010E94010AFF
:1035F0006E0182E0C80ED11C47E7B801C6010E94E7
:10360000010A47EFB701C6010E94010A6E0183E07B
:10361000C80ED11C47E7B801C6010E94010A4DED52
:10362000B701C6010E94010A6E0184E0C80ED11CD8
:1036300047E7B801C6010E94010A45EDB701C6017E
:103640000E94010A6E0185E0C80ED11C4DE5B8014B
:10365000C6010E94010A45EDB701C6010E94010A98
:103660006E0186E0C80ED11C47EFB801C6010E946A
:10367000010A4FEFB701C6010E94010A279644E5EF
:10368000B801CE010E94010A45E1B701CE01DF91E8
:10369000CF911F910F91FF90EF90DF90CF900C94FE
:1036A000010ACF92DF92EF92FF920F931F93CF9375
:1036B000DF93EC018B0144E70E94010A780184E06A
:1036C000E80EF11C45E1B701CE010E94010A6E012E
:1036D0008FEFC81AD80A4DEDB801C6010E94010A41
:1036E00045E5B701C6010E94010A6E0182E0C80EDD
:1036F000D11C45EFB801C6010E94010A4FEFB70186
:10370000C6010E94010A6E0183E0C80ED11C45E586
:10371000B801C6010E94010A45EDB701C6010E9429
:10372000010A6E0184E0C80ED11C45E5B801C6014E
:103730000E94010A45EDB701C6010E94010A6E010F
:1037400085E0C80ED11C45E5B801C6010E94010AFA
:1037500045EDB701C6010E94010A6E0186E0C80E60
:10376000D11C4FEFB801C6010E94010A4FEFB7010B
:10377000C6010E94010A279644E5B801CE010E94C5
:10378000010A45E1B701CE01DF91CF911F910F9161
:10379000FF90EF90DF90CF900C94010ACF92DF92D0
:1037A000EF92FF920F931F93CF93DF93EC018B0166
:1037B0004CEF0E94010A780184E0E80EF11C4FE30F
:1037C000B701CE010E94010A6E018FEFC81AD80A14
:1037D00047E5B801C6010E94010A45EDB701C601DF
:1037E0000E94010A6E0182E0C80ED11C47E5B801B3
:1037F000C6010E94010A47E7B701C6010E94010AFB
:103800006E0183E0C80ED11C4DEDB801C6010E94C7
:10381000010A4DE5B701C6010E94010A6E0184E06C
:10382000C80ED11C47E5B801C6010E94010A47E550
:10383000B701C6010E94010A6E0185E0C80ED11CC5
:1038400047E5B801C6010E94010A45E5B701C60176
:103850000E94010A6E0186E0C80ED11C4DEFB8012E
:10386000C6010E94010A4FE7B701C6010E94010A82
:10387000279644E5B801CE010E94010A45E1B7014F
:10388000CE01DF91CF911F910F91FF90EF90DF90CC
:10389000CF900C94010ACF92DF92EF92FF920F9398
:1038A0001F93CF93DF93EC018B0144EF0E94010A39
:1038B000780184E0E80EF11C47E3B701CE010E94D5
:1038C000010A6E018FEFC81AD80A4DEDB801C60182
:1038D0000E94010A4DEDB701C6010E94010A6E0166
:1038E00082E0C80ED11C47E5B801C6010E94010A5A
:1038F00045EFB701C6010E94010A6E0183E0C80EC0
:10390000D11C4FEFB801C6010E94010A47EFB70171
:10391000C6010E94010A6E0184E0C80ED11C4FEF5F
:10392000B801C6010E94010A47EFB701C6010E9413
:10393000010A6E0185E0C80ED11C4FEFB801C60127
:103940000E94010A4FEDB701C6010E94010A6E01F3
:1039500086E0C80ED11C47E5B801C6010E94010AE5
:1039600045EDB701C6010E94010A27964CEFB80148
:10397000CE010E94010A4FE3B701CE01DF91CF9142
:103980001F910F91FF90EF90DF90CF900C94010A60
:10399000CF92DF92EF92FF920F931F93CF93DF931B
:1039A000EC018B0144E50E94010A780184E0E80EF5
:1039B000F11C45E1B701CE010E94010A6E018FEFB3
:1039C000C81AD80A45E7B801C6010E94010A45E5B0
:1039D000B701C6010E94010A6E0182E0C80ED11C27
:1039E0004DEDB801C6010E94010A45E5B701C601C7
:1039F0000E94010A6E0183E0C80ED11C4DEDB80192
:103A0000C6010E94010A45E5B701C6010E94010AEC
:103A10006E0184E0C80ED11C4DEDB801C6010E94B4
:103A2000010A45E7B701C6010E94010A6E0185E05F
:103A3000C80ED11C4DEDB801C6010E94010A4DED22
:103A4000B701C6010E94010A6E0186E0C80ED11CB2
:103A500047E5B801C6010E94010A4FE7B701C60158
:103A60000E94010A279644E5B801CE010E94010A8E
:103A700045E1B701CE01DF91CF911F910F91FF90EA
:103A8000EF90DF90CF900C94010ACF92DF92EF92EB
:103A9000FF920F931F93CF93DF93EC018B014CEDBB
:103AA0000E94010A780184E0E80EF11C4FE3B7019F
:103AB000CE010E94010A6E018FEFC81AD80A47E7AB
:103AC000B801C6010E94010A4FEFB701C6010E946A
:103AD000010A6E0182E0C80ED11C4FE5B801C60193
:103AE0000E94010A45EDB701C6010E94010A6E015C
:103AF00083E0C80ED11C4FEFB801C6010E94010A35
:103B00004FEDB701C6010E94010A6E0184E0C80EA4
:103B1000D11C4FEFB801C6010E94010A4FEDB70159
:103B2000C6010E94010A6E0185E0C80ED11C4FEF4C
:103B3000B801C6010E94010A4FEDB701C6010E94FB
:103B4000010A6E0186E0C80ED11C45E5B801C60128
:103B50000E94010A45EDB701C6010E94010A27969D
:103B60004CEFB801CE010E94010A4FE3B701CE012C
:103B7000DF91CF911F910F91FF90EF90DF90CF9049
:103B80000C94010AAF92BF92CF92DF92EF92FF9214
:103B90000F931F93CF93DF935C017B01C0E0D0E0D4
:103BA0006B0184E0C80ED11C85010C0F1D1F40E085
:103BB000B701C8010E94010A40E0B601C8010E9495
:103BC000010A2196C830D10579F7DF91CF911F9175
:103BD0000F91FF90EF90DF90CF90BF90AF9008953E
:103BE000CF92DF92EF92FF920F931F93CF93DF93C9
:103BF000062F10E0C82FD0E040ECB801CE010E94A3
:103C0000010A780184E0E80EF11C4CE0B701CE0116
:103C10000E94010A6E018FEFC81AD80A40ECB80161
:103C2000C6010E94010A4CE0B701C6010E94010AC8
:103C30006E0182E0C80ED11C40ECB801C6010E94A2
:103C4000010A4CE0B701C6010E94010A6E0183E03F
:103C5000C80ED11C40ECB801C6010E94010A4CE01C
:103C6000B701C6010E94010A6E0184E0C80ED11C92
:103C700040ECB801C6010E94010A4CE0B701C60140
:103C80000E94010A6E0185E0C80ED11C4CE0B8010B
:103C9000C6010E94010A40ECB701C6010E94010A58
:103CA0006E0186E0C80ED11C4CE3B801C6010E942B
:103CB000010A40EFB701C6010E94010A6E0187E0C8
:103CC000C80ED11C40EFB801C6010E94010A4CE3A6
:103CD000B701C6010E94010A6E0188E0C80ED11C1E
:103CE00040ECB801C6010E94010A4FE0B701C601CD
:103CF0000E94010A43E0B701CE010996DF91CF91FE
:103D00001F910F91FF90EF90DF90CF900C94010ADC
:103D1000CF92DF92EF92FF920F931F93CF93DF9397
:103D2000062F10E0C82FD0E040E0B801CE010E947D
:103D3000010A780184E0E80EF11C40E0B701CE01F1
:103D40000E94010A6E018FEFC81AD80A40E0B8013C
:103D5000C6010E94010A40E0B701C6010E94010AA3
:103D60006E0182E0C80ED11C40E0B801C6010E947D
:103D7000010A40E0B701C6010E94010A6E0183E01A
:103D8000C80ED11C40E0B801C6010E94010A40E003
:103D9000B701C6010E94010A6E0184E0C80ED11C61
:103DA00040E0B801C6010E94010A40E0B701C60127
:103DB0000E94010A6E0185E0C80ED11C40E0B801E6
:103DC000C6010E94010A40E0B701C6010E94010A33
:103DD0006E0186E0C80ED11C40E0B801C6010E9409
:103DE000010A40E0B701C6010E94010A6E0187E0A6
:103DF000C80ED11C40E0B801C6010E94010A40E093
:103E0000B701C6010E94010A6E0188E0C80ED11CEC
:103E100040E0B801C6010E94010A40E0B701C601B6
:103E20000E94010A40E0B701CE010996DF91CF91CF
:103E30001F910F91FF90EF90DF90CF900C94010AAB
:103E4000CF92DF92EF92FF920F931F93CF93DF9366
:103E5000082E000C990BAA0BBB0BFC01BD97EE3290
:103E6000F10508F0DBC6042FC62FEA5BFF4F0C9468
:103E70002D2910E0D0E040EFB801CE010E94010AE8
:103E8000780184E0E80EF11C4FE3B701CE010E94F7
:103E9000010A6E018FEFC81AD80A4CE0B801C601BA
:103EA0000E94010A4CECB701C6010E94010A6E0192
:103EB00082E0C80ED11C4CE0B801C6010E94010A84
:103EC00043ECB701C6010E94010A2396A9C210E083
:103ED000D0E040E3B801CE010E94010A780184E0FD
:103EE000E80EF11C40ECB701CE010E94010A6E0100
:103EF0008FEFC81AD80A4CEFB801C6010E94010A18
:103F00004FEFB701C6010E94010A6E0182E0C80EA0
:103F1000D11C40E0B801C6010E94010A40ECB70183
:103F2000C6010E94010A239640E0B801CE010E941A
:103F3000010A40E0B701CE0167C610E0D0E040E3DF
:103F4000B801CE010E94010A780184E0E80EF11C5C
:103F500040EFB701CE010E94010A6E018FEFC81A2F
:103F6000D80A4CE0B801C6010E94010A4CECB70126
:103F7000C6010E94010A6E0182E0C80ED11C4CE00D
:103F8000B801C6010E94010A43ECB701C6010E94B4
:103F9000010A2396B9C410E0D0E040E3B801CE0195
:103FA0000E94010A780184E0E80EF11C40E3B701A9
:103FB000CE010E94010A6E018FEFC81AD80A4CE0A8
:103FC000B801C6010E94010A40ECEBC010E0D0E04D
:103FD00040ECB801CE010E94010A780184E0E80EAD
:103FE000F11C4FE0B701CE010E94010A6E018FEF74
:103FF000C81AD80A40E3B801C6010E94010A4CE081
:10400000B701C6010E94010A6E0182E0C80ED11CF0
:104010004CEFB801C6010E94010A4FEFB701C6017B
:104020000E94010A23964CE0B701CE010E94010ACA
:1040300040E0B80180CF10E0D0E04CEFB801CE01F5
:104040000E94010A780184E0E80EF11C43ECB701FC
:10405000CE010E94010A6E018FEFC81AD80A4CE007
:10406000B801C6010E94010A43ECB701C6010E94D3
:10407000010A6E0182E0C80ED11C4CE0B801C601F5
:104080000E94010A43ECB701C6010E94010A23966F
:104090004CE005C510E0D0E040ECB801CE010E9434
:1040A000010A780184E0E80EF11C4FE3B701CE016C
:1040B0000E94010A6E018FEFC81AD80A40E3B801C6
:1040C000C6010E94010A43ECB701C6010E94010A21
:1040D0006E0182E0C80ED11C4CE0B801C6010E94FE
:1040E000010A43ECB701C6010E94010A23964CE085
:1040F000B801CE010E94010A4CE31CCF10E0D0E0D1
:104100004CE3B801CE010E94010A6E018FEFC81A7C
:10411000D80A4CE0B801C6010E94010A780184E087
:10412000E80EF11C4CEFB701C6010E94010A6E01B6
:1041300082E0C80ED11C4CE0B801C6010E94010A01
:1041400043E0B701C6010E94010A6E0183E0C80E78
:10415000D11C4CEFB801C6010E94010A40E0B70132
:10416000CE010E94010A40E0B701C6014DC510E032
:10417000D0E040EFB801CE010E94010A780184E04E
:10418000E80EF11C4CE3B701CE010E94010A6E015A
:104190008FEFC81AD80A4CE0B801C6010E94010A84
:1041A00043ECB701C6010E94010A6E0182E0C80E0D
:1041B000D11C4CE0B801C6010E94010A43ECB701D2
:1041C000C6010E94010A239640EF92CF10E0D0E092
:1041D00040EFB801CE010E94010A6E018FEFC81AAC
:1041E000D80A4CE0B801C6010E94010A780184E0B7
:1041F000E80EF11C43ECB701C6010E94010A6E01F2
:1042000082E0C80ED11C4CE0B801C6010E94010A30
:1042100043ECB701C6010E94010A6E0183E0C80E9B
:10422000D11C40EFB801C6010E94010A4FE3B7015B
:10423000C6017DCE10E0D0E040EFB801CE010E9473
:10424000010A780184E0E80EF11C4FEFB701CE01BE
:104250000E94010A6E018FEFC81AD80A4CE0B8011B
:10426000C6010E94010A43E0B701C6010E94010A8B
:104270006E0182E0C80ED11C4CE0B801C6010E945C
:10428000010A43E0B701C6010E94010A6E0183E002
:10429000C80ED11C4CE0B801C6010E94010A43E0DF
:1042A000B701C6010E94010A249640EFF8C310E04E
:1042B000D0E04CEFB801CE010E94010A780184E001
:1042C000E80EF11C4FEFB701CE010E94010A6E010A
:1042D0008FEFC81AD80A4CE0B801C6010E94010A43
:1042E00043ECB701C6010E94010A6E0182E0C80ECC
:1042F000D11C4CE0B801C6010E94010A43ECB70191
:10430000C6010E94010A6E0183E0C80ED11C4CE078
:10431000B801C6010E94010A43ECB701C6010E9420
:10432000010A249651CF10E0D0E040EFB801CE0151
:104330000E94010A780184E0E80EF11C4FE3B70106
:10434000CE010E94010A6E018FEFC81AD80A4CE014
:10435000B801C6010E94010A40ECB701C6010E94E3
:10436000010A6E0182E0C80ED11C4CE0B801C60102
:104370000E94010A40ECB701C6010E94010A6E01C9
:1043800083E0C80ED11C4CE0B801C6010E94010AAE
:1043900040ECB701C6010E94010A249640E3B8012F
:1043A000CE010E94010A40E3C5CD10E0D0E04CEF01
:1043B000B801CE010E94010A780184E0E80EF11CE8
:1043C0004FEFB701CE010E94010A6E018FEFC81AAC
:1043D000D80A4CE0B801C6010E94010A40ECB701BE
:1043E000C6010E94010A6E0182E0C80ED11C4CE099
:1043F000B801C6010E94010A40ECB701C6010E9443
:10440000010A6E0183E0C80ED11C4CE0B801C60160
:104410000E94010A40ECB701C6010E94010A2496DD
:1044200040EFB801CE010E94010A4FE383CD10E0B6
:10443000D0E04CEFB801CE010E94010A780184E07F
:10444000E80EF11C4FEFB701CE010E94010A6E0188
:104450008FEFC81AD80A4CE0B801C6010E94010AC1
:1044600043ECB701C6010E94010A6E0182E0C80E4A
:10447000D11C4CE0B801C6010E94010A43ECB7010F
:10448000C6010E94010A6E0183E0C80ED11C4CE0F7
:10449000B801C6010E94010A43ECB701C6010E949F
:1044A000010A2496AEC010E0D0E04CEFB801CE0176
:1044B0000E94010A780184E0E80EF11C4FEFB70179
:1044C000CE010E94010A6E018FEFC81AD80A4CE093
:1044D000B801C6010E94010A43E0B701C6010E946B
:1044E000010A6E0182E0C80ED11C4CE0B801C60181
:1044F0000E94010A43E0B701C6010E94010A6E0151
:1045000083E0C80ED11C4CE0B801C6010E94010A2C
:1045100043E0B701C60157C210E0D0E040EFB80158
:10452000CE010E94010A780184E0E80EF11C4FE3FD
:10453000B701CE010E94010A6E018FEFC81AD80A96
:104540004CE0B801C6010E94010A40ECB701C60167
:104550000E94010A6E0182E0C80ED11C4CE0B80135
:10456000C6010E94010A43ECB701C6010E94010A7C
:104570006E0183E0C80ED11C4CE0B801C6010E9458
:10458000010A43ECB701C6010E94010A249640E3E8
:10459000AFCD10E0D0E04CEFB801CE010E94010A8F
:1045A000780184E0E80EF11C4FEFB701CE010E94C4
:1045B000010A43E0B701CE0101960E94010A43E0DF
:1045C000B701D6C010E0D0E04CE0B801CE010E94A7
:1045D000010A780184E0E80EF11C40ECB701CE013D
:1045E0000E94010A6E018FEFC81AD80A4CEFB80179
:1045F000C6010E94010A4FEFB701C6010E94010ADD
:1046000022964CE0E8C210E0D0E04CE0B801CE01C8
:104610000E94010A780184E0E80EF11C40E3B70132
:10462000CE010E94010A6E018FEFC81AD80A4CE031
:10463000B801C6010E94010A40ECB701C6010E9400
:10464000010A6E0182E0C80ED11C4CE0B801C6011F
:104650000E94010A40ECB701C6010E94010A23969C
:10466000D9C110E0D0E04CEFB801CE010E94010AA0
:10467000780184E0E80EF11C4FEFB701CE010E94F3
:10468000010A6E018FEFC81AD80A40E0B801C601CE
:104690000E94010A43E0B701C6010E94010A6E01AF
:1046A00082E0C80ED11C40ECB801C6010E94010A8C
:1046B0004CE0B701C6010E94010A239629C210E00E
:1046C000D0E04CEFB801CE010E94010A0C5F1F4FF1
:1046D0004FEFB801CE010E94010A40ECB801CE01B3
:1046E00001960E94010A40ECB801CE0102960E9498
:1046F000010A40ECB801CE0103960E94010A40EC89
:104700002AC210E0D0E04CEFB801CE010E94010AAD
:10471000780184E0E80EF11C4FEFB701CE010E9452
:10472000010A40E3B801CE0101960E94010A40EC63
:10473000B801CE0102960E94010A40E3B801A9C166
:1047400010E0D0E04CEFB801CE010E94010A7801E0
:1047500084E0E80EF11C4FEFB701CE010E94010A80
:1047600040E3B801CE0101960E94010A40ECB80175
:10477000CE0102960E94010A43E08AC110E0D0E017
:1047800040EFB801CE010E94010A780184E0E80EF2
:10479000F11C4FE316CE10E0D0E04CEFB801CE0193
:1047A0000E94010A780184E0E80EF11C4FEFB70186
:1047B000CE010E94010A6E018FEFC81AD80A4CE0A0
:1047C000B801C6010E94010A43E0B701C6010E9478
:1047D000010A6E0182E0C80ED11C4CE0B801C6018E
:1047E0000E94010A43E0B701C6010E94010A6E015E
:1047F00083E0C80ED11C4CE0B801C6010E94010A3A
:1048000043E0B701C6010E94010A40EFA4C110E0D5
:10481000D0E040EFB801CE010E94010A780184E0A7
:10482000E80EF11C4FE3B701CE010E94010A6E01B0
:104830008FEFC81AD80A4CE0B801C6010E94010ADD
:1048400040ECB701C6010E94010A6E0182E0C80E69
:10485000D11C4CE0B801C6010E94010A4CECB70122
:10486000C6010E94010A6E0183E0C80ED11C4CE013
:10487000B801C6010E94010A40E3B701C6010E94C7
:10488000010A249640EFB801CE010E94010A4FECC4
:1048900051CB10E0D0E040EFB801CE010E94010AF8
:1048A000780184E0E80EF11C4FEFB701CE010E94C1
:1048B000010A6E018FEFC81AD80A4CE0B801C60190
:1048C0000E94010A43E0B701C6010E94010A6E017D
:1048D00082E0C80ED11C4CE0B801C6010E94010A5A
:1048E0004FE0B701C6010E94010A6E0183E0C80EC5
:1048F000D11C4CE0B801C6010E94010A43E3B70194
:10490000C6010E94010A249640EF65C110E0D0E084
:1049100040EFB801CE010E94010A780184E0E80E60
:10492000F11C40ECB701CE010E94010A6E018FEF2D
:10493000C81AD80A4CE0B801C6010E94010A43EC2B
:10494000B701C6010E94010A6E0182E0C80ED11CA7
:104950004CE0B801C6010E94010A43ECB701C60150
:104960000E94010A6E0183E0C80ED11C4CE0B80120
:10497000C6010E94010A43ECB701C6010E94010A68
:104980002496B5CB10E0D0E04CE0B801CE010E94F7
:10499000010A4CE0B801CE0101960E94010A7E0195
:1049A00082E0E80EF11C4CEFB801C7010E94010A39
:1049B000B8016C5F7F4F4FEFC7010E94010A4CE0C6
:1049C000B801CE0103960E94010A4CE0C4C010E079
:1049D000D0E04CEFB801CE010E94010A780184E0DA
:1049E000E80EF11C4FE3B701CE010E94010A40EC32
:1049F000B701CE0101960E94010A40ECB701CE0139
:104A000002960E94010A40ECB701CE0103960E9473
:104A1000010A24964CEF05CD10E0D0E04CEFB80130
:104A2000CE010E94010A780184E0E80EF11C4FE0FB
:104A3000B701CE0101960E94010A40EFB701CE01F5
:104A400002960E94010A4FE0B701CE0103960E9430
:104A5000010A4CEF80C010E0D0E04CEFB801CE016D
:104A60000E94010A780184E0E80EF11C4FEFB701C3
:104A7000CE010E94010A40E3B701CE0101960E94D7
:104A8000010A4CE0B701CE0102960E94010A40E300
:104A9000B701CE0103960E94010A24964CEFB8019B
:104AA000CE010E94010A4FEF45CA10E0D0E04CE36E
:104AB000B801CE010E94010A780184E0E80EF11CE1
:104AC00040EFB701CE010E94010A6E018FEFC81AB4
:104AD000D80A40ECB801C6010E94010A4CE0B701B7
:104AE000C6010E94010A43E0B701CE0102960E946E
:104AF000010A6E0183E0C80ED11C40ECB801C6016A
:104B00000E94010A4CE0B701C6010E94010A2496E6
:104B10004CE3B801CE010E94010A40EF0BCA10E03D
:104B2000D0E04CE3B801CE010E94010A40ECB8018C
:104B3000CE0101960E94010AB8016C5F7F4F4FEFD2
:104B4000CE0102960E94010A40ECB801CE01039604
:104B50000E94010A4CE3B801CE01049655C010E052
:104B6000D0E04CE0B801CE010E94010A780184E057
:104B7000E80EF11C40EFB701CE010E94010A6E0160
:104B80008FEFC81AD80A4CE0B801C6010E94010A8A
:104B90004CECB701C6010E94010A6E0182E0C80E0A
:104BA000D11C4CE0B801C6010E94010A43ECB701D8
:104BB000C6010E94010A6E0183E0C80ED11C4CECB4
:104BC000B801C6010E94010A40ECB701C6010E946B
:104BD000010A24964CE3B801CE010E94010A40EC80
:104BE000A9C910E00C5F1F4FD0E043E0B801CE012F
:104BF0000E94010A43E0B801CE0101960E94010A19
:104C000043E0B801CE010296DF91CF911F910F9141
:104C1000FF90EF90DF90CF900C94010ADF91CF913D
:104C20001F910F91FF90EF90DF90CF900895AF927A
:104C3000BF92CF92DF92EF92FF920F931F93CF9389
:104C4000DF93C0E0D0E0E62E660FFF08C82E880F85
:104C5000DD0800E010E05701AC0EBD1E40E0B501DC
:104C6000C601800F911F0E94010A0F5F1F4F003A7B
:104C70001105A1F72496C034D10559F7DF91CF91E2
:104C80001F910F91FF90EF90DF90CF90BF90AF906A
:104C90000895FF920F931F93CF93DF93C82F880F30
:104CA000DD0B669685E0F82E062F660F110B0C5E65
:104CB0001F4F4FEFB801CE010E94010AFA942196CE
:104CC000F110F7CFDF91CF911F910F91FF900895D1
:104CD0007F928F929F92AF92BF92CF92DF92EF928C
:104CE000FF920F931F93CF93DF93062F10E0C82FEF
:104CF000D0E040E3B801CE010B960E94010A40E3E8
:104D0000B801CE010C960E94010A5E018DE0A80E4A
:104D1000B11C40EFB801C5010E94010A780184E08E
:104D2000E80EF11C470133E0D32E4FEFB401C5016B
:104D30000E94010ADA9484E0880E911CD110F5CF0C
:104D4000680180E1C80ED11C4FE0B601C5010E9488
:104D5000010A5E018EE0A80EB11C40EFB801C5014A
:104D60000E94010A470123E0722E4FEFB401C501F2
:104D70000E94010A7A9484E0880E911C7110F5CF8C
:104D80004E018FE0880E911C40EFB801C4010E94D3
:104D9000010A93E0B92E4FEFB701C4010E94010A46
:104DA000BA9484E0E80EF11CB110F5CF60965E0174
:104DB00084E0F82E40E3B801C5010E94010AFA948C
:104DC0008FEFA81AB80AF110F5CF14E04CE0B60145
:104DD000CE010E94010A115021961111F7CFDF91E7
:104DE000CF911F910F91FF90EF90DF90CF90BF90E8
:104DF000AF909F908F907F900895E3EAF2E086EF66
:104E00009FEF91838083938382831582148287EF3F
:104E10009FEF97838683918780871386128688EF1A
:104E20009FEF9587848797878687118A108A0895D0
:104E30008091A3029091A4022091A9023091AA022C
:104E4000281739071CF09C0180E001C081E04091E7
:104E5000AF025091B002421753070CF482E008955C
:104E6000EF92FF920F931F93CF93DF9300D000D068
:104E70001F92CDB7DEB749835A836B837C838D83C2
:104E800079010E94932964E670E00E94F728843635
:104E9000910530F4FC01E05AFE4F008110E002C0A1
:104EA00000E010E00E9418272B813C812850310936
:104EB00046E08402C0011124FC01ED55FD4F6D81D7
:104EC00070E0C7010E94F72849815A81840F951F1D
:104ED0009183808333832283158304830F900F9003
:104EE0000F900F900F90DF91CF911F910F91FF9036
:104EF000EF900895E5EBF2E090E041E050E880E0CB
:104F0000648120813181260F311D4217530714F42B
:104F1000A901892F35969F5F933091F70895E5EBAE
:104F2000F2E090E04FEF5FE780E064812081318123
:104F3000260F311D2417350714F4A901892F359642
:104F40009F5F933091F7089585E0E1E5F1E0A5EBEF
:104F5000B2E001900D928A95E1F785E0E6E5F1E097
:104F6000AAEBB2E001900D928A95E1F785E0EBE5BE
:104F7000F1E0AFEBB2E001900D928A95E1F7089570
:104F8000DF92EF92FF920F931F93CF93DF93CDB7F2
:104F9000DEB72F970FB6F894DEBF0FBECDBF4B879D
:104FA0005C878F87D22E0E94932960E074E00E9474
:104FB000F7289C01780144E0EE0CFF1C4A95E1F7CC
:104FC0006D2D70E06F5F7F4F0E94F72802969FE083
:104FD000899FD02C1124B80155E0660F771F5A9590
:104FE000E1F76F5F7F4F6E197F09C9010E94F728B3
:104FF000E80EF91E4F858B859C85840F911DE80E68
:10500000F91EC90163E170E00E94F7288C010C5F72
:105010001F4F000F111F000F111FC9016FE070E03B
:105020000E94F72881110BC04E2DFF82EE82602F67
:10503000198708875F8179858D2D0E943027FA8234
:10504000E9821C830B832E2D3A81402F5C816D2DCC
:1050500070E080E090E02F960FB6F894DEBF0FBEB0
:10506000CDBFDF91CF911F910F91FF90EF90DF9017
:105070000895CF92DF92EF92FF920F931F93CF93F9
:10508000DF936C01F62E8A010E948F2795E0E92EAE
:10509000E89EC0011124EC01CB54DD4F2C818881A6
:1050A0009981820F911D25E0C21AD1088C159D05AA
:1050B000ACF40E947A27E89EC0011124FC01EB5455
:1050C000FD4F2F2D408151816281738184810E9427
:1050D000C027288339834A835B836C83DF91CF9118
:1050E0001F910F91FF90EF90DF90CF900895AB014B
:1050F000BC0180E090E00C94912C80E090E00C9456
:105100008B2C0E94AF0780E50E944F082FEF83EDA4
:1051100090E3215080409040E1F700C000008AE019
:105120000E944F082FEF83ED90E321508040904084
:10513000E1F700C000000E94E9092FEF83ED90E342
:10514000215080409040E1F700C000000E94030918
:105150000E94AD0B8CE3809309018CE280930801DF
:1051600060910801809109010E94F01D83E090E0A8
:10517000909301018093000182E2882E912CA12C52
:10518000B12CC0E30E943808A50194010E940B29AC
:10519000672B682B692BA1F480910001909101018C
:1051A000029711F40E944B070E942F048091000186
:1051B00090910101892B21F40E940D030E94A60603
:1051C000C0909B02D0909C02E0909D02F0909E02C5
:1051D0000E94380826E9C20ED11CE11CF11C6C1596
:1051E0007D058E059F0570F2C0931101CBCF97FB13
:1051F000072E16F4009407D077FD09D00E943329BA
:1052000007FC05D03EF4909581959F4F08957095C9
:1052100061957F4F0895A1E21A2EAA1BBB1BFD01C9
:105220000DC0AA1FBB1FEE1FFF1FA217B307E40785
:10523000F50720F0A21BB30BE40BF50B661F771FDD
:10524000881F991F1A9469F76095709580959095BD
:105250009B01AC01BD01CF010895EE0FFF1F05902A
:10526000F491E02D0994AA1BBB1B51E107C0AA1FB2
:10527000BB1FA617B70710F0A61BB70B881F991FF7
:105280005A95A9F780959095BC01CD0108958F920C
:105290009F92AF92BF92CF92DF92EF92FF92CF9305
:1052A000DF93EC01688179818A819B8161157105A9
:1052B0008105910521F464E279ED8BE597E02DE11C
:1052C00033EF41E050E00E94BC2C49015A019B01A0
:1052D000AC01A7EAB1E40E94DB2C6B017C01ACEECF
:1052E000B4EFA50194010E94E92CDC01CB018C0DE7
:1052F0009D1DAE1DBF1DB7FF03C00197A109B0489A
:1053000088839983AA83BB839F77DF91CF91FF9096
:10531000EF90DF90CF90BF90AF909F908F900895C7
:105320000E944729089582E191E00E94472908954B
:10533000A0E0B0E08093120190931301A0931401B8
:10534000B09315010895BB274A3031F4992322F414
:10535000BDE2909581959F4F0C94AF29BB27FB012F
:105360005527AA27880F991FAA1FA41710F0A41B5E
:1053700083955051B9F7A05DAA3308F0A95DA193B8
:10538000009779F7B111B1931192CB010C94E12BF5
:10539000AEE0B0E0EEECF9E20C94FC2C0D891E8935
:1053A00086E08C831A8309838FEF9FE79E838D832A
:1053B000AE01475E5F4F6F89788DCE0101960E94E6
:1053C000EA29EF81F885E00FF11F10822E96E4E0C4
:1053D0000C94182DABE0B0E0E0EFF9E20C94EE2C69
:1053E0006C017B018A01FC0117821682838181FF97
:1053F000CCC1CE0101963C01F6019381F70193FDEA
:10540000859193FF81917F01882309F4BAC1853288
:1054100039F493FD859193FF81917F01853229F4C1
:10542000B60190E00E94F12BE7CF912C212C312C7A
:10543000FFE1F315D8F08B3279F038F4803279F04F
:105440008332A1F4232D20611DC08D3261F08033A1
:1054500069F4232D216016C0832D8260382EE32D40
:10546000E4603E2E2AC0F32DF8601DC037FC2DC02D
:1054700020ED280F2A3040F08E32B9F436FC81C17D
:10548000232D2064322E19C036FE06C08AE0989E75
:10549000200D1124922E11C0EAE02E9E200D112421
:1054A000222EF32DF0623F2E08C08C3621F4832D7E
:1054B0008068382E02C0883641F4F70193FD85914B
:1054C00093FF81917F018111B3CF982F9F7D9554D8
:1054D000933028F40C5F1F4F9FE399830DC08336F0
:1054E00031F0833771F0833509F059C021C0F801DC
:1054F000808189830E5F1F4F88248394912C5301F0
:1055000013C02801F2E04F0E511CF801A080B180B9
:1055100036FE03C0692D70E002C06FEF7FEFC5015A
:105520000E94D62B4C018201F32DFF773F2E16C02F
:10553000280122E0420E511CF801A080B18036FE05
:1055400003C0692D70E002C06FEF7FEFC5010E94BC
:10555000CB2B4C01F32DF0683F2E820133FC1BC096
:10556000822D90E088169906B0F4B60180E290E0B2
:105570000E94F12B2A94F4CFF50137FC859137FE78
:1055800081915F01B60190E00E94F12B21102A94D5
:1055900021E0821A91088114910471F7E8C08436E1
:1055A00011F0893641F5F80137FE07C0608171813D
:1055B000828193810C5F1F4F08C060817181072E2B
:1055C000000C880B990B0E5F1F4FF32DFF763F2EBB
:1055D00097FF09C090958095709561957F4F8F4F8B
:1055E0009F4FF0683F2E2AE030E0A3010E942D2C4F
:1055F000882E861845C0853731F4232D2F7EB22E94
:105600002AE030E025C0932D997FB92E8F36C1F066
:1056100018F4883579F0B5C0803719F0883721F053
:10562000B0C0E92FE061BE2EB4FE0DC0FB2DF460CA
:10563000BF2E09C034FE0AC0292F2660B22E06C034
:1056400028E030E005C020E130E002C020E132E097
:10565000F801B7FE07C060817181828193810C5F80
:105660001F4F06C06081718180E090E00E5F1F4F88
:10567000A3010E942D2C882E8618FB2DFF773F2E2C
:1056800036FE0DC0232D2E7FA22E891458F434FE31
:105690000BC032FC09C0832D8E7EA82E05C0B82C0D
:1056A000A32C03C0B82C01C0B92CA4FE0FC0FE016E
:1056B000E80DF11D8081803321F49A2D997EA92E69
:1056C00009C0A2FE06C0B394B39404C08A2D8678A4
:1056D00009F0B394A3FC11C0A0FE06C0B21488F474
:1056E000280C922C9B180EC0B21460F4B60180E214
:1056F00090E00E94F12BB394F7CFB21418F42B185A
:1057000002C0982C212CA4FE10C0B60180E390E0CA
:105710000E94F12BA2FE17C0A1FC03C088E790E015
:1057200002C088E590E0B6010CC08A2D867859F059
:10573000A1FE02C08BE201C080E2A7FC8DE2B601AF
:1057400090E00E94F12B891438F4B60180E390E0D8
:105750000E94F12B9A94F7CF8A94F301E80DF11D82
:105760008081B60190E00E94F12B8110F5CF2220BC
:1057700009F442CEB60180E290E00E94F12B2A9417
:10578000F6CFF6018681978102C08FEF9FEF2B96AF
:10579000E2E10C940A2DFC0105906150704001106B
:1057A000D8F7809590958E0F9F1F0895FC0161504A
:1057B000704001900110D8F7809590958E0F9F1F33
:1057C0000895DC01FC01672F71917723E1F732978F
:1057D00004C07C916D9370836291AE17BF07C8F3CC
:1057E00008950F931F93CF93DF93FB01238121FD36
:1057F00003C08FEF9FEF2CC022FF16C04681578158
:10580000248135814217530744F4A081B1819D0161
:105810002F5F3F4F318320838C93268137812F5F09
:105820003F4F3783268314C08B01EC01FB010084BA
:10583000F185E02D0995892BE1F6D80116968D9119
:105840009C911797019617969C938E931697CE016D
:10585000DF91CF911F910F910895FA01AA27283067
:1058600051F1203181F1E8946F936E7F6E5F7F4F2D
:105870008F4F9F4FAF4FB1E03ED0B4E03CD0670FA9
:10588000781F891F9A1FA11D680F791F8A1F911DFC
:10589000A11D6A0F711D811D911DA11D20D009F44C
:1058A00068943F912AE0269F11243019305D31938E
:1058B000DEF6CF010895462F4770405D4193B3E077
:1058C0000FD0C9F7F6CF462F4F70405D4A3318F01E
:1058D000495D31FD4052419302D0A9F7EACFB4E0CF
:1058E000A6959795879577956795BA95C9F7009787
:1058F0006105710508959B01AC010A2E0694579528
:10590000479537952795BA95C9F7620F731F841F7E
:10591000951FA01D0895A6E1B0E044E050E00C946E
:10592000A02C242F0E94AF2C252F0E94AF2C0C946A
:10593000992C0E94AE2C272F0C94AF2CDC01CB01AC
:10594000FC01F999FECF06C0F2BDE1BDF89A31968F
:1059500000B40D9241505040B8F70895262FF999A0
:10596000FECF1FBA92BD81BD20BD0FB6F894FA9A42
:10597000F99A0FBE01960895052E97FB1EF4009428
:105980000E94D32C57FD07D00E940B2907FC03D09F
:105990004EF40C94D32C50954095309521953F4F63
:1059A0004F4F5F4F089590958095709561957F4F0B
:1059B0008F4F9F4F08950E94252DA59F900DB49F56
:1059C000900DA49F800D911D11240895B7FF0C9494
:1059D000DB2C0E94DB2C821B930B08952F923F92AD
:1059E0004F925F926F927F928F929F92AF92BF92EF
:1059F000CF92DF92EF92FF920F931F93CF93DF939B
:105A0000CDB7DEB7CA1BDB0B0FB6F894DEBF0FBEF7
:105A1000CDBF09942A88398848885F846E847D8444
:105A20008C849B84AA84B984C884DF80EE80FD8046
:105A30000C811B81AA81B981CE0FD11D0FB6F894BC
:105A4000DEBF0FBECDBFED010895A29FB001B39F91
:105A5000C001A39F700D811D1124911DB29F700D77
:0C5A6000811D1124911D0895F894FFCFC2
:105A6C0002000300030400042323010005000C02C0
:105A7C0002300100000003000000000000000000E4
:105A8C0000000003000004040404040404040404DF
:105A9C0000000000000000050505050505050503CF
:105AAC00040505050505050505050505050505059B
:105ABC0005000034005A640014003CC80050005A21
:105ACC000202030303030303040404040404050592
