:100000000C9462000C947F000C947F000C947F0091
:100010000C947F000C947F000C947F000C940B05D3
:100020000C947F000C947F000C947F000C947F0054
:100030000C947F000C947F000C947F000C947F0044
:100040000C947F000C947F000C947F000C947F0034
:100050000C947F000C947F000C947F000C947F0024
:100060000C947F000C947F00460D630D630DC60653
:10007000E1060E073C0757078607B507E90715088D
:100080004408630D630D630D630D630D630D630D14
:100090007308B008EC082E093B097709B009ED098F
:1000A000060A270A550A830AA50AC40AE20A1E0B91
:1000B0005A0B9C0BD90B150C3A0C5F0C7E0CA80C40
:1000C000E20C020D11241FBECFEFD8E0DEBFCDBF82
:1000D00011E0A0E0B1E0E0ECFDE202C005900D927D
:1000E000AE38B107D9F721E0AEE8B1E001C01D920A
:1000F000A83BB207E1F70E945E150C94DE160C9443
:1001000000008091970190919801883B9B400CF4EE
:100110004AC0F89420919701309198018091A501EF
:100120009091A601821B930B9093A6018093A50149
:1001300020919701309198018091AA019091AB0193
:10014000821B930B9093AB018093AA01209197019E
:10015000309198018091AF019091B001821B930B77
:100160009093B0018093AF0185E090E090930B01F4
:1001700080930A01809110018150809310011092A8
:1001800098011092970180910E0190910F010196B4
:1001900090930F0180930E0183E090E09093030110
:1001A00080930201789408954FEF69E18FE90E94EE
:1001B0001F0680910801181684F481E090E0909366
:1001C000030180930201109296018CE08093A401B8
:1001D0008091080181508093080108958091070162
:1001E000181684F482E090E090930301809302015A
:1001F00088EF809396011092A401809107018150AD
:10020000809307010895AF92CF92EF92FF920F93E0
:100210001F93F801EC0DF11D8E179F07A4F4840FB6
:10022000911D081719077CF4C7018A0D911D6817E5
:1002300079074CF4620F711D81E090E0E616F70635
:1002400024F080E002C080E090E01F910F91FF90C9
:10025000EF90CF90AF900895AF92CF92EF92FF9230
:100260000F931F93CF93DF93C5EAD1E0609199017B
:1002700070919A018091970190919801EA80FB809A
:1002800008811981605F7F4F28E0A22ECC8021E099
:1002900048E00E940301009731F4259621E0C43B19
:1002A000D20721F702C081E090E0DF91CF911F914A
:1002B0000F91FF90EF90CF90AF9008956F927F9243
:1002C0008F929F92AF92CF92EF92FF920F931F93D4
:1002D000CF93DF93609002017090030135EA832E83
:1002E00031E0932EF401C281D38160919901709124
:1002F0009A0180919701909198010081118128E0E5
:10030000A22EC4807E0120E140E10E940301892BDE
:10031000E9F01092960180910501909106018C17E9
:100320009D0744F46097D0939A01C0939901612C82
:10033000712C0CC08091050190910601C817D90756
:100340002CF42896D0939A01C0939901F5E08F0E72
:10035000911C84EB881681E0980621F670920301C7
:1003600060920201DF91CF911F910F91FF90EF906A
:10037000CF90AF909F908F907F906F900895AF92A5
:10038000CF92EF92FF920F931F93CF93DF93C5EA23
:10039000D1E06091990170919A01809197019091BB
:1003A0009801EA80FB800881198128E0A22ECC8088
:1003B00020E140E10E940301009731F4259621E0FD
:1003C000C43BD20731F702C081E090E0DF91CF91CA
:1003D0001F910F91FF90EF90CF90AF900895AF9243
:1003E000BF92CF92DF92EF92FF920F931F93809173
:1003F000990190919A018E36910534F082E090E057
:1004000090930101809300018091990190919A014C
:100410009093060180930501809197019091980136
:1004200090939C0180939B0180910A0190910B0114
:1004300090930D0180930C016091100180919701C0
:10044000909198010E9420150E94810080910201E4
:1004500090910301892B79F482E0809307018093C6
:1004600008010E942C01892B31F483E090E09093E5
:100470000301809302018091020190910301029790
:1004800041F483E090E090930301809302010E9485
:100490005E018091A4011816CCF580910201909123
:1004A0000301019799F520910E0130910F01809180
:1004B000A401821B8093A40180910E0190910F01F1
:1004C0002091970130919801880F991F820F931FF7
:1004D000909398018093970120910E0130910F0124
:1004E00080910A0190910B01220F331F821B930B05
:1004F00090930B0180930A010E94BF01892B31F078
:1005000082E090E090930101809300018091A4012A
:10051000811110C08091020190910301019751F463
:100520000E942C01892B31F483E090E09093030129
:100530008093020180910201909103010397C9F415
:10054000209196018091990190919A01820F911DBD
:1005500027FD9A9590939A01809399018091960135
:1005600085302CF4809196018F5F809396010E94D4
:100570005E0140910E0150910F01A0908E01B0904C
:100580008F01C0909001D0909101E0909201F09085
:1005900093010091940110919501952F990F990B5A
:1005A0009A01492F592F692F792F892F0E94EF1512
:1005B00020938E0130938F014093900150939101CD
:1005C00060939201709393018093940190939501AD
:1005D00020910E0130910F01809197019091980127
:1005E000820F931F909398018093970120910E01A1
:1005F00030910F0180910A0190910B01821B930BA6
:1006000090930B0180930A011F910F91FF90EF903F
:10061000DF90CF90BF90AF90089580910901803313
:1006200009F021C18091000190910101039769F5C2
:100630004B990DC081E3809309010E9430056093BE
:100640009D0170939E0180939F019093A0014A9910
:100650000DC081E3809309010E94300560939D01E4
:1006600070939E0180939F019093A0014E990DC0BD
:1006700081E3809309010E94300560939D0170938E
:100680009E0180939F019093A001359913C081E34F
:10069000809309010E94300560939D0170939E0133
:1006A00080939F019093A00183E090E090930101DB
:1006B0008093000134991EC081E3809309010E9458
:1006C000300560939D0170939E0180939F019093EC
:1006D000A0018091000190910101892B39F481E002
:1006E00090E0909301018093000104C010920101F9
:1006F000109200018091000190910101892B09F075
:10070000B2C04A991BC081E3809309010E94300561
:1007100060939D0170939E0180939F019093A0012F
:1007200020910E0130910F018091990190919A01D1
:10073000821B930B90939A01809399014B991BC054
:1007400081E3809309010E94300560939D017093BD
:100750009E0180939F019093A00120910E01309102
:100760000F018091990190919A01820F931F9093AC
:100770009A01809399014D9929C081E380930901E1
:100780000E94300560939D0170939E0180939F01AC
:100790009093A00120910E0130910F01809197015B
:1007A00090919801820F931F9093980180939701E5
:1007B00020910E0130910F0180910A0190910B015F
:1007C000821B930B90930B0180930A014C9929C0D3
:1007D00081E3809309010E94300560939D0170932D
:1007E0009E0180939F019093A00120910E01309172
:1007F0000F018091970190919801821B930B909328
:1008000098018093970120910E0130910F01809102
:100810000A0190910B01820F931F90930B0180931B
:100820000A014E990FC081E3809309010E94EE00F6
:100830000E94300560939D0170939E0180939F01FB
:100840009093A0014F990FC081E3809309010E940A
:10085000D4000E94300560939D0170939E018093A7
:100860009F019093A0010895809104010E94670E5A
:1008700080910A0190910B010E94690F409105013E
:10088000509106016091990170919A0185E090E084
:100890000C949D0FCF93DF9380910401815080933E
:1008A000040180910401811113C010928E011092F5
:1008B0008F0110929001109291011092920110926A
:1008C0009301109294011092950183E080930401AA
:1008D00082E090E090930F0180930E010E94FB054F
:1008E0000E949314809104010E94670E85E090E0BD
:1008F00090930B0180930A0180910A0190910B0162
:100900000E94830FC1E0D0E0D0930601C09305019F
:10091000409105015091060160E070E085E090E0B3
:100920000E949D0F109298011092970110929A01C7
:10093000109299011092960183E090E09093030148
:1009400080930201D0930101C0930001DF91CF9108
:1009500008950E943B0584E00E94C50484E00E9443
:10096000E0040E945D160E94F9048AB183708AB97E
:100970008BB18C6F8BB987B18F7C87B988B180635D
:1009800088B90E94A9050C94931497B121E030E036
:10099000082E01C0220F0A94EAF72095292327B9CF
:1009A00097E890937A00806480937C0080917A002D
:1009B000806480937A0080917A0086FDFCCF089550
:1009C00090917C00907F90937C0090917C008F7040
:1009D000982B90937C0080917A00806480937A00B9
:1009E00080917A0086FDFCCF80917800909179000B
:1009F00008951092B20082E08093B00085E0809369
:100A0000B1008DE78093B300E0E7F0E08081826081
:100A10008083789408951F920F920FB60F9211243D
:100A20008F939F93AF93BF938091B4019091B50141
:100A3000A091B601B091B7010196A11DB11D80939F
:100A4000B4019093B501A093B601B093B701BF91E3
:100A5000AF919F918F910F900FBE0F901F9018959F
:100A6000F8946091B4017091B5018091B6019091B4
:100A7000B70178940895E1ECF0E08081886180838B
:100A800087E690E09093C5008093C400089590910C
:100A9000C00095FFFCCF8093C60080E090E00895F1
:100AA000CF93DF93EC018991882319F00E944705C9
:100AB000FACFDF91CF9108951F93CF93DF93EC018D
:100AC000FE011491812F0E944705112311F02196F8
:100AD000F7CFDF91CF911F910895CF93DF93CDB7DB
:100AE000DEB72A970FB6F894DEBF0FBECDBF4AE03F
:100AF000BE016F5F7F4F0E946816CE0101960E9473
:100B000050052A960FB6F894DEBF0FBECDBFDF9119
:100B1000CF9108958091C00087FFFCCF8091C600DF
:100B200008956111299A27E030E090E02D98AC01FA
:100B3000022E02C0559547950A94E2F740FF02C085
:100B40002B9A01C02B982D9A2150310978F72998BA
:100B50000895CF93DF93259A239A249A219A209A75
:100B60002C9A29982D98289A85E38A95F1F7000008
:100B7000289860E081EF0E94910560E087E60E947E
:100B8000910560E086EC0E94910560E080E40E949F
:100B9000910560E080E50E94910560E08BE20E9493
:100BA000910560E08BEE0E94910560E081E80E9473
:100BB000910560E08FE50E94910560E089E80E9460
:100BC0009105C0E4D0E161E080E00E9491052197A9
:100BD000D1F760E080E00E94910560E080E10E9432
:100BE000910560E080E60E94910560E08FEADF9168
:100BF000CF910C949105CF93DF9360E080E00E9449
:100C0000910560E080E10E94910560E080E60E942D
:100C10009105C0E4D0E161E080E00E949105219758
:100C2000D1F760E080E00E94910560E080E10E94E1
:100C3000910560E080E6DF91CF910C9491051F93C0
:100C4000CF93DF93C82F162FD42F60E08F700E94B0
:100C500091058C2F82958F7060E0805F0E949105D6
:100C600060E080E6810F0E94910561E08D2FDF91A9
:100C7000CF911F910C94910580528B3330F4E82F63
:100C8000F0E0EB5EFE4F8081089580E00895CF9202
:100C9000DF92EF92FF920F931F93CF93DF93803AEF
:100CA000910508F051C06936710508F04DC0042F58
:100CB0007C01EB01D595C795D595C7956B0183E070
:100CC000C822DD24C114D10421F46C2F8E2D0E9482
:100CD0001F0681E0C816D10411F484E00BC082E045
:100CE000C816D10411F480E105C083E0C816D10410
:100CF00059F580E4089F80011124D02E8091A10134
:100D000090E0E816F90649F48091A20190E0C81736
:100D1000D90719F4D090A301D02A4D2D6C2F8E2D18
:100D20000E941F06E092A101C093A201D092A301EC
:100D3000CF5F412F6C2F8E2D0E941F06E092A101E4
:100D4000C093A2011093A301DF91CF911F910F9146
:100D5000FF90EF90DF90CF900895CF92DF92EF92C7
:100D6000FF920F931F93CF93DF93082E000C990BE4
:100D7000AA0BBB0BFC01BD97EE32F10508F0A3C630
:100D8000042FC62FEC5CFF4F0C94E91510E0D0E067
:100D900040EFB801CE010E944706780184E0E80EDA
:100DA000F11C4FE3B701CE010E9447066E018FEFA1
:100DB000C81AD80A4CE0B801C6010E9447064CEC9C
:100DC00078C110E0D0E040E3B801CE010E944706B0
:100DD000680184E0C80ED11C40ECB601CE010E942F
:100DE00047067E018FEFE81AF80A4CEFB801C701F9
:100DF0000E9447064FEFB601C7010E9447067E01D9
:100E000082E0E80EF11C40E0B801C7010E944706ED
:100E1000BE016C5F7F4F40ECC7014BC610E0D0E0D5
:100E200040E3B801CE010E944706780184E0E80E55
:100E3000F11C40EFB701CE010E9447066E018FEF13
:100E4000C81AD80A4CE0B801C6010E9447064CEC0B
:100E5000B701C6010E9447066E0182E0C80ED11C90
:100E60004CE0B801C6010E94470643ECB701C60139
:100E70000E94470623969BC410E0D0E040E3B801EF
:100E8000CE010E944706780184E0E80EF11C40E3A1
:100E9000B701CE010E9447066E018FEFC81AD80A2B
:100EA0004CE0B801C6010E94470640ECD8C010E0F3
:100EB000D0E040ECB801CE010E944706780184E002
:100EC000E80EF11C4FE0B701CE010E9447066E010B
:100ED0008FEFC81AD80A40E3B801C6010E9447063E
:100EE0004CE0B701C6010E9447066E0182E0C80EC1
:100EF000D11C4CEFB801C6010E9447064FEFB70165
:100F0000C6010E9447064CE0B7018CC010E0D0E05B
:100F10004CEFB801CE010E944706780184E0E80E4C
:100F2000F11C43ECB701CE010E9447066E018FEF22
:100F3000C81AD80A4CE0B801C6010E94470643EC23
:100F4000B701C6010E9447066E0182E0C80ED11C9F
:100F50004CE0B801C6010E94470643ECB701C60148
:100F60000E94470623964CE0EDC410E0D0E040EC30
:100F7000B801CE010E944706780184E0E80EF11C1A
:100F80004FE3B701CE010E9447066E018FEFC81AEA
:100F9000D80A40E3B801C6010E94470643ECB701F6
:100FA000C6010E9447066E0182E0C80ED11C4CE0CB
:100FB000B801C6010E94470643ECB701C6010E9472
:100FC000470623964CE0B801CE010E9447064CE349
:100FD0005AC510E0D0E04CE3B801CE010E944706AC
:100FE0007E018FEFE81AF80A4CE0B801C7010E94B1
:100FF0004706680184E0C80ED11C4CEFB601C7015A
:101000000E9447067E0182E0E80EF11C4CE0B80128
:10101000C7010E94470643E0B601C7010E94470688
:101020004CEFB801CE01039644C510E0D0E040EF8C
:10103000B801CE010E944706780184E0E80EF11C59
:101040004CE3B701CE010E9447066E018FEFC81A2C
:10105000D80A4CE0B801C6010E94470643ECB7012C
:10106000C6010E9447066E0182E0C80ED11C4CE00A
:10107000B801C6010E94470643ECB701C6010E94B1
:101080004706239640EF9FCF10E0D0E040EFB80135
:10109000CE010E9447066E018FEFC81AD80A4CE0B5
:1010A000B801C6010E944706780184E0E80EF11CF1
:1010B00043ECB701C6010E9447066E0182E0C80EEC
:1010C000D11C4CE0B801C6010E94470643ECB701B1
:1010D000C6010E944706239640EFB801CE010E9448
:1010E00047064FE3D0C410E0D0E040EFB801CE0196
:1010F0000E944706780184E0E80EF11C4FEFB7012B
:10110000CE010E9447066E018FEFC81AD80A4CE044
:10111000B801C6010E94470643E0B701C6010E941C
:1011200047066E0182E0C80ED11C4CE0B801C60132
:101130000E94470643E0B701C6010E9447066E01C0
:1011400083E0C80ED11C4CE0B801C6010E944706DE
:1011500043E0B701C6010E944706249640EFF2C360
:1011600010E0D0E04CEFB801CE010E9447067801B4
:1011700084E0E80EF11C4FEFB701CE010E94470654
:101180006E018FEFC81AD80A4CE0B801C6010E9460
:10119000470643ECB701C6010E9447066E0182E094
:1011A000C80ED11C4CE0B801C6010E94470643ECB2
:1011B000B701C6010E9447066E0183E0C80ED11C2C
:1011C0004CE0B801C6010E94470643ECB701C601D6
:1011D0000E944706249656CF10E0D0E040EFB801B9
:1011E000CE010E944706780184E0E80EF11C4FE32F
:1011F000B701CE010E9447066E018FEFC81AD80AC8
:101200004CE0B801C6010E94470640ECB701C60198
:101210000E9447066E0182E0C80ED11C4CE0B80166
:10122000C6010E94470640ECB701C6010E9447066E
:101230006E0183E0C80ED11C4CE0B801C6010E94CB
:10124000470640ECB701C6010E944706249640E3DA
:10125000B801CE010E94470640E315C410E0D0E07B
:101260004CEFB801CE010E944706780184E0E80EF9
:10127000F11C4FEFB3C110E0D0E04CEFB801CE014C
:101280000E944706780184E0E80EF11C4FEFB70199
:10129000CE010E9447066E018FEFC81AD80A4CE0B3
:1012A000B801C6010E94470643ECB701C6010E947F
:1012B00047066E0182E0C80ED11C4CE0B801C601A1
:1012C0000E94470643ECB701C6010E9447066E0123
:1012D00083E0C80ED11C4CE0B801C6010E9447064D
:1012E00043ECB701C6010E9447062496AEC010E049
:1012F000D0E04CEFB801CE010E944706780184E0AF
:10130000E80EF11C4FEFB701CE010E9447066E01B7
:101310008FEFC81AD80A4CE0B801C6010E944706F0
:1013200043E0B701C6010E9447066E0182E0C80E85
:10133000D11C4CE0B801C6010E94470643E0B7014A
:10134000C6010E9447066E0183E0C80ED11C4CE026
:10135000B801C6010E94470643E0B701C60186C234
:1013600010E0D0E040EFB801CE010E9447067801BE
:1013700084E0E80EF11C4FE3B701CE010E9447065E
:101380006E018FEFC81AD80A4CE0B801C6010E945E
:10139000470640ECB701C6010E9447066E0182E095
:1013A000C80ED11C4CE0B801C6010E94470643ECB0
:1013B000B701C6010E9447066E0183E0C80ED11C2A
:1013C0004CE0B801C6010E94470643ECB701C601D4
:1013D0000E944706249640E3F6CD10E0D0E04CEFA3
:1013E000B801CE010E944706780184E0E80EF11CA6
:1013F0004FEFB701CE010E94470643E0B701CE018F
:1014000001960E94470643E0B701D6C010E0D0E045
:101410004CE0B801CE010E944706780184E0E80E56
:10142000F11C40ECB701CE010E9447066E018FEF20
:10143000C81AD80A4CEFB801C6010E9447064FEF00
:10144000B701C6010E94470622964CE017C310E080
:10145000D0E04CE0B801CE010E944706780184E05C
:10146000E80EF11C40E3B701CE010E9447066E0171
:101470008FEFC81AD80A4CE0B801C6010E9447068F
:1014800040ECB701C6010E9447066E0182E0C80E1B
:10149000D11C4CE0B801C6010E94470640ECB701E0
:1014A000C6010E944706239608C210E0D0E04CEF28
:1014B000B801CE010E944706780184E0E80EF11CD5
:1014C0004FEFB701CE010E9447066E018FEFC81A99
:1014D000D80A43E0B801C6010E94470643E0B701BD
:1014E000C6010E9447066E0182E0C80ED11C40EC86
:1014F000B801C6010E9447064CE0B701C6010E9430
:101500004706239658C210E0D0E04CEFB801CE0158
:101510000E9447060C5F1F4F4FEFB801CE010E949B
:10152000470640ECB801CE0101960E94470640EC08
:10153000B801CE0102960E94470640ECB801CE01E8
:1015400003960E94470640EC59C210E0D0E04CEFF1
:10155000B801CE010E944706780184E0E80EF11C34
:101560004FEFB701CE010E94470640E3B801CE011C
:1015700001960E94470640ECB801CE0102960E94F7
:10158000470640E3B801D8C110E0D0E04CEFB80105
:10159000CE010E944706780184E0E80EF11C4FEF6F
:1015A000B701CE010E94470640E3B801CE01019683
:1015B0000E94470640ECB801CE0102960E94470601
:1015C00043E0B9C110E0D0E040EFB801CE010E9485
:1015D0004706780184E0E80EF11C4FE3B701CE0125
:1015E0000E9447066E018FEFC81AD80A4CE0B80176
:1015F000C6010E94470640ECB701C6010E9447069B
:101600006E0182E0C80ED11C4CE0B801C6010E94F8
:10161000470640ECB701C6010E9447066E0183E011
:10162000C80ED11C4CE0B801C6010E94470640EC30
:10163000B701C6010E94470624964ECD10E0D0E0C7
:101640004CEFB801CE010E944706780184E0E80E15
:10165000F11C4FEFB701CE010E9447066E018FEFDC
:10166000C81AD80A4CE0B801C6010E94470643E0F8
:10167000B701C6010E9447066E0182E0C80ED11C68
:101680004CE0B801C6010E94470643E0B701C6011D
:101690000E9447066E0183E0C80ED11C4CE0B801E1
:1016A000C6010E94470643E0B701C6010E944706F3
:1016B00040EFA4C110E0D0E040EFB801CE010E949D
:1016C0004706780184E0E80EF11C4FE3B701CE0134
:1016D0000E9447066E018FEFC81AD80A4CE0B80185
:1016E000C6010E94470640ECB701C6010E944706AA
:1016F0006E0182E0C80ED11C4CE0B801C6010E9408
:1017000047064CECB701C6010E9447066E0183E014
:10171000C80ED11C4CE0B801C6010E94470640E348
:10172000B701C6010E944706249640EFB801CE01DA
:101730000E9447064FECA7C110E0D0E040EFB8018F
:10174000CE010E944706780184E0E80EF11C4FEFBD
:10175000B701CE010E9447066E018FEFC81AD80A62
:101760004CE0B801C6010E94470643E0B701C6013C
:101770000E9447066E0182E0C80ED11C4CE0B80101
:10178000C6010E9447064FE0B701C6010E94470606
:101790006E0183E0C80ED11C4CE0B801C6010E9466
:1017A000470643E3B701C6010E944706249640EF6F
:1017B00065C110E0D0E040EFB801CE010E944706BD
:1017C000780184E0E80EF11C40ECB701CE010E94E4
:1017D00047066E018FEFC81AD80A4CE0B801C6015F
:1017E0000E94470643ECB701C6010E9447066E01FE
:1017F00082E0C80ED11C4CE0B801C6010E94470629
:1018000043ECB701C6010E9447066E0183E0C80E93
:10181000D11C4CE0B801C6010E94470643ECB70159
:10182000C6010E9447062496CDCB10E0D0E04CE0E4
:10183000B801CE010E9447064CE0B801CE010196E6
:101840000E9447067E0182E0E80EF11C4CEFB801D1
:10185000C7010E944706B8016C5F7F4F4FEFC70179
:101860000E9447064CE0B801CE0103960E9447064D
:101870004CE0C4C010E0D0E04CEFB801CE010E94B3
:101880004706780184E0E80EF11C4FE3B701CE0172
:101890000E94470640ECB701CE0101960E94470620
:1018A00040ECB701CE0102960E94470640ECB7011A
:1018B000CE0103960E94470624964CEF0ECC10E012
:1018C000D0E04CEFB801CE010E944706780184E0D9
:1018D000E80EF11C4FE0B701CE0101960E944706C9
:1018E00040EFB701CE0102960E9447064FE0B701D4
:1018F000CE0103960E9447064CEF80C010E0D0E076
:101900004CEFB801CE010E944706780184E0E80E52
:10191000F11C4FEFB701CE010E94470640E3B7012B
:10192000CE0101960E9447064CE0B701CE01029617
:101930000E94470640E3B701CE0103960E94470686
:1019400024964CEFB801CE010E9447064FEF9BC092
:1019500010E0D0E04CE3B801CE010E9447067801C8
:1019600084E0E80EF11C40EFB701CE010E9447066B
:101970006E018FEFC81AD80A40ECB801C6010E9468
:1019800047064CE0B701C6010E94470643E0B70195
:10199000CE0102960E9447066E0183E0C80ED11C5C
:1019A00040ECB801C6010E9447064CE0B701C601F1
:1019B0000E94470624964CE3B801CE010E944706D8
:1019C00040EF61C010E0D0E04CE3B801CE010E94CE
:1019D000470640ECB801CE0101960E944706B801C7
:1019E0006C5F7F4F4FEFCE0102960E94470640EC9E
:1019F000B801CE0103960E9447064CE3B801CE0120
:101A0000049657C010E0D0E04CE0B801CE010E942F
:101A10004706780184E0E80EF11C40EFB701CE01E3
:101A20000E9447066E018FEFC81AD80A4CE0B80131
:101A3000C6010E9447064CECB701C6010E9447064A
:101A40006E0182E0C80ED11C4CE0B801C6010E94B4
:101A5000470643ECB701C6010E9447066E0183E0CA
:101A6000C80ED11C4CECB801C6010E94470640ECE0
:101A7000B701C6010E94470624964CE3B801CE0187
:101A80000E94470640ECB701CE0113C010E00C5F86
:101A90001F4FD0E043E0B801CE010E94470643E06B
:101AA000B801CE0101960E94470643E0B801CE017D
:101AB0000296DF91CF911F910F91FF90EF90DF90F1
:101AC000CF900C944706DF91CF911F910F91FF901B
:101AD000EF90DF90CF900895AF92BF92CF92DF92B8
:101AE000EF92FF920F931F93CF93DF93D62EC42EC6
:101AF0008C01D0E0C0E0E62EF12C5801F801808185
:101B0000882331F1C7018C0F911D8B3991054CF061
:101B10004D2F4C0D6C2F6D0D8DE20E94AD06D75FE1
:101B2000C0E04D2F4C0D6C2F6D0DD8018D918D01A6
:101B30000E94AD06D501EC91E052EB3328F4F0E0C1
:101B4000EB5EFE4F608101C060E0C60FCF5FD5CF76
:101B5000DF91CF911F910F91FF90EF90DF90CF9089
:101B6000BF90AF900895CF92DF92EF92FF920F93C4
:101B70001F93CF93DF93062F10E0C82FD0E040ECE7
:101B8000B801CE010E944706780184E0E80EF11CFE
:101B90004CE0B701CE010E9447066E018FEFC81AD4
:101BA000D80A40ECB801C6010E9447064CE0B701D4
:101BB000C6010E9447066E0182E0C80ED11C40ECAF
:101BC000B801C6010E9447064CE0B701C6010E9459
:101BD00047066E0183E0C80ED11C40ECB801C60177
:101BE0000E9447064CE0B701C6010E9447066E01FD
:101BF00084E0C80ED11C40ECB801C6010E94470623
:101C00004CE0B701C6010E9447066E0185E0C80E90
:101C1000D11C4CE0B801C6010E94470640ECB70158
:101C2000C6010E9447066E0186E0C80ED11C4CE337
:101C3000B801C6010E94470640EFB701C6010E94E5
:101C400047066E0187E0C80ED11C40EFB801C601FF
:101C50000E9447064CE3B701C6010E9447066E0189
:101C600088E0C80ED11C40ECB801C6010E944706AE
:101C70004FE0B701C6010E94470643E0B701CE011D
:101C80000996DF91CF911F910F91FF90EF90DF9018
:101C9000CF900C9447064FE067E38FE591E00E94F8
:101CA0006C0D43E267E38AE691E00E946C0D4DE221
:101CB00067E386E791E00E946C0D47E367E380E805
:101CC00091E00E946C0D63E288E20C94B30DEF92F8
:101CD000FF920F931F93CF93DF9394E6E92EF12C9D
:101CE00000E010E0C82FD0E00C171D075CF464E0A2
:101CF00070E0C7010E94D0120F5F1F4F88E0E80E0E
:101D0000F11CF2CFDF91CF911F910F91FF90EF90D7
:101D10000895EF92FF920F931F93CF93DF937B0170
:101D2000EC018C01040F111DC017D10734F4B70169
:101D3000CE010E9451132F96F7CFDF91CF911F91C3
:101D40000F91FF90EF900895AF92BF92CF92DF92E4
:101D5000EF92FF920F931F93CF93DF936C018B0150
:101D6000EC01C40FD11D5E018FEFA81AB80A40E044
:101D7000C5010E944706780184E0E80EF11C40E0AE
:101D8000B701C5010E9447065E0182E0A80EB11CA2
:101D900040E0B801C5010E94470640E0B701C50117
:101DA0000E9447065E0183E0A80EB11C40E0B80126
:101DB000C5010E94470640E0B701C5010E944706E1
:101DC0005E0184E0A80EB11C40E0B801C5010E948C
:101DD000470640E0B701C5010E9447065E0185E065
:101DE000A80EB11C40E0B801C5010E94470640E0C2
:101DF000B701C5010E9447065E0186E0A80EB11C2E
:101E000040E0B801C5010E94470640E0B701C501A6
:101E10000E9447065E0187E0A80EB11C40E0B801B1
:101E2000C5010E94470640E0B701C5010E94470670
:101E30005E0188E0A80EB11C40E0B801C5010E9417
:101E4000470640E0B701C5010E9447065E0189E0F0
:101E5000A80EB11C40E0B801C5010E94470640E051
:101E6000B701C5010E9447065E018AE0A80EB11CB9
:101E700040E0B801C5010E94470640E0B701C50136
:101E80000E9447065E018BE0A80EB11C40E0B8013D
:101E9000C5010E94470640E0B701C5010E94470600
:101EA0002C9640E0B801CE010E94470640E0B70101
:101EB000CE010E944706B801C601DF91CF911F9164
:101EC0000F91FF90EF90DF90CF90BF90AF900C9468
:101ED00051130F931F93CF93DF938C01C5EAD1E089
:101EE0006A817B81888199814C81800F911F0E943A
:101EF000A40E259681E0C43BD80791F7DF91CF91DE
:101F00001F910F9108950F931F93CF93DF938C012F
:101F1000C5EAD1E06A817B81888199814C81800FFB
:101F2000911F0E94890E259681E0C43BD80791F746
:101F3000DF91CF911F910F9108952F923F924F9271
:101F40005F926F927F928F929F92AF92BF92CF9249
:101F5000DF92EF92FF920F931F93CF93DF93CDB752
:101F6000DEB76A970FB6F894DEBF0FBECDBF641719
:101F7000750709F4FCC28A012B019A8F898F7A01B7
:101F800088E0E80EF11C40E0B701898D9A8D0E942F
:101F90004706680194E0C90ED11C898D9A8D01967F
:101FA000988B8F8740E0B6010E94470640E0B7015A
:101FB0008F8598890E94470658019CE0A90EB11CA4
:101FC00040E0B5018F8598890E944706898D9A8DDA
:101FD00002969A8B898B40E0B6010E94470640E04A
:101FE000B70189899A890E94470640E0B50189892D
:101FF0009A890E944706898D9A8D03969C8B8B8BBC
:1020000040E0B6010E94470640E0B7018B899C89F9
:102010000E94470640E0B5018B899C890E944706D3
:10202000898D9A8D04969A83898340E0B8010E9435
:10203000470640E0B60189819A810E94470640E048
:10204000B70189819A810E94470640E0B5018981E4
:102050009A810E944706898D9A8D05969C838B8371
:1020600040E0B8010E94470640E0B6018B819C81A8
:102070000E94470640E0B7018B819C810E94470681
:1020800040E0B5018B819C810E944706898D9A8D25
:1020900006969E838D8340E0B8010E94470640E08B
:1020A000B6018D819E810E94470640E0B7018D8177
:1020B0009E810E94470640E0B5018D819E810E946D
:1020C0004706898D9A8D079698878F8340E0B801DF
:1020D0000E94470640E0B6018F8198850E9447061E
:1020E00040E0B7018F8198850E94470640E0B50126
:1020F0008F8198850E944706898D9A8D08969A87C8
:10210000898740E0B8010E94470640E0B601898512
:102110009A850E94470640E0B70189859A850E940A
:10212000470640E0B50189859A850E944706898D5A
:102130009A8D09969E8B8D8B40E0B6010E944706D2
:1021400040E0B7018D899E890E94470640E0B501B5
:102150008D899E890E944706898D9A8D0A96988F4F
:102160008F8B40E0B8010E94470640E0B6018F899E
:10217000988D0E94470640E0B7018F89988D0E9494
:102180004706898D9A8D0B969C878B8740E0B80116
:102190000E94470640E0B6018B859C850E94470659
:1021A00040E0B7018B859C850E94470640E0B50161
:1021B0008B859C850E944706898D9A8D0C969E87FB
:1021C0008D8740E0B8010E94470640E0B6018D854A
:1021D0009E850E94470640E0B7018D859E850E943E
:1021E000470640E0B5018D859E850E944706298CF3
:1021F0003A8C9DE0290E311C40E0B801C1010E94DB
:10220000470640E0B601C1010E94470640E0B70121
:10221000C1010E94470640E0B501C1010E94470686
:10222000698C7A8C8EE0680E711C40E0B801C301A5
:102230000E94470640E0B601C3010E94470640E005
:10224000B701C3010E94470640E0B501C3010E94E7
:102250004706898C9A8C9FE0890E911C40E0B8015A
:10226000C4010E94470640E0B601C4010E9447062F
:1022700040E0B701C4010E94470640E0B501C40137
:102280000E9447068201085F1F4F42E0B801898D16
:102290009A8D0E944706C20104969A8F898F40EF5B
:1022A000BC018F8598890E9447064BE0B8018F8555
:1022B00098890E94470672019CE0E90EF11C42E0F9
:1022C000B7018F8598890E9447064CEF698D7A8DFA
:1022D00089899A890E9447064FEBB80189899A89B2
:1022E0000E94470640EFB70189899A890E944706F4
:1022F0004FE3698D7A8D8B899C890E94470640EA5D
:10230000B8018B899C890E9447064DEFB7018B89E4
:102310009C890E94470643E0B20189819A810E940C
:1023200047064FEF698D7A8D89819A810E94470611
:102330004BE7B80189819A810E94470645E3B701BE
:1023400089819A810E9447064FEFB2018B819C815F
:102350000E9447064AEF698D7A8D8B819C810E948D
:1023600047064FEFB8018B819C810E94470645E1EB
:10237000B7018B819C810E9447064FEFB2018D818E
:102380009E810E94470647EA698D7A8D8D819E81E4
:102390000E9447064EEFB8018D819E810E9447063C
:1023A00044E5B7018D819E810E9447064FEDB20141
:1023B0008F8198850E94470647E5698D7A8D8F81C8
:1023C00098850E9447064EEFB8018F8198850E943C
:1023D000470643E5B7018F8198850E9447064CE583
:1023E000B20189859A850E94470647E5698D7A8DF5
:1023F00089859A850E9447064DEFB80189859A859F
:102400000E9447064FEFB70189859A850E944706CB
:102410004FEF698D7A8D8D899E890E94470643E032
:10242000B8018D899E890E9447064FEFB7018D89BB
:102430009E890E94470640ECB2018F89988D0E94C8
:1024400047064FEF698D7A8D8F89988D0E944706D8
:102450004FEFB8018F89988D0E94470640EFB20177
:102460008B859C850E9447064AEA698D7A8D8B850B
:102470009C850E9447064AEAB8018B859C850E948C
:10248000470643E0B7018B859C850E9447064CEACE
:10249000B2018D859E850E94470645E5698D7A8D3E
:1024A0008D859E850E94470645E9B8018D859E85EC
:1024B0000E9447064EE0B7018D859E850E94470623
:1024C0004CE6B201C1010E94470645E7698D7A8D4D
:1024D000C1010E94470645E5B801C1010E944706B7
:1024E0004EE0B701C1010E9447064CE6B201C301AC
:1024F0000E9447064DEF698D7A8DC3010E94470601
:102500004FE5B801C3010E9447064EE0B701C30181
:102510000E94470640EFB201C4010E9447064FEFF8
:10252000698D7A8DC4010E9447064FEFB801C4013E
:102530000E94470643E0B701C4016A960FB6F894BB
:10254000DEBF0FBECDBFDF91CF911F910F91FF90E6
:10255000EF90DF90CF90BF90AF909F908F907F9043
:102560006F905F904F903F902F900C9447066A9623
:102570000FB6F894DEBF0FBECDBFDF91CF911F9194
:102580000F91FF90EF90DF90CF90BF90AF909F9012
:102590008F907F906F905F904F903F902F90089515
:1025A000CF92DF92EF92FF920F931F93CF93DF931F
:1025B0008C01EB014CEF0E94470668018FEFC81AAF
:1025C000D80A4FEFBE01C6010E9447067E0184E093
:1025D000E80EF11C43E0B701C6010E9447066801FE
:1025E00082E0C80ED11C4FEFBE01C6010E94470613
:1025F0004FE0B701C6010E944706680183E0C80E9C
:10260000D11C4CEFBE01C6010E9447064FE3B70143
:10261000C6010E944706680184E0C80ED11C40EF45
:10262000BE01C6010E9447064FEFB701C6010E94D6
:102630004706680185E0C80ED11C4CEFBE01C601FB
:102640000E9447064FE3B701C6010E944706680192
:1026500086E0C80ED11C4FEFBE01C6010E9447069E
:102660004FE0B701C6010E944706680187E0C80E27
:10267000D11C4FEFBE01C6010E94470643E0B701DF
:10268000C6010E9447064CEFBE01C8010896DF91C3
:10269000CF911F910F91FF90EF90DF90CF900C940E
:1026A0004706CF92DF92EF92FF920F931F93CF9343
:1026B000DF93EC018B014FEF0E944706780184E025
:1026C000E80EF11C46E5B701CE010E9447066E01F7
:1026D0008FEFC81AD80A4FEBB801C6010E9447060F
:1026E00046E5B701C6010E9447066E0182E0C80EAA
:1026F000D11C4FEAB801C6010E94470645E5B70163
:10270000C6010E9447066E0183E0C80ED11C4FE649
:10271000B801C6010E94470645E5B701C6010E94FF
:1027200047066E0184E0C80ED11C4FEAB801C6010D
:102730000E94470645E5B701C6010E9447066E01A3
:1027400085E0C80ED11C4FEBB801C6010E944706B8
:1027500046E5B701C6010E9447066E0186E0C80E35
:10276000D11C4FEFB801C6010E9447064AE6B701E7
:10277000C6010E9447066E0187E0C80ED11C4FEFCC
:10278000B801C6010E9447064FE6B701C6010E9484
:1027900047066E0188E0C80ED11C4FEFB801C60194
:1027A0000E9447064BE6B701C6010E9447066E012C
:1027B00089E0C80ED11C4FEFB801C6010E94470640
:1027C0004AE5B701C6010E9447066E018AE0C80EBD
:1027D000D11C4FEBB801C6010E94470646E5B70180
:1027E000C6010E9447066E018BE0C80ED11C4FEA5D
:1027F000B801C6010E94470645E5B701C6010E941F
:1028000047066E018CE0C80ED11C4FE6B801C60128
:102810000E94470645E5B701C6010E9447066E01C2
:102820008DE0C80ED11C4FEAB801C6010E944706D0
:1028300045E5B701C6010E9447062E964FEBB80149
:10284000CE010E94470646E5B701CE01DF91CF9148
:102850001F910F91FF90EF90DF90CF900C9447065F
:10286000CF93DF9300D000D01F92CDB7DEB725E025
:10287000829FC0011124FC01EB55FE4F85E0DE0173
:10288000119601900D928A95E1F729813A814B8149
:102890005C816D8170E080E090E00F900F900F9070
:1028A0000F900F90DF91CF910895CF93DF9390E039
:1028B00041E050E820E085E0E5EAF1E060817181E7
:1028C0003481EB01C30FD11DDA01A20FB11DAC178A
:1028D000BD071CF4232FAB01892F35969F5F9330E2
:1028E00069F7DF91CF910895CF93DF9390E04FEF99
:1028F0005FE720E085E0E5EAF1E060817181348105
:10290000EB01C30FD11DDA01A20FB11DCA17DB07FE
:102910001CF4232FAB01892F35969F5F933069F705
:10292000DF91CF91089585E0E0E5F1E0A5EAB1E01F
:1029300001900D928A95E1F785E0E5E5F1E0AAEADC
:10294000B1E001900D928A95E1F785E0EAE5F1E0CA
:10295000AFEAB1E001900D928A95E1F70895FF92F8
:102960000F931F93CF93DF93CDB7DEB72A970FB6A0
:10297000F894DEBF0FBECDBF4E835F838A87F22EF1
:102980000E94581660E074E00E94B3158C0165E166
:1029900070E00E94B315FC0134968A852E813F8138
:1029A000280F311DC8016EE170E00E94B3150F962B
:1029B000280F391F3A832983AF01440F551F440F55
:1029C000551F5C834B836F2D70E0C8010E94B315C7
:1029D0006FE0689F600D11243A815C8170E080E0B7
:1029E00090E02A960FB6F894DEBF0FBECDBFDF9100
:1029F000CF911F910F91FF900895CF93DF9300D057
:102A000000D01F92CDB7DEB729833A834B835C8316
:102A10006D83833068F495E0899FD0011124AB5514
:102A2000BE4F85E0FE01319601900D928A95E1F747
:102A30000F900F900F900F900F90DF91CF9108950E
:102A4000EF92FF920F931F93CF93DF93CDB7DEB733
:102A50002F970FB6F894DEBF0FBECDBF8C01E62EC8
:102A60000E947414F82E0E9430142B873C878B85AB
:102A70009C85860F911D05501109801791078CF4D4
:102A80000E9455140E943014E22F942F752F862F28
:102A90002E2D4E2F532F692F0E94AF148F2D0E9481
:102AA000FD142F960FB6F894DEBF0FBECDBFDF9199
:102AB000CF911F910F91FF90EF9008950E94A9046C
:102AC00080E50E9447052FEF83ED90E32150804081
:102AD0009040E1F700C000008AE00E9447052FEF18
:102AE00083ED90E3215080409040E1F700C000006A
:102AF00082E2882E912CA12CB12CC0E30E943005DB
:102B0000A50194010E94C715672B682B692BA1F4BE
:102B10008091000190910101029711F40E944A04F2
:102B20000E940D038091000190910101892B21F4F5
:102B30000E94EF010E943404C0909D01D0909E013C
:102B4000E0909F01F090A0010E94300526E9C20E9E
:102B5000D11CE11CF11C6C157D058E059F0570F2E2
:102B6000C0930901CBCF97FB072E16F4009407D032
:102B700077FD09D00E94F81507FC05D03EF490952A
:102B800081959F4F0895709561957F4F0895A1E2BB
:102B90001A2EAA1BBB1BFD010DC0AA1FBB1FEE1FD7
:102BA000FF1FA217B307E407F50720F0A21BB30B22
:102BB000E40BF50B661F771F881F991F1A9469F79E
:102BC00060957095809590959B01AC01BD01CF01FA
:102BD0000895EE0FFF1F0590F491E02D09942A0D42
:102BE0003B1D4C1D5D1D6E1D7F1D801F911F089597
:102BF000AA1BBB1B51E107C0AA1FBB1FA617B70723
:102C000010F0A61BB70B881F991F5A95A9F780953E
:102C10009095BC01CD0108958F929F92AF92BF9283
:102C2000CF92DF92EF92FF92CF93DF93EC01688116
:102C300079818A819B81611571058105910521F456
:102C400064E279ED8BE597E02DE133EF41E050E070
:102C50000E949D1649015A019B01AC01A7EAB1E40B
:102C60000E94BC166B017C01ACEEB4EFA50194018F
:102C70000E94CA16DC01CB018C0D9D1DAE1DBF1D2F
:102C8000B7FF03C00197A109B04888839983AA833D
:102C9000BB839F77DF91CF91FF90EF90DF90CF9034
:102CA000BF90AF909F908F9008950E940C1608954A
:102CB00081E191E00E940C160895A0E0B0E08093BD
:102CC000110190931201A0931301B0931401089580
:102CD000BB274A3031F4992322F4BDE290958195C7
:102CE0009F4F0C947416BB27FB015527AA27880F0A
:102CF000991FAA1FA41710F0A41B83955051B9F770
:102D0000A05DAA3308F0A95DA193009779F7B111EE
:102D1000B1931192CB010C948D16DC01FC01672F4D
:102D200071917723E1F7329704C07C916D937083A2
:102D30006291AE17BF07C8F30895052E97FB1EF4E6
:102D400000940E94B41657FD07D00E94C71507FCD7
:102D500003D04EF40C94B4165095409530952195BF
:102D60003F4F4F4F5F4F08959095809570956195B7
:102D70007F4F8F4F9F4F08950E94CF16A59F900DB4
:102D8000B49F900DA49F800D911D11240895B7FF4D
:102D90000C94BC160E94BC16821B930B0895A29F34
:102DA000B001B39FC001A39F700D811D1124911D1F
:102DB000B29F700D811D1124911D0895F894FFCFCD
:102DC00002000300040100020230050005000200B9
:102DD00006010000000300000000000000000000E9
:102DE00000000300000403040404040404040400B9
:102DF00000000000000005050505050505050304A4
:102E00000505050505050505050505000505050577
:102E1000000034005A280014003CC80050005A48F2
:102E2000415550544D454E5545004E45554553204E
:102E3000535049454C004849474853434F52450079
:0E2E400053434857495249474B4549540000F7
:00000001FF
