:100000000C9434000C9451000C9451000C94510049
:100010000C9451000C9451000C9451000C94B801B4
:100020000C9451000C9451000C9451000C9451000C
:100030000C9451000C9451000C9451000C945100FC
:100040000C9451000C9451000C9451000C945100EC
:100050000C9451000C9451000C9451000C945100DC
:100060000C9451000C94510011241FBECFEFD8E026
:10007000DEBFCDBF11E0A0E0B1E0E6E1F7E002C0F5
:1000800005900D92A230B107D9F721E0A2E0B1E0CE
:1000900001C01D92AA30B207E1F70E94E9020C9458
:1000A00089030C940000CF93DF93C0E0D0E04C2F85
:1000B0006AE084E60E94CC024C2F6AE086E60E9449
:1000C000CC024C2F6AE088E60E94CC024C2F6AE0FA
:1000D0008AE60E94CC022196C11581E0D80739F743
:1000E000DF91CF9108954FEF6DE00C94CC02CF9348
:1000F000C82F40E06DE00E94CC0240E06DE081E05E
:100100008C0F0E94CC0240E06DE082E08C0F0E94D8
:10011000CC0240E06DE083E08C0FCF910C94CC02D8
:100120001F93CF93DF93D82FC82FC695C6956FEF37
:100130006C0F40E084E60E94CC0240E06C2F84E625
:100140000E94CC0211E01C0F40E0612F84E60E9467
:10015000CC028D2F837019F44FEF6C2F19C08130B2
:1001600039F44CEF6C2F84E60E94CC0243E00FC0C0
:10017000823039F440EF6C2F84E60E94CC024FE0CD
:1001800006C040EC6C2F84E60E94CC024FE3612F46
:1001900084E6DF91CF911F910C94CC0280910001F5
:1001A000803309F082C035990CC084E10E94F401CB
:1001B00081E3809300010E94DD017093030160934D
:1001C000020134990CC08EE10E94F40181E3809316
:1001D00000010E94DD0170930301609302014A99BE
:1001E0000CC082E30E94F40181E3809300010E942D
:1001F000DD0170930301609302014B990CC08CE305
:100200000E94F40181E3809300010E94DD0170935C
:100210000301609302014D990CC086E40E94F40131
:1002200081E3809300010E94DD01709303016093DC
:1002300002014C990CC080E50E94F40181E3809397
:1002400000010E94DD0170930301609302014E9949
:1002500015C081E380930001809104019091050114
:10026000019790930501809304018AE50E94F401AF
:100270000E94DD0170930301609302014F9915C044
:1002800081E3809300018091040190910501019622
:10029000909305018093040184E60E94F4010E947A
:1002A000DD017093030160930201089580910401C0
:1002B000909105010C94900008950E94E80180E05F
:1002C0000E9472010E94A6018AB183708AB98BB123
:1002D0008C6F8BB987B18F7C87B988B1806388B9FF
:1002E0000C94560297B121E030E0082E01C0220F95
:1002F0000A94EAF72095292327B997E890937A0082
:10030000806480937C0080917A00806480937A007E
:1003100080917A0086FDFCCF089590917C00907FBB
:1003200090937C0090917C008F70982B90937C0030
:1003300080917A00806480937A0080917A0086FDB3
:10034000FCCF809178009091790008951092B200CE
:1003500082E08093B00085E08093B1008DE78093C8
:10036000B300E0E7F0E080818260808378940895B4
:100370001F920F920FB60F9211248F939F93AF93FA
:10038000BF938091060190910701A0910801B0915F
:1003900009010196A11DB11D8093060190930701EB
:1003A000A0930801B0930901BF91AF919F918F91E4
:1003B0000F900FBE0F901F901895F8946091060152
:1003C0007091070180910801909109017894089536
:1003D000E1ECF0E080818861808387E690E0909393
:1003E000C5008093C40008959091C00095FFFCCF94
:1003F0008093C60080E090E00895CF93DF93EC01F6
:100400008991882319F00E94F401FACFDF91CF91EE
:1004100008951F93CF93DF93EC01FE011491812F78
:100420000E94F401112311F02196F7CFDF91CF91B3
:100430001F910895CF93DF93CDB7DEB72A970FB6FC
:10044000F894DEBF0FBECDBF4AE0BE016F5F7F4FA5
:100450000E945403CE0101960E94FD012A960FB618
:10046000F894DEBF0FBECDBFDF91CF91089580918C
:10047000C00087FFFCCF8091C60008956111299AC2
:1004800027E030E090E02D98AC01022E02C0559597
:1004900047950A94E2F740FF02C02B9A01C02B98BF
:1004A0002D9A2150310978F729980895CF93DF9339
:1004B000259A239A249A219A209A2C9A29982D9841
:1004C000289A85E38A95F1F70000289860E081EF8B
:1004D0000E943E0260E087E60E943E0260E086ECF9
:1004E0000E943E0260E080E40E943E0260E080E5FF
:1004F0000E943E0260E08BE20E943E0260E08BEED2
:100500000E943E0260E081E80E943E0260E08FE5CA
:100510000E943E0260E089E80E943E02C0E4D0E111
:1005200061E080E00E943E022197D1F760E080E028
:100530000E943E0260E080E10E943E0260E080E6B0
:100540000E943E0260E08FEADF91CF910C943E0260
:10055000CF93DF9360E080E00E943E0260E080E1A4
:100560000E943E0260E080E60E943E02C0E4D0E1CC
:1005700061E080E00E943E022197D1F760E080E0D8
:100580000E943E0260E080E10E943E0260E080E660
:10059000DF91CF910C943E021F93CF93DF93C82F2E
:1005A000162FD42F60E08F700E943E028C2F829510
:1005B0008F7060E0805F0E943E0260E080E6810F05
:1005C0000E943E0261E08D2FDF91CF911F910C942C
:1005D0003E020E945D0180E50E94F4012FEF83ED51
:1005E00090E3215080409040E1F700C000008AE095
:1005F0000E94F4012FEF83ED90E321508040904062
:10060000E1F700C0000084E390E09093050180933F
:10061000040182E2C82ED12CE12CF12C10E30E94BF
:10062000DD01A70196010E943203672B682B692B1D
:1006300021F40E94CE000E945601C0910201D09187
:1006400003010E94DD019E012A563F4F4901330FED
:10065000AA08BB0886169706A806B90601F71093E4
:100660000001DDCFA1E21A2EAA1BBB1BFD010DC0AC
:10067000AA1FBB1FEE1FFF1FA217B307E407F50752
:1006800020F0A21BB30BE40BF50B661F771F881F2E
:10069000991F1A9469F760957095809590959B01C4
:1006A000AC01BD01CF010895BB274A3031F4992335
:1006B00022F4BDE2909581959F4F0C946003BB2777
:1006C000FB015527AA27880F991FAA1FA41710F00E
:1006D000A41B83955051B9F7A05DAA3308F0A95D1A
:1006E000A193009779F7B111B1931192CB010C94BA
:1006F0007903DC01FC01672F71917723E1F73297D1
:1007000004C07C916D9370836291AE17BF07C8F3EC
:060710000895F894FFCFEC
:020716003000B1
:00000001FF
