:100000000C9462000C947F000C947F000C947F0091
:100010000C947F000C947F000C947F000C94E906F4
:100020000C947F000C947F000C947F000C947F0054
:100030000C947F000C947F000C947F000C947F0044
:100040000C947F000C947F000C947F000C947F0034
:100050000C947F000C947F000C947F000C947F0024
:100060000C947F000C947F00240F410F410FA408D3
:10007000BF08EC081A09350964099309C709F3098F
:10008000220A410F410F410F410F410F410F410F14
:10009000510A8E0ACA0A0C0B190B550B8E0BCB0B8F
:1000A000E40B050C330C610C830CA20CC00CFC0C93
:1000B000380D7A0DB70DF30D180E3D0E5C0E860E41
:1000C000C00EE00E11241FBECFEFD8E0DEBFCDBFC3
:1000D00011E0A0E0B1E0E4ECF7E502C005900D927C
:1000E000AA3AB107D9F721E0AAEAB1E001C01D920E
:1000F000A63EB207E1F70E945E270C94E02B0C9419
:1001000000008091B3019091B401883B9B400CF4B6
:1001100050C0F8942091B3013091B4018091D30183
:100120009091D401821B930B9093D4018093D301BF
:100130002091B3013091B4018091D8019091D901FF
:10014000821B930B9093D9018093D8012091B30126
:100150003091B4018091DD019091DE01821B930BFF
:100160009093DE018093DD0185E090E090930D0196
:1001700080930C01809112018150809312011092A2
:10018000B4011092B3018091100190911101089770
:100190004CF48091100190911101019690931101FE
:1001A0008093100183E090E090930301809302011B
:1001B000789408954FEF69E18FE90E94FD078091DF
:1001C0000A01181684F481E090E090930301809373
:1001D00002011092B2018CE08093C00180910A016B
:1001E000815080930A01089580910901181684F4C2
:1001F00082E090E0909303018093020188EF809366
:10020000B2011092C00180910901815080930901CF
:100210000895AF92CF92EF92FF920F931F93F80140
:10022000EC0DF11D8E179F07A4F4840F911D081784
:1002300019077CF4C7018A0D911D681779074CF4E2
:10024000620F711D81E090E0E616F70624F080E071
:1002500002C080E090E01F910F91FF90EF90CF904F
:10026000AF900895AF92CF92EF92FF920F931F93AA
:10027000CF93DF93C3EDD1E06091B5017091B601EA
:100280008091B3019091B401EA80FB8008811981CB
:10029000605F7F4F28E0A22ECC8021E048E00E94E2
:1002A0000901009731F4259621E0C23ED20721F7DB
:1002B00002C081E090E0DF91CF911F910F91FF90FC
:1002C000EF90CF90AF9008956F927F928F929F9210
:1002D000AF92CF92EF92FF920F931F93CF93DF9342
:1002E000609002017090030133ED832E31E0932E74
:1002F000F401C281D3816091B5017091B601809102
:10030000B3019091B4010081118128E0A22EC48034
:100310007E0120E140E10E940901892BE9F0109261
:10032000B20180910701909108018C179D0744F458
:100330006097D093B601C093B501612C712C0CC0AD
:100340008091070190910801C817D9072CF42896CD
:10035000D093B601C093B501F5E08F0E911C82EEEB
:10036000881681E0980621F67092030160920201DE
:10037000DF91CF911F910F91FF90EF90CF90AF90B1
:100380009F908F907F906F900895AF92CF92EF9251
:10039000FF920F931F93CF93DF93C3EDD1E0609152
:1003A000B5017091B6018091B3019091B401EA80DA
:1003B000FB800881198128E0A22ECC8020E140E159
:1003C0000E940901009731F4259621E0C23ED20730
:1003D00031F702C081E090E0DF91CF911F910F9142
:1003E000FF90EF90CF90AF9008952F923F924F9251
:1003F0005F926F927F928F929F92AF92CF92EF9285
:10040000FF920F931F93CF93DF93C1ECD1E036EFB0
:10041000832E99249A9442E0242E312C4A805B80CA
:10042000688079806091B5017091B6018091B301C7
:100430009091B40128E0A22ECC24C39472018301D0
:1004400020E140E10E940901892B09F498C08091C4
:10045000020190910301019729F03092010120924D
:1004600000018DC08C819D818630910589F160F4F9
:1004700081309105E9F08230910509F04FC09093E9
:1004800001018093000148C08830910589F1D0F0C6
:10049000099709F043C08091AE019091AF01A091FE
:1004A000B001B091B101845F9140A109B1092CC0A4
:1004B00080910401853080F5809104018F5F8093E5
:1004C00004012AC0809110019091110101960BC086
:1004D00080911001909111010297F4F48091100124
:1004E000909111010197909311018093100114C014
:1004F0008091AE019091AF01A091B001B091B10196
:1005000088519C4FAF4FBF4F8093AE019093AF0186
:10051000A093B001B093B1011D821C8240911001E3
:100520005091110180910C0190910D01B201860D45
:10053000971D0E94AA17998288829B828A82409185
:100540000701509108016091B5017091B601809149
:10055000B3019091B4010E94771210920801109299
:10056000070140910701509108016091B501709118
:10057000B6018091B3019091B4010E947712269642
:1005800081E0C33DD80709F049CFDF91CF911F919A
:100590000F91FF90EF90CF90AF909F908F907F90B2
:1005A0006F905F904F903F902F9008958091B5018C
:1005B0009091B6018E36910534F082E090E09093F0
:1005C0000101809300018091B5019091B601909353
:1005D0000801809307018091B3019091B401909339
:1005E000B8018093B70180910C0190910D01909317
:1005F0000F0180930E014091100150911101609103
:1006000012018091B3019091B4010E9420270E94B1
:1006100081000E94F5018091020190910301892BD4
:1006200079F482E08093090180930A010E943201EB
:10063000892B31F483E090E09093030180930201D1
:100640008091020190910301029741F483E090E0D0
:1006500090930301809302010E9464018091C00184
:100660001816CCF58091020190910301019799F53C
:1006700020911001309111018091C001821B809363
:10068000C00180911001909111012091B30130912E
:10069000B401880F991F820F931F9093B401809328
:1006A000B301209110013091110180910C019091C2
:1006B0000D01220F331F821B930B90930D0180932A
:1006C0000C010E94C501892B31F082E090E09093EB
:1006D0000101809300018091C001181684F080917F
:1006E000020190910301019751F40E943201892B7C
:1006F00031F483E090E090930301809302018091B4
:100700000201909103010397C9F42091B2018091F5
:10071000B5019091B601820F911D27FD9A95909396
:10072000B6018093B5018091B20185302CF480919F
:10073000B2018F5F8093B2010E9464018091B30186
:100740009091B40164E670E00E94D427892BE9F40B
:100750008091AE019091AF01A091B001B091B10133
:100760000196A11DB11D8093AE019093AF01A0939E
:10077000B001B093B1016091AE017091AF01809171
:10078000B0019091B1010E94910F20911001309120
:1007900011018091B3019091B401820F931F909346
:1007A000B4018093B3012091100130911101809127
:1007B0000C0190910D01821B930B90930D0180937E
:1007C0000C01089580910B01803309F00EC28091D5
:1007D0000001909101018330910541F08430910531
:1007E00009F47EC0892B09F0BBC108C14B9925C013
:1007F00081E380930B010E940E076093B90170930F
:10080000BA018093BB019093BC0160910501809176
:1008100006010E9489108091050190E0C89724F498
:1008200080910501865F01C08DE280930501609192
:100830000501809106010E94F10F4A9925C081E3CC
:1008400080930B010E940E076093B9017093BA0167
:100850008093BB019093BC016091050180910601DA
:100860000E9489108091050190E0C79724F0809143
:1008700005018A5001C081E4809305016091050162
:10088000809106010E94F10F4E99AFC181E38093E0
:100890000B010E940E076093B9017093BA01809317
:1008A000BB019093BC01809105018D3231F482E04F
:1008B00090E0909301018093000180910501809167
:1008C0000501813409F091C10E94D9070E94D90F16
:1008D00084E090E0909301018093000187E386C05B
:1008E0004B9925C081E380930B010E940E07609312
:1008F000B9017093BA018093BB019093BC016091E0
:100900000501809106010E9489108091050190E007
:10091000C89724F480910501865F01C08DE2809321
:10092000050160910501809106010E94F10F4A992D
:1009300025C081E380930B010E940E076093B901EB
:100940007093BA018093BB019093BC016091050143
:10095000809106010E9489108091050190E0C7975F
:1009600024F0809105018A5001C081E48093050143
:1009700060910501809106010E94F10F4E9935C1E9
:1009800081E380930B010E940E076093B90170937D
:10099000BA018093BB019093BC01809105018D3217
:1009A00031F481E090E090931101809310018091E7
:1009B0000501873331F482E090E090931101809338
:1009C000100180910501813431F487E090E090932B
:1009D0001101809310010E94D9070E94C10F83E08A
:1009E00090E090930101809300018DE280930501D6
:1009F00060910501809106010C94F10F4A991BC08A
:100A000081E380930B010E940E076093B9017093FC
:100A1000BA018093BB019093BC01209110013091E9
:100A200011018091B5019091B601821B930B9093B7
:100A3000B6018093B5014B991BC081E380930B01F4
:100A40000E940E076093B9017093BA018093BB01B5
:100A50009093BC0120911001309111018091B5015A
:100A60009091B601820F931F9093B6018093B501C8
:100A70004D9929C081E380930B010E940E0760937A
:100A8000B9017093BA018093BB019093BC0120918E
:100A90001001309111018091B3019091B401820F46
:100AA000931F9093B4018093B30120911001309172
:100AB000110180910C0190910D01821B930B909379
:100AC0000D0180930C014C9929C081E380930B01A7
:100AD0000E940E076093B9017093BA018093BB0125
:100AE0009093BC0120911001309111018091B301CC
:100AF0009091B401821B930B9093B4018093B30146
:100B0000209110013091110180910C0190910D0103
:100B1000820F931F90930D0180930C014E990FC08B
:100B200081E380930B010E94F4000E940E07609302
:100B3000B9017093BA018093BB019093BC014F99A6
:100B40000FC081E380930B010E94DA000E940E0720
:100B50006093B9017093BA018093BB019093BC017B
:100B6000359922C081E380930B010E940E076093A8
:100B7000B9017093BA018093BB019093BC0183E0EB
:100B800090E090930101809300010E94D9070E9498
:100B9000C10F8DE2809306018093050160910501EC
:100BA000809106010E94F10F34991FC081E3809368
:100BB0000B010E940E076093B9017093BA018093F4
:100BC000BB019093BC018091000190910101892BA0
:100BD00039F481E090E09093010180930001089541
:100BE0001092010110920001089508958091AA01C8
:100BF0009091AB01A091AC01B091AD018091AE019B
:100C00009091AF01A091B001B091B1016091B30199
:100C10007091B4012091B7013091B80180910C011D
:100C200090910D01621B730B0E94561280910C0172
:100C300090910D010E9422124091070150910801EC
:100C40006091B5017091B60185E090E00C94771247
:100C5000CF93DF93809104018150809304018091B0
:100C6000040181110BC01092AE011092AF011092DD
:100C7000B0011092B10183E0809304010E94D90772
:100C80000E948B260E94FC25809104010E94211164
:100C90006091AE017091AF018091B0019091B1016E
:100CA0000E94910F85E090E090930D0180930C01DC
:100CB00080910C0190910D010E943C12C1E0D0E0A6
:100CC000D0930801C093070140910701509108019A
:100CD00060E070E085E090E00E9477121092B4012D
:100CE0001092B3011092B6011092B5011092B201A8
:100CF00083E090E09093030180930201D09301017F
:100D0000C0930001DF91CF9108950E94190784E0FC
:100D10000E94A30684E00E94BE060E9475280E94DD
:100D2000D7068AB183708AB98BB18C6F8BB987B1C2
:100D30008F7C87B988B1806388B90E9487070E9439
:100D40008B260C94FC2597B121E030E0082E01C0E1
:100D5000220F0A94EAF72095292327B997E8909360
:100D60007A00806480937C0080917A008064809314
:100D70007A0080917A0086FDFCCF089590917C00E6
:100D8000907F90937C0090917C008F70982B909333
:100D90007C0080917A00806480937A0080917A0050
:100DA00086FDFCCF80917800909179000895109293
:100DB000B20082E08093B00085E08093B1008DE7BF
:100DC0008093B300E0E7F0E08081826080837894D4
:100DD00008951F920F920FB60F9211248F939F9335
:100DE000AF93BF938091E2019091E301A091E40160
:100DF000B091E5010196A11DB11D8093E201909390
:100E0000E301A093E401B093E501BF91AF919F91FD
:100E10008F910F900FBE0F901F901895F8946091CE
:100E2000E2017091E3018091E4019091E5017894F1
:100E30000895E1ECF0E080818861808387E690E0AE
:100E40009093C5008093C40008959091C00095FFD1
:100E5000FCCF8093C60080E090E00895CF93DF93AD
:100E6000EC018991882319F00E942507FACFDF91C0
:100E7000CF9108951F93CF93DF93EC01FE0114915E
:100E8000812F0E942507112311F02196F7CFDF91C2
:100E9000CF911F910895CF93DF93CDB7DEB72A97F7
:100EA0000FB6F894DEBF0FBECDBF4AE0BE016F5F44
:100EB0007F4F0E948028CE0101960E942E072A961D
:100EC0000FB6F894DEBF0FBECDBFDF91CF9108956E
:100ED0008091C00087FFFCCF8091C600089561110A
:100EE000299A27E030E090E02D98AC01022E02C054
:100EF000559547950A94E2F740FF02C02B9A01C02E
:100F00002B982D9A2150310978F729980895CF937D
:100F1000DF93259A239A249A219A209A2C9A299829
:100F20002D98289A85E38A95F1F70000289860E0CB
:100F300081EF0E946F0760E087E60E946F0760E024
:100F400086EC0E946F0760E080E40E946F0760E01B
:100F500080E50E946F0760E08BE20E946F0760E00F
:100F60008BEE0E946F0760E081E80E946F0760E0EF
:100F70008FE50E946F0760E089E80E946F07C0E478
:100F8000D0E161E080E00E946F072197D1F760E037
:100F900080E00E946F0760E080E10E946F0760E0E0
:100FA00080E60E946F0760E08FEADF91CF910C949A
:100FB0006F07CF93DF9360E080E00E946F0760E0EF
:100FC00080E10E946F0760E080E60E946F07C0E446
:100FD000D0E161E080E00E946F072197D1F760E0E7
:100FE00080E00E946F0760E080E10E946F0760E090
:100FF00080E6DF91CF910C946F071F93CF93DF931F
:10100000C82F162FD42F60E08F700E946F078C2F8F
:1010100082958F7060E0805F0E946F0760E080E6DD
:10102000810F0E946F0761E08D2FDF91CF911F919B
:101030000C946F0780528B3330F4E82FF0E0E95EB8
:10104000FE4F8081089580E00895CF92DF92EF9265
:10105000FF920F931F93CF93DF93803A910508F08F
:1010600051C06936710508F04DC0042F7C01EB01B9
:10107000D595C795D595C7956B0183E0C822DD242A
:10108000C114D10421F46C2F8E2D0E94FD0781E044
:10109000C816D10411F484E00BC082E0C816D10454
:1010A00011F480E105C083E0C816D10459F580E44D
:1010B000089F80011124D02E8091BD0190E0E81698
:1010C000F90649F48091BE0190E0C817D90719F4D8
:1010D000D090BF01D02A4D2D6C2F8E2D0E94FD0780
:1010E000E092BD01C093BE01D092BF01CF5F412FFE
:1010F0006C2F8E2D0E94FD07E092BD01C093BE01B2
:101100001093BF01DF91CF911F910F91FF90EF904E
:10111000DF90CF900895CF92DF92EF92FF920F93DE
:101120001F93CF93DF93082E000C990BAA0BBB0BD8
:10113000FC01BD97EE32F10508F0A3C6042FC62FBF
:10114000EC5CFF4F0C940A2810E0D0E040EFB801AF
:10115000CE010E942508780184E0E80EF11C4FE3DF
:10116000B701CE010E9425086E018FEFC81AD80A78
:101170004CE0B801C6010E9425084CEC78C110E093
:10118000D0E040E3B801CE010E942508680184E068
:10119000C80ED11C40ECB601CE010E9425087E018C
:1011A0008FEFE81AF80A4CEFB801C7010E94250832
:1011B0004FEFB601C7010E9425087E0182E0E80ECC
:1011C000F11C40E0B801C7010E942508BE016C5F18
:1011D0007F4F40ECC7014BC610E0D0E040E3B801C0
:1011E000CE010E942508780184E0E80EF11C40EF52
:1011F000B701CE010E9425086E018FEFC81AD80AE8
:101200004CE0B801C6010E9425084CECB701C601AC
:101210000E9425086E0182E0C80ED11C4CE0B80186
:10122000C6010E94250843ECB701C6010E942508AB
:1012300023969BC410E0D0E040E3B801CE010E94A9
:101240002508780184E0E80EF11C40E3B701CE01E7
:101250000E9425086E018FEFC81AD80A4CE0B80129
:10126000C6010E94250840ECD8C010E0D0E040EC58
:10127000B801CE010E942508780184E0E80EF11C37
:101280004FE0B701CE010E9425086E018FEFC81A0A
:10129000D80A40E3B801C6010E9425084CE0B70116
:1012A000C6010E9425086E0182E0C80ED11C4CEFD9
:1012B000B801C6010E9425084FEFB701C6010E9480
:1012C00025084CE0B7018CC010E0D0E04CEFB8012D
:1012D000CE010E942508780184E0E80EF11C43EC61
:1012E000B701CE010E9425086E018FEFC81AD80AF7
:1012F0004CE0B801C6010E94250843ECB701C601C5
:101300000E9425086E0182E0C80ED11C4CE0B80195
:10131000C6010E94250843ECB701C6010E942508BA
:1013200023964CE0EDC410E0D0E040ECB801CE01D3
:101330000E942508780184E0E80EF11C4FE3B70114
:10134000CE010E9425086E018FEFC81AD80A40E32B
:10135000B801C6010E94250843ECB701C6010E94EE
:1013600025086E0182E0C80ED11C4CE0B801C60110
:101370000E94250843ECB701C6010E942508239668
:101380004CE0B801CE010E9425084CE35AC510E09C
:10139000D0E04CE3B801CE010E9425087E018FEF1A
:1013A000E81AF80A4CE0B801C7010E942508680154
:1013B00084E0C80ED11C4CEFB601C7010E9425087D
:1013C0007E0182E0E80EF11C4CE0B801C7010E94EA
:1013D000250843E0B601C7010E9425084CEFB8017B
:1013E000CE01039644C510E0D0E040EFB801CE0135
:1013F0000E942508780184E0E80EF11C4CE3B70157
:10140000CE010E9425086E018FEFC81AD80A4CE061
:10141000B801C6010E94250843ECB701C6010E942D
:1014200025086E0182E0C80ED11C4CE0B801C6014F
:101430000E94250843ECB701C6010E9425082396A7
:1014400040EF9FCF10E0D0E040EFB801CE010E9406
:1014500025086E018FEFC81AD80A4CE0B801C60102
:101460000E942508780184E0E80EF11C43ECB701E6
:10147000C6010E9425086E0182E0C80ED11C4CE016
:10148000B801C6010E94250843ECB701C6010E94BD
:101490002508239640EFB801CE010E9425084FE3AE
:1014A000D0C410E0D0E040EFB801CE010E94250882
:1014B000780184E0E80EF11C4FEFB701CE010E94E5
:1014C00025086E018FEFC81AD80A4CE0B801C60192
:1014D0000E94250843E0B701C6010E9425086E015D
:1014E00082E0C80ED11C4CE0B801C6010E9425085C
:1014F00043E0B701C6010E9425086E0183E0C80ED3
:10150000D11C4CE0B801C6010E94250843E0B70198
:10151000C6010E942508249640EFF2C310E0D0E0F7
:101520004CEFB801CE010E942508780184E0E80E56
:10153000F11C4FEFB701CE010E9425086E018FEF1D
:10154000C81AD80A4CE0B801C6010E94250843EC2D
:10155000B701C6010E9425086E0182E0C80ED11CA9
:101560004CE0B801C6010E94250843ECB701C60152
:101570000E9425086E0183E0C80ED11C4CE0B80122
:10158000C6010E94250843ECB701C6010E94250848
:10159000249656CF10E0D0E040EFB801CE010E9473
:1015A0002508780184E0E80EF11C4FE3B701CE0175
:1015B0000E9425086E018FEFC81AD80A4CE0B801C6
:1015C000C6010E94250840ECB701C6010E9425080B
:1015D0006E0182E0C80ED11C4CE0B801C6010E9429
:1015E000250840ECB701C6010E9425086E0183E082
:1015F000C80ED11C4CE0B801C6010E94250840EC81
:10160000B701C6010E942508249640E3B801CE0127
:101610000E94250840E315C410E0D0E04CEFB8016B
:10162000CE010E942508780184E0E80EF11C4FEFFE
:10163000B3C110E0D0E04CEFB801CE010E94250804
:10164000780184E0E80EF11C4FEFB701CE010E9453
:1016500025086E018FEFC81AD80A4CE0B801C60100
:101660000E94250843ECB701C6010E9425086E01BF
:1016700082E0C80ED11C4CE0B801C6010E942508CA
:1016800043ECB701C6010E9425086E0183E0C80E35
:10169000D11C4CE0B801C6010E94250843ECB701FB
:1016A000C6010E9425082496AEC010E0D0E04CEFA1
:1016B000B801CE010E942508780184E0E80EF11CF3
:1016C0004FEFB701CE010E9425086E018FEFC81AB7
:1016D000D80A4CE0B801C6010E94250843E0B701D2
:1016E000C6010E9425086E0182E0C80ED11C4CE0A4
:1016F000B801C6010E94250843E0B701C6010E9457
:1017000025086E0183E0C80ED11C4CE0B801C6016B
:101710000E94250843E0B701C60186C210E0D0E070
:1017200040EFB801CE010E942508780184E0E80E60
:10173000F11C4FE3B701CE010E9425086E018FEF27
:10174000C81AD80A4CE0B801C6010E94250840EC2E
:10175000B701C6010E9425086E0182E0C80ED11CA7
:101760004CE0B801C6010E94250843ECB701C60150
:101770000E9425086E0183E0C80ED11C4CE0B80120
:10178000C6010E94250843ECB701C6010E94250846
:10179000249640E3F6CD10E0D0E04CEFB801CE0146
:1017A0000E942508780184E0E80EF11C4FEFB70194
:1017B000CE010E94250843E0B701CE0101960E94A8
:1017C000250843E0B701D6C010E0D0E04CE0B801F6
:1017D000CE010E942508780184E0E80EF11C40EC5F
:1017E000B701CE010E9425086E018FEFC81AD80AF2
:1017F0004CEFB801C6010E9425084FEFB701C601A2
:101800000E94250822964CE017C310E0D0E04CE07F
:10181000B801CE010E942508780184E0E80EF11C91
:1018200040E3B701CE010E9425086E018FEFC81A70
:10183000D80A4CE0B801C6010E94250840ECB70167
:10184000C6010E9425086E0182E0C80ED11C4CE042
:10185000B801C6010E94250840ECB701C6010E94EC
:101860002508239608C210E0D0E04CEFB801CE0165
:101870000E942508780184E0E80EF11C4FEFB701C3
:10188000CE010E9425086E018FEFC81AD80A43E0E6
:10189000B801C6010E94250843E0B701C6010E94B5
:1018A00025086E0182E0C80ED11C40ECB801C601CB
:1018B0000E9425084CE0B701C6010E942508239626
:1018C00058C210E0D0E04CEFB801CE010E942508CC
:1018D0000C5F1F4F4FEFB801CE010E94250840EC6E
:1018E000B801CE0101960E94250840ECB801CE0156
:1018F00002960E94250840ECB801CE0103960E9492
:10190000250840EC59C210E0D0E04CEFB801CE0100
:101910000E942508780184E0E80EF11C4FEFB70122
:10192000CE010E94250840E3B801CE0101960E9435
:10193000250840ECB801CE0102960E94250840E33C
:10194000B801D8C110E0D0E04CEFB801CE010E9440
:101950002508780184E0E80EF11C4FEFB701CE01B5
:101960000E94250840E3B801CE0101960E94250897
:1019700040ECB801CE0102960E94250843E0B9C1AF
:1019800010E0D0E040EFB801CE010E9425087801B8
:1019900084E0E80EF11C4FE3B701CE010E94250858
:1019A0006E018FEFC81AD80A4CE0B801C6010E9438
:1019B000250840ECB701C6010E9425086E0182E0AF
:1019C000C80ED11C4CE0B801C6010E94250840ECAD
:1019D000B701C6010E9425086E0183E0C80ED11C24
:1019E0004CE0B801C6010E94250840ECB701C601D1
:1019F0000E94250824964ECD10E0D0E04CEFB801AF
:101A0000CE010E942508780184E0E80EF11C4FEF1A
:101A1000B701CE010E9425086E018FEFC81AD80ABF
:101A20004CE0B801C6010E94250843E0B701C60199
:101A30000E9425086E0182E0C80ED11C4CE0B8015E
:101A4000C6010E94250843E0B701C6010E9425088F
:101A50006E0183E0C80ED11C4CE0B801C6010E94A3
:101A6000250843E0B701C6010E94250840EFA4C144
:101A700010E0D0E040EFB801CE010E9425087801C7
:101A800084E0E80EF11C4FE3B701CE010E94250867
:101A90006E018FEFC81AD80A4CE0B801C6010E9447
:101AA000250840ECB701C6010E9425086E0182E0BE
:101AB000C80ED11C4CE0B801C6010E9425084CECB0
:101AC000B701C6010E9425086E0183E0C80ED11C33
:101AD0004CE0B801C6010E94250840E3B701C601E9
:101AE0000E942508249640EFB801CE010E942508E7
:101AF0004FECA7C110E0D0E040EFB801CE010E944A
:101B00002508780184E0E80EF11C4FEFB701CE0103
:101B10000E9425086E018FEFC81AD80A4CE0B80160
:101B2000C6010E94250843E0B701C6010E942508AE
:101B30006E0182E0C80ED11C4CE0B801C6010E94C3
:101B400025084FE0B701C6010E9425086E0183E019
:101B5000C80ED11C4CE0B801C6010E94250843E321
:101B6000B701C6010E942508249640EF65C110E028
:101B7000D0E040EFB801CE010E942508780184E052
:101B8000E80EF11C40ECB701CE010E9425086E0161
:101B90008FEFC81AD80A4CE0B801C6010E94250888
:101BA00043ECB701C6010E9425086E0182E0C80E11
:101BB000D11C4CE0B801C6010E94250843ECB701D6
:101BC000C6010E9425086E0183E0C80ED11C4CE0BE
:101BD000B801C6010E94250843ECB701C6010E9466
:101BE00025082496CDCB10E0D0E04CE0B801CE0122
:101BF0000E9425084CE0B801CE0101960E942508FC
:101C00007E0182E0E80EF11C4CEFB801C7010E9492
:101C10002508B8016C5F7F4F4FEFC7010E94250870
:101C20004CE0B801CE0103960E9425084CE0C4C0E8
:101C300010E0D0E04CEFB801CE010E9425087801F9
:101C400084E0E80EF11C4FE3B701CE010E942508A5
:101C500040ECB701CE0101960E94250840ECB70187
:101C6000CE0102960E94250840ECB701CE010396F2
:101C70000E94250824964CEF0ECC10E0D0E04CEFEB
:101C8000B801CE010E942508780184E0E80EF11C1D
:101C90004FE0B701CE0101960E94250840EFB70141
:101CA000CE0102960E9425084FE0B701CE010396AF
:101CB0000E9425084CEF80C010E0D0E04CEFB80146
:101CC000CE010E942508780184E0E80EF11C4FEF58
:101CD000B701CE010E94250840E3B701CE0101966D
:101CE0000E9425084CE0B701CE0102960E9425080B
:101CF00040E3B701CE0103960E94250824964CEFDD
:101D0000B801CE010E9425084FEF9BC010E0D0E043
:101D10004CE3B801CE010E942508780184E0E80E6A
:101D2000F11C40EFB701CE010E9425086E018FEF34
:101D3000C81AD80A40ECB801C6010E9425084CE038
:101D4000B701C6010E94250843E0B701CE01029603
:101D50000E9425086E0183E0C80ED11C40ECB8013A
:101D6000C6010E9425084CE0B701C6010E94250863
:101D700024964CE3B801CE010E94250840EF61C0D3
:101D800010E0D0E04CE3B801CE010E94250840EC01
:101D9000B801CE0101960E942508B8016C5F7F4F03
:101DA0004FEFCE0102960E94250840ECB801CE010B
:101DB00003960E9425084CE3B801CE01049657C053
:101DC00010E0D0E04CE0B801CE010E942508780177
:101DD00084E0E80EF11C40EFB701CE010E94250817
:101DE0006E018FEFC81AD80A4CE0B801C6010E94F4
:101DF00025084CECB701C6010E9425086E0182E05F
:101E0000C80ED11C4CE0B801C6010E94250843EC65
:101E1000B701C6010E9425086E0183E0C80ED11CDF
:101E20004CECB801C6010E94250840ECB701C60180
:101E30000E94250824964CE3B801CE010E94250893
:101E400040ECB701CE0113C010E00C5F1F4FD0E093
:101E500043E0B801CE010E94250843E0B801CE015D
:101E600001960E94250843E0B801CE010296DF9159
:101E7000CF911F910F91FF90EF90DF90CF900C9436
:101E80002508DF91CF911F910F91FF90EF90DF9088
:101E9000CF900895AF92BF92CF92DF92EF92FF92D0
:101EA0000F931F93CF93DF93D62EC42E8C01D0E0D7
:101EB000C0E0E62EF12C5801F8018081882331F131
:101EC000C7018C0F911D8B3991054CF04D2F4C0D96
:101ED0006C2F6D0D8DE20E948B08D75FC0E04D2FF7
:101EE0004C0D6C2F6D0DD8018D918D010E948B08CA
:101EF000D501EC91E052EB3328F4F0E0E95EFE4FBF
:101F0000608101C060E0C60FCF5FD5CFDF91CF9178
:101F10001F910F91FF90EF90DF90CF90BF90AF9007
:101F200008950F931F93CF93DF93CDB7DEB76297DA
:101F30000FB6F894DEBF0FBECDBF9F938F937F93F4
:101F40006F9381E691E09F938F938E010F5F1F4FF8
:101F50001F930F930E94A52840E660E5C8010E94E8
:101F60004A0F0FB6F894DEBF0FBECDBF62960FB614
:101F7000F894DEBF0FBECDBFDF91CF911F910F91BF
:101F8000089549E167E387E691E00E944A0F4DE238
:101F900067E382E791E00E944A0F47E367E38EE739
:101FA00091E00E944A0F41E467E388E891E00C94D5
:101FB0004A0F49E167E388E891E00E944A0F4DE249
:101FC00067E385E991E00E944A0F47E367E38CE904
:101FD00091E00E944A0F41E467E383EA91E00C94A8
:101FE0004A0FCF92DF92EF92FF920F931F93CF93FE
:101FF000DF93062F10E0C82FD0E040ECB801CE01EF
:102000000E942508780184E0E80EF11C4CE0B7013D
:10201000CE010E9425086E018FEFC81AD80A40EC45
:10202000B801C6010E9425084CE0B701C6010E9414
:1020300025086E0182E0C80ED11C40ECB801C60133
:102040000E9425084CE0B701C6010E9425086E01D8
:1020500083E0C80ED11C40ECB801C6010E942508DF
:102060004CE0B701C6010E9425086E0184E0C80E4D
:10207000D11C40ECB801C6010E9425084CE0B70114
:10208000C6010E9425086E0185E0C80ED11C4CE0F7
:10209000B801C6010E94250840ECB701C6010E94A4
:1020A00025086E0186E0C80ED11C4CE3B801C601BC
:1020B0000E94250840EFB701C6010E9425086E0165
:1020C00087E0C80ED11C40EFB801C6010E94250868
:1020D0004CE3B701C6010E9425086E0188E0C80ED6
:1020E000D11C40ECB801C6010E9425084FE0B701A1
:1020F000C6010E94250843E0B701CE010996DF9191
:10210000CF911F910F91FF90EF90DF90CF900C94A3
:102110002508CF92DF92EF92FF920F931F93CF93F8
:10212000DF93062F10E0C82FD0E040E0B801CE01C9
:102130000E942508780184E0E80EF11C40E0B70118
:10214000CE010E9425086E018FEFC81AD80A40E020
:10215000B801C6010E94250840E0B701C6010E94EF
:1021600025086E0182E0C80ED11C40E0B801C6010E
:102170000E94250840E0B701C6010E9425086E01B3
:1021800083E0C80ED11C40E0B801C6010E942508BA
:1021900040E0B701C6010E9425086E0184E0C80E28
:1021A000D11C40E0B801C6010E94250840E0B701FB
:1021B000C6010E9425086E0185E0C80ED11C40E0D2
:1021C000B801C6010E94250840E0B701C6010E947F
:1021D00025086E0186E0C80ED11C40E0B801C6019A
:1021E0000E94250840E0B701C6010E9425086E0143
:1021F00087E0C80ED11C40E0B801C6010E94250846
:1022000040E0B701C6010E9425086E0188E0C80EB3
:10221000D11C40E0B801C6010E94250840E0B7018A
:10222000C6010E94250840E0B701CE010996DF9162
:10223000CF911F910F91FF90EF90DF90CF900C9472
:102240002508EF92FF920F931F93CF93DF93E12C1A
:10225000F12C00E010E0C82FD0E00C171D075CF453
:1022600060E670E0C7010E94AA150F5F1F4F88E06B
:10227000E80EF11CF2CFDF91CF911F910F91FF90EB
:10228000EF900895EF92FF920F931F93CF93DF93F8
:102290007B01EC018C01040F111DC017D10734F430
:1022A000B701CE010E942B162F96F7CFDF91CF9169
:1022B0001F910F91FF90EF900895AF92BF92CF9230
:1022C000DF92EF92FF920F931F93CF93DF936C01F6
:1022D0008B01EC01C40FD11D5E018FEFA81AB80A63
:1022E00040E0C5010E942508780184E0E80EF11C59
:1022F00040E0B701C5010E9425085E0182E0A80EFA
:10230000B11C40E0B801C5010E94250840E0B701BA
:10231000C5010E9425085E0183E0A80EB11C40E0C3
:10232000B801C5010E94250840E0B701C5010E941F
:1023300025085E0184E0A80EB11C40E0B801C5018B
:102340000E94250840E0B701C5010E9425085E01F2
:1023500085E0A80EB11C40E0B801C5010E94250827
:1023600040E0B701C5010E9425085E0186E0A80E85
:10237000B11C40E0B801C5010E94250840E0B7014A
:10238000C5010E9425085E0187E0A80EB11C40E04F
:10239000B801C5010E94250840E0B701C5010E94AF
:1023A00025085E0188E0A80EB11C40E0B801C50117
:1023B0000E94250840E0B701C5010E9425085E0182
:1023C00089E0A80EB11C40E0B801C5010E942508B3
:1023D00040E0B701C5010E9425085E018AE0A80E11
:1023E000B11C40E0B801C5010E94250840E0B701DA
:1023F000C5010E9425085E018BE0A80EB11C40E0DB
:10240000B801C5010E94250840E0B701C5010E943E
:1024100025082C9640E0B801CE010E94250840E036
:10242000B701CE010E942508B801C601DF91CF9106
:102430001F910F91FF90EF90DF90CF90BF90AF90E2
:102440000C942B160F931F93CF93DF938C01C3ED46
:10245000D1E06A817B81888199814C81800F911FB5
:102460000E945D11259681E0C23ED80791F7DF9169
:10247000CF911F910F9108950F931F93CF93DF93E7
:102480008C01C3EDD1E06A817B81888199814C8187
:10249000800F911F0E944211259681E0C23ED8070D
:1024A00091F7DF91CF911F910F910895EF92FF92D5
:1024B0000F931F93CF93DF938C017B01C1ECD1E08D
:1024C0004C815D816A817B81888199819701800F30
:1024D000911F0E940A17269681E0C33DD80781F715
:1024E000DF91CF911F910F91FF90EF9008952F9260
:1024F0003F924F925F926F927F928F929F92AF9294
:10250000BF92CF92DF92EF92FF920F931F93CF93E0
:10251000DF93CDB7DEB76A970FB6F894DEBF0FBE74
:10252000CDBF6417750709F4FCC28A012B019A8F8D
:10253000898F7A0188E0E80EF11C40E0B701898DAF
:102540009A8D0E942508680194E0C90ED11C898DDE
:102550009A8D0196988B8F8740E0B6010E942508DE
:1025600040E0B7018F8598890E94250858019CE0BA
:10257000A90EB11C40E0B5018F8598890E942508FD
:10258000898D9A8D02969A8B898B40E0B6010E94C4
:10259000250840E0B70189899A890E94250840E012
:1025A000B50189899A890E942508898D9A8D03969B
:1025B0009C8B8B8B40E0B6010E94250840E0B70160
:1025C0008B899C890E94250840E0B5018B899C89F4
:1025D0000E942508898D9A8D04969A83898340E00C
:1025E000B8010E94250840E0B60189819A810E94C5
:1025F000250840E0B70189819A810E94250840E0C2
:10260000B50189819A810E942508898D9A8D059648
:102610009C838B8340E0B8010E94250840E0B6010E
:102620008B819C810E94250840E0B7018B819C81B1
:102630000E94250840E0B5018B819C810E942508FD
:10264000898D9A8D06969E838D8340E0B8010E9405
:10265000250840E0B6018D819E810E94250840E05A
:10266000B7018D819E810E94250840E0B5018D81D2
:102670009E810E942508898D9A8D079698878F8361
:1026800040E0B8010E94250840E0B6018F8198859E
:102690000E94250840E0B7018F8198850E94250897
:1026A00040E0B5018F8198850E942508898D9A8D1B
:1026B00008969A87898740E0B8010E94250840E083
:1026C000B60189859A850E94250840E0B701898571
:1026D0009A850E94250840E0B50189859A850E9467
:1026E0002508898D9A8D09969E8B8D8B40E0B601C9
:1026F0000E94250840E0B7018D899E890E94250827
:1027000040E0B5018D899E890E942508898D9A8DAA
:102710000A96988F8F8B40E0B8010E94250840E010
:10272000B6018F89988D0E94250840E0B7018F89F6
:10273000988D0E942508898D9A8D0B969C878B8792
:1027400040E0B8010E94250840E0B6018B859C85D9
:102750000E94250840E0B7018B859C850E942508D2
:1027600040E0B5018B859C850E942508898D9A8D56
:102770000C969E878D8740E0B8010E94250840E0B6
:10278000B6018D859E850E94250840E0B7018D85A4
:102790009E850E94250840E0B5018D859E850E949A
:1027A0002508298C3A8C9DE0290E311C40E0B801A7
:1027B000C1010E94250840E0B601C1010E94250820
:1027C00040E0B701C1010E94250840E0B501C10108
:1027D0000E942508698C7A8C8EE0680E711C40E09E
:1027E000B801C3010E94250840E0B601C3010E9460
:1027F000250840E0B701C3010E94250840E0B5016B
:10280000C3010E942508898C9A8C9FE0890E911C37
:1028100040E0B801C4010E94250840E0B601C401AF
:102820000E94250840E0B701C4010E94250840E04D
:10283000B501C4010E9425088201085F1F4F42E0D4
:10284000B801898D9A8D0E942508C20104969A8F3D
:10285000898F40EFBC018F8598890E9425084BE045
:10286000B8018F8598890E94250872019CE0E90EC5
:10287000F11C42E0B7018F8598890E9425084CEF32
:10288000698D7A8D89899A890E9425084FEBB80154
:1028900089899A890E94250840EFB70189899A8918
:1028A0000E9425084FE3698D7A8D8B899C890E944F
:1028B000250840EAB8018B899C890E9425084DEFC4
:1028C000B7018B899C890E94250843E0B201898168
:1028D0009A810E9425084FEF698D7A8D89819A81AE
:1028E0000E9425084BE7B80189819A810E9425083A
:1028F00045E3B70189819A810E9425084FEFB20113
:102900008B819C810E9425084AEF698D7A8D8B818D
:102910009C810E9425084FEFB8018B819C810E9409
:10292000250845E1B7018B819C810E9425084FEF66
:10293000B2018D819E810E94250847EA698D7A8DBA
:102940008D819E810E9425084EEFB8018D819E8168
:102950000E94250844E5B7018D819E810E942508CB
:102960004FEDB2018F8198850E94250847E5698D5A
:102970007A8D8F8198850E9425084EEFB8018F814E
:1029800098850E94250843E5B7018F8198850E94AC
:1029900025084CE5B20189859A850E94250847E5FE
:1029A000698D7A8D89859A850E9425084DEFB80139
:1029B00089859A850E9425084FEFB70189859A85F8
:1029C0000E9425084FEF698D7A8D8D899E890E941E
:1029D000250843E0B8018D899E890E9425084FEFA4
:1029E000B7018D899E890E94250840ECB2018F892C
:1029F000988D0E9425084FEF698D7A8D8F89988D6B
:102A00000E9425084FEFB8018F89988D0E942508F4
:102A100040EFB2018B859C850E9425084AEA698DAA
:102A20007A8D8B859C850E9425084AEAB8018B85A2
:102A30009C850E94250843E0B7018B859C850E94F8
:102A400025084CEAB2018D859E850E94250845E542
:102A5000698D7A8D8D859E850E94250845E9B8018E
:102A60008D859E850E9425084EE0B7018D859E8547
:102A70000E9425084CE6B201C1010E94250845E7E5
:102A8000698D7A8DC1010E94250845E5B801C10113
:102A90000E9425084EE0B701C1010E9425084CE6BE
:102AA000B201C3010E9425084DEF698D7A8DC301E3
:102AB0000E9425084FE5B801C3010E9425084EE099
:102AC000B701C3010E94250840EFB201C4010E9472
:102AD00025084FEF698D7A8DC4010E9425084FEFBC
:102AE000B801C4010E94250843E0B701C4016A96F9
:102AF0000FB6F894DEBF0FBECDBFDF91CF911F910F
:102B00000F91FF90EF90DF90CF90BF90AF909F908C
:102B10008F907F906F905F904F903F902F900C948C
:102B200025086A960FB6F894DEBF0FBECDBFDF91C1
:102B3000CF911F910F91FF90EF90DF90CF90BF90BA
:102B4000AF909F908F907F906F905F904F903F904D
:102B50002F900895CF92DF92EF92FF920F931F93E1
:102B6000CF93DF938C01EB014CEF0E9425086801A5
:102B70008FEFC81AD80A4FEFBE01C6010E94250880
:102B80007E0184E0E80EF11C43E0B701C6010E941B
:102B90002508680182E0C80ED11C4FEFBE01C601B6
:102BA0000E9425084FE0B701C6010E942508680170
:102BB00083E0C80ED11C4CEFBE01C6010E9425085F
:102BC0004FE3B701C6010E942508680184E0C80EE2
:102BD000D11C40EFBE01C6010E9425084FEFB7018E
:102BE000C6010E942508680185E0C80ED11C4CEF83
:102BF000BE01C6010E9425084FE3B701C6010E942D
:102C00002508680186E0C80ED11C4FEFBE01C60141
:102C10000E9425084FE0B701C6010E9425086801FF
:102C200087E0C80ED11C4FEFBE01C6010E942508E7
:102C300043E0B701C6010E9425084CEFBE01C80160
:102C40000896DF91CF911F910F91FF90EF90DF9049
:102C5000CF900C942508CF92DF92EF92FF920F93C2
:102C60001F93CF93DF93EC018B014FEF0E94250858
:102C7000780184E0E80EF11C46E5B701CE010E9420
:102C800025086E018FEFC81AD80A4FEBB801C601AC
:102C90000E94250846E5B701C6010E9425086E017D
:102CA00082E0C80ED11C4FEAB801C6010E94250877
:102CB00045E5B701C6010E9425086E0183E0C80EF4
:102CC000D11C4FE6B801C6010E94250845E5B701B1
:102CD000C6010E9425086E0184E0C80ED11C4FEA8F
:102CE000B801C6010E94250845E5B701C6010E944A
:102CF00025086E0185E0C80ED11C4FEBB801C60156
:102D00000E94250846E5B701C6010E9425086E010C
:102D100086E0C80ED11C4FEFB801C6010E942508FD
:102D20004AE6B701C6010E9425086E0187E0C80E79
:102D3000D11C4FEFB801C6010E9425084FE6B7012C
:102D4000C6010E9425086E0188E0C80ED11C4FEF15
:102D5000B801C6010E9425084BE6B701C6010E94D2
:102D600025086E0189E0C80ED11C4FEFB801C601DD
:102D70000E9425084AE5B701C6010E9425086E0198
:102D80008AE0C80ED11C4FEBB801C6010E9425088D
:102D900046E5B701C6010E9425086E018BE0C80E0A
:102DA000D11C4FEAB801C6010E94250845E5B701CC
:102DB000C6010E9425086E018CE0C80ED11C4FE6AA
:102DC000B801C6010E94250845E5B701C6010E9469
:102DD00025086E018DE0C80ED11C4FEAB801C6016E
:102DE0000E94250845E5B701C6010E9425082E96D8
:102DF0004FEBB801CE010E94250846E5B701CE0190
:102E0000DF91CF911F910F91FF90EF90DF90CF90C6
:102E10000C9425086F927F928F929F92AF92BF92EF
:102E2000CF92DF92EF92FF920F931F93CF93DF9396
:102E30003C01EB016901E12CF12C8B010C5F1F4F70
:102E40005C0188E0A80EB11CEC14FD048CF4450173
:102E50008E0C9F1C40E0BE01C4010E94250840E08A
:102E6000B801C4010E9425088FEFE81AF80AECCFD8
:102E70004CE3BE01C3010E9425084FE3B801C30122
:102E80000E94250873018FEFE81AF80A48E0BE0196
:102E9000C7010E94250847E5B801C7010E9425081F
:102EA000730182E0E80EF11C4AE0BE01C7010E94F6
:102EB000250847E5B801C7010E942508730183E092
:102EC000E80EF11C4AE0BE01C7010E94250847E553
:102ED000B801C7010E942508730184E0E80EF11CC7
:102EE0004AE0BE01C7010E9425084BE5B801C701B1
:102EF0000E942508730185E0E80EF11C4AEEBE0130
:102F0000C7010E94250847E5B801C7010E942508AE
:102F1000730186E0E80EF11C42ECBE01C7010E947D
:102F2000250843E0B801C7010E94250842E0BE0120
:102F3000C3010796DF91CF911F910F91FF90EF9002
:102F4000DF90CF90BF90AF909F908F907F906F90C9
:102F50000C9425086F927F928F929F92AF92BF92AE
:102F6000CF92DF92EF92FF920F931F93CF93DF9355
:102F70003C01EB016A01E12CF12C8B010C5F1F4F2E
:102F80005C0188E0A80EB11CEC14FD048CF4450132
:102F90008E0C9F1C40E0BE01C4010E94250840E049
:102FA000B801C4010E9425088FEFE81AF80AECCF97
:102FB00040E0BE01C3010E94250840E0B801C30102
:102FC0000E94250873018FEFE81AF80A40E0BE015D
:102FD000C7010E94250840E0B801C7010E942508EA
:102FE000730182E0E80EF11C40E0BE01C7010E94BF
:102FF000250840E0B801C7010E942508730183E05D
:10300000E80EF11C40E0BE01C7010E94250840E027
:10301000B801C7010E942508730184E0E80EF11C85
:1030200040E0BE01C7010E94250840E0B801C70189
:103030000E942508730185E0E80EF11C40E0BE0106
:10304000C7010E94250840E0B801C7010E94250879
:10305000730186E0E80EF11C40E0BE01C7010E944A
:10306000250840E0B801C7010E94250840E0BE01E4
:10307000C3010796DF91CF911F910F91FF90EF90C1
:10308000DF90CF90BF90AF909F908F907F906F9088
:103090000C942508EF92FF920F931F93CF93DF9329
:1030A0004CE060E270E082E190E00E94250843E09D
:1030B00060E270E083E190E00E94250843E060E276
:1030C00070E084E190E00E94250843E060E270E057
:1030D00085E190E00E9425084CE368E270E085E11C
:1030E00090E00E94250840EC6CE170E086E190E001
:1030F0000E94250843E060E270E086E190E00E94D3
:10310000250840EC64E270E086E190E00E9425082A
:103110004FE068E270E086E190E00E9425084FE011
:1031200060E370E086E190E00E9425084CEF64E3E4
:1031300070E086E190E00E9425084FEF68E370E0C0
:1031400086E190E00E94250840EC6CE170E087E1A8
:1031500090E00E94250840EF64E270E087E190E093
:103160000E94250843E068E270E087E190E00E9459
:1031700025084CEF6CE270E087E190E00E942508A2
:10318000C4E3D0E04FEFBE0187E190E00E94250844
:103190002496C034D105B1F740EF6CE170E088E1CE
:1031A00090E00E9425084FEF64E270E088E190E033
:1031B0000E94250840EF68E270E088E190E00E94FC
:1031C00025084FE06CE270E088E190E00E9425085D
:1031D0004CEF68E370E088E190E00E9425084FEF33
:1031E0006CE370E088E190E00E9425084FE360E422
:1031F00070E088E190E00E94250840EF6CE170E00B
:1032000089E190E00E94250840EC60E270E089E1ED
:1032100090E00E9425084FE364E270E089E190E0CD
:103220000E9425084FE368E270E089E190E00E9487
:1032300025084FE060E370E089E190E00E942508F6
:103240004CEF60E470E089E190E00E94250843E0E3
:1032500064E470E089E190E00E94250840EF6CE1B1
:1032600070E08AE190E00E94250840EC60E270E0A6
:103270008AE190E00E9425084FEF64E270E08AE165
:1032800090E00E9425084FE068E270E08AE190E05B
:103290000E94250840EF6CE270E08AE190E00E9415
:1032A00025084FEC60E370E08AE190E00E94250879
:1032B00004E310E04FEFB8018AE190E00E94250896
:1032C0000C5F1F4F00341105A9F74FE360E470E075
:1032D0008AE190E00E9425084FE364E470E08AE10F
:1032E00090E00E94250840EF6CE170E08BE190E0F7
:1032F0000E94250840EF60E270E08BE190E00E94C0
:1033000025084FEF64E270E08BE190E00E94250811
:1033100040E368E270E08BE190E00E942508CCE297
:10332000D0E04FEFBE018BE190E00E94250824968B
:10333000C834D105B1F740EF6CE170E08CE190E06A
:103340000E9425084CEF60E270E08CE190E00E9462
:1033500025084FE364E270E08CE190E00E942508CC
:103360004CEF68E270E08CE190E00E942508CCE22E
:10337000D0E04FEFBE018CE190E00E94250824963A
:10338000C834D105B1F74FE068E470E08CE190E01B
:103390000E9425084CEF6CE170E08DE190E00E9406
:1033A00025084CEF60E270E08DE190E00E94250876
:1033B0004FEC64E270E08DE190E00E942508C8E2E5
:1033C000D0E04FEFBE018DE190E00E9425082496E9
:1033D000C434D105B1F74FE364E470E08DE190E0CF
:1033E0000E9425084FE368E470E08DE190E00E94C0
:1033F00025084CEF6CE170E08EE190E00E9425081A
:103400004FEF60E270E08EE190E00E94250843EF0C
:1034100064E270E08EE190E00E94250888E2E82EE8
:10342000F12C4FEFB7018EE190E00E94250884E077
:10343000E80EF11C88E4E816F10499F740EF68E41F
:1034400070E08EE190E00E9425084CEF6CE170E0A6
:103450008FE190E00E942508B0E2EB2EF12C4FEFB7
:10346000B7018FE190E00E94250884E0E80EF11C8E
:1034700088E4E816F10499F743EC68E470E08FE122
:1034800090E00E94250843E06CE470E08FE190E05A
:103490000E94250840E364E170E080E290E00E9431
:1034A000250843E068E470E080E290E00E9425088F
:1034B0004CE06CE470E080E290E00E94250840E37C
:1034C00064E170E081E290E00E942508ACE1EA2E20
:1034D000F12C4FEFB70181E290E00E94250884E0D3
:1034E000E80EF11C88E4E816F10499F74FE068E46F
:1034F00070E081E290E00E94250840E36CE470E017
:1035000081E290E00E9425084CE064E170E082E2F4
:1035100090E00E94250840EC68E170E082E290E0D3
:103520000E9425084FEC6CE170E082E290E00E947E
:103530002508F0E2EF2EF12C4FEFB70182E290E088
:103540000E94250884E0E80EF11C88E4E816F104E6
:1035500099F74FE368E470E082E290E00E9425086A
:103560004CE064E170E083E290E00E94250840EFC7
:1035700068E170E083E290E00E94250843EF6CE18F
:1035800070E083E290E00E942508E0E2EE2EF12C4C
:103590004FEFB70183E290E00E94250884E0E80E37
:1035A000F11C88E4E816F10499F74FE368E470E051
:1035B00083E290E00E9425084FE064E170E084E23D
:1035C00090E00E94250840EF68E170E084E290E01E
:1035D0000E9425084CEF6CE170E084E290E00E94CC
:1035E000250870E2E72EF12C4FEFB70184E290E05E
:1035F0000E94250884E0E80EF11C8CE4E816F10432
:1036000099F74FE064E170E085E290E00E942508C0
:103610004CE368E170E085E290E00E9425086CE1EF
:10362000E62EF12C4FEFB70185E290E00E942508CD
:1036300084E0E80EF11C8CE4E816F10499F740EC04
:1036400060E170E086E290E00E9425084FE064E1CE
:1036500070E086E290E00E9425084FE368E170E0A8
:1036600086E290E00E9425085CE1E52EF12C4FEF08
:10367000B70186E290E00E94250884E0E80EF11C84
:103680008CE4E816F10499F743E06CE470E086E21C
:1036900090E00E94250840EC60E170E087E290E055
:1036A0000E9425084FEF64E170E087E290E00E94FD
:1036B00025084FEC68E170E087E290E00E94250861
:1036C0004CE1E42EF12C4FEFB70187E290E00E942D
:1036D000250884E0E80EF11C8CE4E816F10499F763
:1036E00043E06CE470E087E290E00E94250840EC43
:1036F00060E170E088E290E00E9425084FEF64E10D
:1037000070E088E290E00E9425084FEC68E170E0EC
:1037100088E290E00E9425083CE1E32EF12C4FEF77
:10372000B70188E290E00E94250884E0E80EF11CD1
:103730008CE4E816F10499F74FE06CE470E088E25D
:1037400090E00E9425084CEF60E170E089E290E093
:103750000E9425084FEF64E170E089E290E00E944A
:10376000250843EC68E170E089E290E00E942508BA
:103770002CE1E22EF12C4FEFB70189E290E00E949C
:10378000250884E0E80EF11C8CE4E816F10499F7B2
:103790004FE06CE470E089E290E00E9425084CEF75
:1037A00060E170E08AE290E00E9425084FEF64E15A
:1037B00070E08AE290E00E94250843EF68E170E043
:1037C0008AE290E00E9425089CE1E92EF12C4FEF5F
:1037D000B7018AE290E00E94250884E0E80EF11C1F
:1037E0008CE4E816F10499F74FE06CE470E08AE2AB
:1037F00090E00E9425084CEF60E170E08BE290E0E1
:103800000E9425084FEF64E170E08BE290E00E9497
:1038100025084CEF68E170E08BE290E00E942508FB
:103820004FEF6CE170E08BE290E00E9425084FEFD3
:1038300060E270E08BE290E00E9425084FEF64E2C6
:1038400070E08BE290E00E9425084FEF68E270E0A4
:103850008BE290E00E94250843E06CE270E08BE28E
:1038600090E00E9425084FE360E370E08BE290E077
:103870000E94250840EF68E370E08BE290E00E9430
:1038800025084FEC6CE370E08BE290E00E94250885
:1038900080E4E82EF12C4FEFB7018BE290E00E941C
:1038A000250884E0E80EF11C8CE4E816F10499F791
:1038B0004FE36CE470E08BE290E00E9425084CEF4F
:1038C00060E170E08CE290E00E94250843EF64E143
:1038D00070E08CE290E00E9425084CEF68E170E017
:1038E0008CE290E00E942508BCE1EB2EF12C4FEF1A
:1038F000B7018CE290E00E94250884E0E80EF11CFC
:103900008CE2E816F10499F740EF60E370E08CE296
:1039100090E00E94250840EC68E370E08CE290E0C3
:103920000E942508ACE3EA2EF12C4FEFB7018CE2A0
:1039300090E00E94250884E0E80EF11C8CE4E81673
:10394000F10499F74FE36CE470E08CE290E00E94A0
:1039500025084CEF60E170E08DE290E00E942508C0
:1039600043E364E170E08DE290E00E942508F8E115
:10397000EF2EF12C4FEFB7018DE290E00E94250869
:1039800084E0E80EF11C8CE2E816F10499F740ECB3
:1039900068E370E08DE290E00E9425084FE36CE35D
:1039A00070E08DE290E00E9425084CEF60E470E04A
:1039B0008DE290E00E942508E4E4EE2EF12C4FEF1A
:1039C000B7018DE290E00E94250884E0E80EF11C2A
:1039D00080E5E816F10499F74CEF60E170E08EE2C3
:1039E00090E00E94250843E364E170E08EE290E0FD
:1039F0000E94250878E1E72EF12C4FEFB7018EE207
:103A000090E00E94250884E0E80EF11C88E2E816A8
:103A1000F10499F74FE368E270E08EE290E00E94D3
:103A200025084FE36CE370E08EE290E00E942508E9
:103A30004CEF60E470E08EE290E00E94250864E4C0
:103A4000E62EF12C4FEFB7018EE290E00E942508A0
:103A500084E0E80EF11C80E5E816F10499F740EFE8
:103A600060E170E08FE290E00E94250843E064E1AD
:103A700070E08FE290E00E94250858E1E52EF12CDD
:103A80004FEFB7018FE290E00E94250884E0E80E36
:103A9000F11C88E2E816F10499F74FE368E270E060
:103AA0008FE290E00E9425084FE36CE370E08FE224
:103AB00090E00E94250840EF60E470E08FE290E023
:103AC0000E94250844E4E42EF12C4FEFB7018FE269
:103AD00090E00E94250884E0E80EF11C80E5E816DD
:103AE000F10499F743E060E570E08FE290E00E9416
:103AF000250840EF60E170E080E390E00E94250837
:103B000043EC64E170E080E390E00E94250838E136
:103B1000E32EF12C4FEFB70180E390E00E942508DF
:103B200084E0E80EF11C8CE2E816F10499F74FE30B
:103B30006CE370E080E390E00E94250843E060E4DD
:103B400070E080E390E00E9425084CEF64E470E0B0
:103B500080E390E00E9425084FEF68E470E080E386
:103B600090E00E9425084FEF6CE470E080E390E065
:103B70000E94250843E060E570E080E390E00E9449
:103B800025084CEC60E170E081E390E00E9425089C
:103B900043EC64E170E081E390E00E94250828E1B5
:103BA000E22EF12C4FEFB70181E390E00E9425084F
:103BB00084E0E80EF11C8CE2E816F10499F74EE37C
:103BC0006CE370E081E390E00E94250843E060E44C
:103BD00070E081E390E00E94250894E4E92EF12C46
:103BE0004FEFB70181E390E00E94250884E0E80EE2
:103BF000F11C80E5E816F10499F74FE060E570E00C
:103C000081E390E00E9425084CEF60E170E082E3E0
:103C100090E00E94250843EC64E170E082E390E0CC
:103C20000E94250888E1E82EF12C4FEFB70182E3CE
:103C300090E00E94250884E0E80EF11C84E2E8167A
:103C4000F10499F74FEC64E270E082E390E00E94A7
:103C500025084FEF68E270E082E390E00E942508BB
:103C60004CEF6CE370E082E390E00E94250843E1B2
:103C700060E470E082E390E00E942508B4E4EB2E5B
:103C8000F12C4FEFB70182E390E00E94250884E019
:103C9000E80EF11C80E5E816F10499F74FE060E5C5
:103CA00070E082E390E00E94250840EF60E170E060
:103CB00083E390E00E94250840EC64E170E083E338
:103CC00090E00E942508A8E1EA2EF12C4FEFB70101
:103CD00083E390E00E94250884E0E80EF11C84E272
:103CE000E816F10499F74FEC64E270E083E390E0AA
:103CF0000E9425084FEF68E270E083E390E00E94A5
:103D000025084CEF6CE370E083E390E00E94250807
:103D100043E360E470E083E390E00E942508F4E46C
:103D2000EF2EF12C4FEFB70183E390E00E942508BE
:103D300084E0E80EF11C80E5E816F10499F74FE302
:103D400060E570E083E390E00E9425084FEF60E1BA
:103D500070E084E390E00E9425084FEC64E170E09D
:103D600084E390E00E9425084FEF68E170E084E36F
:103D700090E00E9425084FEF6CE170E084E390E052
:103D80000E9425084FEC60E270E084E390E00E941E
:103D9000250843EF64E270E084E390E00E94250888
:103DA00043EF68E270E084E390E00E9425084CEF66
:103DB0006CE370E084E390E00E94250843E360E454
:103DC00070E084E390E00E942508E4E4EE2EF12CFC
:103DD0004FEFB70184E390E00E94250884E0E80EED
:103DE000F11C80E5E816F10499F74FE360E570E017
:103DF00084E390E00E9425084CEF60E170E085E3E9
:103E000090E00E94250843EC64E170E085E390E0D7
:103E10000E9425084FEF68E170E085E390E00E9482
:103E200025084FEF6CE170E085E390E00E942508E3
:103E300043EF60E270E085E390E00E94250840E3F4
:103E400064E270E085E390E00E9425084CEF68E2B0
:103E500070E085E390E00E94250840EF6CE370E09D
:103E600085E390E00E9425084FE360E470E085E37D
:103E700090E00E94250874E4E72EF12C4FEFB70183
:103E800085E390E00E94250884E0E80EF11C84E5BB
:103E9000E816F10499F740EF60E170E086E390E006
:103EA0000E94250843EC64E170E086E390E00E9404
:103EB00025084FEF68E170E086E390E00E94250856
:103EC0004FEF6CE170E086E390E00E94250843E349
:103ED00060E270E086E390E00E9425084FEF68E220
:103EE00070E086E390E00E94250843E06CE270E019
:103EF00086E390E00E94250840EF6CE370E086E3E3
:103F000090E00E9425084FE360E470E086E390E0D3
:103F10000E94250864E4E62EF12C4FEFB70186E3FA
:103F200090E00E94250884E0E80EF11C84E5E81684
:103F3000F10499F743E064E570E086E390E00E94C5
:103F4000250840E36CE070E087E390E00E942508DC
:103F500040EC60E170E087E390E00E9425084FECC0
:103F600064E170E087E390E00E9425084FEF68E18C
:103F700070E087E390E00E9425084FEF6CE170E06D
:103F800087E390E00E94250840EC60E270E087E360
:103F900090E00E94250843EF64E270E087E390E040
:103FA0000E9425084FEF68E270E087E390E00E94EE
:103FB000250843E06CE270E087E390E00E9425086A
:103FC00040EC6CE370E087E390E00E9425084FE34B
:103FD00060E470E087E390E00E94250854E4E52E59
:103FE000F12C4FEFB70187E390E00E94250884E0B1
:103FF000E80EF11C84E5E816F10499F74FE064E55A
:1040000070E087E390E00E94250840EC6CE070E0EF
:1040100088E390E00E94250840EC60E170E088E3CE
:1040200090E00E9425084FEC64E170E088E390E0A6
:104030000E94250848E1E42EF12C4FEFB70188E3F8
:1040400090E00E94250884E0E80EF11C8CE2E8165E
:10405000F10499F74FE06CE270E088E390E00E9491
:10406000250840EC6CE370E088E390E00E942508AE
:104070004FE360E470E088E390E00E94250834E4B8
:10408000E32EF12C4FEFB70188E390E00E94250862
:1040900084E0E80EF11C84E5E816F10499F74FE39B
:1040A00064E570E088E390E00E94250840EC6CE055
:1040B00070E089E390E00E94250843E060E170E051
:1040C00089E390E00E94250824E1E22EF12C4FEFD5
:1040D000B70189E390E00E94250884E0E80EF11C16
:1040E0008CE2E816F10499F74FE36CE270E089E3A3
:1040F00090E00E94250840E46CE370E089E390E0E2
:104100000E9425084FE760E470E089E390E00E9498
:10411000250894E4E92EF12C4FEFB70189E390E0F4
:104120000E94250884E0E80EF11C88E5E816F104F9
:1041300099F743E068E570E089E390E00E94250884
:1041400080E1E82EF12C4FEFB7018AE390E00E9466
:10415000250884E0E80EF11C80E3E816F10499F7E5
:1041600043E060E370E08AE390E00E9425084FEFAF
:10417000B8018AE390E00E9425080C5F1F4F0035CC
:104180001105A9F743E060E570E08AE390E00E9442
:1041900025084FEF64E570E08AE390E00E9425086F
:1041A0004FE068E570E08AE390E00E9425084FE365
:1041B00064E070E08BE390E00E9425084CEF60E142
:1041C00070E08BE390E00E94250804E110E04FEFDF
:1041D000B8018BE390E00E9425080C5F1F4F00336D
:1041E0001105A9F74FE060E370E08BE390E00E94D7
:1041F00025084DEF60E470E08BE390E00E94250815
:104200004DEF64E470E08BE390E00E9425084FEFEF
:1042100068E470E08BE390E00E9425084FEF6CE4C7
:1042200070E08BE390E00E94250843E060E570E0D9
:104230008BE390E00E94250840EC64E570E08BE39E
:1042400090E00E9425084FEF68E570E08BE390E076
:104250000E9425084FEF64E070E08CE390E00E943C
:10426000250843E068E070E08CE390E00E942508B8
:1042700040EF60E170E08CE390E00E94250804E1EB
:1042800010E04FEFB8018CE390E00E9425080C5F2E
:104290001F4F00331105A9F74FE360E370E08CE393
:1042A00090E00E9425084CEF60E470E08CE390E021
:1042B0000E9425084CEF64E470E08CE390E00E94DB
:1042C00025084FEF68E470E08CE390E00E94250839
:1042D0004FEF6CE470E08CE390E00E9425084FE023
:1042E00060E570E08CE390E00E94250840EF68E50F
:1042F00070E08CE390E00E9425084FE36CE570E0ED
:104300008CE390E00E94250840EF64E070E08DE3CC
:1043100090E00E9425084FE368E070E08DE390E0B4
:104320000E94250804E110E04FEFB8018DE390E012
:104330000E9425080C5F1F4F04331105A9F740E8C0
:1043400068E370E08DE390E00E94250840EF60E4B0
:1043500070E08DE390E00E9425084FEFBE018DE3F1
:1043600090E00E9425082496C435D105B1F740EFAE
:104370006CE570E08DE390E00E9425084FEF60E669
:1043800070E08DE390E00E9425084FEF68E070E058
:104390008EE390E00E94250843E06CE070E08EE33D
:1043A00090E00E942508C5E04FEF64E170E08EE3E5
:1043B00090E00E942508C150B9F740E868E270E03B
:1043C0008EE390E00E9425084AE06CE270E08EE304
:1043D00090E00E9425084FEF60E370E08EE390E0EC
:1043E0000E94250843E064E370E08EE390E00E94C1
:1043F000250840E868E370E08EE390E00E9425081D
:1044000040EF60E470E08EE390E00E9425084FEFFB
:1044100064E470E08EE390E00E9425084FEF68E4CA
:1044200070E08EE390E00E9425084FE06CE470E0BD
:104430008EE390E00E94250840EF68E070E08FE393
:1044400090E00E9425084FE36CE070E08FE390E07D
:104450000E9425084CEF64E170E08FE390E00E9439
:104460002508C8E1D0E04FEFBE018FE390E00E9445
:1044700025082496C432D105B1F74FE364E270E019
:104480008FE390E00E9425084AE26CE270E08FE33F
:1044900090E00E9425084CEF60E370E08FE390E02D
:1044A0000E9425084FE364E370E08FE390E00E94F0
:1044B00025084CEB68E370E08FE390E00E9425084C
:1044C00048E06CE370E08FE390E00E94250840EC48
:1044D00060E470E08FE390E00E9425084FEF64E411
:1044E00070E08FE390E00E9425084FEF68E470E0F1
:1044F0008FE390E00E9425084FE06CE470E08FE3CA
:1045000090E00E942508CCE0D0E04FEFBE0180E4AF
:1045100090E00E9425082496C432D105B1F74FE3FC
:1045200064E270E080E490E00E94250848E26CE2DA
:1045300070E080E490E00E94250840EF60E370E0C6
:1045400080E490E00E9425084FEF64E370E080E48F
:1045500090E00E9425084FE368E370E080E490E07B
:104560000E94250848E06CE370E080E490E00E943F
:10457000250840EC60E470E080E490E00E942508AB
:104580004FEF64E470E080E490E00E94250843EF80
:1045900068E470E080E490E00E9425084FE36CE45A
:1045A00070E080E490E00E9425084CEF6CE070E041
:1045B00081E490E00E942508C0E1D0E04FEFBE0109
:1045C00081E490E00E9425082496C432D105B1F719
:1045D0004FE364E270E081E490E00E94250848E245
:1045E0006CE270E081E490E00E94250840EC60E31A
:1045F00070E081E490E00E9425084FEF64E370E0F2
:1046000081E490E00E9425084FEF68E370E081E4C8
:1046100090E00E94250842E06CE370E081E490E0C5
:104620000E9425084FEF64E470E081E490E00E946E
:10463000250843EC68E470E081E490E00E942508DE
:104640004FE06CE470E081E490E00E94250840ECCB
:1046500060E170E082E490E00E942508C4E1D0E0CF
:104660004FEFBE0182E490E00E9425082496C432F8
:10467000D105B1F74FE364E270E082E490E00E947C
:10468000250840E26CE270E082E490E00E94250898
:104690004FEF64E370E082E490E00E9425084FEF62
:1046A00068E370E082E490E00E94250843E26CE356
:1046B00070E082E490E00E9425084CEF64E470E032
:1046C00082E490E00E9425084FE068E470E082E414
:1046D00090E00E9425084FEF68E170E083E490E0ED
:1046E0000E9425084FEF6CE170E083E490E00E94A7
:1046F000250840EF60E270E083E490E00E94250826
:104700004FEF64E270E083E490E00E94250840EA05
:104710006CE270E083E490E00E9425084CEF64E3D3
:1047200070E083E490E00E9425084FEF68E370E0BA
:1047300083E490E00E94250848E26CE370E083E4A3
:1047400090E00E94250840EF64E470E083E490E08C
:104750000E9425084FE068E470E083E490E00E9446
:1047600025084CEF64E170E084E490E00E942508A5
:104770004FEF68E170E084E490E00E9425084FEF7D
:104780006CE170E084E490E00E94250840EC60E277
:1047900070E084E490E00E9425084FEF64E270E04E
:1047A00084E490E00E94250840EA6CE270E084E432
:1047B00090E00E94250842E060E370E084E490E02D
:1047C0000E94250840EF64E370E084E490E00E94DA
:1047D00025084FEF68E370E084E490E00E9425082C
:1047E00042E06CE370E084E490E00E94250840EF32
:1047F00064E470E084E490E00E9425084FE368E4FC
:1048000070E084E490E00E94250840EF60E170E0F1
:1048100085E490E00E9425084FEF64E170E085E4B4
:1048200090E00E9425084FEF68E170E085E490E099
:104830000E9425084FEF6CE170E085E490E00E9453
:10484000250843EC60E270E085E490E00E942508D2
:104850004FEF64E270E085E490E00E94250840E8B4
:104860006CE270E085E490E00E94250842E060E39D
:1048700070E085E490E00E94250840EC64E370E07D
:1048800085E490E00E9425084FEF68E370E085E43E
:1048900090E00E94250840E26CE370E085E490E03F
:1048A0000E94250840EC64E470E085E490E00E94FA
:1048B00025084FEF68E470E085E490E00E94250849
:1048C00040EC6CE170E086E490E00E9425084FE047
:1048D00060E270E086E490E00E9425084FEF64E219
:1048E00070E086E490E00E94250843E068E270E012
:1048F00086E490E00E94250842E060E370E086E4F0
:1049000090E00E94250840EF64E370E086E490E0C8
:104910000E9425084FEF68E370E086E490E00E9473
:1049200025084AE06CE370E086E490E00E942508E8
:104930004FEF68E470E086E490E00E9425084CEFB9
:1049400060E270E087E490E00E9425084FEF64E2A7
:1049500070E087E490E00E94250843E068E270E0A0
:1049600087E490E00E94250848E060E370E087E477
:1049700090E00E94250840EF64E370E087E490E057
:104980000E9425084FE368E370E087E490E00E940E
:1049900025084CEF68E470E087E490E00E94250869
:1049A00043E06CE470E087E490E00E94250840EF6B
:1049B00060E270E088E490E00E9425084FEF64E236
:1049C00070E088E490E00E9425084FE068E270E023
:1049D00088E490E00E94250840E260E370E088E40B
:1049E00090E00E94250840EC68E470E088E490E0E4
:1049F0000E9425084FE06CE470E088E490E00E949B
:104A0000250840EC60E270E089E490E00E9425080F
:104A10004FEF64E270E089E490E00E9425084FE0E7
:104A200068E270E089E490E00E9425084FEF6CE4B2
:104A300070E089E490E00E9425084FEF64E270E0A6
:104A40008AE490E00E9425084FE368E270E08AE47F
:104A500090E00E94250840EF6CE470E08AE490E06A
:104A60000E94250843E060E570E08AE490E00E943F
:104A7000250840EF64E270E08BE490E00E94250896
:104A80004FE368E270E08BE490E00E9425084FE37A
:104A900060E570E08BE490E00E94250840EF64E25E
:104AA00070E08CE490E00E9425084FE368E270E03B
:104AB0008CE490E00E94250840EF60E570E08CE413
:104AC00090E00E94250843E064E570E08CE490E00B
:104AD0000E94250840EC64E270E08DE490E00E94C2
:104AE00025084FEF68E270E08DE490E00E94250811
:104AF00040EC64E270E08EE490E00E9425084FEF05
:104B000068E270E08EE490E00E9425084FEF68E2D2
:104B100070E08FE490E00E94250843E06CE270E0D2
:104B20008FE490E00E9425084FEF68E270E080E596
:104B300090E00E94250843E06CE270E080E590E0A0
:104B40000E9425084FEF68E270E081E590E00E9446
:104B500025084FEC6CE270E081E590E00E942508AA
:104B600043E060E370E081E590E00E9425084CEFAF
:104B700068E270E082E590E00E9425084FEF6CE269
:104B800070E082E590E00E9425084CEF68E270E05A
:104B900083E590E00E9425084FEF6CE270E083E52A
:104BA00090E00E9425084CEF68E270E084E590E018
:104BB0000E9425084FE36CE270E084E590E00E94DB
:104BC00025084CEF68E270E085E590E00E9425083A
:104BD0004FE06CE270E085E590E00E94250840EF30
:104BE00068E270E086E590E0DF91CF911F910F9130
:104BF000FF90EF900C942508E1ECF1E086EF9FEF39
:104C000091838083938382831582148287EF9FEF41
:104C100097838683918780871386128688EF9FEF1C
:104C20009587848797878687118A108A089580914F
:104C3000C1019091C2012091C7013091C80128178C
:104C400039071CF09C0180E001C081E04091CD015A
:104C50005091CE01421753070CF482E008950F9350
:104C60001F93CF93DF9300D000D01F92CDB7DEB754
:104C700049835A836B837C838D8389010E94172625
:104C80002B813C812C50310946E08402C001112463
:104C9000FC01EF53FE4F4D81469589819A81840F27
:104CA000911D9183808333832283158304830F9026
:104CB0000F900F900F900F90DF91CF911F910F9158
:104CC0000895E3EDF1E090E041E050E880E0648198
:104CD00020813181260F311D4217530714F4A90199
:104CE000892F35969F5F933091F70895E3EDF1E0BA
:104CF00090E04FEF5FE780E0648120813181260FF3
:104D0000311D2417350714F4A901892F35969F5FAB
:104D1000933091F7089585E0E2E5F1E0A3EDB1E08D
:104D200001900D928A95E1F785E0E7E5F1E0A8EDC5
:104D3000B1E001900D928A95E1F785E0ECE5F1E0B4
:104D4000ADEDB1E001900D928A95E1F70895DF9203
:104D5000EF92FF920F931F93CF93DF93CDB7DEB700
:104D60002F970FB6F894DEBF0FBECDBF4B875C8781
:104D70008F87D22E0E94702860E074E00E94D427B2
:104D80009C01780144E0EE0CFF1C4A95E1F76D2D83
:104D900070E06F5F7F4F0E94D42702969FE0899F4B
:104DA000D02C1124B80155E0660F771F5A95E1F712
:104DB0006F5F7F4F6E197F09C9010E94D427E80EEB
:104DC000F91E4F858B859C85840F911DE80EF91E79
:104DD000C90163E170E00E94D4278C010C5F1F4F72
:104DE000000F111F000F111FC90164E170E00E9444
:104DF000D42781110BC04E2DFF82EE82602F1987C0
:104E000008875F8179858D2D0E942F26FA82E9829D
:104E10001C830B832E2D3A81402F5C816D2D70E019
:104E200080E090E02F960FB6F894DEBF0FBECDBFA6
:104E3000DF91CF911F910F91FF90EF90DF90089538
:104E4000CF92DF92EF92FF920F931F93CF93DF9356
:104E50006C01F62E8A010E94762695E0E92EE89EE6
:104E6000C0011124EC01CD52DE4F2C818881998143
:104E7000820F911D25E0C21AD1088C159D05ACF456
:104E80000E946126E89EC0011124FC01ED52FE4FF4
:104E90002F2D408151816281738184810E94A726D8
:104EA000288339834A835B836C83DF91CF911F9181
:104EB0000F91FF90EF90DF90CF9008950E948506AC
:104EC00080E50E9425072FEF83ED90E3215080407D
:104ED0009040E1F700C000008AE00E9425072FEF14
:104EE00083ED90E3215080409040E1F700C0000046
:104EF0000E944A182FEF83E294EF215080409040A7
:104F0000E1F700C000000E94D90783E090E0909391
:104F100001018093000188E2809306018DE2809375
:104F200005010E94C10F60910501809106010E9458
:104F3000F10F82E2882E912CA12CB12CC0E30E94AB
:104F40000E07A50194010E94E827672B682B692BA7
:104F5000A1F48091000190910101029711F40E9447
:104F600028060E94E2038091000190910101892BA3
:104F700021F40E94D6020E94F605C090B901D0909B
:104F8000BA01E090BB01F090BC010E940E0726E937
:104F9000C20ED11CE11CF11C6C157D058E059F0510
:104FA00070F2C0930B01CBCF97FB072E16F4009441
:104FB00007D077FD09D00E94102807FC05D03EF4E9
:104FC000909581959F4F0895709561957F4F0895B5
:104FD000A1E21A2EAA1BBB1BFD010DC0AA1FBB1FFD
:104FE000EE1FFF1FA217B307E407F50720F0A21B6F
:104FF000B30BE40BF50B661F771F881F991F1A94DC
:1050000069F760957095809590959B01AC01BD0105
:10501000CF010895EE0FFF1F0590F491E02D099444
:10502000AA1BBB1B51E107C0AA1FBB1FA617B707CE
:1050300010F0A61BB70B881F991F5A95A9F78095EA
:105040009095BC01CD0108958F929F92AF92BF922F
:10505000CF92DF92EF92FF92CF93DF93EC016881C2
:1050600079818A819B81611571058105910521F402
:1050700064E279ED8BE597E02DE133EF41E050E01C
:105080000E94682B49015A019B01AC01A7EAB1E4D7
:105090000E94872B6B017C01ACEEB4EFA50194015B
:1050A0000E94952BDC01CB018C0D9D1DAE1DBF1DFB
:1050B000B7FF03C00197A109B04888839983AA83E9
:1050C000BB839F77DF91CF91FF90EF90DF90CF90E0
:1050D000BF90AF909F908F9008950E9424280895CC
:1050E00083E191E00E9424280895A0E0B0E080933D
:1050F000130190931401A0931501B0931601089524
:10510000BB274A3031F4992322F4BDE29095819572
:105110009F4F0C948C28BB27FB015527AA27880F8B
:10512000991FAA1FA41710F0A41B83955051B9F71B
:10513000A05DAA3308F0A95DA193009779F7B1119A
:10514000B1931192CB010C94BE2AAEE0B0E0EBEA31
:10515000F8E20C94A82B0D891E8986E08C831A83B3
:1051600009838FEF9FE79E838D83AE01475E5F4F7C
:105170006F89788DCE0101960E94C728EF81F8854E
:10518000E00FF11F10822E96E4E00C94C42BABE0EC
:10519000B0E0EDECF8E20C949A2B6C017B018A01F3
:1051A000FC0117821682838181FFCCC1CE0101965A
:1051B0003C01F6019381F70193FD859193FF819165
:1051C0007F01882309F4BAC1853239F493FD8591B2
:1051D00093FF81917F01853229F4B60190E00E940E
:1051E000CE2AE7CF912C212C312CFFE1F315D8F0FA
:1051F0008B3279F038F4803279F08332A1F4232DA8
:1052000020611DC08D3261F0803369F4232D21604F
:1052100016C0832D8260382EE32DE4603E2E2AC016
:10522000F32DF8601DC037FC2DC020ED280F2A306B
:1052300040F08E32B9F436FC81C1232D2064322E29
:1052400019C036FE06C08AE0989E200D1124922EC9
:1052500011C0EAE02E9E200D1124222EF32DF062C3
:105260003F2E08C08C3621F4832D8068382E02C072
:10527000883641F4F70193FD859193FF81917F0179
:105280008111B3CF982F9F7D9554933028F40C5FF4
:105290001F4F9FE399830DC0833631F0833771F040
:1052A000833509F059C021C0F801808189830E5FE0
:1052B0001F4F88248394912C530113C02801F2E0DE
:1052C0004F0E511CF801A080B18036FE03C0692D3D
:1052D00070E002C06FEF7FEFC5010E94B32A4C015E
:1052E0008201F32DFF773F2E16C0280122E0420EE7
:1052F000511CF801A080B18036FE03C0692D70E01A
:1053000002C06FEF7FEFC5010E94A82A4C01F32D68
:10531000F0683F2E820133FC1BC0822D90E088167E
:105320009906B0F4B60180E290E00E94CE2A2A9459
:10533000F4CFF50137FC859137FE81915F01B6010D
:1053400090E00E94CE2A21102A9421E0821A91082E
:105350008114910471F7E8C0843611F0893641F563
:10536000F80137FE07C060817181828193810C5FF3
:105370001F4F08C060817181072E000C880B990BAC
:105380000E5F1F4FF32DFF763F2E97FF09C09095BC
:105390008095709561957F4F8F4F9F4FF0683F2E9E
:1053A0002AE030E0A3010E940A2B882E861845C00F
:1053B000853731F4232D2F7EB22E2AE030E025C030
:1053C000932D997FB92E8F36C1F018F4883579F076
:1053D000B5C0803719F0883721F0B0C0E92FE061FF
:1053E000BE2EB4FE0DC0FB2DF460BF2E09C034FEEE
:1053F0000AC0292F2660B22E06C028E030E005C082
:1054000020E130E002C020E132E0F801B7FE07C041
:1054100060817181828193810C5F1F4F06C0608122
:10542000718180E090E00E5F1F4FA3010E940A2B64
:10543000882E8618FB2DFF773F2E36FE0DC0232DBC
:105440002E7FA22E891458F434FE0BC032FC09C002
:10545000832D8E7EA82E05C0B82CA32C03C0B82C9B
:1054600001C0B92CA4FE0FC0FE01E80DF11D808122
:10547000803321F49A2D997EA92E09C0A2FE06C080
:10548000B394B39404C08A2D867809F0B394A3FC36
:1054900011C0A0FE06C0B21488F4280C922C9B18F0
:1054A0000EC0B21460F4B60180E290E00E94CE2AF1
:1054B000B394F7CFB21418F42B1802C0982C212CF7
:1054C000A4FE10C0B60180E390E00E94CE2AA2FEA6
:1054D00017C0A1FC03C088E790E002C088E590E017
:1054E000B6010CC08A2D867859F0A1FE02C08BE26D
:1054F00001C080E2A7FC8DE2B60190E00E94CE2AB6
:10550000891438F4B60180E390E00E94CE2A9A9480
:10551000F7CF8A94F301E80DF11D8081B60190E088
:105520000E94CE2A8110F5CF222009F442CEB60186
:1055300080E290E00E94CE2A2A94F6CFF60186817E
:10554000978102C08FEF9FEF2B96E2E10C94B62B70
:10555000FC010590615070400110D8F7809590953E
:105560008E0F9F1F0895FC01615070400190011043
:10557000D8F7809590958E0F9F1F0895DC01FC0150
:10558000672F71917723E1F7329704C07C916D9377
:1055900070836291AE17BF07C8F308950F931F93EE
:1055A000CF93DF93FB01238121FD03C08FEF9FEF9A
:1055B0002CC022FF16C046815781248135814217B5
:1055C000530744F4A081B1819D012F5F3F4F318388
:1055D00020838C93268137812F5F3F4F378326832B
:1055E00014C08B01EC01FB010084F185E02D0995CD
:1055F000892BE1F6D80116968D919C91179701960B
:1056000017969C938E931697CE01DF91CF911F91A1
:105610000F910895FA01AA27283051F1203181F124
:10562000E8946F936E7F6E5F7F4F8F4F9F4FAF4FAA
:10563000B1E03ED0B4E03CD0670F781F891F9A1FBD
:10564000A11D680F791F8A1F911DA11D6A0F711D71
:10565000811D911DA11D20D009F468943F912AE07D
:10566000269F11243019305D3193DEF6CF01089565
:10567000462F4770405D4193B3E00FD0C9F7F6CF96
:10568000462F4F70405D4A3318F0495D31FD40525E
:10569000419302D0A9F7EACFB4E0A69597958795F4
:1056A00077956795BA95C9F70097610571050895D3
:1056B0009B01AC010A2E069457954795379527957F
:1056C000BA95C9F7620F731F841F951FA01D089517
:1056D000052E97FB1EF400940E947F2B57FD07D0E8
:1056E0000E94E82707FC03D04EF40C947F2B5095C2
:1056F0004095309521953F4F4F4F5F4F08959095BE
:105700008095709561957F4F8F4F9F4F08950E94B0
:10571000D12BA59F900DB49F900DA49F800D911D3E
:1057200011240895B7FF0C94872B0E94872B821BAE
:10573000930B08952F923F924F925F926F927F92B8
:105740008F929F92AF92BF92CF92DF92EF92FF9291
:105750000F931F93CF93DF93CDB7DEB7CA1BDB0B3D
:105760000FB6F894DEBF0FBECDBF09942A883988E2
:1057700048885F846E847D848C849B84AA84B984E9
:10578000C884DF80EE80FD800C811B81AA81B981F5
:10579000CE0FD11D0FB6F894DEBF0FBECDBFED0109
:1057A0000895A29FB001B39FC001A39F700D811DFA
:1057B0001124911DB29F700D811D1124911D08951A
:0457C000F894FFCF8B
:1057C4000200030004232301000202300500050047
:1057D40002000501000000030000000000000000BA
:1057E400000000000300000403040404040404048F
:1057F4000400000000000000050505050505050579
:10580400030405050505050505050505050005054C
:105814000505000034005A280014003CC80050005C
:105824005A25303130640048415550544D454E5549
:1058340045004E4555455320535049454C00484971
:10584400474853434F5245005343485749524947E9
:105854004B454954004C4549434854004E4F524D22
:0A586400414C0053434857455200E1
:00000001FF
