:100000000C9474000C9491000C9491000C94910049
:100010000C9491000C9491000C9491000C94150890
:100020000C9491000C9491000C9491000C9491000C
:100030000C9491000C9491000C9491000C949100FC
:100040000C9491000C9491000C9491000C949100EC
:100050000C9491000C9491000C9491000C949100DC
:100060000C9491000C94910024023302C302C80244
:10007000CD02430236025A027402A10AB30AC50A2B
:10008000D70AE90AFB0A0D0B1F0B310B3527522744
:1000900052277D20AB20E1200F212A215F218E21D4
:1000A000C221FB212A2252275227522752275227A8
:1000B000522752275E229B22D72219235B239723A4
:1000C000D0230D24262447247524A324C524E42406
:1000D00002250F254B258D25CA2506262B265026C1
:1000E0006F269926D326F32611241FBECFEFD8E022
:1000F000DEBFCDBF12E0A0E0B1E0E4EFFCE502C05E
:1001000005900D92AA38B107D9F722E0AAE8B2E02B
:1001100001C01D92A93CB207E1F70E94C5290C94C9
:10012000782E0C940000809104018150809304018A
:1001300082E090E090930101809300010895809106
:10014000950290919602883893410CF450C0E6EBEA
:10015000F2E0209195023091960280819181821B7C
:10016000930B91838083359682E0E53CF80789F70D
:10017000E4EAF2E02091950230919602808191812B
:10018000821B930B91838083369622E0E63BF20735
:1001900089F785E090E090930D0180930C01109217
:1001A00096021092950283E090E090930301809371
:1001B00002018091070187FF05C0809107018150EE
:1001C00080930701809105019091060108977CF4C6
:1001D000809105019091060101969093060180930C
:1001E000050180910501909106010C94840B0895FE
:1001F0008091100118168CF481E090E09093030137
:10020000809302011092940280910E018093A302C8
:1002100080911001815080931001089580910F0109
:10022000181684F482E090E0909303018093020119
:1002300088EF809394021092A30280910F01815065
:1002400080930F010895AF92CF92EF92FF920F9398
:100250001F93F801EC0DF11D8E179F07A4F4840F76
:10026000911D081719077CF4C7018A0D911D6817A5
:1002700079074CF4620F711D81E090E0E616F706F5
:1002800024F080E002C080E090E01F910F91FF9089
:10029000EF90CF90AF900895AF92CF92EF92FF92F0
:1002A0000F931F93CF93DF93C6EBD2E06091970239
:1002B000709198028091950290919602EA80FB805D
:1002C00008811981605F7F4F28E0A22ECC8021E059
:1002D00048E00E942301009731F4259622E0C53CB6
:1002E000D20721F702C081E090E0DF91CF911F910A
:1002F0000F91FF90EF90CF90AF9008958F929F92C3
:10030000AF92CF92EF92FF920F931F93CF93DF9311
:1003100036EB832E32E0932EF401C281D3816091BB
:1003200097027091980280919502909196020081B7
:10033000118128E0A22EC4807E0120E140E10E94CC
:100340002301892B31F180910A0190910B010F96C5
:100350008C179D0754F46097D0939802C09397022E
:10036000109203011092020114C080910A01909131
:100370000B019E01295F3F4F2817390744F4289647
:10038000D0939802C09397021092940202C00E94E8
:100390009300F5E08F0E911C85EC881682E098069C
:1003A00009F0BACFDF91CF911F910F91FF90EF909D
:1003B000CF90AF909F908F9008952F923F924F9241
:1003C0005F926F927F928F929F92AF92BF92CF92E5
:1003D000DF92EF92FF920F931F93CF93DF93C4EAC4
:1003E000D2E04CE9842E99249A9453E0252E312CA6
:1003F00062E0662E712C44244394512CE4E1DE2EFD
:10040000F2E3BF2E6091970270919802809195025D
:1004100090919602EA80FB800881198128E0A22E43
:1004200038E0C32E20E140E10E942301892B09F42A
:10043000DBC0EC81FD813197E930F10508F0B3C0F4
:10044000EC5CFF4F0C94712A80910401853008F018
:10045000A8C0809104018F5F809304018091040102
:100460000E94790C9EC00E9493009BC08091050160
:100470009091060108970CF094C08091050190912D
:10048000060101960CC0809105019091060102972A
:100490000CF087C08091050190910601019790931F
:1004A00006018093050180910501909106010E944B
:1004B000840B77C040910501509106018091900214
:1004C00090919102A0919202B0919302B49E9001FA
:1004D000B59E300D1124A901330F660B770B840FE5
:1004E000951FA61FB71F3CC0209105013091060142
:1004F000409190025091910260919202709193020A
:10050000D29EC001D39E900D1124092E000CAA0B7F
:10051000BB0B84179507A607B70748F01092900207
:1005200010929102109292021092930221C0409177
:100530000501509106018091900290919102A09145
:100540009202B0919302D49E9001D59E300D112459
:10055000A901330F660B770B841B950BA60BB70B0A
:100560008093900290939102A0939202B093930291
:100570006091900270919102809192029091930209
:100580000E94540B0EC050928B0240928A0209C006
:1005900070928B0260928A0204C030928B02209289
:1005A0008A021D821C8220910C0130910D016A810A
:1005B0007B8188819981820F931F0E94061F9982F7
:1005C00088829B828A8240910A0150910B0160913E
:1005D00097027091980200918A0210918B0221E398
:1005E00085E090E00E944609269682E0C63BD80747
:1005F00009F008CFDF91CF911F910F91FF90EF90FD
:10060000DF90CF90BF90AF909F908F907F906F9032
:100610005F904F903F902F90089580919702909116
:1006200098028E36910514F00E9493000E949F005C
:10063000809197029091980290930B0180930A0108
:10064000809195029091960290939A0280939902DC
:10065000409105015091060160910701809195023A
:10066000909196020E947D290E94DD0180910201F5
:1006700090910301892B81F580918A0290918B02E0
:100680008130910579F050F08230910591F0039717
:10069000C9F483E080930F0182E00FC082E0809371
:1006A0000F010BC082E080930F018093100188E15D
:1006B00007C082E080930F0183E08093100184E102
:1006C00080930E010E944C01892B31F483E090E06D
:1006D00090930301809302018091020190910301A4
:1006E000029741F483E090E090930301809302012C
:1006F0000E947E018091A30218168CF58091020160
:1007000090910301019759F520910501309106015F
:100710008091A302821B8093A30280910501909196
:1007200006012091950230919602880F991F820F41
:10073000931F90939602809395022091050130912A
:10074000060180910C0190910D01220F331F821B35
:10075000930B90930D0180930C010E947E01809178
:10076000A302181684F08091020190910301019771
:1007700051F40E944C01892B31F483E090E0909376
:10078000030180930201809102019091030103977C
:10079000C9F4209194028091970290919802820F5F
:1007A000911D27FD9A9590939802809397028091CE
:1007B000940285302CF4809194028F5F8093940290
:1007C0000E947E01809195029091960264E670E00D
:1007D0000E943B2A892B31F58091050190910601F9
:1007E0004091900250919102609192027091930217
:1007F000092E000CAA0BBB0B840F951FA61FB71F59
:100800008093900290939102A0939202B0939302EE
:100810006091900270919102809192029091930266
:100820000E94540B209105013091060180919502A0
:1008300090919602820F931F909396028093950257
:10084000209105013091060180910C0190910D01DC
:10085000821B930B90930D0180930C01089580915E
:100860001101803309F071C2809100019091010162
:100870008330910569F020F4892B09F433C120C23B
:100880008430910509F497C0059709F418C118C27E
:100890004B9925C081E3809311010E943A0860932F
:1008A0009B0270939C0280939D0290939E026091A4
:1008B0000801809109010E94CC1F8091080190E0FD
:1008C000CD9724F480910801885F01C08CE2809369
:1008D000080160910801809109010E94341F4A9922
:1008E00025C081E3809311010E943A0860939B0226
:1008F00070939C0280939D0290939E0260910801E8
:10090000809109010E94CC1F8091080190E0C4975A
:1009100024F080910801885001C084E4809308018C
:1009200060910801809109010E94341F4F990DC206
:1009300081E3809311010E943A0860939B027093B7
:100940009C0280939D0290939E02809108018C32BC
:1009500031F482E090E09093010180930001809156
:100960000801843349F460E070E0CB010E94BB29A8
:100970000E94C1290E94540B809108018C3389F494
:100980000E94D60B84E090E09093010180930001D7
:1009900084E38093080160910801809109010E941D
:1009A000341F80910801843409F0CFC10E94F80BF4
:1009B00085E090E0BFC14B9925C081E38093110190
:1009C0000E943A0860939B0270939C0280939D0260
:1009D00090939E0260910801809109010E94CC1FB2
:1009E0008091080190E0C59724F480910801885F08
:1009F00001C08CE280930801609108018091090197
:100A00000E94341F4A9925C081E3809311010E94FE
:100A10003A0860939B0270939C0280939D0290938E
:100A20009E0260910801809109010E94CC1F809173
:100A3000080190E0C49724F080910801885001C01B
:100A40008CE38093080160910801809109010E9464
:100A5000341F4F997AC181E3809311010E943A08B3
:100A600060939B0270939C0280939D0290939E02E0
:100A7000809108018C3249F482E090E09093060165
:100A80008093050184E080930701809108018433FD
:100A900049F484E090E0909306018093050182E0A0
:100AA00080930701809108018C3359F486E090E02F
:100AB00090930601809305011092070102C04F999F
:100AC00044C183E090E090930101809300010E9473
:100AD000AA0B8CE2809308016091080180910901C2
:100AE0000C94341F4A991BC081E3809311010E942A
:100AF0003A0860939B0270939C0280939D029093AE
:100B00009E022091050130910601809197029091FB
:100B10009802821B930B90939802809397024B99B3
:100B20001BC081E3809311010E943A0860939B02ED
:100B300070939C0280939D0290939E0220910501E8
:100B4000309106018091970290919802820F931F35
:100B500090939802809397024D9929C081E38093E6
:100B600011010E943A0860939B0270939C0280934B
:100B70009D0290939E022091050130910601809183
:100B8000950290919602820F931F90939602809304
:100B90009502209105013091060180910C01909100
:100BA0000D01821B930B90930D0180930C014C99C6
:100BB00029C081E3809311010E943A0860939B024F
:100BC00070939C0280939D0290939E022091050158
:100BD000309106018091950290919602821B930BB1
:100BE0009093960280939502209105013091060121
:100BF00080910C0190910D01820F931F90930D0134
:100C000080930C014E990FC081E3809311010E94E3
:100C10000E010E943A0860939B0270939C0280939D
:100C20009D0290939E024F990FC081E38093110122
:100C30000E94F8000E943A0860939B0270939C0205
:100C400080939D0290939E02359923C081E3809307
:100C500011010E943A0860939B0270939C0280935A
:100C60009D0290939E0283E090E090930101809317
:100C70000001109204010E94AA0B8CE380930901E9
:100C80008CE28093080160910801809109010E9423
:100C9000341F34995AC081E3809311010E943A08AD
:100CA00060939B0270939C0280939D0290939E029E
:100CB00081E090E090930101809300010C9467180B
:100CC000359921C081E3809311010E943A08609315
:100CD0009B0270939C0280939D0290939E0283E0FE
:100CE00090E090930101809300010E94AA0B8CE395
:100CF000809309018CE28093080160910801809142
:100D000009010E94341F349920C081E380931101AE
:100D10000E943A0860939B0270939C0280939D020C
:100D200090939E028091000190910101892B39F4EA
:100D300081E090E09093010180930001089510926A
:100D40000101109200010C942F1808950F931F9326
:100D500060919502709196022091990230919A02C9
:100D600080910C0190910D01621B730B0E94E40CA9
:100D700060919502709196022091990230919A02A9
:100D800080910C0190910D01621B730B0E94B70CB6
:100D9000809102019091030140910A0150910B0151
:100DA0006091970270919802019731F000918A0248
:100DB00010918B0220E303C004E010E021E385E002
:100DC00090E00E9446091F910F9108950F931F9381
:100DD00083E090E0909301018093000180930401EF
:100DE00084E090E0909306018093050182E0809377
:100DF000070181E090E090938B0280938A020E9429
:100E0000050944E364E384EC91E00E9490090E94A8
:100E1000C12900919002109191022091920230918B
:100E20009302601771078207930780F444E46CE231
:100E30008EEC91E00E949009609190027091910275
:100E400080919202909193020E94BB29109290028D
:100E50001092910210929202109293022FEF87EA61
:100E600091E6215080409040E1F700C0000083E00F
:100E700090E090930101809300010E94AA0B8CE303
:100E8000809309018CE280930801609108018091B0
:100E900009011F910F910C94341F0F931F93CF934F
:100EA000DF9380910401811106C0DF91CF911F91E2
:100EB0000F910C94E6060E9405090E94E8280E9402
:100EC0004128809104010E94790C609190027091F8
:100ED000910280919202909193020E94540B809112
:100EE0000501909106010E94840B85E090E09093AB
:100EF0000D0180930C0180910C0190910D010E94D5
:100F00009B0CC1E0D0E0D0930B01C0930A0140914B
:100F10000A0150910B0100918A0210918B0220E38B
:100F200060E070E085E090E00E9446090E9467184A
:100F300010929602109295021092980210929702C7
:100F40001092940283E090E0909303018093020159
:100F5000D0930101C0930001DF91CF911F910F91B8
:100F600008950E94450884E00E94CF0784E00E9413
:100F7000EA070E94DC2A0E9403088AB183708AB9BA
:100F80008BB18C6F8BB987B18F7C87B988B1806347
:100F900088B90E94B3080E94E8280C94412897B1B0
:100FA00021E030E0082E01C0220F0A94EAF72095D4
:100FB000292327B997E890937A00806480937C0076
:100FC00080917A00806480937A0080917A0086FD17
:100FD000FCCF089590917C00907F90937C0090913D
:100FE0007C008F70982B90937C0080917A008064B5
:100FF00080937A0080917A0086FDFCCF8091780002
:101000009091790008951092B20082E08093B00030
:1010100085E08093B1008DE78093B300E0E7F0E0D6
:10102000808182608083789408951F920F920FB61A
:101030000F9211248F939F93AF93BF938091C5021A
:101040009091C602A091C702B091C8020196A11D5D
:10105000B11D8093C5029093C602A093C702B093BE
:10106000C802BF91AF919F918F910F900FBE0F90CB
:101070001F901895F8946091C5027091C6028091F6
:10108000C7029091C80278940895E1ECF0E0808165
:101090008861808387E690E09093C5008093C400C8
:1010A00008959091C00095FFFCCF8093C60080E02A
:1010B00090E00895CF93DF93EC018991882319F094
:1010C0000E945108FACFDF91CF9108951F93CF93DB
:1010D000DF93EC01FE011491812F0E94510811232E
:1010E00011F02196F7CFDF91CF911F910895CF9303
:1010F000DF93CDB7DEB72A970FB6F894DEBF0FBEE9
:10110000CDBF4AE0BE016F5F7F4F0E94E72ACE014C
:1011100001960E945A082A960FB6F894DEBF0FBEB9
:10112000CDBFDF91CF9108958091C00087FFFCCFA4
:101130008091C60008956111299A27E030E090E07F
:101140002D98AC01022E02C0559547950A94E2F7FE
:1011500040FF02C02B9A01C02B982D9A21503109D3
:1011600078F729980895CF93DF93259A239A249AA4
:10117000219A209A2C9A29982D98289A85E38A9565
:10118000F1F70000289860E081EF0E949B0860E082
:1011900087E60E949B0860E086EC0E949B0860E066
:1011A00080E40E949B0860E080E50E949B0860E06C
:1011B0008BE20E949B0860E08BEE0E949B0860E03F
:1011C00081E80E949B0860E08FE50E949B0860E038
:1011D00089E80E949B08C0E4D0E161E080E00E94C1
:1011E0009B082197D1F760E080E00E949B0860E0B7
:1011F00080E10E949B0860E080E60E949B0860E01E
:101200008FEADF91CF910C949B08CF93DF9360E03E
:1012100080E00E949B0860E080E10E949B0860E003
:1012200080E60E949B08C0E4D0E161E080E00E947B
:101230009B082197D1F760E080E00E949B0860E066
:1012400080E10E949B0860E080E6DF91CF910C94E2
:101250009B081F93CF93DF93C82F162FD42F60E0E6
:101260008F700E949B088C2F82958F7060E0805F4A
:101270000E949B0860E080E6810F0E949B0861E06D
:101280008D2FDF91CF911F910C949B080F931F938B
:10129000CF93DF93C82FD62FBA010E94050D0230DD
:1012A000110501F168F401151105A9F001301105CE
:1012B00031F540919F026D2F8C2F0E9426141FC084
:1012C00003301105B1F004301105C9F46D2F8C2FD6
:1012D0000E942A0D14C040919F026D2F8C2F0E94F6
:1012E0009A0E0DC040919F026D2F8C2F0E943410DA
:1012F00006C040919F026D2F8C2F0E941E1280917C
:101300009F028D3018F010929F0205C080919F02BD
:101310008F5F80939F02DF91CF911F910F9108956E
:10132000AF92BF92CF92DF92EF92FF920F931F93F3
:10133000CF93DF93D62EC42E8C01D0E0C0E0E62EF2
:10134000F12C5801F8018081882331F1C7018C0FFD
:10135000911D8B3991054CF04D2F4C0D6C2F6D0D5F
:101360008DE20E946420D75FC0E04D2F4C0D6C2FA2
:101370006D0DD8018D918D010E946420D501EC91F5
:10138000E052EB3328F4F0E0EA5EFE4F608101C0EA
:1013900060E0C60FCF5FD5CFDF91CF911F910F9146
:1013A000FF90EF90DF90CF90BF90AF900895805264
:1013B0008B3330F4E82FF0E0EA5EFE4F8081089531
:1013C00080E0089568E280E00E948D2740E061E4BB
:1013D00082E60E949A0E40E06DE286E70E942614A3
:1013E00040E065E586E70E94341040E061E482E871
:1013F0000E941E126DE080E00C94AC27CF92DF9229
:10140000EF92FF920F931F93CF93DF93803A910552
:1014100008F051C06936710508F04DC0042F7C01F9
:10142000EB01D595C795D595C7956B0183E0C8228B
:10143000DD24C114D10421F46C2F8E2D0E942909C2
:1014400081E0C816D10411F484E00BC082E0C81614
:10145000D10411F480E105C083E0C816D10459F528
:1014600080E4089F80011124D02E8091A00290E09A
:10147000E816F90649F48091A10290E0C817D9074F
:1014800019F4D090A202D02A4D2D6C2F8E2D0E94DF
:101490002909E092A002C093A102D092A202CF5FDC
:1014A000412F6C2F8E2D0E942909E092A002C0933B
:1014B000A1021093A202DF91CF911F910F91FF9093
:1014C000EF90DF90CF9008954F925F926F927F924E
:1014D0008F929F92AF92BF92CF92DF92EF92FF9244
:1014E0000F931F93CF93DF932C013B01EA01790106
:1014F00000E010E06C0188E0C80ED11C5B0184E0C4
:10150000A80EB11C0E151F0584F44601800E911E15
:1015100040E0B301C4010E94FE0940E0B501C401EE
:101520000E94FE090F5F1F4FEDCFFE013197E9309A
:10153000F10508F0A8C0E35CFF4FB301C2010C94B1
:10154000712ADF91CF911F910F91FF90EF90DF9063
:10155000CF90BF90AF909F908F907F906F905F9053
:101560004F900C94A11ADF91CF911F910F91FF9092
:10157000EF90DF90CF90BF90AF909F908F907F9033
:101580006F905F904F900C941E1BDF91CF911F9135
:101590000F91FF90EF90DF90CF90BF90AF909F9012
:1015A0008F907F906F905F904F900C949B1BDF917A
:1015B000CF911F910F91FF90EF90DF90CF90BF9050
:1015C000AF909F908F907F906F905F904F900C9412
:1015D000181CDF91CF911F910F91FF90EF90DF903A
:1015E000CF90BF90AF909F908F907F906F905F90C3
:1015F0004F900C94951CDF91CF911F910F91FF900C
:10160000EF90DF90CF90BF90AF909F908F907F90A2
:101610006F905F904F900C94121DDF91CF911F91AE
:101620000F91FF90EF90DF90CF90BF90AF909F9081
:101630008F907F906F905F904F900C948F1DDF91F3
:10164000CF911F910F91FF90EF90DF90CF90BF90BF
:10165000AF909F908F907F906F905F904F900C9481
:101660000C1EDF91CF911F910F91FF90EF90DF90B3
:10167000CF90BF90AF909F908F907F906F905F9032
:101680004F900C94891EDF91CF911F910F91FF9085
:10169000EF90DF90CF90BF90AF909F908F907F9012
:1016A0006F905F904F9008950F931F93CF93DF93A8
:1016B000CDB7DEB762970FB6F894DEBF0FBECDBFD1
:1016C0009F938F937F936F938CED91E09F938F9374
:1016D0008E010F5F1F4F1F930F930E940C2B40E64C
:1016E0006DE6C8010E9490090FB6F894DEBF0FBEE8
:1016F000CDBF62960FB6F894DEBF0FBECDBFDF91AF
:10170000CF911F910F9108950F931F93CF93DF9364
:1017100000D0CDB7DEB79F938F9382EE91E09F9379
:101720008F938E010F5F1F4F1F930F930E940C2BFF
:1017300040E662E3C8010E9490090F900F900F905D
:101740000F900F900F900F900F90DF91CF911F91FE
:101750000F9108950E94050960E080E00E94AC2787
:1017600068E280E00E948D2748E169E485EE91E01F
:101770000E9490094CE269E480EF91E00E94900998
:1017800044E369E48CEF91E00E9490090E94C12932
:101790000E94540B4CE369E48CE092E00E949009B3
:1017A00044E469E48AE192E00C9490090E940509FE
:1017B00060E080E00E94AC2768E280E00E948D2714
:1017C00048E169E48CE092E00E9490094CE269E40F
:1017D00084E292E00E94900944E369E48BE292E0A3
:1017E0000E9490094CE369E482E392E00C94900932
:1017F0000E94050960E080E00E94AC2768E170E08B
:1018000080E590E00E94A11A48E16AE589E392E050
:101810000E94900964E270E080E590E00E94121D51
:1018200044E26AE58EE392E00E94900960E370E092
:1018300080E590E00E940C1E40E36AE589E492E0B6
:101840000E94900960E470E084E190E00E949B1B9C
:101850004AE46AE083E592E00E94900940E068E58E
:101860008FE00E94261460E470E086E490E00E941D
:10187000181C4AE468E38AE592E00E94900940E07F
:1018800068E581E40E94341060E470E088E790E04D
:101890000E94951C4AE46EE683E692E00E9490095D
:1018A00040E068E583E70E941E1268E170E085E091
:1018B00090E00E941E1B48E16FE08AE692E00E94E1
:1018C000900964E270E085E090E00E948F1D44E2A0
:1018D0006FE085E792E00E94900960E370E085E0A8
:1018E00090E00E94891E40E36FE08EE792E00C9446
:1018F0009009EF92FF920F931F93CF93DF9391E4A0
:10190000E92EF12C00E010E0C82FD0E00C171D07E5
:101910005CF460E670E0C7010E94A2160F5F1F4FE3
:1019200088E0E80EF11CF2CFDF91CF911F910F916B
:10193000FF90EF9008951F93CF93DF93C0E0D0E026
:1019400015E01C9FF0011D9FF00D1124EA54FD4F7E
:10195000408151816281738184810E942317219685
:10196000C330D10571F7DF91CF911F910895BF92D8
:10197000CF92DF92EF92FF920F931F93CF93DF935B
:101980007C016B01C0E0D0E085E0B82EBC9EF00188
:10199000BD9EF00D1124EA54FD4F86019701408150
:1019A00051816281738184810E949F182196C33086
:1019B000D10561F7DF91CF911F910F91FF90EF90CB
:1019C000DF90CF90BF900895EF92FF920F931F93F7
:1019D000CF93DF938C017B01C4EAD2E04C815D811F
:1019E0006A817B81888199819701800F911F0E9474
:1019F000640A269682E0C63BD80781F7DF91CF9133
:101A00001F910F91FF90EF900895CF92DF92EF9288
:101A1000FF921F93CF93DF936B017C0111E1C0E034
:101A2000D0E0B6016C0F7D1F40E0C7010E94FE09A7
:101A30002496C031D105A9F711508FEFE81AF80AA2
:101A40001111EDCFDF91CF911F91FF90EF90DF90BB
:101A5000CF9008958F929F92AF92BF92CF92DF92D4
:101A6000EF92FF920F931F93CF93DF93C62FD0E097
:101A70006E0194E0C90ED11C882E912C43E0B60172
:101A8000C4010E94FE097E0188E0E80EF11C40ECD2
:101A9000B701C4010E94FE0954019FEFA91AB90AB7
:101AA00044E0BE01C5010E94FE0943E3B601C50141
:101AB0000E94FE0940ECB701C5010E94FE098E019B
:101AC000045F1F4F40E1B801C5010E94FE095401A7
:101AD00082E0A80EB11C44E0BE01C5010E94FE09CF
:101AE00043E3B601C5010E94FE094CECB701C501F4
:101AF0000E94FE0940E1B801C5010E94FE0954019F
:101B000093E0A90EB11C44E3BE01C5010E94FE0989
:101B100043E3B601C5010E94FE094CECB701C501C3
:101B20000E94FE094CE0B801C5010E94FE09540163
:101B300084E0A80EB11C40E3BE01C5010E94FE096D
:101B400043E0B601C5010E94FE094CECB701C50196
:101B50000E94FE094CE0B801C5010E94FE09540133
:101B600095E0A90EB11C40E3BE01C5010E94FE092B
:101B700043E4B601C5010E94FE0940ECB701C5016E
:101B80000E94FE094CE0B801C5010E94FE09540103
:101B900086E0A80EB11C40E3BE01C5010E94FE090B
:101BA0004CE0B801C5010E94FE09540197E0A90E5E
:101BB000B11C44E0B601C5010E94FE0940E1B70135
:101BC000C5010E94FE09540188E0A80EB11C4CE03A
:101BD000BE01C5010E94FE0941E4B701C5010E9492
:101BE000FE0940E3B801C5010E94FE09540199E0D5
:101BF000A90EB11C4CE0BE01C5010E94FE0941E0E6
:101C0000B701C5010E94FE0940E3B801C5010E9469
:101C1000FE0954018AE0A80EB11C4CE0BE01C501CA
:101C20000E94FE0942E0B601C5010E94FE0940E89B
:101C3000B701C5010E94FE0940E3B801C5010E9439
:101C4000FE0954019BE0A90EB11C40E3BE01C50191
:101C50000E94FE0942E0B601C5010E94FE0940E86B
:101C6000B701C5010E94FE094CE0B801C5010E9400
:101C7000FE0954018CE0A80EB11C43E3BE01C5016E
:101C80000E94FE0940E2B601C5010E94FE0948E03B
:101C9000B701C5010E94FE094CECB801C5010E94C4
:101CA000FE0954019DE0A90EB11C43ECBE01C50123
:101CB0000E94FE0943ECB801C5010E94FE095401CF
:101CC0008EE0A80EB11C4CE0BE01C5010E94FE09C9
:101CD00043E0B601C5010E94FE0940ECB701C50111
:101CE0000E94FE0940E3B801C5010E94FE099FE081
:101CF000890E911C40E3BE01C4010E94FE094CEF15
:101D0000B601C4010E94FE094FE3B701C4010E945D
:101D1000FE094CE0B801C401DF91CF911F910F91F2
:101D2000FF90EF90DF90CF90BF90AF909F908F90FB
:101D30000C94FE098F929F92AF92BF92CF92DF9246
:101D4000EF92FF920F931F93CF93DF93062F10E034
:101D5000C82FD0E0463008F0DEC0780184E0E80EFD
:101D6000F11C40E5B701CE010E94FE0940E5B70134
:101D7000CE0101960E94FE095E0182E0A80EB11C10
:101D800044E1B701C5010E94FE0968018CE0C80E5C
:101D9000D11C48EAB601C5010E94FE095E0183E03C
:101DA000A80EB11C44E1B701C5010E94FE0948E23A
:101DB000B601C5010E94FE095E0184E0A80EB11CB7
:101DC00048EAB701C5010E94FE09480188E0880E73
:101DD000911C42E0B401C5010E94FE0949E2B6012E
:101DE000C5010E94FE095E0185E0A80EB11C48EA0B
:101DF000B701C5010E94FE094AE7B401C5010E946E
:101E0000FE0945E0B601C5010E94FE095E0186E0BB
:101E1000A80EB11C4CEFB801C5010E94FE094BEAA7
:101E2000B701C5010E94FE094AE7B401C5010E943D
:101E3000FE0941E0B601C5010E94FE095E0187E08E
:101E4000A80EB11C4CEFB801C5010E94FE094BEA77
:101E5000B701C5010E94FE094AE7B401C5010E940D
:101E6000FE095E0188E0A80EB11C4CEDB801C50169
:101E70000E94FE094BEAB701C5010E94FE094AE72C
:101E8000B401C5010E94FE095E0189E0A80EB11CE3
:101E90004CE5B801C5010E94FE094BEAB701C50136
:101EA0000E94FE094AE7B401C5010E94FE0949EA01
:101EB000B601C5010E94FE098E01065F1F4F48EA68
:101EC000B701C8010E94FE0942E4B401C8010E94A2
:101ED000FE0949EAB601C8010E94FE090F5F1F4FC3
:101EE00044E1B701C8010E94FE0940E8B601C801FB
:101EF0000E94FE0944E1B701CE010C960E94FE0942
:101F000045E0B701CE010D960E94FE0945E0B701FC
:101F1000CE010E969BC0680184E0C80ED11C5E0104
:101F200084E0A80EB11C44E5B601C5010E94FE097B
:101F3000780188E0E80EF11C45E0B701C5010E9478
:101F4000FE095E0185E0A80EB11C44E5B601C5019D
:101F50000E94FE0945E7B701C5010E94FE0948013C
:101F60008CE0880E911C49EAB401C5010E94FE096B
:101F70005E0186E0A80EB11C4CEFB801C5010E94BD
:101F8000FE094BEAB601C5010E94FE094AE7B70106
:101F9000C5010E94FE0949EAB401C5010E94FE097B
:101FA0005E0187E0A80EB11C4CEFB801C5010E948C
:101FB000FE094BEAB601C5010E94FE094AE7B701D6
:101FC000C5010E94FE0940E8B401C5010E94FE0956
:101FD0005E0188E0A80EB11C4CEDB801C5010E945D
:101FE000FE094BEAB601C5010E94FE094AE7B701A6
:101FF000C5010E94FE0949EAB401C5010E94FE091B
:102000005E0189E0A80EB11C4CE5B801C5010E9433
:10201000FE094BEAB601C5010E94FE094AE7B70175
:10202000C5010E94FE0949EAB401C5010E94FE09EA
:102030002A9644E5B601CE010E94FE0945E0B701AB
:10204000CE010E94FE0940E8B401CE01DF91CF919C
:102050001F910F91FF90EF90DF90CF90BF90AF90C6
:102060009F908F900C94FE098F929F92AF92BF9297
:10207000CF92DF92EF92FF920F931F93CF93DF9354
:10208000062F10E0C82FD0E0463008F00EC17801CE
:1020900084E0E80EF11C40E5B701CE010E94FE0984
:1020A00040E5B701CE0101960E94FE095E0182E083
:1020B000A80EB11C44E1B701C5010E94FE096801E8
:1020C0008CE0C80ED11C48EAB601C5010E94FE0989
:1020D0005E0183E0A80EB11C44E1B701C5010E9476
:1020E000FE0944E5B601C5010E94FE095E0184E0D7
:1020F000A80EB11C48EAB701C5010E94FE094801BB
:1021000088E0880E911C42E0B401C5010E94FE09DE
:1021100045E5B601C5010E94FE095E0185E0A80EF5
:10212000B11C48EAB701C5010E94FE094AE7B401A3
:10213000C5010E94FE0945E5B601C5010E94FE09E0
:102140005E0186E0A80EB11C44E5B801C5010E94FD
:10215000FE0949EAB701C5010E94FE094AE7B40138
:10216000C5010E94FE0945E5B601C5010E94FE09B0
:102170005E0187E0A80EB11C44E5B801C5010E94CC
:10218000FE0945EAB701C5010E94FE094AE7B4010C
:10219000C5010E94FE0945E5B601C5010E94FE0980
:1021A0005E0188E0A80EB11C44E4B801C5010E949C
:1021B000FE0945E9B701C5010E94FE094AE7B401DD
:1021C000C5010E94FE0945E5B601C5010E94FE0950
:1021D0005E0189E0A80EB11C44E0B801C5010E946F
:1021E000FE0945E5B701C5010E94FE094AE7B401B1
:1021F000C5010E94FE0945E5B601C5010E94FE0920
:102200005E018AE0A80EB11C48E9B701C5010E9431
:10221000FE0942E4B401C5010E94FE0945E9B60188
:10222000C5010E94FE095E018BE0A80EB11C44E1CD
:10223000B701C5010E94FE0940E8B601C5010E9430
:10224000FE0944E1B701CE010C960E94FE095E0131
:102250008DE0A80EB11C4CE3B801C5010E94FE0937
:1022600044E1B701C5010E94FE094FE3B401C50175
:102270000E94FE095E018EE0A80EB11C43ECB8017D
:10228000C5010E94FE0947EDB701C5010E94FE0984
:1022900043ECB401C5010E94FE0943E0B601C5014B
:1022A0000E94FE094CE3B801B9C0680184E0C80E81
:1022B000D11C5E0184E0A80EB11C44E5B601C50145
:1022C0000E94FE09780188E0E80EF11C45E0B701A4
:1022D000C5010E94FE095E0185E0A80EB11C44E51F
:1022E000B601C5010E94FE0945E7B701C5010E947C
:1022F000FE0948018CE0880E911C45E9B401C50136
:102300000E94FE095E0186E0A80EB11C44E5B801FA
:10231000C5010E94FE0949EAB601C5010E94FE09F5
:102320004AE7B701C5010E94FE0945E9B401C501AC
:102330000E94FE095E0187E0A80EB11C44E5B801C9
:10234000C5010E94FE0945EAB601C5010E94FE09C9
:102350004AE7B701C5010E94FE0945E9B401C5017C
:102360000E94FE095E0188E0A80EB11C44E4B80199
:10237000C5010E94FE0945E9B601C5010E94FE099A
:102380004AE7B701C5010E94FE0945E9B401C5014C
:102390000E94FE095E0189E0A80EB11C44E0B8016C
:1023A000C5010E94FE0945E5B601C5010E94FE096E
:1023B0004AE7B701C5010E94FE0945E9B401C5011C
:1023C0000E94FE098E01065F1F4F44E5B601C80159
:1023D0000E94FE0945E0B701C8010E94FE0940E8DD
:1023E000B401C8010E94FE094CE0B701CE010B9672
:1023F0000E94FE094CE0B701CE010C960E94FE0936
:1024000043E3B701CE010D960E94FE0943E3B701F5
:10241000CE010E960E94FE094CE0B701CE010F9648
:10242000DF91CF911F910F91FF90EF90DF90CF90B0
:10243000BF90AF909F908F900C94FE098F929F92C7
:10244000AF92BF92CF92DF92EF92FF920F931F93C2
:10245000CF93DF93062F10E0C82FD0E0463008F06E
:1024600022C1780184E0E80EF11C40E5B701CE01FD
:102470000E94FE0940E5B701CE0101960E94FE09C7
:102480006E0182E0C80ED11C44E1B701C6010E9472
:10249000FE0948018CE0880E911C48EAB401C6018F
:1024A0000E94FE096E0183E0C80ED11C4CE3B70107
:1024B000C6010E94FE0948E2B401C6010E94FE095D
:1024C0005E0184E0A80EB11C40ECB801C5010E9479
:1024D000FE094FEFB701C5010E94FE09680188E0BF
:1024E000C80ED11C43E0B601C5010E94FE0949E2B5
:1024F000B401C5010E94FE095E0185E0A80EB11C71
:1025000040EFB801C5010E94FE094FEFB701C501B8
:102510000E94FE094FE7B601C5010E94FE0945E091
:10252000B401C5010E94FE095E0186E0A80EB11C3F
:102530004CEFB801C5010E94FE094FEFB701C5017C
:102540000E94FE094FE7B601C5010E94FE0941E065
:10255000B401C5010E94FE095E0187E0A80EB11C0E
:102560004CEFB801C5010E94FE094FEFB701C5014C
:102570000E94FE094FE7B601C5010E94FE095E01F7
:1025800088E0A80EB11C4CEDB801C5010E94FE09FF
:102590004FEFB701C5010E94FE094FE7B601C50123
:1025A0000E94FE095E0189E0A80EB11C4CE5B8014D
:1025B000C5010E94FE094FEFB701C5010E94FE0947
:1025C0004FE7B601C5010E94FE0949EAB401C50101
:1025D0000E94FE095E018AE0A80EB11C4CEFB70113
:1025E000C5010E94FE0943E4B601C5010E94FE092F
:1025F00049EAB401C5010E94FE095E018BE0A80E04
:10260000B11C4CE3B701C5010E94FE0940E8B401CA
:10261000C5010E94FE095E018CE0A80EB11C43E0DA
:10262000B801C5010E94FE0944E1B701C5010E943D
:10263000FE0940ECB601C5010E94FE095E018DE075
:10264000A80EB11C4CE0B801C5010E94FE0944E18E
:10265000B701C5010E94FE0940E3B601C5010E9411
:10266000FE095E018EE0A80EB11C4CE0B801C50168
:102670000E94FE0944E1B701C5010E94FE0940E342
:10268000B601C5010E94FE092F9640EFB801CE01A8
:102690000E94FE0943ECB701CE010E94FE094FE003
:1026A000B601CE01C5C05E0184E0A80EB11C40ECAD
:1026B000B801C5010E94FE09680184E0C80ED11C62
:1026C0004FE5B601C5010E94FE09780188E0E80ED9
:1026D000F11C45E0B701C5010E94FE095E0185E0DD
:1026E000A80EB11C40EFB801C5010E94FE094FE5DC
:1026F000B601C5010E94FE0945E7B701C5010E9468
:10270000FE0948018CE0880E911C49EAB401C5011C
:102710000E94FE095E0186E0A80EB11C4CEFB801D4
:10272000C5010E94FE094FEFB601C5010E94FE09D6
:102730004FE7B701C5010E94FE0949EAB401C5018E
:102740000E94FE095E0187E0A80EB11C4CEFB801A3
:10275000C5010E94FE094FEFB601C5010E94FE09A6
:102760004FE7B701C5010E94FE0940E8B401C50169
:102770000E94FE095E0188E0A80EB11C4CEDB80174
:10278000C5010E94FE094FEFB601C5010E94FE0976
:102790004FE7B701C5010E94FE0949EAB401C5012E
:1027A0000E94FE095E0189E0A80EB11C4CE5B8014B
:1027B000C5010E94FE094FEFB601C5010E94FE0946
:1027C0004FE7B701C5010E94FE0949EAB401C501FE
:1027D0000E94FE098E01065F1F4F4CE5B601C8013D
:1027E0000E94FE0945E0B701C8010E94FE0940E8C9
:1027F000B401C8010E94FE0940E3B701CE010B9667
:102800000E94FE0940E3B701CE010C960E94FE092A
:1028100040E3B701CE010D960E94FE094FE0B701DB
:10282000CE010E960E94FE0940ECB601CE010F9635
:10283000DF91CF911F910F91FF90EF90DF90CF909C
:10284000BF90AF909F908F900C94FE098F929F92B3
:10285000AF92BF92CF92DF92EF92FF920F931F93AE
:10286000CF93DF93062F10E0C82FD0E078014630D9
:1028700008F050C188E0E80EF11C42E0B701CE013B
:102880000E94FE09680184E0C80ED11C5E018FEF32
:10289000A81AB80A40E4B601C5010E94FE0945E045
:1028A000B701C5010E94FE0948018CE0880E911C09
:1028B00042E0B401C5010E94FE095E0182E0A80E5B
:1028C000B11C48E6B601C5010E94FE0945EAB70100
:1028D000C5010E94FE094CEFB401C5010E94FE092A
:1028E0005E0183E0A80EB11C48E2B601C5010E945A
:1028F000FE0940E6B701C5010E94FE094DE3B4019F
:10290000C5010E94FE095E0184E0A80EB11C4CEFD7
:10291000B601C5010E94FE094BE4B701C5010E9442
:10292000FE0945E3B401C5010E94FE095E0185E090
:10293000A80EB11C43E0B801C5010E94FE094CEF8E
:10294000B601C5010E94FE094FEBB701C5010E9407
:10295000FE0945E1B401C5010E94FE095E0186E061
:10296000A80EB11C4FEFB801C5010E94FE094FEF40
:10297000B601C5010E94FE094FEBB701C5010E94D7
:10298000FE0946E5B401C5010E94FE095E0187E02B
:10299000A80EB11C4FEFB801C5010E94FE094FEF10
:1029A000B601C5010E94FE094FEBB701C5010E94A7
:1029B000FE0940E5B401C5010E94FE095E0188E000
:1029C000A80EB11C4FEDB801C5010E94FE094FEFE2
:1029D000B601C5010E94FE094FEBB701C5010E9477
:1029E000FE095E0189E0A80EB11C4CE5B801C501E5
:1029F0000E94FE094FEFB601C5010E94FE094FEB90
:102A0000B701C5010E94FE094EEFB401C5010E9445
:102A1000FE095E018AE0A80EB11C4CEFB601C501AB
:102A20000E94FE0943E8B701C5010E94FE094EEF6E
:102A3000B401C5010E94FE095E018BE0A80EB11C25
:102A400040ECB801C5010E94FE094FEFB601C50177
:102A50000E94FE094FEFB701C5010E94FE0940EC3C
:102A6000B401C5010E94FE095E018CE0A80EB11CF4
:102A700040EBB801C5010E94FE094AEAB601C50152
:102A80000E94FE094AEAB701C5010E94FE0943E01F
:102A9000B401C5010E94FE095E018DE0A80EB11CC3
:102AA0004CE6B801C5010E94FE0945E7B601C50123
:102AB0000E94FE0945E5B701C5010E94FE094EE0EE
:102AC000B401C5010E94FE095E018EE0A80EB11C92
:102AD0004CE6B801C5010E94FE094DEFB601C501E3
:102AE0000E94FE094FE5B701C5010E94FE094EE0B4
:102AF000B401C5010E94FE092F9640EFB801CE0136
:102B00000E94FE094FEFB601CE010E94FE094FEF71
:102B1000B70104C184E0E80EF11C40E8B701CE0122
:102B200003960E94FE095E0184E0A80EB11C48E6EF
:102B3000B701C5010E94FE09680188E0C80ED11CDA
:102B400045E8B601C5010E94FE095E0185E0A80EB8
:102B5000B11C43E0B801C5010E94FE0948E6B70177
:102B6000C5010E94FE0949EAB601C5010E94FE099D
:102B700048018CE0880E911C4EEFB401C5010E9403
:102B8000FE095E0186E0A80EB11C4FEFB801C50139
:102B90000E94FE094FEFB701C5010E94FE094BE5F7
:102BA000B601C5010E94FE094EEFB401C5010E94A5
:102BB000FE095E0187E0A80EB11C4FEFB801C50108
:102BC0000E94FE094FEFB701C5010E94FE094EE5C4
:102BD000B601C5010E94FE0941ECB401C5010E9485
:102BE000FE095E0188E0A80EB11C4FEDB801C501D9
:102BF0000E94FE094FEFB701C5010E94FE094FE791
:102C0000B601C5010E94FE0945EFB401C5010E944D
:102C1000FE095E0189E0A80EB11C4CE5B801C501B2
:102C20000E94FE094FEFB701C5010E94FE094FEB5C
:102C3000B601C5010E94FE0945EDB401C5010E941F
:102C4000FE095E018AE0A80EB11C40ECB801C50186
:102C50000E94FE094FEFB701C5010E94FE094FEF28
:102C6000B601C5010E94FE0944EDB401C5010E94F0
:102C7000FE095E018BE0A80EB11C40EBB801C50156
:102C80000E94FE094AEAB701C5010E94FE094AEA0C
:102C9000B601C5010E94FE0943E0B401C5010E94CE
:102CA000FE095E018CE0A80EB11C4CE6B801C5011E
:102CB0000E94FE0945E7B701C5010E94FE0945E5EE
:102CC000B601C5010E94FE094EE0B401C5010E9493
:102CD000FE095E018DE0A80EB11C4CE6B801C501ED
:102CE0000E94FE094DEFB701C5010E94FE094FE5A4
:102CF000B601C5010E94FE094EE0B401C5010E9463
:102D0000FE092E9640EFB801CE010E94FE094FEF5A
:102D1000B701CE010E94FE094FEFB601CE010E941D
:102D2000FE0943E0B401CE01DF91CF911F910F91D5
:102D3000FF90EF90DF90CF90BF90AF909F908F90DB
:102D40000C94FE09CF92DF92EF92FF920F931F93A4
:102D5000CF93DF938C01EB014CEF0E94FE096801D9
:102D60008FEFC81AD80A4FEFBE01C6010E94FE09B4
:102D70007E0184E0E80EF11C43E0B701C6010E9429
:102D8000FE09680182E0C80ED11C4FEFBE01C601EA
:102D90000E94FE094FE0B701C6010E94FE096801CA
:102DA00083E0C80ED11C4CEFBE01C6010E94FE0993
:102DB0004FE3B701C6010E94FE09680184E0C80E16
:102DC000D11C40EFBE01C6010E94FE094FEFB701C2
:102DD000C6010E94FE09680185E0C80ED11C4CEFB7
:102DE000BE01C6010E94FE094FE3B701C6010E9461
:102DF000FE09680186E0C80ED11C4FEFBE01C60176
:102E00000E94FE094FE0B701C6010E94FE09680159
:102E100087E0C80ED11C4FEFBE01C6010E94FE091B
:102E200043E0B701C6010E94FE094CEFBE01C80194
:102E30000896DF91CF911F910F91FF90EF90DF9057
:102E4000CF900C94FE098F929F92AF92BF92CF9237
:102E5000DF92EF92FF920F931F93CF93DF9300D0F7
:102E600000D01F92CDB7DEB749835A836B837C8332
:102E70008D83EB80FC8009811A81A12CB12C670124
:102E800084E0C80ED11C8D8190E0A816B90608F028
:102E9000D4C04FEFB701C8010E94FE0947E5B60153
:102EA000C8010E94FE0948018FEF881A980A4FEF67
:102EB000B701C4010E94FE0945E5B601C4010E94A4
:102EC000FE09480182E0880E911C4FE7B701C4015A
:102ED0000E94FE0945E5B601C4010E94FE094801B1
:102EE00083E0880E911C4FEFB701C4010E94FE09D8
:102EF00047E5B601C4010E94FE09480184E0880E3E
:102F0000911C4FEFB701C4010E94FE0945E5B601CF
:102F1000C4010E94FE09480185E0880E911C4FE71C
:102F2000B701C4010E94FE0945E5B601C4010E9433
:102F3000FE09480186E0880E911C4FEFB701C401DD
:102F40000E94FE0947E5B601C4010E94FE0948013E
:102F500087E0880E911C4FEFB701C4010E94FE0963
:102F600045E5B601C4010E94FE09480188E0880ECB
:102F7000911C4FE7B701C4010E94FE0945E5B60167
:102F8000C4010E94FE09480189E0880E911C4FEFA0
:102F9000B701C4010E94FE0947E5B601C4010E94C1
:102FA000FE0948018AE0880E911C4FEFB701C40169
:102FB0000E94FE0945E5B601C4010E94FE094801D0
:102FC0008BE0880E911C4FE7B701C4010E94FE09F7
:102FD00045E5B601C4010E94FE0948018CE0880E57
:102FE000911C4FEFB701C4010E94FE0947E5B601ED
:102FF000C4010E94FE0948018DE0880E911C4FEF2C
:10300000B701C4010E94FE0945E5B601C4010E9452
:10301000FE0948018EE0880E911C4FE7B701C401FC
:103020000E94FE0945E5B601C4010E94FE098FE039
:10303000A80EB11C015F1F4F26CF0F900F900F906D
:103040000F900F90DF91CF911F910F91FF90EF9014
:10305000DF90CF90BF90AF909F908F90089540E009
:1030600060E670E080E090E00E94FE0940E064E6E7
:1030700070E080E090E00E94FE0940E060E670E0D1
:1030800081E090E00E94FE0940E064E670E081E0AB
:1030900090E00E94FE0940E060E670E083E090E08E
:1030A0000E94FE0940E064E670E083E090E00E9448
:1030B000FE0940E060E670E084E090E00E94FE09D6
:1030C00040E064E670E084E090E00C94FE094FEF8D
:1030D00060E670E080E090E00E94FE094FEF64E659
:1030E00070E080E090E00E94FE094FEF60E670E043
:1030F00081E090E00E94FE094FEF64E670E081E01D
:1031000090E00E94FE094FEF60E670E083E090E0FF
:103110000E94FE094FEF64E670E083E090E00E94B9
:10312000FE094FEF60E670E084E090E00E94FE0947
:103130004FEF64E670E084E090E00C94FE092F927B
:103140003F924F925F926F927F928F929F92AF9237
:10315000BF92CF92DF92EF92FF920F931F93CF9384
:10316000DF93CDB7DEB727970FB6F894DEBF0FBE5B
:10317000CDBF49835A836B837C8319011F830E83E0
:1031800049805A800B811C81C12CD12C682E712C56
:10319000C80104967C015201A60CB71CA20EB31EF6
:1031A0008E819F81C816D9068CF445018C0C9D1C1C
:1031B00040E0B801C4010E94FE0940E0B701C4012B
:1031C0000E94FE099FEFC91AD90AEACF420C531C8C
:1031D0004FEFB801C2010E94FE0947E5B701C201E5
:1031E0000E94FE0962019FEFC91AD90A4FEFB80188
:1031F000C6010E94FE0945E5B701C6010E94FE090D
:10320000620182E0C80ED11C4FE7B801C6010E94DE
:10321000FE0945E5B701C6010E94FE09620193E07F
:10322000C90ED11C4FEFB801C6010E94FE0947E547
:10323000B701C6010E94FE09620184E0C80ED11CDC
:103240004FEFB801C6010E94FE0945E5B701C6016E
:103250000E94FE09620195E0C90ED11C4FE7B8013A
:10326000C6010E94FE0945E5B701C6010E94FE099C
:10327000620186E0C80ED11C4FEFB801C6010E9462
:10328000FE0947E5B701C6010E94FE09620197E009
:10329000C90ED11C4FEFB801C6010E94FE0945E5D9
:1032A000B701C6010E94FE09620188E0C80ED11C68
:1032B0004FE7B801C6010E94FE0945E5B701C60106
:1032C0000E94FE09620199E0C90ED11C4FEFB801BE
:1032D000C6010E94FE0947E5B701C6010E94FE092A
:1032E00062018AE0C80ED11C4FEFB801C6010E94EE
:1032F000FE0945E5B701C6010E94FE0962019BE097
:10330000C90ED11C4FE7B801C6010E94FE0945E570
:10331000B701C6010E94FE0962018CE0C80ED11CF3
:103320004FEFB801C6010E94FE0947E5B701C6018B
:103330000E94FE0962019DE0C90ED11C4FEFB80149
:10334000C6010E94FE0945E5B701C6010E94FE09BB
:1033500062018EE0C80ED11C4FE7B801C6010E9481
:10336000FE0945E5B701C6010E94FE09460C571C3F
:1033700062019FE0C91AD1084FEFB801C6010E944F
:10338000FE0947E5B701C6010E94FE0962018EE011
:10339000C81AD1084FEFB801C6010E94FE0945E5E1
:1033A000B701C6010E94FE0962019DE0C91AD10859
:1033B0004FE7B801C6010E94FE0945E5B701C60105
:1033C0000E94FE0962018CE0C81AD1084FEFB801D3
:1033D000C6010E94FE0947E5B701C6010E94FE0929
:1033E00062019BE0C91AD1084FEFB801C6010E94E3
:1033F000FE0945E5B701C6010E94FE0962018AE0A7
:10340000C81AD1084FE7B801C6010E94FE0945E578
:10341000B701C6010E94FE09620199E0C91AD108EC
:103420004FEFB801C6010E94FE0947E5B701C6018A
:103430000E94FE09620188E0C81AD1084FEFB80166
:10344000C6010E94FE0945E5B701C6010E94FE09BA
:10345000620197E0C91AD1084FE7B801C6010E947E
:10346000FE0945E5B701C6010E94FE09620186E03A
:10347000C81AD1084FEFB801C6010E94FE0947E5FE
:10348000B701C6010E94FE09620195E0C91AD10880
:103490004FEFB801C6010E94FE0945E5B701C6011C
:1034A0000E94FE09620184E0C81AD1084FE7B80102
:1034B000C6010E94FE0945E5B701C6010E94FE094A
:1034C000620193E0C91AD1084FEFB801C6010E940A
:1034D000FE0947E5B701C6010E94FE09620182E0CC
:1034E000C81AD1084FEFB801C6010E94FE0945E590
:1034F000B701C6010E94FE0991E0491A51084FE741
:10350000B801C2010E94FE0945E5B701C201279634
:103510000FB6F894DEBF0FBECDBFDF91CF911F91E4
:103520000F91FF90EF90DF90CF90BF90AF909F9062
:103530008F907F906F905F904F903F902F900C9462
:10354000FE09CF92DF92EF92FF920F931F93CF93DA
:10355000DF93EC018B0144E70E94FE09780184E0CF
:10356000E80EF11C47E1B701CE010E94FE096E0191
:103570008FEFC81AD80A4DEDB801C6010E94FE09A6
:1035800045E5B701C6010E94FE096E0182E0C80E42
:10359000D11C47E5B801C6010E94FE0945E5B70107
:1035A000C6010E94FE096E0183E0C80ED11C47EDE2
:1035B000B801C6010E94FE094FE7B701C6010E948B
:1035C000FE096E0184E0C80ED11C4DE7B801C601AA
:1035D0000E94FE0945E7B701C6010E94FE096E017F
:1035E00085E0C80ED11C45E5B801C6010E94FE0960
:1035F00045E7B701C6010E94FE096E0186E0C80ECC
:10360000D11C4DEFB801C6010E94FE094FE7B7017A
:10361000C6010E94FE09279644E5B801CE010E942A
:10362000FE0945E1B701CE01DF91CF911F910F91C6
:10363000FF90EF90DF90CF900C94FE09CF92DF9235
:10364000EF92FF920F931F93CF93DF93EC018B01C7
:103650004CEF0E94FE09780184E0E80EF11C4FE374
:10366000B701CE010E94FE096E018FEFC81AD80A79
:103670004FE7B801C6010E94FE094FEFB701C6012E
:103680000E94FE096E0182E0C80ED11C4FE7B8010E
:10369000C6010E94FE0945EFB701C6010E94FE095E
:1036A0006E0183E0C80ED11C4FEFB801C6010E9425
:1036B000FE0947EDB701C6010E94FE096E0184E0D4
:1036C000C80ED11C47E5B801C6010E94FE094FEDA6
:1036D000B701C6010E94FE096E0185E0C80ED11C2B
:1036E00047E7B801C6010E94FE094FEDB701C601C8
:1036F0000E94FE096E0186E0C80ED11C47E5B801A4
:10370000C6010E94FE0945EDB701C6010E94FE09EF
:1037100027964CEFB801CE010E94FE094FE3B70196
:10372000CE01DF91CF911F910F91FF90EF90DF902D
:10373000CF900C94FE09CF92DF92EF92FF920F93FD
:103740001F93CF93DF93EC018B0144E70E94FE09A6
:10375000780184E0E80EF11C45E1B701CE010E943A
:10376000FE096E018FEFC81AD80A4DEDB801C601E7
:103770000E94FE0945E5B701C6010E94FE096E01DF
:1037800082E0C80ED11C4DEFB801C6010E94FE09AF
:103790004FE7B701C6010E94FE096E0183E0C80E23
:1037A000D11C45E5B801C6010E94FE0945E7B701F5
:1037B000C6010E94FE096E0184E0C80ED11C45E5D9
:1037C000B801C6010E94FE094FE5B701C6010E947B
:1037D000FE096E0185E0C80ED11C45EDB801C60199
:1037E0000E94FE0945E5B701C6010E94FE096E016F
:1037F00086E0C80ED11C4DE7B801C6010E94FE0943
:1038000045E5B701C6010E94FE0927964CEFB801B5
:10381000CE010E94FE094FE3B701CE01DF91CF91A7
:103820001F910F91FF90EF90DF90CF900C94FE09C5
:10383000CF92DF92EF92FF920F931F93CF93DF937C
:10384000EC018B0144E50E94FE09780184E0E80E5A
:10385000F11C45E1B701CE010E94FE096E018FEF18
:10386000C81AD80A4DE5B801C6010E94FE094DEFFD
:10387000B701C6010E94FE096E0182E0C80ED11C8C
:1038800047E7B801C6010E94FE0947EFB701C6012C
:103890000E94FE096E0183E0C80ED11C47E7B80103
:1038A000C6010E94FE094DEDB701C6010E94FE0946
:1038B0006E0184E0C80ED11C47E7B801C6010E9422
:1038C000FE0945EDB701C6010E94FE096E0185E0C3
:1038D000C80ED11C4DE5B801C6010E94FE0945ED98
:1038E000B701C6010E94FE096E0186E0C80ED11C18
:1038F00047EFB801C6010E94FE094FEFB701C601AC
:103900000E94FE09279644E5B801CE010E94FE09F7
:1039100045E1B701CE01DF91CF911F910F91FF904B
:10392000EF90DF90CF900C94FE09CF92DF92EF9250
:10393000FF920F931F93CF93DF93EC018B0144E72A
:103940000E94FE09780184E0E80EF11C45E1B70110
:10395000CE010E94FE096E018FEFC81AD80A4DED04
:10396000B801C6010E94FE0945E5B701C6010E94E3
:10397000FE096E0182E0C80ED11C45EFB801C601F8
:103980000E94FE094FEFB701C6010E94FE096E01B9
:1039900083E0C80ED11C45E5B801C6010E94FE09AE
:1039A00045EDB701C6010E94FE096E0184E0C80E14
:1039B000D11C45E5B801C6010E94FE0945EDB701DD
:1039C000C6010E94FE096E0185E0C80ED11C45E5C6
:1039D000B801C6010E94FE0945EDB701C6010E946B
:1039E000FE096E0186E0C80ED11C4FEFB801C6017A
:1039F0000E94FE094FEFB701C6010E94FE092796FB
:103A000044E5B801CE010E94FE0945E1B701CE01AF
:103A1000DF91CF911F910F91FF90EF90DF90CF90AA
:103A20000C94FE09CF92DF92EF92FF920F931F93B7
:103A3000CF93DF93EC018B014CEF0E94FE097801DC
:103A400084E0E80EF11C4FE3B701CE010E94FE09AD
:103A50006E018FEFC81AD80A47E5B801C6010E9467
:103A6000FE0945EDB701C6010E94FE096E0182E024
:103A7000C80ED11C47E5B801C6010E94FE0947E700
:103A8000B701C6010E94FE096E0183E0C80ED11C79
:103A90004DEDB801C6010E94FE094DE5B701C60112
:103AA0000E94FE096E0184E0C80ED11C47E5B801F2
:103AB000C6010E94FE0947E5B701C6010E94FE0942
:103AC0006E0185E0C80ED11C47E5B801C6010E9411
:103AD000FE0945E5B701C6010E94FE096E0186E0B8
:103AE000C80ED11C4DEFB801C6010E94FE094FE778
:103AF000B701C6010E94FE09279644E5B801CE0130
:103B00000E94FE0945E1B701CE01DF91CF911F91DF
:103B10000F91FF90EF90DF90CF900C94FE09CF9221
:103B2000DF92EF92FF920F931F93CF93DF93EC01FD
:103B30008B0144EF0E94FE09780184E0E80EF11C3D
:103B400047E3B701CE010E94FE096E018FEFC81A4C
:103B5000D80A4DEDB801C6010E94FE094DEDB7012E
:103B6000C6010E94FE096E0182E0C80ED11C47E525
:103B7000B801C6010E94FE0945EFB701C6010E94C7
:103B8000FE096E0183E0C80ED11C4FEFB801C601DB
:103B90000E94FE0947EFB701C6010E94FE096E01AF
:103BA00084E0C80ED11C4FEFB801C6010E94FE0987
:103BB00047EFB701C6010E94FE096E0185E0C80EFD
:103BC000D11C4FEFB801C6010E94FE094FEDB701AD
:103BD000C6010E94FE096E0186E0C80ED11C47E5B1
:103BE000B801C6010E94FE0945EDB701C6010E9459
:103BF000FE0927964CEFB801CE010E94FE094FE363
:103C0000B701CE01DF91CF911F910F91FF90EF90FF
:103C1000DF90CF900C94FE09CF92DF92EF92FF924B
:103C20000F931F93CF93DF93EC018B0144E50E9428
:103C3000FE09780184E0E80EF11C45E1B701CE01F0
:103C40000E94FE096E018FEFC81AD80A45E7B80135
:103C5000C6010E94FE0945E5B701C6010E94FE09A2
:103C60006E0182E0C80ED11C4DEDB801C6010E9464
:103C7000FE0945E5B701C6010E94FE096E0183E019
:103C8000C80ED11C4DEDB801C6010E94FE0945E5E4
:103C9000B701C6010E94FE096E0184E0C80ED11C66
:103CA0004DEDB801C6010E94FE0945E7B701C60106
:103CB0000E94FE096E0185E0C80ED11C4DEDB801D1
:103CC000C6010E94FE094DEDB701C6010E94FE0922
:103CD0006E0186E0C80ED11C47E5B801C6010E94FE
:103CE000FE094FE7B701C6010E94FE09279644E589
:103CF000B801CE010E94FE0945E1B701CE01DF9176
:103D0000CF911F910F91FF90EF90DF90CF900C9487
:103D1000FE09CF92DF92EF92FF920F931F93CF9302
:103D2000DF93EC018B014CED0E94FE09780184E0E9
:103D3000E80EF11C4FE3B701CE010E94FE096E01AF
:103D40008FEFC81AD80A47E7B801C6010E94FE09DA
:103D50004FEFB701C6010E94FE096E0182E0C80E56
:103D6000D11C4FE5B801C6010E94FE0945EDB7011F
:103D7000C6010E94FE096E0183E0C80ED11C4FEF00
:103D8000B801C6010E94FE094FEDB701C6010E94AD
:103D9000FE096E0184E0C80ED11C4FEFB801C601C8
:103DA0000E94FE094FEDB701C6010E94FE096E0197
:103DB00085E0C80ED11C4FEFB801C6010E94FE0974
:103DC0004FEDB701C6010E94FE096E0186E0C80EE4
:103DD000D11C45E5B801C6010E94FE0945EDB701B9
:103DE000C6010E94FE0927964CEFB801CE010E9441
:103DF000FE094FE3B701CE01DF91CF911F910F91E3
:103E0000FF90EF90DF90CF900C94FE09AF92BF929D
:103E1000CF92DF92EF92FF920F931F93CF93DF9396
:103E20005C017B01C0E0D0E06B0184E0C80ED11CD6
:103E300085010C0F1D1F40E0B701C8010E94FE095B
:103E400040E0B601C8010E94FE092196C830D105A4
:103E500079F7DF91CF911F910F91FF90EF90DF9055
:103E6000CF90BF90AF900895CF92DF92EF92FF92E4
:103E70000F931F93CF93DF93062F10E0C82FD0E04E
:103E800040ECB801CE010E94FE09780184E0E80E02
:103E9000F11C4CE0B701CE010E94FE096E018FEFCC
:103EA000C81AD80A40ECB801C6010E94FE094CE0CD
:103EB000B701C6010E94FE096E0182E0C80ED11C46
:103EC00040ECB801C6010E94FE094CE0B701C601F2
:103ED0000E94FE096E0183E0C80ED11C40ECB801BF
:103EE000C6010E94FE094CE0B701C6010E94FE090E
:103EF0006E0184E0C80ED11C40ECB801C6010E94DE
:103F0000FE094CE0B701C6010E94FE096E0185E082
:103F1000C80ED11C4CE0B801C6010E94FE0940EC5D
:103F2000B701C6010E94FE096E0186E0C80ED11CD1
:103F30004CE3B801C6010E94FE0940EFB701C6017B
:103F40000E94FE096E0187E0C80ED11C40EFB80147
:103F5000C6010E94FE094CE3B701C6010E94FE099A
:103F60006E0188E0C80ED11C40ECB801C6010E9469
:103F7000FE094FE0B701C6010E94FE0943E0B70108
:103F8000CE010996DF91CF911F910F91FF90EF9095
:103F9000DF90CF900C94FE09CF92DF92EF92FF92C8
:103FA0000F931F93CF93DF93062F10E0C82FD0E01D
:103FB00040E0B801CE010E94FE09780184E0E80EDD
:103FC000F11C40E0B701CE010E94FE096E018FEFA7
:103FD000C81AD80A40E0B801C6010E94FE0940E0B4
:103FE000B701C6010E94FE096E0182E0C80ED11C15
:103FF00040E0B801C6010E94FE0940E0B701C601D9
:104000000E94FE096E0183E0C80ED11C40E0B80199
:10401000C6010E94FE0940E0B701C6010E94FE09E8
:104020006E0184E0C80ED11C40E0B801C6010E94B8
:10403000FE0940E0B701C6010E94FE096E0185E05D
:10404000C80ED11C40E0B801C6010E94FE0940E044
:10405000B701C6010E94FE096E0186E0C80ED11CA0
:1040600040E0B801C6010E94FE0940E0B701C60168
:104070000E94FE096E0187E0C80ED11C40E0B80125
:10408000C6010E94FE0940E0B701C6010E94FE0978
:104090006E0188E0C80ED11C40E0B801C6010E9444
:1040A000FE0940E0B701C6010E94FE0940E0B701E9
:1040B000CE010996DF91CF911F910F91FF90EF9064
:1040C000DF90CF900C94FE09CF92DF92EF92FF9297
:1040D0000F931F93CF93DF93082E000C990BAA0B1D
:1040E000BB0BFC01BD97EE32F10508F0DBC6042FD7
:1040F000C62FEA5BFF4F0C94712A10E0D0E040EF2E
:10410000B801CE010E94FE09780184E0E80EF11C9E
:104110004FE3B701CE010E94FE096E018FEFC81A6E
:10412000D80A4CE0B801C6010E94FE094CECB70168
:10413000C6010E94FE096E0182E0C80ED11C4CE04F
:10414000B801C6010E94FE0943ECB701C6010E94F6
:10415000FE092396A9C210E0D0E040E3B801CE01E9
:104160000E94FE09780184E0E80EF11C40ECB701E2
:10417000CE010E94FE096E018FEFC81AD80A4CEFDB
:10418000B801C6010E94FE094FEFB701C6010E94A7
:10419000FE096E0182E0C80ED11C40E0B801C601E4
:1041A0000E94FE0940ECB701C6010E94FE09239659
:1041B00040E0B801CE010E94FE0940E0B701CE0107
:1041C00067C610E0D0E040E3B801CE010E94FE09CE
:1041D000780184E0E80EF11C40EFB701CE010E94A7
:1041E000FE096E018FEFC81AD80A4CE0B801C6016B
:1041F0000E94FE094CECB701C6010E94FE096E0147
:1042000082E0C80ED11C4CE0B801C6010E94FE0934
:1042100043ECB701C6010E94FE092396B9C410E021
:10422000D0E040E3B801CE010E94FE09780184E0AD
:10423000E80EF11C40E3B701CE010E94FE096E01B9
:104240008FEFC81AD80A4CE0B801C6010E94FE09D7
:1042500040ECEBC010E0D0E040ECB801CE010E9491
:10426000FE09780184E0E80EF11C4FE0B701CE01B1
:104270000E94FE096E018FEFC81AD80A40E3B80108
:10428000C6010E94FE094CE0B701C6010E94FE096A
:104290006E0182E0C80ED11C4CEFB801C6010E942D
:1042A000FE094FEFB701C6010E94FE0923964CE0BC
:1042B000B701CE010E94FE0940E0B80180CF10E0B6
:1042C000D0E04CEFB801CE010E94FE09780184E0F5
:1042D000E80EF11C43ECB701CE010E94FE096E010D
:1042E0008FEFC81AD80A4CE0B801C6010E94FE0937
:1042F00043ECB701C6010E94FE096E0182E0C80EC0
:10430000D11C4CE0B801C6010E94FE0943ECB70184
:10431000C6010E94FE0923964CE005C510E0D0E0DE
:1043200040ECB801CE010E94FE09780184E0E80E5D
:10433000F11C4FE3B701CE010E94FE096E018FEF21
:10434000C81AD80A40E3B801C6010E94FE0943EC2E
:10435000B701C6010E94FE096E0182E0C80ED11CA1
:104360004CE0B801C6010E94FE0943ECB701C6014A
:104370000E94FE0923964CE0B801CE010E94FE097E
:104380004CE31CCF10E0D0E04CE3B801CE010E941A
:10439000FE096E018FEFC81AD80A4CE0B801C601B9
:1043A0000E94FE09780184E0E80EF11C4CEFB70191
:1043B000C6010E94FE096E0182E0C80ED11C4CE0CD
:1043C000B801C6010E94FE0943E0B701C6010E9480
:1043D000FE096E0183E0C80ED11C4CEFB801C60186
:1043E0000E94FE0940E0B701CE010E94FE0940E0B4
:1043F000B701C6014DC510E0D0E040EFB801CE01D5
:104400000E94FE09780184E0E80EF11C4CE3B7013C
:10441000CE010E94FE096E018FEFC81AD80A4CE047
:10442000B801C6010E94FE0943ECB701C6010E9413
:10443000FE096E0182E0C80ED11C4CE0B801C60135
:104440000E94FE0943ECB701C6010E94FE092396B3
:1044500040EF92CF10E0D0E040EFB801CE010E94D3
:10446000FE096E018FEFC81AD80A4CE0B801C601E8
:104470000E94FE09780184E0E80EF11C43ECB701CC
:10448000C6010E94FE096E0182E0C80ED11C4CE0FC
:10449000B801C6010E94FE0943ECB701C6010E94A3
:1044A000FE096E0183E0C80ED11C40EFB801C601C1
:1044B0000E94FE094FE3B701C6017DCE10E0D0E0B7
:1044C00040EFB801CE010E94FE09780184E0E80EB9
:1044D000F11C4FEFB701CE010E94FE096E018FEF74
:1044E000C81AD80A4CE0B801C6010E94FE0943E090
:1044F000B701C6010E94FE096E0182E0C80ED11C00
:104500004CE0B801C6010E94FE0943E0B701C601B4
:104510000E94FE096E0183E0C80ED11C4CE0B80178
:10452000C6010E94FE0943E0B701C6010E94FE09D0
:10453000249640EFF8C310E0D0E04CEFB801CE0174
:104540000E94FE09780184E0E80EF11C4FEFB701EC
:10455000CE010E94FE096E018FEFC81AD80A4CE006
:10456000B801C6010E94FE0943ECB701C6010E94D2
:10457000FE096E0182E0C80ED11C4CE0B801C601F4
:104580000E94FE0943ECB701C6010E94FE096E01BC
:1045900083E0C80ED11C4CE0B801C6010E94FE09A0
:1045A00043ECB701C6010E94FE09249651CF10E0EA
:1045B000D0E040EFB801CE010E94FE09780184E00E
:1045C000E80EF11C4FE3B701CE010E94FE096E0117
:1045D0008FEFC81AD80A4CE0B801C6010E94FE0944
:1045E00040ECB701C6010E94FE096E0182E0C80ED0
:1045F000D11C4CE0B801C6010E94FE0940ECB70195
:10460000C6010E94FE096E0183E0C80ED11C4CE079
:10461000B801C6010E94FE0940ECB701C6010E9424
:10462000FE09249640E3B801CE010E94FE0940E352
:10463000C5CD10E0D0E04CEFB801CE010E94FE09DC
:10464000780184E0E80EF11C4FEFB701CE010E9423
:10465000FE096E018FEFC81AD80A4CE0B801C601F6
:104660000E94FE0940ECB701C6010E94FE096E01DE
:1046700082E0C80ED11C4CE0B801C6010E94FE09C0
:1046800040ECB701C6010E94FE096E0183E0C80E2E
:10469000D11C4CE0B801C6010E94FE0940ECB701F4
:1046A000C6010E94FE09249640EFB801CE010E9487
:1046B000FE094FE383CD10E0D0E04CEFB801CE010E
:1046C0000E94FE09780184E0E80EF11C4FEFB7016B
:1046D000CE010E94FE096E018FEFC81AD80A4CE085
:1046E000B801C6010E94FE0943ECB701C6010E9451
:1046F000FE096E0182E0C80ED11C4CE0B801C60173
:104700000E94FE0943ECB701C6010E94FE096E013A
:1047100083E0C80ED11C4CE0B801C6010E94FE091E
:1047200043ECB701C6010E94FE092496AEC010E01A
:10473000D0E04CEFB801CE010E94FE09780184E080
:10474000E80EF11C4FEFB701CE010E94FE096E0189
:104750008FEFC81AD80A4CE0B801C6010E94FE09C2
:1047600043E0B701C6010E94FE096E0182E0C80E57
:10477000D11C4CE0B801C6010E94FE0943E0B7011C
:10478000C6010E94FE096E0183E0C80ED11C4CE0F8
:10479000B801C6010E94FE0943E0B701C60157C235
:1047A00010E0D0E040EFB801CE010E94FE09780190
:1047B00084E0E80EF11C4FE3B701CE010E94FE0930
:1047C0006E018FEFC81AD80A4CE0B801C6010E94EA
:1047D000FE0940ECB701C6010E94FE096E0182E0AD
:1047E000C80ED11C4CE0B801C6010E94FE0943EC82
:1047F000B701C6010E94FE096E0183E0C80ED11CFC
:104800004CE0B801C6010E94FE0943ECB701C601A5
:104810000E94FE09249640E3AFCD10E0D0E04CEFBB
:10482000B801CE010E94FE09780184E0E80EF11C77
:104830004FEFB701CE010E94FE0943E0B701CE0160
:1048400001960E94FE0943E0B701D6C010E0D0E017
:104850004CE0B801CE010E94FE09780184E0E80E28
:10486000F11C40ECB701CE010E94FE096E018FEFF2
:10487000C81AD80A4CEFB801C6010E94FE094FEFD2
:10488000B701C6010E94FE0922964CE0E8C210E082
:10489000D0E04CE0B801CE010E94FE09780184E02E
:1048A000E80EF11C40E3B701CE010E94FE096E0143
:1048B0008FEFC81AD80A4CE0B801C6010E94FE0961
:1048C00040ECB701C6010E94FE096E0182E0C80EED
:1048D000D11C4CE0B801C6010E94FE0940ECB701B2
:1048E000C6010E94FE092396D9C110E0D0E04CEF2A
:1048F000B801CE010E94FE09780184E0E80EF11CA7
:104900004FEFB701CE010E94FE096E018FEFC81A6A
:10491000D80A40E0B801C6010E94FE0943E0B70191
:10492000C6010E94FE096E0182E0C80ED11C40EC57
:10493000B801C6010E94FE094CE0B701C6010E9401
:10494000FE09239629C210E0D0E04CEFB801CE0159
:104950000E94FE090C5F1F4F4FEFB801CE010E946D
:10496000FE0940ECB801CE0101960E94FE0940EC20
:10497000B801CE0102960E94FE0940ECB801CE01BA
:1049800003960E94FE0940EC2AC210E0D0E04CEFF2
:10499000B801CE010E94FE09780184E0E80EF11C06
:1049A0004FEFB701CE010E94FE0940E3B801CE01EE
:1049B00001960E94FE0940ECB801CE0102960E94C9
:1049C000FE0940E3B801A9C110E0D0E04CEFB80106
:1049D000CE010E94FE09780184E0E80EF11C4FEF41
:1049E000B701CE010E94FE0940E3B801CE01019655
:1049F0000E94FE0940ECB801CE0102960E94FE0919
:104A000043E08AC110E0D0E040EFB801CE010E943F
:104A1000FE09780184E0E80EF11C4FE316CE10E0A9
:104A2000D0E04CEFB801CE010E94FE09780184E08D
:104A3000E80EF11C4FEFB701CE010E94FE096E0196
:104A40008FEFC81AD80A4CE0B801C6010E94FE09CF
:104A500043E0B701C6010E94FE096E0182E0C80E64
:104A6000D11C4CE0B801C6010E94FE0943E0B70129
:104A7000C6010E94FE096E0183E0C80ED11C4CE005
:104A8000B801C6010E94FE0943E0B701C6010E94B9
:104A9000FE0940EFA4C110E0D0E040EFB801CE0124
:104AA0000E94FE09780184E0E80EF11C4FE3B70193
:104AB000CE010E94FE096E018FEFC81AD80A4CE0A1
:104AC000B801C6010E94FE0940ECB701C6010E9470
:104AD000FE096E0182E0C80ED11C4CE0B801C6018F
:104AE0000E94FE094CECB701C6010E94FE096E014E
:104AF00083E0C80ED11C4CE0B801C6010E94FE093B
:104B000040E3B701C6010E94FE09249640EFB801B8
:104B1000CE010E94FE094FEC51CB10E0D0E040EFF7
:104B2000B801CE010E94FE09780184E0E80EF11C74
:104B30004FEFB701CE010E94FE096E018FEFC81A38
:104B4000D80A4CE0B801C6010E94FE0943E0B70153
:104B5000C6010E94FE096E0182E0C80ED11C4CE025
:104B6000B801C6010E94FE094FE0B701C6010E94CC
:104B7000FE096E0183E0C80ED11C4CE0B801C601ED
:104B80000E94FE0943E3B701C6010E94FE09249674
:104B900040EF65C110E0D0E040EFB801CE010E94C7
:104BA000FE09780184E0E80EF11C40ECB701CE016B
:104BB0000E94FE096E018FEFC81AD80A4CE0B801B6
:104BC000C6010E94FE0943ECB701C6010E94FE091E
:104BD0006E0182E0C80ED11C4CE0B801C6010E94F3
:104BE000FE0943ECB701C6010E94FE096E0183E095
:104BF000C80ED11C4CE0B801C6010E94FE0943EC6E
:104C0000B701C6010E94FE092496B5CB10E0D0E0A2
:104C10004CE0B801CE010E94FE094CE0B801CE0183
:104C200001960E94FE097E0182E0E80EF11C4CEF25
:104C3000B801C7010E94FE09B8016C5F7F4F4FEFBA
:104C4000C7010E94FE094CE0B801CE0103960E9404
:104C5000FE094CE0C4C010E0D0E04CEFB801CE013A
:104C60000E94FE09780184E0E80EF11C4FE3B701D1
:104C7000CE010E94FE0940ECB701CE0101960E94D0
:104C8000FE0940ECB701CE0102960E94FE0940ECFD
:104C9000B701CE0103960E94FE0924964CEF05CD84
:104CA00010E0D0E04CEFB801CE010E94FE0978017F
:104CB00084E0E80EF11C4FE0B701CE0101960E949E
:104CC000FE0940EFB701CE0102960E94FE094FE0B7
:104CD000B701CE0103960E94FE094CEF80C010E0A0
:104CE000D0E04CEFB801CE010E94FE09780184E0CB
:104CF000E80EF11C4FEFB701CE010E94FE0940E320
:104D0000B701CE0101960E94FE094CE0B701CE0129
:104D100002960E94FE0940E3B701CE0103960E946D
:104D2000FE0924964CEFB801CE010E94FE094FEF18
:104D300045CA10E0D0E04CE3B801CE010E94FE0964
:104D4000780184E0E80EF11C40EFB701CE010E942B
:104D5000FE096E018FEFC81AD80A40ECB801C601EF
:104D60000E94FE094CE0B701C6010E94FE0943E023
:104D7000B701CE0102960E94FE096E0183E0C80EC3
:104D8000D11C40ECB801C6010E94FE094CE0B701FD
:104D9000C6010E94FE0924964CE3B801CE010E9490
:104DA000FE0940EF0BCA10E0D0E04CE3B801CE01A1
:104DB0000E94FE0940ECB801CE0101960E94FE0956
:104DC000B8016C5F7F4F4FEFCE0102960E94FE0943
:104DD00040ECB801CE0103960E94FE094CE3B801F5
:104DE000CE01049655C010E0D0E04CE0B801CE01F1
:104DF0000E94FE09780184E0E80EF11C40EFB70143
:104E0000CE010E94FE096E018FEFC81AD80A4CE04D
:104E1000B801C6010E94FE094CECB701C6010E9410
:104E2000FE096E0182E0C80ED11C4CE0B801C6013B
:104E30000E94FE0943ECB701C6010E94FE096E0103
:104E400083E0C80ED11C4CECB801C6010E94FE09DB
:104E500040ECB701C6010E94FE0924964CE3B8015C
:104E6000CE010E94FE0940ECA9C910E00C5F1F4F63
:104E7000D0E043E0B801CE010E94FE0943E0B80152
:104E8000CE0101960E94FE0943E0B801CE010296D0
:104E9000DF91CF911F910F91FF90EF90DF90CF9016
:104EA0000C94FE09DF91CF911F910F91FF90EF902D
:104EB000DF90CF900895AF92BF92CF92DF92EF92A2
:104EC000FF920F931F93CF93DF93C0E0D0E0E62EC5
:104ED000660FFF08C82E880FDD0800E010E05701BC
:104EE000AC0EBD1E40E0B501C601800F911F0E94AF
:104EF000FE090F5F1F4F003A1105A1F72496C03439
:104F0000D10559F7DF91CF911F910F91FF90EF904D
:104F1000DF90CF90BF90AF900895FF920F931F93B3
:104F2000CF93DF93C82F880FDD0B669685E0F82EB0
:104F3000062F660F110B0C5E1F4F4FEFB801CE010D
:104F40000E94FE09FA942196F110F7CFDF91CF91DC
:104F50001F910F91FF9008957F928F929F92AF9231
:104F6000BF92CF92DF92EF92FF920F931F93CF9356
:104F7000DF93062F10E0C82FD0E040E3B801CE0148
:104F80000B960E94FE0940E3B801CE010C960E94E8
:104F9000FE095E018DE0A80EB11C40EFB801C5010D
:104FA0000E94FE09780184E0E80EF11C470133E01D
:104FB000D32E4FEFB401C5010E94FE09DA9484E0BC
:104FC000880E911CD110F5CF680180E1C80ED11C6C
:104FD0004FE0B601C5010E94FE095E018EE0A80EF9
:104FE000B11C40EFB801C5010E94FE09470123E052
:104FF000722E4FEFB401C5010E94FE097A9484E03D
:10500000880E911C7110F5CF4E018FE0880E911C17
:1050100040EFB801C4010E94FE0993E0B92E4FEFA2
:10502000B701C4010E94FE09BA9484E0E80EF11CA5
:10503000B110F5CF60965E0184E0F82E40E3B80130
:10504000C5010E94FE09FA948FEFA81AB80AF11060
:10505000F5CF14E04CE0B601CE010E94FE091150DC
:1050600021961111F7CFDF91CF911F910F91FF90F2
:10507000EF90DF90CF90BF90AF909F908F907F90F8
:105080000895E4EAF2E086EF9FEF918380839383B3
:1050900082831582148287EF9FEF9783868391879F
:1050A00080871386128688EF9FEF9587848797877E
:1050B0008687118A108A08958091A4029091A50292
:1050C0002091AA023091AB02281739071CF09C01ED
:1050D00080E001C081E04091B0025091B1024217DE
:1050E00053070CF482E00895EF92FF920F931F9301
:1050F000CF93DF9300D000D01F92CDB7DEB74983A6
:105100005A836B837C838D8379010E94D72A64E65E
:1051100070E00E943B2A8436910530F4FC01E05A8D
:10512000FE4F008110E002C000E010E00E945C2809
:105130002B813C812850310946E08402C0011124B2
:10514000FC01EC55FD4F6D8170E0C7010E943B2AC8
:1051500049815A81840F951F9183808333832283F1
:10516000158304830F900F900F900F900F90DF9195
:10517000CF911F910F91FF90EF900895E6EBF2E031
:1051800090E041E050E880E0648120813181260F89
:10519000311D4217530714F4A901892F35969F5FDB
:1051A000933091F70895E6EBF2E090E04FEF5FE780
:1051B00080E0648120813181260F311D241735075D
:1051C00014F4A901892F35969F5F933091F70895C4
:1051D00085E0E1E5F1E0A6EBB2E001900D928A9561
:1051E000E1F785E0E6E5F1E0ABEBB2E001900D928E
:1051F0008A95E1F785E0EBE5F1E0A0ECB2E0019003
:105200000D928A95E1F70895DF92EF92FF920F9346
:105210001F93CF93DF93CDB7DEB72F970FB6F894D8
:10522000DEBF0FBECDBF4B875C878F87D22E0E941B
:10523000D72A60E074E00E943B2A9C01780144E098
:10524000EE0CFF1C4A95E1F76D2D70E06F5F7F4F0C
:105250000E943B2A02969FE0899FD02C1124B8011E
:1052600055E0660F771F5A95E1F76F5F7F4F6E1914
:105270007F09C9010E943B2AE80EF91E4F858B85E4
:105280009C85840F911DE80EF91EC90163E170E051
:105290000E943B2A8C010C5F1F4F000F111F000F53
:1052A000111FC9016FE070E00E943B2A81110BC001
:1052B0004E2DFF82EE82602F198708875F817985E6
:1052C0008D2D0E947428FA82E9821C830B832E2D77
:1052D0003A81402F5C816D2D70E080E090E02F9648
:1052E0000FB6F894DEBF0FBECDBFDF91CF911F91F7
:1052F0000F91FF90EF90DF900895CF92DF92EF92A1
:10530000FF920F931F93CF93DF936C01F62E8A01C8
:105310000E94D32895E0E92EE89EC0011124EC01FB
:10532000CA54DD4F2C8188819981820F911D25E01F
:10533000C21AD1088C159D05ACF40E94BE28E89EC7
:10534000C0011124FC01EA54FD4F2F2D40815181F1
:105350006281738184810E940429288339834A836E
:105360005B836C83DF91CF911F910F91FF90EF9042
:10537000DF90CF900895AB01BC0180E090E00C94E9
:10538000D52D80E090E00C94CF2D0E94B10780E5F0
:105390000E9451082FEF83ED90E321508040904010
:1053A000E1F700C000008AE00E9451082FEF83ED72
:1053B00090E3215080409040E1F700C000000E943F
:1053C000E2092FEF83ED90E3215080409040E1F718
:1053D00000C000000E9405090E94AA0B8CE3809384
:1053E00009018CE280930801609108018091090114
:1053F0000E94341F83E090E09093010180930001AC
:1054000082E2882E912CA12CB12CC0E30E943A0894
:10541000A50194010E944F2A672B682B692BA1F4E8
:105420008091000190910101029711F40E944D07B3
:105430000E942F048091000190910101892B21F499
:105440000E940D030E94A606C0909B02D0909C0271
:10545000E0909D02F0909E020E943A0826E9C20E5A
:10546000D11CE11CF11C6C157D058E059F0570F2A9
:10547000C0931101CBCF97FB072E16F4009407D0F1
:1054800077FD09D00E94772A07FC05D03EF490955D
:1054900081959F4F0895709561957F4F0895A1E282
:1054A0001A2EAA1BBB1BFD010DC0AA1FBB1FEE1F9E
:1054B000FF1FA217B307E407F50720F0A21BB30BE9
:1054C000E40BF50B661F771F881F991F1A9469F765
:1054D00060957095809590959B01AC01BD01CF01C1
:1054E0000895EE0FFF1F0590F491E02D0994AA1B7B
:1054F000BB1B51E107C0AA1FBB1FA617B70710F0BF
:10550000A61BB70B881F991F5A95A9F780959095F0
:10551000BC01CD0108958F929F92AF92BF92CF921E
:10552000DF92EF92FF92CF93DF93EC016881798154
:105530008A819B81611571058105910521F464E2E1
:1055400079ED8BE597E02DE133EF41E050E00E94EB
:10555000002E49015A019B01AC01A7EAB1E40E9467
:105560001F2E6B017C01ACEEB4EFA50194010E94EB
:105570002D2EDC01CB018C0D9D1DAE1DBF1DB7FF77
:1055800003C00197A109B04888839983AA83BB838C
:105590009F77DF91CF91FF90EF90DF90CF90BF90FA
:1055A000AF909F908F9008950E948B2A089582E17A
:1055B00091E00E948B2A0895A0E0B0E08093120150
:1055C00090931301A0931401B09315010895BB2784
:1055D0004A3031F4992322F4BDE2909581959F4F92
:1055E0000C94F32ABB27FB015527AA27880F991F84
:1055F000AA1FA41710F0A41B83955051B9F7A05D02
:10560000AA3308F0A95DA193009779F7B111B1937E
:105610001192CB010C94252DAEE0B0E0E2E1FBE26B
:105620000C94402E0D891E8986E08C831A83098391
:105630008FEF9FE79E838D83AE01475E5F4F6F893B
:10564000788DCE0101960E942E2BEF81F885E00F18
:10565000F11F10822E96E4E00C945C2EABE0B0E0DB
:10566000E4E3FBE20C94322E6C017B018A01FC0125
:1056700017821682838181FFCCC1CE0101963C0145
:10568000F6019381F70193FD859193FF81917F014D
:10569000882309F4BAC1853239F493FD859193FFCB
:1056A00081917F01853229F4B60190E00E94352D69
:1056B000E7CF912C212C312CFFE1F315D8F08B3260
:1056C00079F038F4803279F08332A1F4232D20610F
:1056D0001DC08D3261F0803369F4232D216016C026
:1056E000832D8260382EE32DE4603E2E2AC0F32DF8
:1056F000F8601DC037FC2DC020ED280F2A3040F087
:105700008E32B9F436FC81C1232D2064322E19C0AB
:1057100036FE06C08AE0989E200D1124922E11C0FC
:10572000EAE02E9E200D1124222EF32DF0623F2E52
:1057300008C08C3621F4832D8068382E02C088364C
:1057400041F4F70193FD859193FF81917F018111D0
:10575000B3CF982F9F7D9554933028F40C5F1F4F43
:105760009FE399830DC0833631F0833771F0833521
:1057700009F059C021C0F801808189830E5F1F4F55
:1057800088248394912C530113C02801F2E04F0E1A
:10579000511CF801A080B18036FE03C0692D70E075
:1057A00002C06FEF7FEFC5010E941A2D4C018201EC
:1057B000F32DFF773F2E16C0280122E0420E511C28
:1057C000F801A080B18036FE03C0692D70E002C0F0
:1057D0006FEF7FEFC5010E940F2D4C01F32DF06894
:1057E0003F2E820133FC1BC0822D90E08816990663
:1057F000B0F4B60180E290E00E94352D2A94F4CFF7
:10580000F50137FC859137FE81915F01B60190E08B
:105810000E94352D21102A9421E0821A91088114CA
:10582000910471F7E8C0843611F0893641F5F8012A
:1058300037FE07C060817181828193810C5F1F4FA9
:1058400008C060817181072E000C880B990B0E5FD8
:105850001F4FF32DFF763F2E97FF09C0909580953F
:10586000709561957F4F8F4F9F4FF0683F2E2AE0D4
:1058700030E0A3010E94712D882E861845C085371F
:1058800031F4232D2F7EB22E2AE030E025C0932D57
:10589000997FB92E8F36C1F018F4883579F0B5C0EC
:1058A000803719F0883721F0B0C0E92FE061BE2EB3
:1058B000B4FE0DC0FB2DF460BF2E09C034FE0AC03B
:1058C000292F2660B22E06C028E030E005C020E176
:1058D00030E002C020E132E0F801B7FE07C060818D
:1058E0007181828193810C5F1F4F06C0608171813D
:1058F00080E090E00E5F1F4FA3010E94712D882E63
:105900008618FB2DFF773F2E36FE0DC0232D2E7FF0
:10591000A22E891458F434FE0BC032FC09C0832D2A
:105920008E7EA82E05C0B82CA32C03C0B82C01C0B5
:10593000B92CA4FE0FC0FE01E80DF11D808180335B
:1059400021F49A2D997EA92E09C0A2FE06C0B39417
:10595000B39404C08A2D867809F0B394A3FC11C0D7
:10596000A0FE06C0B21488F4280C922C9B180EC01E
:10597000B21460F4B60180E290E00E94352DB39439
:10598000F7CFB21418F42B1802C0982C212CA4FEC7
:1059900010C0B60180E390E00E94352DA2FE17C032
:1059A000A1FC03C088E790E002C088E590E0B60162
:1059B0000CC08A2D867859F0A1FE02C08BE201C08E
:1059C00080E2A7FC8DE2B60190E00E94352D89149B
:1059D00038F4B60180E390E00E94352D9A94F7CF19
:1059E0008A94F301E80DF11D8081B60190E00E94D8
:1059F000352D8110F5CF222009F442CEB60180E288
:105A000090E00E94352D2A94F6CFF6018681978189
:105A100002C08FEF9FEF2B96E2E10C944E2EFC011B
:105A20000590615070400110D8F7809590958E0FC9
:105A30009F1F0895FC016150704001900110D8F73C
:105A4000809590958E0F9F1F0895DC01FC01672FB4
:105A500071917723E1F7329704C07C916D93708345
:105A60006291AE17BF07C8F308950F931F93CF93AA
:105A7000DF93FB01238121FD03C08FEF9FEF2CC03B
:105A800022FF16C046815781248135814217530772
:105A900044F4A081B1819D012F5F3F4F318320836A
:105AA0008C93268137812F5F3F4F3783268314C025
:105AB0008B01EC01FB010084F185E02D0995892B18
:105AC000E1F6D80116968D919C911797019617963D
:105AD0009C938E931697CE01DF91CF911F910F91DA
