:100000000C9434000C9451000C9451000C94510049
:100010000C9451000C9451000C9451000C94C401A8
:100020000C9451000C9451000C9451000C9451000C
:100030000C9451000C9451000C9451000C945100FC
:100040000C9451000C9451000C9451000C945100EC
:100050000C9451000C9451000C9451000C945100DC
:100060000C9451000C94510011241FBECFEFD8E026
:10007000DEBFCDBF11E0A0E0B1E0E0E3F7E002C0F9
:1000800005900D92A430B107D9F722E0A4E0B1E0C9
:1000900001C01D92AC33B207E1F70E94F5020C9447
:1000A00096030C9400000F931F93CF93DF93803A35
:1000B00008F04CC0653608F049C0162FC82FD62F5F
:1000C000D695D69529F040E06FEF6D0F0E94D802CB
:1000D00040E06D2F8C2F0E94D80201E00D0F40E010
:1000E000602F8C2F0E94D802612F637079F4DD237A
:1000F00031F040E06FEF6D0F8C2F0E94D8024FEF70
:100100006D2F8C2F0E94D80240E018C0613039F466
:100110004CEF6D2F8C2F0E94D80243E00FC062304D
:1001200039F440EF6D2F8C2F0E94D8024FE006C0AB
:1001300040EC6D2F8C2F0E94D8024FE3602F8C2F44
:10014000DF91CF911F910F910C94D802DF91CF9145
:100150001F910F91089580910001803309F08CC0A8
:1001600035990DC081E3809300010E94E9016093FD
:10017000040170930501809306019093070134995F
:100180000DC081E3809300010E94E90160930401A6
:100190007093050180930601909307014A9912C05C
:1001A00081E3809300010E94E90160930401709350
:1001B0000501809306019093070180910901815008
:1001C000809309014B9912C081E3809300010E9442
:1001D000E9016093040170930501809306019093F7
:1001E0000701809109018F5F809309014D9912C029
:1001F00081E3809300010E94E90160930401709300
:1002000005018093060190930701809108018F5F9B
:10021000809308014C9912C081E3809300010E94F1
:10022000E9016093040170930501809306019093A6
:100230000701809108018150809308014E990DC0FB
:1002400081E3809300010E94E901609304017093AF
:10025000050180930601909307014F990DC081E33A
:10026000809300010E94E9016093040170930501ED
:100270008093060190930701089560910901809190
:1002800008010C945300089508958CE091E0909338
:100290000B0180930A0184E690E0209101013091E6
:1002A000020140910301E0910A01F0910B012193B9
:1002B00031934193F0930B01E0930A01019769F7A1
:1002C0008CE091E090930B0180930A0108950E94C5
:1002D000F40180E00E947E010E94B2018AB1837025
:1002E0008AB98BB18C6F8BB987B18F7C87B988B194
:1002F000806388B90E9462020C94450197B121E0A5
:1003000030E0082E01C0220F0A94EAF72095292335
:1003100027B997E890937A00806480937C0080915D
:100320007A00806480937A0080917A0086FDFCCF09
:10033000089590917C00907F90937C0090917C0038
:100340008F70982B90937C0080917A0080648093CA
:100350007A0080917A0086FDFCCF809178009091A0
:10036000790008951092B20082E08093B00085E099
:100370008093B1008DE78093B300E0E7F0E08081E7
:1003800082608083789408951F920F920FB60F9227
:1003900011248F939F93AF93BF93809138029091D4
:1003A0003902A0913A02B0913B020196A11DB11D04
:1003B0008093380290933902A0933A02B0933B02A3
:1003C000BF91AF919F918F910F900FBE0F901F9093
:1003D0001895F894609138027091390280913A0230
:1003E00090913B0278940895E1ECF0E0808188617F
:1003F000808387E690E09093C5008093C4000895C1
:100400009091C00095FFFCCF8093C60080E090E003
:100410000895CF93DF93EC018991882319F00E940E
:100420000002FACFDF91CF9108951F93CF93DF930E
:10043000EC01FE011491812F0E940002112311F0A2
:100440002196F7CFDF91CF911F910895CF93DF933E
:10045000CDB7DEB72A970FB6F894DEBF0FBECDBF7B
:100460004AE0BE016F5F7F4F0E946103CE0101969B
:100470000E9409022A960FB6F894DEBF0FBECDBFC8
:10048000DF91CF9108958091C00087FFFCCF8091CC
:10049000C60008956111299A27E030E090E02D9878
:1004A000AC01022E02C0559547950A94E2F740FF31
:1004B00002C02B9A01C02B982D9A2150310978F750
:1004C00029980895CF93DF93259A239A249A219A05
:1004D000209A2C9A29982D98289A85E38A95F1F7E5
:1004E0000000289860E081EF0E944A0260E087E601
:1004F0000E944A0260E086EC0E944A0260E080E4CA
:100500000E944A0260E080E50E944A0260E08BE2BD
:100510000E944A0260E08BEE0E944A0260E081E89D
:100520000E944A0260E08FE50E944A0260E089E88A
:100530000E944A02C0E4D0E161E080E00E944A02E9
:100540002197D1F760E080E00E944A0260E080E1FC
:100550000E944A0260E080E60E944A0260E08FEA60
:10056000DF91CF910C944A02CF93DF9360E080E05B
:100570000E944A0260E080E10E944A0260E080E658
:100580000E944A02C0E4D0E161E080E00E944A0299
:100590002197D1F760E080E00E944A0260E080E1AC
:1005A0000E944A0260E080E6DF91CF910C944A02FB
:1005B0001F93CF93DF93C82F162FD42F60E08F7037
:1005C0000E944A028C2F82958F7060E0805F0E94AB
:1005D0004A0260E080E6810F0E944A0261E08D2FAE
:1005E000DF91CF911F910C944A020E94670180E530
:1005F0000E9400022FEF83ED90E321508040904055
:10060000E1F700C000008AE00E9400022FEF83EDB6
:1006100090E3215080409040E1F700C0000088E264
:10062000809308018093090182E2882E912CA12CED
:10063000B12CC0E30E94E901A50194010E943F038F
:10064000672B682B692B21F40E94AB000E943D01AF
:10065000C0900401D0900501E0900601F0900701E0
:100660000E94E90126E9C20ED11CE11CF11C6C15A7
:100670007D058E059F05F0F2C0930001DBCFA1E25E
:100680001A2EAA1BBB1BFD010DC0AA1FBB1FEE1F0C
:10069000FF1FA217B307E407F50720F0A21BB30B57
:1006A000E40BF50B661F771F881F991F1A9469F7D3
:1006B00060957095809590959B01AC01BD01CF012F
:1006C0000895BB274A3031F4992322F4BDE2909576
:1006D00081959F4F0C946D03BB27FB015527AA27DB
:1006E000880F991FAA1FA41710F0A41B83955051BF
:1006F000B9F7A05DAA3308F0A95DA193009779F737
:10070000B111B1931192CB010C948603DC01FC0171
:10071000672F71917723E1F7329704C07C916D9335
:1007200070836291AE17BF07C8F30895F894FFCFA6
:0407300030FFFFFF98
:00000001FF
