:100000000C946F000C948C000C948C000C948C005D
:100010000C948C000C948C000C948C000C94A20713
:100020000C948C000C948C000C948C000C948C0020
:100030000C948C000C948C000C948C000C948C0010
:100040000C948C000C948C000C948C000C948C0000
:100050000C948C000C948C000C948C000C948C00F0
:100060000C948C000C948C0022023402D002D80232
:10007000E0024702370261027E022E0A400A520A5B
:10008000640A760A880A9A0AAC0ABE0AD51F0320B7
:10009000342062207D20B220E1200F2148217721E9
:1000A0009325932593259325932593259325AE2179
:1000B000EB212722692276229325B222EF22082300
:1000C00093252923572379239823B623F3239325B4
:1000D0002F247124B324D824022524254E2511244D
:1000E0001FBECFEFD8E0DEBFCDBF12E0A0E0B1E091
:1000F000ECE8FDE702C005900D92AA38B107D9F7E8
:1001000022E0AAE8B2E001C01D92A93CB207E1F7E3
:100110000E94263A0C94C43E0C94000084E00E9495
:10012000DE078091040181508093040182E090E019
:100130009093010180930001089580919502909120
:100140009602883893410CF450C0E6EBF2E020911F
:1001500095023091960280819181821B930B91834D
:100160008083359682E0E53CF80789F7E4EAF2E01F
:10017000209195023091960280819181821B930B90
:1001800091838083369622E0E63BF20789F785E08B
:1001900090E090930D0180930C01109296021092C2
:1001A000950283E090E09093030180930201809197
:1001B000070187FF05C080910701815080930701E7
:1001C000809105019091060108977CF480910501CA
:1001D000909106010196909306018093050180910C
:1001E0000501909106010C94110B08958091100166
:1001F00018168CF481E090E0909303018093020143
:100200001092940280910E018093A30280911001BC
:10021000815080931001089580910F01181684F485
:1002200082E090E0909303018093020188EF809335
:1002300094021092A30280910F01815080930F01CC
:100240000895AF92CF92EF92FF920F931F93F80110
:10025000EC0DF11D8E179F07A4F4840F911D081754
:1002600019077CF4C7018A0D911D681779074CF4B2
:10027000620F711D81E090E0E616F70624F080E041
:1002800002C080E090E01F910F91FF90EF90CF901F
:10029000AF900895AF92CF92EF92FF920F931F937A
:1002A000CF93DF93C6EBD2E06091970270919802F2
:1002B0008091950290919602EA80FB8008811981D5
:1002C000605F7F4F28E0A22ECC8021E048E00E94B2
:1002D0002101009731F4259622E0C53CD20721F791
:1002E00002C081E090E0DF91CF911F910F91FF90CC
:1002F000EF90CF90AF9008958F929F92AF92CF9250
:10030000EF92FF920F931F93CF93DF9336EB832EE1
:1003100032E0932EF401C281D381609197027091F3
:10032000980280919502909196020081118128E0B7
:10033000A22EC4807E0120E140E10E942101892B90
:1003400031F180910A0190910B010F968C179D0756
:1003500054F46097D0939802C093970210920301CF
:100360001092020114C080910A0190910B019E012C
:10037000295F3F4F2817390744F42896D0939802F5
:10038000C09397021092940202C00E948E00F5E082
:100390008F0E911C85EC881682E0980609F0BACF82
:1003A000DF91CF911F910F91FF90EF90CF90AF9081
:1003B0009F908F9008952F923F924F925F926F92ED
:1003C0007F928F929F92AF92BF92CF92DF92EF92E5
:1003D000FF920F931F93CF93DF93C4EAD2E04CE9CF
:1003E000842E99249A9453E0252E312C62E0662EB7
:1003F000712C44244394512CE4E1DE2EF2E3BF2E11
:100400006091970270919802809195029091960266
:10041000EA80FB800881198128E0A22E38E0C32EF3
:1004200020E140E10E942101892B09F4E2C0EC8126
:10043000FD813197E930F10508F0C9C0EC5CFF4F50
:100440000C94BD3A85E00E94DE078091040185305E
:1004500008F0BDC0809104018F5F809304018091FA
:1004600004010E94060CB3C00E948E00B0C086E05A
:100470000E94DE07809105019091060108970CF01B
:10048000A6C0809105019091060101960FC085E0FC
:100490000E94DE07809105019091060102970CF001
:1004A00096C08091050190910601019790930601F5
:1004B0008093050180910501909106010E94110B26
:1004C00086C085E00E94DE0740910501509106013B
:1004D0008091900290919102A0919202B09193022A
:1004E000B49E9001B59E300D1124A901330F660B07
:1004F000770B840F951FA61FB71F3FC086E00E9491
:10050000DE07209105013091060140919002509143
:1005100091026091920270919302D29EC001D39E8B
:10052000900D1124092E000CAA0BBB0B8417950704
:10053000A607B70748F0109290021092910210920D
:1005400092021092930221C0409105015091060140
:100550008091900290919102A0919202B0919302A9
:10056000D49E9001D59E300D1124A901330F660B46
:10057000770B841B950BA60BB70B8093900290937F
:100580009102A0939202B0939302609190027091B5
:10059000910280919202909193020E94E10A17C009
:1005A00085E00E94DE0750928B0240928A020FC0C3
:1005B00085E00E94DE0770928B0260928A0207C07B
:1005C00085E00E94DE0730928B0220928A021D8213
:1005D0001C8220910C0130910D016A817B81888100
:1005E0009981820F931F0E945E1E998288829B824E
:1005F0008A82269682E0C63BD80709F001CFDF91B8
:10060000CF911F910F91FF90EF90DF90CF90BF900F
:10061000AF909F908F907F906F905F904F903F90A2
:100620002F90089580919702909198028E369105AF
:1006300014F00E948E000E949D008091970290917C
:10064000980290930B0180930A01809195029091FA
:10065000960290939A0280939902409105015091DD
:1006600006016091070180919502909196020E9487
:10067000DE390E94DB018091020190910301892BF8
:1006800081F580918A0290918B028130910579F0F9
:1006900050F08230910591F00397C9F483E0809384
:1006A0000F0182E00FC082E080930F010BC082E057
:1006B00080930F018093100188E107C082E080934E
:1006C0000F0183E08093100184E180930E010E946A
:1006D0004A01892B31F483E090E0909303018093E9
:1006E00002018091020190910301029741F483E09D
:1006F00090E090930301809302010E947C0180911D
:10070000A30218168CF580910201909103010197C4
:1007100059F520910501309106018091A302821BB9
:100720008093A3028091050190910601209195028A
:1007300030919602880F991F820F931F9093960213
:1007400080939502209105013091060180910C0162
:1007500090910D01220F331F821B930B90930D017B
:1007600080930C010E947C018091A302181684F0F2
:100770008091020190910301019751F40E944A0176
:10078000892B31F483E090E0909303018093020180
:1007900080910201909103010397C9F42091940282
:1007A0008091970290919802820F911D27FD9A9552
:1007B00090939802809397028091940285302CF454
:1007C000809194028F5F809394020E947C018091BB
:1007D00095029091960264E670E00E94873A892B18
:1007E00031F5809105019091060140919002509160
:1007F00091026091920270919302092E000CAA0B53
:10080000BB0B840F951FA61FB71F80939002909378
:100810009102A0939202B093930260919002709122
:10082000910280919202909193020E94E10A20919C
:100830000501309106018091950290919602820FF8
:10084000931F909396028093950220910501309119
:10085000060180910C0190910D01821B930B9093E6
:100860000D0180930C01089580911101803309F0EE
:10087000ECC180910001909101018330910569F0F4
:1008800020F4892B09F44EC18CC18430910509F400
:10089000A6C0059709F430C184C14B9928C081E0F6
:1008A0000E94DE0781E3809311010E94C7076093D5
:1008B0009B0270939C0280939D0290939E02609194
:1008C0000801809109010E94241F8091080190E095
:1008D000CD9724F480910801885F01C08CE2809359
:1008E000080160910801809109010E948C1E4A99BB
:1008F00028C081E00E94DE0781E3809311010E94FD
:10090000C70760939B0270939C0280939D02909313
:100910009E0260910801809109010E94241F80912C
:10092000080190E0C49724F080910801885001C02C
:1009300084E48093080160910801809109010E947C
:100940008C1E4F9982C184E00E94DE0781E3809370
:1009500011010E94C70760939B0270939C028093D1
:100960009D0290939E02809108018C3249F482E0AE
:1009700090E0909301018093000180E00E94DE07E7
:1009800080910801843361F486E00E94DE0760E014
:1009900070E0CB010E941C3A0E94223A0E94E10AB8
:1009A000809108018C3389F40E94630B84E090E00D
:1009B000909301018093000184E38093080160918A
:1009C0000801809109010E948C1E809108018434E5
:1009D00009F03BC10E94850B85E090E02AC14B994C
:1009E00028C081E00E94DE0781E3809311010E940C
:1009F000C70760939B0270939C0280939D02909323
:100A00009E0260910801809109010E94241F80913B
:100A1000080190E0C59724F480910801885F01C027
:100A20008CE28093080160910801809109010E9485
:100A30008C1E4A9928C081E00E94DE0781E38093E2
:100A400011010E94C70760939B0270939C028093E0
:100A50009D0290939E0260910801809109010E947D
:100A6000241F8091080190E0C49724F08091080130
:100A7000885001C08CE38093080160910801809147
:100A800009010E948C1E4F99E0C084E00E94DE079D
:100A900081E3809311010E94C70760939B027093CA
:100AA0009C0280939D0290939E02809108018C325B
:100AB00049F482E090E0909306018093050184E080
:100AC0008093070180910801843349F484E090E029
:100AD000909306018093050182E080930701809145
:100AE00008018C3371F486E090E0909306018093C6
:100AF00005011092070105C04F99A7C084E00E942C
:100B0000DE0783E090E090930101809300010E9452
:100B1000370B8CE2809308016091080180910901F4
:100B20000C948C1E4E9912C081E00E94DE0781E376
:100B3000809311010E940C010E94C70760939B02E1
:100B400070939C0280939D0290939E024F9912C0D5
:100B500082E00E94DE0781E3809311010E94F6008B
:100B60000E94C70760939B0270939C0280939D0232
:100B700090939E02349969C081E3809311010E9491
:100B8000C70760939B0270939C0280939D02909391
:100B90009E0281E090E090930101809300018FEF2D
:100BA00052C035992FC088E00E94DE0781E3809310
:100BB00011010E94C70760939B0270939C0280936F
:100BC0009D0290939E0283E00E94DE0783E090E006
:100BD0009093010180930001109290021092910273
:100BE00010929202109293020E94370B8CE3809332
:100BF00009018CE28093080160910801809109014C
:100C00000E948C1E349921C081E3809311010E94BF
:100C1000C70760939B0270939C0280939D02909300
:100C20009E028091000190910101892B39F481E0AD
:100C300090E09093010180930001089510920101CA
:100C40001092000180E00C94BC1708950F931F933D
:100C500060919502709196022091990230919A02CA
:100C600080910C0190910D01621B730B0E94710C1D
:100C700060919502709196022091990230919A02AA
:100C800080910C0190910D01621B730B0E94440C2A
:100C9000809102019091030140910A0150910B0152
:100CA0006091970270919802019731F000918A0249
:100CB00010918B0220E303C004E010E021E385E003
:100CC00090E00E94D3081F910F9108950F931F93F6
:100CD00083E090E0909301018093000180930401F0
:100CE00084E090E0909306018093050182E0809378
:100CF000070110928B0210928A020E94920844E32C
:100D000064E384EC91E00E941D090E94223A009164
:100D100090021091910220919202309193026017FB
:100D2000710782079307A0F488E00E94DE0744E47D
:100D30006CE28EEC91E00E941D096091900270912E
:100D4000910280919202909193020E941C3A03C0FA
:100D500087E00E94DE07109290021092910210929A
:100D60009202109293022FEF87EA91E62150804081
:100D70009040E1F700C0000083E090E09093010113
:100D8000809300010E94370B8CE3809309018CE271
:100D90008093080160910801809109011F910F91D2
:100DA0000C948C1E0F931F93CF93DF9380910401BB
:100DB000882321F080910401873048F00E94660664
:100DC00083E0DF91CF911F910F910C94DE070E9479
:100DD00092080E9449390E94A238809104010E9421
:100DE000060C609190027091910280919202909114
:100DF00093020E94E10A80910501909106010E94F0
:100E0000110B85E090E090930D0180930C0180918F
:100E10000C0190910D010E94280CC1E0D0E0D0930C
:100E20000B01C0930A0140910A0150910B010091FE
:100E30008A0210918B0220E360E070E085E090E090
:100E40000E94D3088FEF0E94BC1710929602109256
:100E5000950210929802109297021092940283E0E9
:100E600090E09093030180930201D0930101C0931D
:100E70000001DF91CF911F910F9108950E94D20739
:100E800084E00E945C0784E00E9477070E94283B70
:100E90000E9490078AB183708AB98BB18C6F8BB92D
:100EA00087B18F7C87B988B1806388B90E94400878
:100EB0000E9449390C94A23897B121E030E0082E05
:100EC00001C0220F0A94EAF72095292327B997E851
:100ED00090937A00806480937C0080917A00806493
:100EE00080937A0080917A0086FDFCCF08959091DE
:100EF0007C00907F90937C0090917C008F70982B69
:100F000090937C0080917A00806480937A00809135
:100F10007A0086FDFCCF8091780090917900089549
:100F20001092B20082E08093B00085E08093B1001F
:100F30008DE78093B300E0E7F0E0808182608083FA
:100F4000789408951F920F920FB60F9211248F93E9
:100F50009F93AF93BF938091C5029091C602A091D9
:100F6000C702B091C8020196A11DB11D8093C502B0
:100F70009093C602A093C702B093C802BF91AF91ED
:100F80009F918F910F900FBE0F901F901895F8941E
:100F90006091C5027091C6028091C7029091C8020B
:100FA00078940895E1ECF0E080818861808387E6A1
:100FB00090E09093C5008093C40008959091C00084
:100FC00095FFFCCF8093C60080E090E00895CF931A
:100FD000DF93EC018991882319F00E94DE07FACF94
:100FE000DF91CF9108951F93CF93DF93EC01FE0122
:100FF0001491812F0E94DE07112311F02196F7CF63
:10100000DF91CF911F910895CF93DF93CDB7DEB7D6
:101010002A970FB6F894DEBF0FBECDBF4AE0BE01DF
:101020006F5F7F4F0E94333BCE0101960E94E7071E
:101030002A960FB6F894DEBF0FBECDBFDF91CF91D9
:1010400008958091C00087FFFCCF8091C60008956D
:101050006111299A27E030E090E02D98AC01022E32
:1010600002C0559547950A94E2F740FF02C02B9ABB
:1010700001C02B982D9A2150310978F729980895AD
:10108000CF93DF93259A239A249A219A209A2C9A17
:1010900029982D98289A85E38A95F1F700002898D9
:1010A00060E081EF0E94280860E087E60E9428083F
:1010B00060E086EC0E94280860E080E40E94280836
:1010C00060E080E50E94280860E08BE20E9428082A
:1010D00060E08BEE0E94280860E081E80E9428080A
:1010E00060E08FE50E94280860E089E80E942808F7
:1010F000C0E4D0E161E080E00E9428082197D1F7A8
:1011000060E080E00E94280860E080E10E942808FA
:1011100060E080E60E94280860E08FEADF91CF91CE
:101120000C942808CF93DF9360E080E00E942808A9
:1011300060E080E10E94280860E080E60E942808C4
:10114000C0E4D0E161E080E00E9428082197D1F757
:1011500060E080E00E94280860E080E10E942808AA
:1011600060E080E6DF91CF910C9428081F93CF9325
:10117000DF93C82F162FD42F60E08F700E942808AD
:101180008C2F82958F7060E0805F0E94280860E05D
:1011900080E6810F0E94280861E08D2FDF91CF91BA
:1011A0001F910C9428080F931F93CF93DF93C82FA0
:1011B000D62FBA010E94920C0230110501F168F499
:1011C00001151105A9F00130110531F540919F027B
:1011D0006D2F8C2F0E94B3131FC003301105B1F087
:1011E00004301105C9F46D2F8C2F0E94B70C14C068
:1011F00040919F026D2F8C2F0E94270E0DC04091B1
:101200009F026D2F8C2F0E94C10F06C040919F023C
:101210006D2F8C2F0E94AB1180919F028D3018F0A2
:1012200010929F0205C080919F028F5F80939F0262
:10123000DF91CF911F910F910895AF92BF92CF92FE
:10124000DF92EF92FF920F931F93CF93DF93D62EEF
:10125000C42E8C01D0E0C0E0E62EF12C5801F8013C
:101260008081882331F1C7018C0F911D8B39910545
:101270004CF04D2F4C0D6C2F6D0D8DE20E94BC1F5C
:10128000D75FC0E04D2F4C0D6C2F6D0DD8018D91A7
:101290008D010E94BC1FD501EC91E052EB3328F484
:1012A000F0E0EA5EFE4F608101C060E0C60FCF5FF4
:1012B000D5CFDF91CF911F910F91FF90EF90DF90ED
:1012C000CF90BF90AF90089580528B3330F4E82FC9
:1012D000F0E0EA5EFE4F8081089580E0089568E2C4
:1012E00080E00E949C2540E061E482E60E94270E97
:1012F00040E06DE286E70E94B31340E065E586E7D3
:101300000E94C10F40E061E482E80E94AB1160E0FE
:1013100080E00C944A2ECF92DF92EF92FF920F93CF
:101320001F93CF93DF93803A910508F051C069363F
:10133000710508F04DC0042F7C01EB01D595C795D0
:10134000D595C7956B0183E0C822DD24C114D10473
:1013500021F46C2F8E2D0E94B60881E0C816D104AE
:1013600011F484E00BC082E0C816D10411F480E1CE
:1013700005C083E0C816D10459F580E4089F8001B8
:101380001124D02E8091A00290E0E816F90649F4CD
:101390008091A10290E0C817D90719F4D090A20259
:1013A000D02A4D2D6C2F8E2D0E94B608E092A002FF
:1013B000C093A102D092A202CF5F412F6C2F8E2D3D
:1013C0000E94B608E092A002C093A1021093A2026C
:1013D000DF91CF911F910F91FF90EF90DF90CF9011
:1013E00008954F925F926F927F928F929F92AF92E9
:1013F000BF92CF92DF92EF92FF920F931F93CF9302
:10140000DF932C013B01EA01790100E010E06C015F
:1014100088E0C80ED11C5B0184E0A80EB11C0E153B
:101420001F0584F44601800E911E40E0B301C40103
:101430000E948B0940E0B501C4010E948B090F5F37
:101440001F4FEDCFFE013197E930F10508F0A8C03C
:10145000E35CFF4FB301C2010C94BD3ADF91CF9121
:101460001F910F91FF90EF90DF90CF90BF90AF90C2
:101470009F908F907F906F905F904F900C94F91990
:10148000DF91CF911F910F91FF90EF90DF90CF9060
:10149000BF90AF909F908F907F906F905F904F9094
:1014A0000C94761ADF91CF911F910F91FF90EF90DE
:1014B000DF90CF90BF90AF909F908F907F906F9074
:1014C0005F904F900C94F31ADF91CF911F910F9181
:1014D000FF90EF90DF90CF90BF90AF909F908F9054
:1014E0007F906F905F904F900C94701BDF91CF9125
:1014F0001F910F91FF90EF90DF90CF90BF90AF9032
:101500009F908F907F906F905F904F900C94ED1B09
:10151000DF91CF911F910F91FF90EF90DF90CF90CF
:10152000BF90AF909F908F907F906F905F904F9003
:101530000C946A1CDF91CF911F910F91FF90EF9057
:10154000DF90CF90BF90AF909F908F907F906F90E3
:101550005F904F900C94E71CDF91CF911F910F91FA
:10156000FF90EF90DF90CF90BF90AF909F908F90C3
:101570007F906F905F904F900C94641DDF91CF919E
:101580001F910F91FF90EF90DF90CF90BF90AF90A1
:101590009F908F907F906F905F904F900C94E11D83
:1015A000DF91CF911F910F91FF90EF90DF90CF903F
:1015B000BF90AF909F908F907F906F905F904F9073
:1015C00008950F931F93CF93DF93CDB7DEB7629744
:1015D0000FB6F894DEBF0FBECDBF9F938F937F935E
:1015E0006F938CED91E09F938F938E010F5F1F4F50
:1015F0001F930F930E94583B40E66DE6C8010E947E
:101600001D090FB6F894DEBF0FBECDBF62960FB6B0
:10161000F894DEBF0FBECDBFDF91CF911F910F9128
:1016200008950F931F93CF93DF9300D0CDB7DEB70C
:101630009F938F9382EE91E09F938F938E010F5F24
:101640001F4F1F930F930E94583B40E662E3C8016F
:101650000E941D090F900F900F900F900F900F9008
:101660000F900F90DF91CF911F910F9108950E94DD
:10167000920860E080E00E944A2E68E280E00E94CA
:101680009C2548E169E485EE91E00E941D094CE249
:1016900069E480EF91E00E941D0944E369E48CEF66
:1016A00091E00E941D090E94223A0E94E10A4CE347
:1016B00069E48CE092E00E941D0944E469E48AE157
:1016C00092E00C941D090E94920860E080E00E9464
:1016D0004A2E68E280E00E949C2548E169E48CE0A3
:1016E00092E00E941D094CE269E484E292E00E94CB
:1016F0001D0944E369E48BE292E00E941D094CE37A
:1017000069E482E392E00C941D090E94920860E073
:1017100080E00E944A2E68E170E080E590E00E943F
:10172000F91948E16AE589E392E00E941D0964E243
:1017300070E080E590E00E946A1C44E26AE58EE376
:1017400092E00E941D0960E370E080E590E00E9455
:10175000641D40E36AE589E492E00E941D0960E4AB
:1017600070E084E190E00E94F31A4AE46AE083E5C5
:1017700092E00E941D0940E068E58FE00E94B313EB
:1017800060E470E086E490E00E94701B4AE468E345
:101790008AE592E00E941D0940E068E581E40E942C
:1017A000C10F60E470E088E790E00E94ED1B4AE41E
:1017B0006EE683E692E00E941D0940E068E583E75B
:1017C0000E94AB1168E170E085E090E00E94761A1B
:1017D00048E16FE08AE692E00E941D0964E270E051
:1017E00085E090E00E94E71C44E26FE085E792E02C
:1017F0000E941D0960E370E085E090E00E94E11D19
:1018000040E36FE08EE792E00C941D09EF92FF92A7
:101810000F931F93CF93DF9391E4E92EF12C00E017
:1018200010E0C82FD0E00C171D075CF460E670E0F4
:10183000C7010E942F160F5F1F4F88E0E80EF11CB2
:10184000F2CFDF91CF911F910F91FF90EF9008950C
:101850001F93CF93DF93C0E0D0E015E01C9FF00111
:101860001D9FF00D1124EA54FD4F4081518162818A
:10187000738184810E94B0162196C330D10571F71F
:10188000DF91CF911F910895BF92CF92DF92EF9297
:10189000FF920F931F93CF93DF937C016B01C0E006
:1018A000D0E085E0B82EBC9EF001BD9EF00D112465
:1018B000EA54FD4F86019701408151816281738115
:1018C00084810E94F7172196C330D10561F7DF911B
:1018D000CF911F910F91FF90EF90DF90CF90BF902D
:1018E0000895EF92FF920F931F93CF93DF938C0194
:1018F0007B01C4EAD2E04C815D816A817B81888171
:1019000099819701800F911F0E94F109269682E02C
:10191000C63BD80781F7DF91CF911F910F91FF90C0
:10192000EF900895CF92DF92EF92FF921F93CF93A3
:10193000DF936B017C0111E1C0E0D0E0B6016C0FD8
:101940007D1F40E0C7010E948B092496C031D1055C
:10195000A9F711508FEFE81AF80A1111EDCFDF91B6
:10196000CF911F91FF90EF90DF90CF9008958F92CD
:101970009F92AF92BF92CF92DF92EF92FF920F931E
:101980001F93CF93DF93C62FD0E06E0194E0C90E72
:10199000D11C882E912C43E0B601C4010E948B0912
:1019A0007E0188E0E80EF11C40ECB701C4010E9402
:1019B0008B0954019FEFA91AB90A44E0BE01C50181
:1019C0000E948B0943E3B601C5010E948B0940ECDC
:1019D000B701C5010E948B098E01045F1F4F40E1D2
:1019E000B801C5010E948B09540182E0A80EB11C08
:1019F00044E0BE01C5010E948B0943E3B601C50165
:101A00000E948B094CECB701C5010E948B0940E193
:101A1000B801C5010E948B09540193E0A90EB11CC5
:101A200044E3BE01C5010E948B0943E3B601C50131
:101A30000E948B094CECB701C5010E948B094CE058
:101A4000B801C5010E948B09540184E0A80EB11CA5
:101A500040E3BE01C5010E948B0943E0B601C50108
:101A60000E948B094CECB701C5010E948B094CE028
:101A7000B801C5010E948B09540195E0A90EB11C63
:101A800040E3BE01C5010E948B0943E4B601C501D4
:101A90000E948B0940ECB701C5010E948B094CE004
:101AA000B801C5010E948B09540186E0A80EB11C43
:101AB00040E3BE01C5010E948B094CE0B801C5019D
:101AC0000E948B09540197E0A90EB11C44E0B601B5
:101AD000C5010E948B0940E1B701C5010E948B0935
:101AE000540188E0A80EB11C4CE0BE01C5010E9463
:101AF0008B0941E4B701C5010E948B0940E3B8019D
:101B0000C5010E948B09540199E0A90EB11C4CE05B
:101B1000BE01C5010E948B0941E0B701C5010E94C9
:101B20008B0940E3B801C5010E948B0954018AE08A
:101B3000A80EB11C4CE0BE01C5010E948B0942E019
:101B4000B601C5010E948B0940E8B701C5010E949A
:101B50008B0940E3B801C5010E948B0954019BE049
:101B6000A90EB11C40E3BE01C5010E948B0942E0F1
:101B7000B601C5010E948B0940E8B701C5010E946A
:101B80008B094CE0B801C5010E948B0954018CE01F
:101B9000A80EB11C43E3BE01C5010E948B0940E2BF
:101BA000B601C5010E948B0948E0B701C5010E943A
:101BB0008B094CECB801C5010E948B0954019DE0D2
:101BC000A90EB11C43ECBE01C5010E948B0943EC78
:101BD000B801C5010E948B0954018EE0A80EB11C0A
:101BE0004CE0BE01C5010E948B0943E0B601C5016E
:101BF0000E948B0940ECB701C5010E948B0940E3AC
:101C0000B801C5010E948B099FE0890E911C40E339
:101C1000BE01C4010E948B094CEFB601C4010E94B1
:101C20008B094FE3B701C4010E948B094CE0B80156
:101C3000C401DF91CF911F910F91FF90EF90DF9042
:101C4000CF90BF90AF909F908F900C948B098F9204
:101C50009F92AF92BF92CF92DF92EF92FF920F933B
:101C60001F93CF93DF93062F10E0C82FD0E04630AC
:101C700008F0DEC0780184E0E80EF11C40E5B70111
:101C8000CE010E948B0940E5B701CE0101960E946A
:101C90008B095E0182E0A80EB11C44E1B701C501C9
:101CA0000E948B0968018CE0C80ED11C48EAB6017D
:101CB000C5010E948B095E0183E0A80EB11C44E1BE
:101CC000B701C5010E948B0948E2B601C5010E9417
:101CD0008B095E0184E0A80EB11C48EAB701C5017A
:101CE0000E948B09480188E0880E911C42E0B401F3
:101CF000C5010E948B0949E2B601C5010E948B090A
:101D00005E0185E0A80EB11C48EAB701C5010E943A
:101D10008B094AE7B401C5010E948B0945E0B60171
:101D2000C5010E948B095E0186E0A80EB11C4CEF34
:101D3000B801C5010E948B094BEAB701C5010E9499
:101D40008B094AE7B401C5010E948B0941E0B60145
:101D5000C5010E948B095E0187E0A80EB11C4CEF03
:101D6000B801C5010E948B094BEAB701C5010E9469
:101D70008B094AE7B401C5010E948B095E0188E026
:101D8000A80EB11C4CEDB801C5010E948B094BEAAD
:101D9000B701C5010E948B094AE7B401C5010E9441
:101DA0008B095E0189E0A80EB11C4CE5B801C501A4
:101DB0000E948B094BEAB701C5010E948B094AE7D3
:101DC000B401C5010E948B0949EAB601C5010E9410
:101DD0008B098E01065F1F4F48EAB701C8010E94B8
:101DE0008B0942E4B401C8010E948B0949EAB6019B
:101DF000C8010E948B090F5F1F4F44E1B701C80162
:101E00000E948B0940E8B601C8010E948B0944E199
:101E1000B701CE010C960E948B0945E0B701CE01B7
:101E20000D960E948B0945E0B701CE010E969BC02E
:101E3000680184E0C80ED11C5E0184E0A80EB11CCC
:101E400044E5B601C5010E948B09780188E0E80EDF
:101E5000F11C45E0B701C5010E948B095E0185E0D8
:101E6000A80EB11C44E5B601C5010E948B0945E7E7
:101E7000B701C5010E948B0948018CE0880E911CB6
:101E800049EAB401C5010E948B095E0186E0A80EF3
:101E9000B11C4CEFB801C5010E948B094BEAB60199
:101EA000C5010E948B094AE7B701C5010E948B0951
:101EB00049EAB401C5010E948B095E0187E0A80EC2
:101EC000B11C4CEFB801C5010E948B094BEAB60169
:101ED000C5010E948B094AE7B701C5010E948B0921
:101EE00040E8B401C5010E948B095E0188E0A80E9C
:101EF000B11C4CEDB801C5010E948B094BEAB6013B
:101F0000C5010E948B094AE7B701C5010E948B09F0
:101F100049EAB401C5010E948B095E0189E0A80E5F
:101F2000B11C4CE5B801C5010E948B094BEAB60112
:101F3000C5010E948B094AE7B701C5010E948B09C0
:101F400049EAB401C5010E948B092A9644E5B6010D
:101F5000CE010E948B0945E0B701CE010E948B099A
:101F600040E8B401CE01DF91CF911F910F91FF9016
:101F7000EF90DF90CF90BF90AF909F908F900C9498
:101F80008B098F929F92AF92BF92CF92DF92EF9286
:101F9000FF920F931F93CF93DF93062F10E0C82F6C
:101FA000D0E0463008F00EC1780184E0E80EF11C64
:101FB00040E5B701CE010E948B0940E5B701CE0193
:101FC00001960E948B095E0182E0A80EB11C44E1DB
:101FD000B701C5010E948B0968018CE0C80ED11CB5
:101FE00048EAB601C5010E948B095E0183E0A80E94
:101FF000B11C44E1B701C5010E948B0944E5B6015B
:10200000C5010E948B095E0184E0A80EB11C48EA5C
:10201000B701C5010E948B09480188E0880E911C18
:1020200042E0B401C5010E948B0945E5B601C50136
:102030000E948B095E0185E0A80EB11C48EAB70139
:10204000C5010E948B094AE7B401C5010E948B09B2
:1020500045E5B601C5010E948B095E0186E0A80E28
:10206000B11C44E5B801C5010E948B0949EAB701DA
:10207000C5010E948B094AE7B401C5010E948B0982
:1020800045E5B601C5010E948B095E0187E0A80EF7
:10209000B11C44E5B801C5010E948B0945EAB701AE
:1020A000C5010E948B094AE7B401C5010E948B0952
:1020B00045E5B601C5010E948B095E0188E0A80EC6
:1020C000B11C44E4B801C5010E948B0945E9B70180
:1020D000C5010E948B094AE7B401C5010E948B0922
:1020E00045E5B601C5010E948B095E0189E0A80E95
:1020F000B11C44E0B801C5010E948B0945E5B70158
:10210000C5010E948B094AE7B401C5010E948B09F1
:1021100045E5B601C5010E948B095E018AE0A80E63
:10212000B11C48E9B701C5010E948B0942E4B40122
:10213000C5010E948B0945E9B601C5010E948B09C2
:102140005E018BE0A80EB11C44E1B701C5010E94FD
:102150008B0940E8B601C5010E948B0944E1B70133
:10216000CE010C960E948B095E018DE0A80EB11C79
:102170004CE3B801C5010E948B0944E1B701C501D8
:102180000E948B094FE3B401C5010E948B095E01D7
:102190008EE0A80EB11C43ECB801C5010E948B096A
:1021A00047EDB701C5010E948B0943ECB401C5019D
:1021B0000E948B0943E0B601C5010E948B094CE3E4
:1021C000B801B9C0680184E0C80ED11C5E0184E08A
:1021D000A80EB11C44E5B601C5010E948B09780127
:1021E00088E0E80EF11C45E0B701C5010E948B09AB
:1021F0005E0185E0A80EB11C44E5B601C5010E9450
:102200008B0945E7B701C5010E948B0948018CE0A5
:10221000880E911C45E9B401C5010E948B095E013D
:1022200086E0A80EB11C44E5B801C5010E948B09E7
:1022300049EAB601C5010E948B094AE7B701C50109
:102240000E948B0945E9B401C5010E948B095E011A
:1022500087E0A80EB11C44E5B801C5010E948B09B6
:1022600045EAB601C5010E948B094AE7B701C501DD
:102270000E948B0945E9B401C5010E948B095E01EA
:1022800088E0A80EB11C44E4B801C5010E948B0986
:1022900045E9B601C5010E948B094AE7B701C501AE
:1022A0000E948B0945E9B401C5010E948B095E01BA
:1022B00089E0A80EB11C44E0B801C5010E948B0959
:1022C00045E5B601C5010E948B094AE7B701C50182
:1022D0000E948B0945E9B401C5010E948B098E015A
:1022E000065F1F4F44E5B601C8010E948B0945E017
:1022F000B701C8010E948B0940E8B401C8010E94DF
:102300008B094CE0B701CE010B960E948B094CE083
:10231000B701CE010C960E948B0943E3B701CE01B1
:102320000D960E948B0943E3B701CE010E960E94E1
:102330008B094CE0B701CE010F96DF91CF911F9131
:102340000F91FF90EF90DF90CF90BF90AF909F9054
:102350008F900C948B098F929F92AF92BF92CF92E5
:10236000DF92EF92FF920F931F93CF93DF93062F8D
:1023700010E0C82FD0E0463008F022C1780184E098
:10238000E80EF11C40E5B701CE010E948B0940E543
:10239000B701CE0101960E948B096E0182E0C80E42
:1023A000D11C44E1B701C6010E948B0948018CE0B1
:1023B000880E911C48EAB401C6010E948B096E0187
:1023C00083E0C80ED11C4CE3B701C6010E948B0903
:1023D00048E2B401C6010E948B095E0184E0A80EA8
:1023E000B11C40ECB801C5010E948B094FEFB70149
:1023F000C5010E948B09680188E0C80ED11C43E02A
:10240000B601C5010E948B0949E2B401C5010E94D1
:102410008B095E0185E0A80EB11C40EFB801C50133
:102420000E948B094FEFB701C5010E948B094FE74E
:10243000B601C5010E948B0945E0B401C5010E94A7
:102440008B095E0186E0A80EB11C4CEFB801C501F6
:102450000E948B094FEFB701C5010E948B094FE71E
:10246000B601C5010E948B0941E0B401C5010E947B
:102470008B095E0187E0A80EB11C4CEFB801C501C5
:102480000E948B094FEFB701C5010E948B094FE7EE
:10249000B601C5010E948B095E0188E0A80EB11C3F
:1024A0004CEDB801C5010E948B094FEFB701C50182
:1024B0000E948B094FE7B601C5010E948B095E019E
:1024C00089E0A80EB11C4CE5B801C5010E948B093A
:1024D0004FEFB701C5010E948B094FE7B601C50157
:1024E0000E948B0949EAB401C5010E948B095E0173
:1024F0008AE0A80EB11C4CEFB701C5010E948B0900
:1025000043E4B601C5010E948B0949EAB401C50143
:102510000E948B095E018BE0A80EB11C4CE3B70151
:10252000C5010E948B0940E8B401C5010E948B09D6
:102530005E018CE0A80EB11C43E0B801C5010E9409
:102540008B0944E1B701C5010E948B0940ECB6013B
:10255000C5010E948B095E018DE0A80EB11C4CE004
:10256000B801C5010E948B0944E1B701C5010E9471
:102570008B0940E3B601C5010E948B095E018EE024
:10258000A80EB11C4CE0B801C5010E948B0944E1C2
:10259000B701C5010E948B0940E3B601C5010E9445
:1025A0008B092F9640EFB801CE010E948B0943ECB6
:1025B000B701CE010E948B094FE0B601CE01C5C024
:1025C0005E0184E0A80EB11C40ECB801C5010E9478
:1025D0008B09680184E0C80ED11C4FE5B601C50126
:1025E0000E948B09780188E0E80EF11C45E0B701F4
:1025F000C5010E948B095E0185E0A80EB11C40EF69
:10260000B801C5010E948B094FE5B601C5010E94C2
:102610008B0945E7B701C5010E948B0948018CE091
:10262000880E911C49EAB401C5010E948B095E0124
:1026300086E0A80EB11C4CEFB801C5010E948B09C1
:102640004FEFB601C5010E948B094FE7B701C501E5
:102650000E948B0949EAB401C5010E948B095E0101
:1026600087E0A80EB11C4CEFB801C5010E948B0990
:102670004FEFB601C5010E948B094FE7B701C501B5
:102680000E948B0940E8B401C5010E948B095E01DC
:1026900088E0A80EB11C4CEDB801C5010E948B0961
:1026A0004FEFB601C5010E948B094FE7B701C50185
:1026B0000E948B0949EAB401C5010E948B095E01A1
:1026C00089E0A80EB11C4CE5B801C5010E948B0938
:1026D0004FEFB601C5010E948B094FE7B701C50155
:1026E0000E948B0949EAB401C5010E948B098E0141
:1026F000065F1F4F4CE5B601C8010E948B0945E0FB
:10270000B701C8010E948B0940E8B401C8010E94CA
:102710008B0940E3B701CE010B960E948B0940E381
:10272000B701CE010C960E948B0940E3B701CE01A0
:102730000D960E948B094FE0B701CE010E960E94C4
:102740008B0940ECB601CE010F96DF91CF911F911E
:102750000F91FF90EF90DF90CF90BF90AF909F9040
:102760008F900C948B098F929F92AF92BF92CF92D1
:10277000DF92EF92FF920F931F93CF93DF93062F79
:1027800010E0C82FD0E07801463008F050C188E052
:10279000E80EF11C42E0B701CE010E948B096801EE
:1027A00084E0C80ED11C5E018FEFA81AB80A40E47D
:1027B000B601C5010E948B0945E0B701C5010E9421
:1027C0008B0948018CE0880E911C42E0B401C501E0
:1027D0000E948B095E0182E0A80EB11C48E6B6019A
:1027E000C5010E948B0945EAB701C5010E948B090A
:1027F0004CEFB401C5010E948B095E0183E0A80E75
:10280000B11C48E2B601C5010E948B0940E6B70140
:10281000C5010E948B094DE3B401C5010E948B09DB
:102820005E0184E0A80EB11C4CEFB601C5010E9408
:102830008B094BE4B701C5010E948B0945E3B40144
:10284000C5010E948B095E0185E0A80EB11C43E022
:10285000B801C5010E948B094CEFB601C5010E9469
:102860008B094FEBB701C5010E948B0945E1B4010B
:10287000C5010E948B095E0186E0A80EB11C4FEFD6
:10288000B801C5010E948B094FEFB601C5010E9436
:102890008B094FEBB701C5010E948B0946E5B401D6
:1028A000C5010E948B095E0187E0A80EB11C4FEFA5
:1028B000B801C5010E948B094FEFB601C5010E9406
:1028C0008B094FEBB701C5010E948B0940E5B401AC
:1028D000C5010E948B095E0188E0A80EB11C4FED76
:1028E000B801C5010E948B094FEFB601C5010E94D6
:1028F0008B094FEBB701C5010E948B095E0189E08E
:10290000A80EB11C4CE5B801C5010E948B094FEF20
:10291000B601C5010E948B094FEBB701C5010E94AA
:102920008B094EEFB401C5010E948B095E018AE05C
:10293000A80EB11C4CEFB601C5010E948B0943E8FB
:10294000B701C5010E948B094EEFB401C5010E9479
:102950008B095E018BE0A80EB11C40ECB801C501EB
:102960000E948B094FEFB601C5010E948B094FEF02
:10297000B701C5010E948B0940ECB401C5010E945A
:102980008B095E018CE0A80EB11C40EBB801C501BB
:102990000E948B094AEAB601C5010E948B094AEAE6
:1029A000B701C5010E948B0943E0B401C5010E9433
:1029B0008B095E018DE0A80EB11C4CE6B801C50183
:1029C0000E948B0945E7B601C5010E948B0945E5C8
:1029D000B701C5010E948B094EE0B401C5010E94F8
:1029E0008B095E018EE0A80EB11C4CE6B801C50152
:1029F0000E948B094DEFB601C5010E948B094FE57E
:102A0000B701C5010E948B094EE0B401C5010E94C7
:102A10008B092F9640EFB801CE010E948B094FEF32
:102A2000B601CE010E948B094FEFB70104C184E0CB
:102A3000E80EF11C40E8B701CE0103960E948B0915
:102A40005E0184E0A80EB11C48E6B701C5010E94F2
:102A50008B09680188E0C80ED11C45E8B601C501A4
:102A60000E948B095E0185E0A80EB11C43E0B8010D
:102A7000C5010E948B0948E6B701C5010E948B0978
:102A800049EAB601C5010E948B0948018CE0880E15
:102A9000911C4EEFB401C5010E948B095E0186E0D6
:102AA000A80EB11C4FEFB801C5010E948B094FEF72
:102AB000B701C5010E948B094BE5B601C5010E9413
:102AC0008B094EEFB401C5010E948B095E0187E0BE
:102AD000A80EB11C4FEFB801C5010E948B094FEF42
:102AE000B701C5010E948B094EE5B601C5010E94E0
:102AF0008B0941ECB401C5010E948B095E0188E09D
:102B0000A80EB11C4FEDB801C5010E948B094FEF13
:102B1000B701C5010E948B094FE7B601C5010E94AC
:102B20008B0945EFB401C5010E948B095E0189E064
:102B3000A80EB11C4CE5B801C5010E948B094FEFEE
:102B4000B701C5010E948B094FEBB601C5010E9478
:102B50008B0945EDB401C5010E948B095E018AE035
:102B6000A80EB11C40ECB801C5010E948B094FEFC3
:102B7000B701C5010E948B094FEFB601C5010E9444
:102B80008B0944EDB401C5010E948B095E018BE005
:102B9000A80EB11C40EBB801C5010E948B094AEA9E
:102BA000B701C5010E948B094AEAB601C5010E941E
:102BB0008B0943E0B401C5010E948B095E018CE0E2
:102BC000A80EB11C4CE6B801C5010E948B0945E76F
:102BD000B701C5010E948B0945E5B601C5010E94F8
:102BE0008B094EE0B401C5010E948B095E018DE0A6
:102BF000A80EB11C4CE6B801C5010E948B094DEF2F
:102C0000B701C5010E948B094FE5B601C5010E94BD
:102C10008B094EE0B401C5010E948B092E9640EF4E
:102C2000B801CE010E948B094FEFB701CE010E947F
:102C30008B094FEFB601CE010E948B0943E0B4012E
:102C4000CE01DF91CF911F910F91FF90EF90DF9018
:102C5000CF90BF90AF909F908F900C948B09CF92A4
:102C6000DF92EF92FF920F931F93CF93DF938C012C
:102C7000EB014CEF0E948B0968018FEFC81AD80A4C
:102C80004FEFBE01C6010E948B097E0184E0E80E71
:102C9000F11C43E0B701C6010E948B09680182E084
:102CA000C80ED11C4FEFBE01C6010E948B094FE038
:102CB000B701C6010E948B09680183E0C80ED11CD0
:102CC0004CEFBE01C6010E948B094FE3B701C6015C
:102CD0000E948B09680184E0C80ED11C40EFBE0140
:102CE000C6010E948B094FEFB701C6010E948B09F4
:102CF000680185E0C80ED11C4CEFBE01C6010E94E0
:102D00008B094FE3B701C6010E948B09680186E079
:102D1000C80ED11C4FEFBE01C6010E948B094FE0C7
:102D2000B701C6010E948B09680187E0C80ED11C5B
:102D30004FEFBE01C6010E948B0943E0B701C601F7
:102D40000E948B094CEFBE01C8010896DF91CF911C
:102D50001F910F91FF90EF90DF90CF900C948B0913
:102D60008F929F92AF92BF92CF92DF92EF92FF929B
:102D70000F931F93CF93DF9300D000D01F92CDB756
:102D8000DEB749835A836B837C838D83EB80FC8021
:102D900009811A81A12CB12C670184E0C80ED11CD5
:102DA0008D8190E0A816B90608F0D4C04FEFB701A6
:102DB000C8010E948B0947E5B601C8010E948B0932
:102DC00048018FEF881A980A4FEFB701C4010E949B
:102DD0008B0945E5B601C4010E948B09480182E0D8
:102DE000880E911C4FE7B701C4010E948B0945E58D
:102DF000B601C4010E948B09480183E0880E911C32
:102E00004FEFB701C4010E948B0947E5B601C40129
:102E10000E948B09480184E0880E911C4FEFB70196
:102E2000C4010E948B0945E5B601C4010E948B09CB
:102E3000480185E0880E911C4FE7B701C4010E944C
:102E40008B0945E5B601C4010E948B09480186E063
:102E5000880E911C4FEFB701C4010E948B0947E512
:102E6000B601C4010E948B09480187E0880E911CBD
:102E70004FEFB701C4010E948B0945E5B601C401BB
:102E80000E948B09480188E0880E911C4FE7B7012A
:102E9000C4010E948B0945E5B601C4010E948B095B
:102EA000480189E0880E911C4FEFB701C4010E94D0
:102EB0008B0947E5B601C4010E948B0948018AE0ED
:102EC000880E911C4FEFB701C4010E948B0945E5A4
:102ED000B601C4010E948B0948018BE0880E911C49
:102EE0004FE7B701C4010E948B0945E5B601C40153
:102EF0000E948B0948018CE0880E911C4FEFB701AE
:102F0000C4010E948B0947E5B601C4010E948B09E8
:102F100048018DE0880E911C4FEFB701C4010E945B
:102F20008B0945E5B601C4010E948B0948018EE07A
:102F3000880E911C4FE7B701C4010E948B0945E53B
:102F4000B601C4010E948B098FE0A80EB11C015F7D
:102F50001F4F26CF0F900F900F900F900F90DF9183
:102F6000CF911F910F91FF90EF90DF90CF90BF9086
:102F7000AF909F908F900895CF93C82F482F60E611
:102F800070E080E090E00E948B094C2F64E670E0D6
:102F900080E090E00E948B094C2F60E670E081E0B9
:102FA00090E00E948B094C2F64E670E081E090E095
:102FB0000E948B094C2F60E670E083E090E00E9455
:102FC0008B094C2F64E670E083E090E00E948B094F
:102FD0004C2F60E670E084E090E00E948B094C2F5B
:102FE00064E670E084E090E0CF910C948B092F921E
:102FF0003F924F925F926F927F928F929F92AF9289
:10300000BF92CF92DF92EF92FF920F931F93CF93D5
:10301000DF93CDB7DEB727970FB6F894DEBF0FBEAC
:10302000CDBF49835A836B837C8319011F830E8331
:1030300049805A800B811C81C12CD12C682E712CA7
:10304000C80104967C015201A60CB71CA20EB31E47
:103050008E819F81C816D9068CF445018C0C9D1C6D
:1030600040E0B801C4010E948B0940E0B701C401EF
:103070000E948B099FEFC91AD90AEACF420C531C50
:103080004FEFB801C2010E948B0947E5B701C201A9
:103090000E948B0962019FEFC91AD90A4FEFB8014C
:1030A000C6010E948B0945E5B701C6010E948B0944
:1030B000620182E0C80ED11C4FE7B801C6010E9430
:1030C0008B0945E5B701C6010E948B09620193E0B7
:1030D000C90ED11C4FEFB801C6010E948B0947E50C
:1030E000B701C6010E948B09620184E0C80ED11CA1
:1030F0004FEFB801C6010E948B0945E5B701C60133
:103100000E948B09620195E0C90ED11C4FE7B801FE
:10311000C6010E948B0945E5B701C6010E948B09D3
:10312000620186E0C80ED11C4FEFB801C6010E94B3
:103130008B0947E5B701C6010E948B09620197E040
:10314000C90ED11C4FEFB801C6010E948B0945E59D
:10315000B701C6010E948B09620188E0C80ED11C2C
:103160004FE7B801C6010E948B0945E5B701C601CA
:103170000E948B09620199E0C90ED11C4FEFB80182
:10318000C6010E948B0947E5B701C6010E948B0961
:1031900062018AE0C80ED11C4FEFB801C6010E943F
:1031A0008B0945E5B701C6010E948B0962019BE0CE
:1031B000C90ED11C4FE7B801C6010E948B0945E535
:1031C000B701C6010E948B0962018CE0C80ED11CB8
:1031D0004FEFB801C6010E948B0947E5B701C60150
:1031E0000E948B0962019DE0C90ED11C4FEFB8010E
:1031F000C6010E948B0945E5B701C6010E948B09F3
:1032000062018EE0C80ED11C4FE7B801C6010E94D2
:103210008B0945E5B701C6010E948B09460C571C76
:1032200062019FE0C91AD1084FEFB801C6010E94A0
:103230008B0947E5B701C6010E948B0962018EE048
:10324000C81AD1084FEFB801C6010E948B0945E5A5
:10325000B701C6010E948B0962019DE0C91AD1081D
:103260004FE7B801C6010E948B0945E5B701C601C9
:103270000E948B0962018CE0C81AD1084FEFB80197
:10328000C6010E948B0947E5B701C6010E948B0960
:1032900062019BE0C91AD1084FEFB801C6010E9434
:1032A0008B0945E5B701C6010E948B0962018AE0DE
:1032B000C81AD1084FE7B801C6010E948B0945E53D
:1032C000B701C6010E948B09620199E0C91AD108B1
:1032D0004FEFB801C6010E948B0947E5B701C6014F
:1032E0000E948B09620188E0C81AD1084FEFB8012B
:1032F000C6010E948B0945E5B701C6010E948B09F2
:10330000620197E0C91AD1084FE7B801C6010E94CF
:103310008B0945E5B701C6010E948B09620186E071
:10332000C81AD1084FEFB801C6010E948B0947E5C2
:10333000B701C6010E948B09620195E0C91AD10844
:103340004FEFB801C6010E948B0945E5B701C601E0
:103350000E948B09620184E0C81AD1084FE7B801C6
:10336000C6010E948B0945E5B701C6010E948B0981
:10337000620193E0C91AD1084FEFB801C6010E945B
:103380008B0947E5B701C6010E948B09620182E003
:10339000C81AD1084FEFB801C6010E948B0945E554
:1033A000B701C6010E948B0991E0491A51084FE705
:1033B000B801C2010E948B0945E5B701C2012796F9
:1033C0000FB6F894DEBF0FBECDBFDF91CF911F9136
:1033D0000F91FF90EF90DF90CF90BF90AF909F90B4
:1033E0008F907F906F905F904F903F902F900C94B4
:1033F0008B09CF92DF92EF92FF920F931F93CF939F
:10340000DF93EC018B0144E70E948B09780184E093
:10341000E80EF11C47E1B701CE010E948B096E0155
:103420008FEFC81AD80A4DEDB801C6010E948B096A
:1034300045E5B701C6010E948B096E0182E0C80E06
:10344000D11C47E5B801C6010E948B0945E5B701CB
:10345000C6010E948B096E0183E0C80ED11C47EDA6
:10346000B801C6010E948B094FE7B701C6010E944F
:103470008B096E0184E0C80ED11C4DE7B801C6016E
:103480000E948B0945E7B701C6010E948B096E01B6
:1034900085E0C80ED11C45E5B801C6010E948B0924
:1034A00045E7B701C6010E948B096E0186E0C80E90
:1034B000D11C4DEFB801C6010E948B094FE7B7013F
:1034C000C6010E948B09279644E5B801CE010E94EF
:1034D0008B0945E1B701CE01DF91CF911F910F918B
:1034E000FF90EF90DF90CF900C948B09CF92DF92FA
:1034F000EF92FF920F931F93CF93DF93EC018B0119
:103500004CEF0E948B09780184E0E80EF11C4FE338
:10351000B701CE010E948B096E018FEFC81AD80A3D
:103520004FE7B801C6010E948B094FEFB701C601F2
:103530000E948B096E0182E0C80ED11C4FE7B801D2
:10354000C6010E948B0945EFB701C6010E948B0995
:103550006E0183E0C80ED11C4FEFB801C6010E9476
:103560008B0947EDB701C6010E948B096E0184E00B
:10357000C80ED11C47E5B801C6010E948B094FED6A
:10358000B701C6010E948B096E0185E0C80ED11CEF
:1035900047E7B801C6010E948B094FEDB701C6018C
:1035A0000E948B096E0186E0C80ED11C47E5B80168
:1035B000C6010E948B0945EDB701C6010E948B0927
:1035C00027964CEFB801CE010E948B094FE3B7015B
:1035D000CE01DF91CF911F910F91FF90EF90DF907F
:1035E000CF900C948B09CF92DF92EF92FF920F93C2
:1035F0001F93CF93DF93EC018B0144E70E948B096B
:10360000780184E0E80EF11C45E1B701CE010E948B
:103610008B096E018FEFC81AD80A4DEDB801C601AB
:103620000E948B0945E5B701C6010E948B096E0116
:1036300082E0C80ED11C4DEFB801C6010E948B0973
:103640004FE7B701C6010E948B096E0183E0C80EE7
:10365000D11C45E5B801C6010E948B0945E7B701B9
:10366000C6010E948B096E0184E0C80ED11C45E59D
:10367000B801C6010E948B094FE5B701C6010E943F
:103680008B096E0185E0C80ED11C45EDB801C6015D
:103690000E948B0945E5B701C6010E948B096E01A6
:1036A00086E0C80ED11C4DE7B801C6010E948B0907
:1036B00045E5B701C6010E948B0927964CEFB8017A
:1036C000CE010E948B094FE3B701CE01DF91CF916C
:1036D0001F910F91FF90EF90DF90CF900C948B098A
:1036E000CF92DF92EF92FF920F931F93CF93DF93CE
:1036F000EC018B0144E50E948B09780184E0E80E1F
:10370000F11C45E1B701CE010E948B096E018FEFDC
:10371000C81AD80A4DE5B801C6010E948B094DEFC1
:10372000B701C6010E948B096E0182E0C80ED11C50
:1037300047E7B801C6010E948B0947EFB701C601F0
:103740000E948B096E0183E0C80ED11C47E7B801C7
:10375000C6010E948B094DEDB701C6010E948B097D
:103760006E0184E0C80ED11C47E7B801C6010E9473
:103770008B0945EDB701C6010E948B096E0185E0FA
:10378000C80ED11C4DE5B801C6010E948B0945ED5C
:10379000B701C6010E948B096E0186E0C80ED11CDC
:1037A00047EFB801C6010E948B094FEFB701C60170
:1037B0000E948B09279644E5B801CE010E948B092F
:1037C00045E1B701CE01DF91CF911F910F91FF909D
:1037D000EF90DF90CF900C948B09CF92DF92EF9215
:1037E000FF920F931F93CF93DF93EC018B0144E77C
:1037F0000E948B09780184E0E80EF11C45E1B701D5
:10380000CE010E948B096E018FEFC81AD80A4DEDC8
:10381000B801C6010E948B0945E5B701C6010E94A7
:103820008B096E0182E0C80ED11C45EFB801C601BC
:103830000E948B094FEFB701C6010E948B096E01F0
:1038400083E0C80ED11C45E5B801C6010E948B0972
:1038500045EDB701C6010E948B096E0184E0C80ED8
:10386000D11C45E5B801C6010E948B0945EDB701A1
:10387000C6010E948B096E0185E0C80ED11C45E58A
:10388000B801C6010E948B0945EDB701C6010E942F
:103890008B096E0186E0C80ED11C4FEFB801C6013E
:1038A0000E948B094FEFB701C6010E948B09279632
:1038B00044E5B801CE010E948B0945E1B701CE0174
:1038C000DF91CF911F910F91FF90EF90DF90CF90FC
:1038D0000C948B09CF92DF92EF92FF920F931F937C
:1038E000CF93DF93EC018B014CEF0E948B097801A1
:1038F00084E0E80EF11C4FE3B701CE010E948B0972
:103900006E018FEFC81AD80A47E5B801C6010E94B8
:103910008B0945EDB701C6010E948B096E0182E05B
:10392000C80ED11C47E5B801C6010E948B0947E7C4
:10393000B701C6010E948B096E0183E0C80ED11C3D
:103940004DEDB801C6010E948B094DE5B701C601D6
:103950000E948B096E0184E0C80ED11C47E5B801B6
:10396000C6010E948B0947E5B701C6010E948B0979
:103970006E0185E0C80ED11C47E5B801C6010E9462
:103980008B0945E5B701C6010E948B096E0186E0EF
:10399000C80ED11C4DEFB801C6010E948B094FE73C
:1039A000B701C6010E948B09279644E5B801CE01F4
:1039B0000E948B0945E1B701CE01DF91CF911F91A4
:1039C0000F91FF90EF90DF90CF900C948B09CF92E6
:1039D000DF92EF92FF920F931F93CF93DF93EC014F
:1039E0008B0144EF0E948B09780184E0E80EF11C02
:1039F00047E3B701CE010E948B096E018FEFC81A11
:103A0000D80A4DEDB801C6010E948B094DEDB701F2
:103A1000C6010E948B096E0182E0C80ED11C47E5E9
:103A2000B801C6010E948B0945EFB701C6010E948B
:103A30008B096E0183E0C80ED11C4FEFB801C6019F
:103A40000E948B0947EFB701C6010E948B096E01E6
:103A500084E0C80ED11C4FEFB801C6010E948B094B
:103A600047EFB701C6010E948B096E0185E0C80EC1
:103A7000D11C4FEFB801C6010E948B094FEDB70171
:103A8000C6010E948B096E0186E0C80ED11C47E575
:103A9000B801C6010E948B0945EDB701C6010E941D
:103AA0008B0927964CEFB801CE010E948B094FE39A
:103AB000B701CE01DF91CF911F910F91FF90EF9051
:103AC000DF90CF900C948B09CF92DF92EF92FF9210
:103AD0000F931F93CF93DF93EC018B0144E50E947A
:103AE0008B09780184E0E80EF11C45E1B701CE01B5
:103AF0000E948B096E018FEFC81AD80A45E7B801FA
:103B0000C6010E948B0945E5B701C6010E948B09D9
:103B10006E0182E0C80ED11C4DEDB801C6010E94B5
:103B20008B0945E5B701C6010E948B096E0183E050
:103B3000C80ED11C4DEDB801C6010E948B0945E5A8
:103B4000B701C6010E948B096E0184E0C80ED11C2A
:103B50004DEDB801C6010E948B0945E7B701C601CA
:103B60000E948B096E0185E0C80ED11C4DEDB80195
:103B7000C6010E948B094DEDB701C6010E948B0959
:103B80006E0186E0C80ED11C47E5B801C6010E944F
:103B90008B094FE7B701C6010E948B09279644E5C0
:103BA000B801CE010E948B0945E1B701CE01DF913A
:103BB000CF911F910F91FF90EF90DF90CF900C94D9
:103BC0008B09CF92DF92EF92FF920F931F93CF93C7
:103BD000DF93EC018B014CED0E948B09780184E0AE
:103BE000E80EF11C4FE3B701CE010E948B096E0174
:103BF0008FEFC81AD80A47E7B801C6010E948B099F
:103C00004FEFB701C6010E948B096E0182E0C80E1A
:103C1000D11C4FE5B801C6010E948B0945EDB701E3
:103C2000C6010E948B096E0183E0C80ED11C4FEFC4
:103C3000B801C6010E948B094FEDB701C6010E9471
:103C40008B096E0184E0C80ED11C4FEFB801C6018C
:103C50000E948B094FEDB701C6010E948B096E01CE
:103C600085E0C80ED11C4FEFB801C6010E948B0938
:103C70004FEDB701C6010E948B096E0186E0C80EA8
:103C8000D11C45E5B801C6010E948B0945EDB7017D
:103C9000C6010E948B0927964CEFB801CE010E9405
:103CA0008B094FE3B701CE01DF91CF911F910F91A7
:103CB000FF90EF90DF90CF900C948B09AF92BF9262
:103CC000CF92DF92EF92FF920F931F93CF93DF93E8
:103CD0005C017B01C0E0D0E06B0184E0C80ED11C28
:103CE00085010C0F1D1F40E0B701C8010E948B0920
:103CF00040E0B601C8010E948B092196C830D10569
:103D000079F7DF91CF911F910F91FF90EF90DF90A6
:103D1000CF90BF90AF900895CF92DF92EF92FF9235
:103D20000F931F93CF93DF93062F10E0C82FD0E09F
:103D300040ECB801CE010E948B09780184E0E80EC6
:103D4000F11C4CE0B701CE010E948B096E018FEF90
:103D5000C81AD80A40ECB801C6010E948B094CE091
:103D6000B701C6010E948B096E0182E0C80ED11C0A
:103D700040ECB801C6010E948B094CE0B701C601B6
:103D80000E948B096E0183E0C80ED11C40ECB80183
:103D9000C6010E948B094CE0B701C6010E948B0945
:103DA0006E0184E0C80ED11C40ECB801C6010E942F
:103DB0008B094CE0B701C6010E948B096E0185E0BA
:103DC000C80ED11C4CE0B801C6010E948B0940EC22
:103DD000B701C6010E948B096E0186E0C80ED11C96
:103DE0004CE3B801C6010E948B0940EFB701C60140
:103DF0000E948B096E0187E0C80ED11C40EFB8010C
:103E0000C6010E948B094CE3B701C6010E948B09D1
:103E10006E0188E0C80ED11C40ECB801C6010E94BA
:103E20008B094FE0B701C6010E948B0943E0B7013F
:103E3000CE010996DF91CF911F910F91FF90EF90E6
:103E4000DF90CF900C948B09CF92DF92EF92FF928C
:103E50000F931F93CF93DF93062F10E0C82FD0E06E
:103E600040E0B801CE010E948B09780184E0E80EA1
:103E7000F11C40E0B701CE010E948B096E018FEF6B
:103E8000C81AD80A40E0B801C6010E948B0940E078
:103E9000B701C6010E948B096E0182E0C80ED11CD9
:103EA00040E0B801C6010E948B0940E0B701C6019D
:103EB0000E948B096E0183E0C80ED11C40E0B8015E
:103EC000C6010E948B0940E0B701C6010E948B0920
:103ED0006E0184E0C80ED11C40E0B801C6010E940A
:103EE0008B0940E0B701C6010E948B096E0185E095
:103EF000C80ED11C40E0B801C6010E948B0940E009
:103F0000B701C6010E948B096E0186E0C80ED11C64
:103F100040E0B801C6010E948B0940E0B701C6012C
:103F20000E948B096E0187E0C80ED11C40E0B801E9
:103F3000C6010E948B0940E0B701C6010E948B09AF
:103F40006E0188E0C80ED11C40E0B801C6010E9495
:103F50008B0940E0B701C6010E948B0940E0B70120
:103F6000CE010996DF91CF911F910F91FF90EF90B5
:103F7000DF90CF900C948B09CF92DF92EF92FF925B
:103F80000F931F93CF93DF93082E000C990BAA0B6E
:103F9000BB0BFC01F097E932F10508F0C4C5042F12
:103FA000C62FEA5BFF4F0C94BD3A10E0D0E040EF23
:103FB000B801CE010E948B09780184E0E80EF11C63
:103FC0004FE3B701CE010E948B096E018FEFC81A33
:103FD000D80A4CE0B801C6010E948B094CECB7012D
:103FE000C6010E948B096E0182E0C80ED11C4CE014
:103FF000B801C6010E948B0943ECB701C6010E94BB
:104000008B092396EEC310E0D0E040E3B801CE0167
:104010000E948B09780184E0E80EF11C40ECB701A6
:10402000CE010E948B096E018FEFC81AD80A4CEF9F
:10403000B801C6010E948B094FEFB701C6010E946B
:104040008B096E0182E0C80ED11C40E0B801C601A8
:104050000E948B0940ECB701C6010E948B09239690
:1040600040E0B801CE0176C110E0D0E040E3B801F5
:10407000CE010E948B09780184E0E80EF11C40EF2C
:10408000B701CE010E948B096E018FEFC81AD80AC2
:104090004CE0B801C6010E948B094CECB701C60187
:1040A0000E948B096E0182E0C80ED11C4CE0B80161
:1040B000C6010E948B0943ECB701C6010E948B091F
:1040C000239608C410E0D0E040E3B801CE010E947E
:1040D0008B09780184E0E80EF11C40E3B701CE01C2
:1040E0000E948B096E018FEFC81AD80A4CE0B80104
:1040F000C6010E948B0940ECE5C010E0D0E040EC26
:10410000B801CE010E948B09780184E0E80EF11C11
:104110004FE0B701CE010E948B096E018FEFC81AE4
:10412000D80A40E3B801C6010E948B094CE0B701F0
:10413000C6010E948B096E0182E0C80ED11C4CEFB3
:10414000B801C6010E948B094FEFB701C6010E945A
:104150008B0923964CE0B701CE010E948B0940E009
:10416000B801D6C410E0D0E04CEFB801CE010E94F7
:104170008B09780184E0E80EF11C43ECB701CE0115
:104180000E948B096E018FEFC81AD80A4CE0B80163
:10419000C6010E948B0943ECB701C6010E948B093E
:1041A0006E0182E0C80ED11C4CE0B801C6010E942D
:1041B0008B0943ECB701C6010E948B0923964CE0A2
:1041C00067C410E0D0E040ECB801CE010E948B093A
:1041D000780184E0E80EF11C4FE3B701CE010E94A4
:1041E0008B096E018FEFC81AD80A40E3B801C601E7
:1041F0000E948B0943ECB701C6010E948B096E0136
:1042000082E0C80ED11C4CE0B801C6010E948B09A7
:1042100043ECB701C6010E948B0923969DC310E0B1
:10422000D0E04CE3B801CE010E948B096E018FEF04
:10423000C81AD80A4CE0B801C6010E948B0978015F
:1042400084E0E80EF11C4CEFB701C6010E948B0917
:104250006E0182E0C80ED11C4CE0B801C6010E947C
:104260008B0943E0B701C6010E948B096E0183E010
:10427000C80ED11C4CEFB801C6010E948B0940E06A
:10428000B701CE010E948B0940E0B701C60141C4CD
:1042900010E0D0E040EFB801CE010E948B09780118
:1042A00084E0E80EF11C4CE3B701CE010E948B09BB
:1042B0006E018FEFC81AD80A4CE0B801C6010E94FF
:1042C0008B0943ECB701C6010E948B096E0182E0A5
:1042D000C80ED11C4CE0B801C6010E948B0943EC0A
:1042E000B701C6010E948B09239640EF36C310E048
:1042F000D0E040EFB801CE010E948B096E018FEF34
:10430000C81AD80A4CE0B801C6010E948B0978018E
:1043100084E0E80EF11C43ECB701C6010E948B0952
:104320006E0182E0C80ED11C4CE0B801C6010E94AB
:104330008B0943ECB701C6010E948B096E0183E033
:10434000C80ED11C40EFB801C6010E948B094FE393
:10435000B701C6010E948B0940E0D9C310E0D0E04C
:1043600040EFB801CE010E948B09780184E0E80E8D
:10437000F11C4FEFB701CE010E948B096E018FEF48
:10438000C81AD80A4CE0B801C6010E948B0943E064
:10439000B701C6010E948B096E0182E0C80ED11CD4
:1043A0004CE0B801C6010E948B0943E0B701C60189
:1043B0000E948B096E0183E0C80ED11C4CE0B8014D
:1043C000C6010E948B0943E0B701C6010E948B0918
:1043D000249640EF5DC310E0D0E04CEFB801CE0171
:1043E0000E948B09780184E0E80EF11C4FEFB701C1
:1043F000CE010E948B096E018FEFC81AD80A4CE0DB
:10440000B801C6010E948B0943ECB701C6010E94A6
:104410008B096E0182E0C80ED11C4CE0B801C601C8
:104420000E948B0943ECB701C6010E948B096E0103
:1044300083E0C80ED11C4CE0B801C6010E948B0974
:1044400043ECB701C6010E948B0924964ECF10E0C1
:10445000D0E040EFB801CE010E948B09780184E0E2
:10446000E80EF11C4FE3B701CE010E948B096E01EB
:104470008FEFC81AD80A4CE0B801C6010E948B0918
:1044800040ECB701C6010E948B096E0182E0C80EA4
:10449000D11C4CE0B801C6010E948B0940ECB70169
:1044A000C6010E948B096E0183E0C80ED11C4CE04E
:1044B000B801C6010E948B0940ECB701C6010E94F9
:1044C0008B09249640E3B801CE010E948B0940E39A
:1044D0001EC310E0D0E04CEFB801CE010E948B0962
:1044E000780184E0E80EF11C4FEF4CC110E0D0E001
:1044F0004CEFB801CE010E948B09780184E0E80EF0
:10450000F11C4FEFB701CE010E948B096E018FEFB6
:10451000C81AD80A4CE0B801C6010E948B0943ECC6
:10452000B701C6010E948B096E0182E0C80ED11C42
:104530004CE0B801C6010E948B0943ECB701C601EB
:104540000E948B096E0183E0C80ED11C4CE0B801BB
:10455000C6010E948B0943ECB701C6010E948B097A
:10456000249675C010E0D0E040EFB801CE010E9463
:104570008B09780184E0E80EF11C4FE3B701CE010E
:104580000E948B096E018FEFC81AD80A4CE0B8015F
:10459000C6010E948B0940ECB701C6010E948B093D
:1045A0006E0182E0C80ED11C4CE0B801C6010E9429
:1045B0008B0943ECB701C6010E948B096E0183E0B1
:1045C000C80ED11C4CE0B801C6010E948B0943EC17
:1045D000B701C6010E948B09249640E3BEC110E0DA
:1045E000D0E04CEFB801CE010E948B09780184E045
:1045F000E80EF11C4FEFB701CE010E948B0943E09A
:10460000B701CE0101960E948B0943E0B701A8C013
:1046100010E0D0E04CE0B801CE010E948B09780197
:1046200084E0E80EF11C40ECB701CE010E948B093A
:104630006E018FEFC81AD80A4CEFB801C6010E946C
:104640008B094FEFB701C6010E948B0922964CE0FF
:1046500042C110E0D0E04CEFB801CE010E948B09BE
:10466000780184E0E80EF11C4FEFB701CE010E9403
:104670008B096E018FEFC81AD80A40E0B801C60155
:104680000E948B0943E0B701C6010E948B096E01AD
:1046900082E0C80ED11C40ECB801C6010E948B0913
:1046A0004CE0B701C6010E948B0923962AC210E094
:1046B000D0E04CEFB801CE010E948B090C5F1F4F78
:1046C0004FEFB801CE010E948B0940ECB801CE013A
:1046D00001960E948B0940ECB801CE0102960E941F
:1046E0008B0940ECB801CE0103960E948B0940EC87
:1046F000A7C110E0D0E04CEFB801CE010E948B09B9
:10470000780184E0E80EF11C4FEFB701CE010E9462
:104710008B0940E3B801CE0101960E948B0940EC61
:10472000B801CE0102960E948B0940E3B801AAC1EC
:1047300010E0D0E04CEFB801CE010E948B09780167
:1047400084E0E80EF11C4FEFB701CE010E948B0907
:1047500040E3B801CE0101960E948B0940ECB801FC
:10476000CE0102960E948B0943E08BC110E0D0E09D
:1047700040EFB801CE010E948B09780184E0E80E79
:10478000F11C4FE3B701CE010E948B096E018FEF40
:10479000C81AD80A4CE0B801C6010E948B0940EC47
:1047A000B701C6010E948B096E0182E0C80ED11CC0
:1047B0004CE0B801C6010E948B0940ECB701C6016C
:1047C0000E948B096E0183E0C80ED11C4CE0B80139
:1047D000C6010E948B0940ECB701C6010E948B09FB
:1047E000249640EF09C110E0D0E04CEFB801CE01B3
:1047F0000E948B09780184E0E80EF11C4FEFB701AD
:10480000CE010E948B096E018FEFC81AD80A4CE0C6
:10481000B801C6010E948B0943E0B701C6010E949E
:104820008B096E0182E0C80ED11C4CE0B801C601B4
:104830000E948B0943E0B701C6010E948B096E01FB
:1048400083E0C80ED11C4CE0B801C6010E948B0960
:1048500043E0B701C6010E948B0940EFF1C010E0B0
:10486000D0E040EFB801CE010E948B09780184E0CE
:10487000E80EF11C4FEFB701CE010E948B096E01CB
:104880008FEFC81AD80A4CE0B801C6010E948B0904
:1048900043E0B701C6010E948B096E0182E0C80E99
:1048A000D11C4CE0B801C6010E948B094FE0B70152
:1048B000C6010E948B096E0183E0C80ED11C4CE03A
:1048C000B801C6010E948B0943E3B701C6010E94EB
:1048D0008B09249640EFB801CE010E948B0940EC71
:1048E00016C110E0D0E040EFB801CE010E948B0964
:1048F000780184E0E80EF11C40ECB701CE010E9483
:104900008B096E018FEFC81AD80A4CE0B801C601B6
:104910000E948B0943ECB701C6010E948B096E010E
:1049200082E0C80ED11C4CE0B801C6010E948B0980
:1049300043ECB701C6010E948B096E0183E0C80EEB
:10494000D11C4CE0B801C6010E948B0943ECB701B1
:10495000C6010E948B0924964CE0B801CE010E944A
:104960008B094CE3D4C010E0D0E04CE0B801CE019C
:104970000E948B094CE0B801CE0101960E948B0980
:104980007E0182E0E80EF11C4CEFB801C7010E94E5
:104990008B09B8016C5F7F4F4FEFC7010E948B09F5
:1049A0004CE0B801CE0103960E948B094CE048C050
:1049B00010E0D0E04CEFB801CE010E948B097801E5
:1049C00084E0E80EF11C4FE3B701CE010E948B0991
:1049D00040ECB701CE0101960E948B0940ECB70173
:1049E000CE0102960E948B0940ECB701CE010396DE
:1049F0000E948B0924964CEFB801CE010E948B09CE
:104A00004FE385C010E0D0E04CEFB801CE010E942A
:104A10008B09780184E0E80EF11C4FE0B701CE016C
:104A200001960E948B0940EFB701CE0102960E94C9
:104A30008B094FE0B701CE0103960E948B094CEF22
:104A4000B801CE01049665C010E0D0E04CEFB8018B
:104A5000CE010E948B09780184E0E80EF11C4FEF33
:104A6000B701CE010E948B0940E3B701CE01019648
:104A70000E948B094CE0B701CE0102960E948B097F
:104A800040E3B701CE0103960E948B0924964CEFB8
:104A9000B801CE010E948B094FEF39C010E0D0E081
:104AA0004CE3B801CE010E948B09780184E0E80E46
:104AB000F11C40EFB701CE010E948B096E018FEF10
:104AC000C81AD80A40ECB801C6010E948B094CE014
:104AD000B701C6010E948B0943E0B701CE010296DF
:104AE0000E948B096E0183E0C80ED11C40ECB80116
:104AF000C6010E948B094CE0B701C6010E948B09D8
:104B000024964CE3B801CE010E948B0940EFB70117
:104B1000CE01DF91CF911F910F91FF90EF90DF9029
:104B2000CF900C948B09DF91CF911F910F91FF9043
:104B3000EF90DF90CF9008952F923F924F925F9227
:104B40006F927F928F929F92AF92BF92CF92DF929D
:104B5000EF92FF920F931F93CF93DF93CDB7DEB702
:104B6000AA970FB6F894DEBF0FBECDBF082F082E50
:104B7000000C990B9AA789A746969CA38BA37C014E
:104B800015E0862F660F990B9E838D831C0194E19F
:104B9000290E311C4FEFB101C7010E948B09115042
:104BA0008FEFE81AF80A1111F5CF89A59AA5889612
:104BB0009A8F898F6C0136E0B32E710115E04FEFAB
:104BC000B701C6010E948B09115094E0E90EF11C57
:104BD0001111F5CFBA948FEFC81AD80AB110EDCFE2
:104BE00089A59AA54C969C8F8B8F7C011CE08D81AA
:104BF0009E8148969C838B838D819E814C9698875D
:104C00008F834FEF6B817C81C7010E948B094FEF2F
:104C10006F817885C7010E948B0911509FEFE91AB7
:104C2000F90A1111EECF89A59AA50E969EA38DA320
:104C30006C012FE0922EAD80BE8090E2A90EB11CD7
:104C4000750113E04FEFB701C6010E948B091150A7
:104C500084E0E80EF11C1111F5CF9A949FEFC91A68
:104C6000D90A9110EDCF89A59AA50A96988F8F8BB6
:104C70006C019EE0992E6D807E809CE2690E711C15
:104C8000730115E04FEFB701C6010E948B09115067
:104C900084E0E80EF11C1111F5CF9A949FEFC91A28
:104CA000D90A9110EDCF89A59AA58E969E878D87FA
:104CB0006C017C0117E04FEF6B817C81C7010E9482
:104CC0008B094FEF6F817885C7010E948B091150C6
:104CD0009FEFE91AF90A1111EECF89A59AA54D9611
:104CE0009E8F8D8F7C0114E08D809E8094E2890ED2
:104CF000911C4FEFB501C7010E948B094FEFB40122
:104D0000C7010E948B0911508FEFE81AF80A1111A0
:104D1000F0CF89A59AA5809698A38F8F7C0114E087
:104D20004D805E8098E2490E511C4FEFB201C701E1
:104D30000E948B0911508FEFE81AF80A1111F5CF74
:104D400089A59AA585969A8B898B7C0118E04FEFEF
:104D5000B201C7010E948B0911509FEFE91AF90AAD
:104D60001111F5CF89A59AA544969AA389A37C0130
:104D700018E04FEF6F817885C7010E948B091150B1
:104D80009FEFE91AF90A1111F4CF89A59AA5CC96DB
:104D900098A78FA37C0115E04FEFB201C7010E94D5
:104DA0008B0911509FEFE91AF90A1111F5CF89A566
:104DB0009AA5C2969E8B8D8B7C0118E04FEFB401B3
:104DC000C7010E948B0911509FEFE91AF90A1111CE
:104DD000F5CFE9A4FAA489E3E80EF11C13E04FE350
:104DE000B201C7010E948B0911509FEFE91AF90A1D
:104DF0001111F5CF14E04FE3B401C6010E948B09F5
:104E000011508FEFC81AD80A1111F5CF89A59AA5AC
:104E100048969C8B8B8B7C0116E0CD80DE8090E1E8
:104E2000C90ED11C4CEFB601C7010E948B0911506D
:104E30008FEFE81AF80A1111F5CF89A59AA58F9678
:104E4000988B8F877C0116E08D819E81C8969A870A
:104E500089874FEF69857A85C7010E948B091150B8
:104E60009FEFE91AF90A1111F4CF8EE2E82EF12C26
:104E7000002E000C110B4FEFB501C8018E0D9F1DC8
:104E80000E948B098FEFE81AF80A92E3E916F10401
:104E900091F74CE0B50189A59AA501960E948B096E
:104EA00043E0B50189A59AA502960E948B0943E0CB
:104EB000B50189A59AA503960E948B0909A51AA593
:104EC0000C5F1F4F43E0B501C8010E948B094CE302
:104ED000B201C8010E948B0909A51AA50B5F1F4FDB
:104EE00040EC6F817885C8010E948B0943E0B501D1
:104EF000C8010E948B0940ECB401C8010E948B09D3
:104F00004FE0B201C8010E948B098D819E81C0963D
:104F10009A8389834FE0BC01C8010E948B098D816F
:104F20009E81C4969C878B874CEFBC01C8010E9470
:104F30008B094FEF69857A85C8010E948B09E9A426
:104F4000FAA496E0E90EF11C40EC6F817885C70168
:104F50000E948B0940EFB401C7010E948B0943E016
:104F6000B201C7010E948B094CEFB301C7010E9437
:104F70008B0940EC69817A81C7010E948B094FEF50
:104F80006B857C85C7010E948B094FEF69857A8507
:104F9000C7010E948B090D811E81045C1F4F4FEFDA
:104FA000B801C7010E948B09E9A4FAA487E0E80EC2
:104FB000F11C40EF6F817885C7010E948B094FEF8C
:104FC000B401C7010E948B0940EFB201C7010E94E2
:104FD0008B094FE0B301C7010E948B094CEF698137
:104FE0007A81C7010E948B094FEF6B857C85C701D1
:104FF0000E948B094FEF69857A85C7010E948B0952
:105000004FEFB801C7010E948B09E9A4FAA498E008
:10501000E90EF11C40EF6F817885C7010E948B0972
:1050200040ECB501C7010E948B094FE3B401C701F1
:105030000E948B094FE3B201C7010E948B0940EF28
:10504000B301C7010E948B094FEF69817A81C701C3
:105050000E948B094FEF6B857C85C7010E948B09ED
:105060004FEF69857A85C7010E948B094FEFB80120
:10507000C7010E948B09E9A4FAA489E0E80EF11C9B
:1050800040EF6F817885C7010E948B0940ECB50124
:10509000C7010E948B094FEFB401C7010E948B0921
:1050A0004FE0B201C7010E948B094CEFB301C70169
:1050B0000E948B094FEF69817A81C7010E948B0999
:1050C0004FEF6B857C85C7010E948B094FEF698587
:1050D0007A85C7010E948B094FEFB801C7010E9472
:1050E0008B0940EF6F8178858F89988D0E948B099D
:1050F00040EFB5018F89988D0E948B094FEFB40165
:105100008F89988D0E948B0940E3B2018F89988D19
:105110000E948B09E9A4FAA49BE0E90EF11C40EF80
:105120006F817885C7010E948B094CEFB501C701DB
:105130000E948B094FE3B401C7010E948B094CEF19
:10514000B201C7010E948B09E9A4FAA48CE0E80E21
:10515000F11C4CEF6F817885C7010E948B094CEFE1
:10516000B501C7010E948B094FECB401C7010E9431
:105170008B094FEFB201C7010E948B09E9A4FAA481
:105180009DE0E90EF11C4CEF6F817885C7010E940C
:105190008B094FEFB501C7010E948B0943EFB401A2
:1051A000C7010E948B094FEFB201C7010E948B0912
:1051B0004CEF6F8178858DA19EA10E948B09E9A497
:1051C000FAA48FE0E80EF11C40E3B101C7010E9490
:1051D0008B094FEF6F817885C7010E948B09E9A485
:1051E000FAA490E1E90EF11C40E3B101C7010E946D
:1051F0008B094FEF6F817885C7010E948B09E9A465
:10520000FAA481E1E80EF11C4CE0B101C7010E9453
:105210008B0940EC6B817C81C7010E948B094FECAC
:105220006F817885C7010E948B09E9A4FAA492E1F5
:10523000E90EF11C4CE0B101C7010E948B0940EF5F
:105240006B817C81C7010E948B0943EF6F81788558
:10525000C7010E948B09E9A4FAA483E1E80EF11CBE
:105260004FE0B101C7010E948B0940EF6B817C8147
:10527000C7010E948B094CEF6F817885C7010E949E
:105280008B094FE0B10189A19AA10E948B094CE3DF
:105290006B817C8189A19AA10E948B09E9A4FAA45F
:1052A00095E1E90EF11C40ECB601C7010E948B09A3
:1052B0004FE0B101C7010E948B094FE36B817C81F4
:1052C000C7010E948B0940ECB6018BA19CA10E94F2
:1052D0008B094FEC6B817C818BA19CA10E948B0977
:1052E000E9A4FAA487E1E80EF11C40ECB601C7017D
:1052F0000E948B094FEC6B817C81C7010E948B0956
:1053000043EC6B817C818B899C890E948B094FEFD8
:10531000B3018B899C890E948B094FE369817A8153
:105320008B899C890E948B094FEF69857A858B89CF
:105330009C890E948B094FECB8018B899C890E9443
:105340008B09E9A4FAA499E1E90EF11C43EF6B8102
:105350007C81C7010E948B094FEFB301C7010E94F6
:105360008B094FE069817A81C7010E948B094CEF5C
:1053700069857A85C7010E948B094FECB801C70186
:105380000E948B09E9A4FAA48AE1E80EF11C4CEF13
:105390006B817C81C7010E948B0943E0B301C70187
:1053A0000E948B094FE369817A81C7010E948B09B2
:1053B00040EF69857A85C7010E948B094FECB801DF
:1053C000C7010E948B09E9A4FAA49BE1E90EF11C34
:1053D00043EFB101C7010E948B094CEF6B817C81C7
:1053E000C7010E948B0940EF69817A81C7010E9441
:1053F0008B0940EC69857A85C7010E948B094FEFC4
:10540000B801C7010E948B0943E3B1018B8D9C8DCC
:105410000E948B0940EC69857A858B8D9C8D0E945A
:105420008B094FE3B8018B8D9C8D0E948B0943E360
:10543000B1018D8D9E8D0E948B094FE3B2018D8D40
:105440009E8D0E948B094FE3B8018D8D9E8D0E9429
:105450008B09E9A4FAA48EE1E80EF11C40EFB60135
:10546000C7010E948B0943E0B101C7010E948B096B
:105470004FE3B201C7010E948B094FE3B801C70196
:105480000E948B09E9A4FAA49FE1E90EF11C40EF08
:10549000B601C7010E948B0943ECB101C7010E940C
:1054A0008B094FE3B801C7010E948B094CECB60190
:1054B0008F8D98A10E948B0943ECB1018F8D98A12B
:1054C0000E948B094EE3B8018F8D98A10E948B0931
:1054D000E9A4FAA481E2E80EF11C4CEFB601C70181
:1054E0000E948B0943ECB101C7010E948B094FEF69
:1054F000B501C7010E948B094FECB401C7010E949E
:105500008B094CEFB801C7010E948B09E9A4FAA4EA
:1055100092E2E90EF11C40EFB601C7010E948B092F
:1055200040ECB101C7010E948B094FEFB501C701E3
:105530000E948B094FECB401C7010E948B094CEF0C
:10554000B801C7010E948B09E9A4FAA483E2E80E1E
:10555000F11C4FEFB601C7010E948B094FECB1015E
:10556000C7010E948B094FECB501C7010E948B094E
:1055700043EFB401C7010E948B0943EFB201C70199
:105580000E948B094CEFB801C7010E948B09E9A466
:10559000FAA494E2E90EF11C4CEFB601C7010E9497
:1055A0008B0943ECB101C7010E948B0943EFB501A0
:1055B000C7010E948B0940E3B401C7010E948B0917
:1055C0004CEFB201C7010E948B0940EFB801C7013F
:1055D0000E948B0940EFB60189899A890E948B0944
:1055E00043ECB10189899A890E948B0943E3B50193
:1055F00089899A890E948B0943E0B30189899A8934
:105600000E948B0940EFB80189899A890E948B0911
:105610008D819E810C969C838B83E9A4FAA496E2EB
:10562000E90EF11C40E36B817C81C7010E948B096C
:1056300040ECB601C7010E948B094FECB101C701D4
:105640000E948B0940ECB501C7010E948B0943EF12
:10565000B401C7010E948B0943E0B301C7010E9456
:105660008B0940ECB801C7010E948B09E9A4FAA498
:1056700087E2E80EF11C40EC6B817C81C7010E943F
:105680008B0940ECB601C7010E948B094FECB101B8
:10569000C7010E948B094FEFB501C7010E948B091A
:1056A0004FEFB401C7010E948B094FE0B301C7015E
:1056B0000E948B0940ECB801C7010E948B0940ECA5
:1056C0006B817C81898D9A8D0E948B0943E0B601A4
:1056D000898D9A8D0E948B094FE3B301898D9A8D34
:1056E0000E948B0940E4B801898D9A8D0E948B0934
:1056F000E9A4FAA499E2E90EF11C4FEFB601C70143
:105700000E948B094FEFB301C7010E948B0943E050
:1057100069817A81C7010E948B098D819E810496DF
:105720009A8B898BE9A4FAA49AE2E90EF11C4FE363
:1057300069897A89C7010E948B094CEFB601C701BC
:105740000E948B094FEFB301C7010E948B094FE004
:1057500069817A81C7010E948B09E9A4FAA48BE2CE
:10576000E80EF11C4FEF69897A89C7010E948B0905
:105770008D819E8108969E838D8343E0BC01C70185
:105780000E948B0940EFB601C7010E948B094FEFC1
:10579000B301C7010E948B094FE369817A81C70178
:1057A0000E948B09E9A4FAA49CE2E90EF11C40EFE7
:1057B00069897A89C7010E948B094FE36D817E81D7
:1057C000C7010E948B094FEFB301C7010E948B09EB
:1057D0004FEF69817A81C7010E948B0940E8698592
:1057E0007A85C7010E948B09E9A4FAA48DE2E80E2C
:1057F000F11C4FEF6D817E81C7010E948B0943E050
:105800006B817C81C7010E948B0940E8B201C7010E
:105810000E948B094AE0B301C7010E948B094FEF38
:1058200069817A81C7010E948B0943E06B857C8581
:10583000C7010E948B0940E869857A85C7010E94EB
:105840008B0940EF6D817E818D859E850E948B093D
:105850004FE36B817C818D859E850E948B094CEF87
:10586000B1018D859E850E948B094FE3B4018D8522
:105870009E850E948B094AE2B3018D859E850E9418
:105880008B094CEF69817A818D859E850E948B09F9
:105890004FE36B857C858D859E850E948B094CEB43
:1058A00069857A858D859E850E948B0948E0B801BF
:1058B0008D859E850E948B094FEF6B817C818F8542
:1058C00098890E948B094FEFB6018F8598890E94B5
:1058D0008B094FEFB1018F8598890E948B094FE3A7
:1058E000B4018F8598890E948B0948E2B3018F85A6
:1058F00098890E948B0940EF69817A818F85988908
:105900000E948B094FEF6B857C858F8598890E945B
:105910008B094FE369857A858F8598890E948B0969
:1059200048E0B8018F8598890E948B09E9A4FAA400
:1059300090E3E90EF11C4CEF6B817C81C7010E9462
:105940008B094FEFB601C7010E948B094FEFB101E0
:10595000C7010E948B094FE3B401C7010E948B0964
:1059600048E2B301C7010E948B0940EC69817A814A
:10597000C7010E948B094FEF6B857C85C7010E9490
:105980008B0942E0B801C7010E948B09E9A4FAA47F
:1059900081E3E80EF11C40ECB601C7010E948B09BF
:1059A0004FEFB101C7010E948B094FE3B401C7015A
:1059B0000E948B0940E2B301C7010E948B094FEF9F
:1059C0006B857C85C7010E948B0943E2B801C70142
:1059D0000E948B0940EFB5018D899E890E948B0939
:1059E00040EAB3018D899E890E948B094CEF6B853B
:1059F0007C858D899E890E948B0948E2B8018D893A
:105A00009E890E948B09E9A4FAA493E3E90EF11C94
:105A10004CEFB101C7010E948B0940ECB501C701F1
:105A20000E948B0940EAB301C7010E948B0942E042
:105A300069817A81C7010E948B0940EF6B857C8563
:105A4000C7010E948B0942E0B801C7010E948B097F
:105A5000E9A4FAA484E3E80EF11C40EFB601C70103
:105A60000E948B094FEFB101C7010E948B0943ECE3
:105A7000B501C7010E948B0940E8B301C7010E942C
:105A80008B0942E069817A81C7010E948B0940EC51
:105A90006B857C85C7010E948B0940E2B801C70174
:105AA0000E948B09E9A4FAA495E3E90EF11C40ECED
:105AB0006F817885C7010E948B094FE0B501C7014E
:105AC0000E948B0943E0B201C7010E948B0942E0AA
:105AD00069817A81C7010E948B0940EF6B857C85C3
