:100000000C9462000C947F000C947F000C947F0091
:100010000C947F000C947F000C947F000C942A07B2
:100020000C947F000C947F000C947F000C947F0054
:100030000C947F000C947F000C947F000C947F0044
:100040000C947F000C947F000C947F000C947F0034
:100050000C947F000C947F000C947F000C947F0024
:100060000C947F000C947F009D0FBA0FBA0FE50827
:100070001309490977099209C709F6092A0A630A87
:10008000920ABA0FBA0FBA0FBA0FBA0FBA0FBA0F55
:10009000C60A030B3F0B810BC30BFF0B380C750C0F
:1000A0008E0CAF0CDD0C0B0D2D0D4C0D6A0D770D6C
:1000B000B30DF50D320E6E0E930EB80ED70E010F66
:1000C0003B0F5B0F11241FBECFEFD8E0DEBFCDBFCB
:1000D00011E0A0E0B1E0E6EAFBE502C005900D9278
:1000E000AA3AB107D9F721E0AAEAB1E001C01D920E
:1000F000A63EB207E1F70E944F290C94D12D0C9433
:1001000000008091B3019091B401883B9B400CF4B6
:1001100061C0F8942091B3013091B4018091D30172
:100120009091D401821B930B9093D4018093D301BF
:100130002091B3013091B4018091D8019091D901FF
:10014000821B930B9093D9018093D8012091B30126
:100150003091B4018091DD019091DE01821B930BFF
:100160009093DE018093DD01E1ECF1E02091B30199
:100170003091B40180819181821B930B91838083A4
:10018000369681E0E33DF80789F785E090E09093AB
:100190000D0180930C018091120181508093120116
:1001A0001092B4011092B30180911001909111014D
:1001B00008974CF480911001909111010196909351
:1001C00011018093100183E090E0909303018093EC
:1001D0000201789408954FEF69E18FE90E943E088B
:1001E00080910A01181684F481E090E09093030155
:1001F000809302011092B2018CE08093C001809143
:100200000A01815080930A0108958091090118160E
:1002100084F482E090E0909303018093020188EFE0
:100220008093B2011092C0018091090181508093A6
:1002300009010895AF92CF92EF92FF920F931F930F
:10024000F801EC0DF11D8E179F07A4F4840F911D8A
:10025000081719077CF4C7018A0D911D68177907E3
:100260004CF4620F711D81E090E0E616F70624F071
:1002700080E002C080E090E01F910F91FF90EF902E
:10028000CF90AF900895AF92CF92EF92FF920F93DD
:100290001F93CF93DF93C3EDD1E06091B5017091CF
:1002A000B6018091B3019091B401EA80FB8008818E
:1002B0001981605F7F4F28E0A22ECC8021E048E0CA
:1002C0000E941A01009731F4259621E0C23ED20720
:1002D00021F702C081E090E0DF91CF911F910F9153
:1002E000FF90EF90CF90AF9008956F927F928F9292
:1002F0009F92AF92CF92EF92FF920F931F93CF9363
:10030000DF93609002017090030133ED832E31E0A2
:10031000932EF401C281D3816091B5017091B60131
:100320008091B3019091B4010081118128E0A22E47
:10033000C4807E0120E140E10E941A01892BE9F08E
:100340001092B20180910701909108018C179D07CE
:1003500044F46097D093B601C093B501612C712C21
:100360000CC08091070190910801C817D9072CF49F
:100370002896D093B601C093B501F5E08F0E911C7D
:1003800082EE881681E0980621F670920301609251
:100390000201DF91CF911F910F91FF90EF90CF90CD
:1003A000AF909F908F907F906F900895AF92CF9273
:1003B000EF92FF920F931F93CF93DF93C3EDD1E0A2
:1003C0006091B5017091B6018091B3019091B40133
:1003D000EA80FB800881198128E0A22ECC8020E1F0
:1003E00040E10E941A01009731F4259621E0C23EB7
:1003F000D20731F702C081E090E0DF91CF911F91E9
:100400000F91FF90EF90CF90AF9008954F925F9231
:100410006F927F928F929F92AF92BF92CF92DF9214
:10042000EF92FF920F931F93CF93DF93C1ECD1E034
:100430003CE9832E99249A9442E3B42E54E1D52EBC
:100440004A805B80688079806091B5017091B601C7
:100450008091B3019091B40128E0A22ECC24C394E2
:100460007201830120E140E10E941A01892B09F405
:10047000BFC08C819D818630910569F160F4813027
:10048000910589F08230910509F096C090930101A1
:10049000809300018FC08830910571F178F0099741
:1004A00009F444C089C080910401853008F082C0FD
:1004B000809104018F5F809304017CC080911001C2
:1004C0009091110108970CF075C0809110019091E6
:1004D000110101960CC080911001909111010297B9
:1004E0000CF068C0809110019091110101979093D8
:1004F0001101809310015EC0209110013091110113
:100500004091AE015091AF016091B0017091B10185
:10051000B29EC001B39E900D1124092E000CAA0BAF
:10052000BB0B840F951FA61FB71F3CC02091100165
:10053000309111014091AE015091AF016091B00135
:100540007091B101D29EC001D39E900D1124092E4D
:10055000000CAA0BBB0B84179507A607B70748F03A
:100560001092AE011092AF011092B0011092B10141
:1005700021C020911001309111018091AE01909124
:10058000AF01A091B001B091B101D29EA001D39E64
:10059000500D1124052E000C660B770B841B950B58
:1005A000A60BB70B8093AE019093AF01A093B0015F
:1005B000B093B1011D821C8280910C0190910D01BC
:1005C000B201860D971D0E94BD19998288829B8277
:1005D0008A8240910701509108016091B5017091A4
:1005E000B6018091B3019091B40121E30E94F11210
:1005F000269681E0C33DD80709F022CFDF91CF9145
:100600001F910F91FF90EF90DF90CF90BF90AF9030
:100610009F908F907F906F905F904F900895809102
:10062000B5019091B6018E36910534F082E090E0EC
:1006300090930101809300018091B5019091B601E2
:1006400090930801809307018091B3019091B401C8
:100650009093B8018093B70180910C0190910D01A6
:1006600090930F0180930E01409110015091110160
:10067000609112018091B3019091B4010E941129FF
:100680000E9481000E940602809102019091030164
:10069000892B79F482E08093090180930A010E94FA
:1006A0004301892B31F483E090E090930301809320
:1006B00002018091020190910301029741F483E0CD
:1006C00090E090930301809302010E947501809154
:1006D000C0011816CCF58091020190910301019799
:1006E00099F520911001309111018091C001821B78
:1006F0008093C00180911001909111012091B3016C
:100700003091B401880F991F820F931F9093B40109
:100710008093B301209110013091110180910C015F
:1007200090910D01220F331F821B930B90930D01AB
:1007300080930C010E94D601892B31F082E090E079
:1007400090930101809300018091C001181684F0FC
:100750008091020190910301019751F40E9443019D
:10076000892B31F483E090E09093030180930201A0
:1007700080910201909103010397C9F42091B20185
:100780008091B5019091B601820F911D27FD9A9538
:100790009093B6018093B5018091B20185302CF41D
:1007A0008091B2018F5F8093B2010E9475018091A8
:1007B000B3019091B40164E670E00E94C529892BD1
:1007C000E9F48091AE019091AF01A091B001B09198
:1007D000B1010196A11DB11D8093AE019093AF01AF
:1007E000A093B001B093B1016091AE017091AF01DF
:1007F0008091B0019091B1010E940A1020911001E6
:10080000309111018091B3019091B401820F931F37
:100810009093B4018093B3012091100130911101A4
:1008200080910C0190910D01821B930B90930D010F
:1008300080930C01089580910B01803309F00EC262
:1008400080910001909101018330910541F0843045
:10085000910509F47EC0892B09F0BBC108C14B99F1
:1008600025C081E380930B010E944F076093B9017B
:100870007093BA018093BB019093BC016091050114
:10088000809106010E9402118091050190E0C897B5
:1008900024F480910501865F01C08DE280930501FB
:1008A00060910501809106010E946A104A9925C055
:1008B00081E380930B010E944F076093B90170930D
:1008C000BA018093BB019093BC01609105018091B6
:1008D00006010E9402118091050190E0C79724F063
:1008E000809105018A5001C081E4809305016091E7
:1008F0000501809106010E946A104E99AFC181E303
:1009000080930B010E944F076093B9017093BA0165
:100910008093BB019093BC01809105018D3231F42D
:1009200082E090E0909301018093000180910501A5
:1009300080910501813409F091C10E941A080E943A
:10094000521084E090E0909301018093000187E3CE
:1009500086C04B9925C081E380930B010E944F070D
:100960006093B9017093BA018093BB019093BC016D
:1009700060910501809106010E940211809105019C
:1009800090E0C89724F480910501865F01C08DE254
:100990008093050160910501809106010E946A1013
:1009A0004A9925C081E380930B010E944F07609311
:1009B000B9017093BA018093BB019093BC0160911F
:1009C0000501809106010E9402118091050190E0CD
:1009D000C79724F0809105018A5001C081E480937B
:1009E000050160910501809106010E946A104E99EF
:1009F00035C181E380930B010E944F076093B901D9
:100A00007093BA018093BB019093BC018091050162
:100A10008D3231F481E090E09093110180931001C8
:100A200080910501873331F482E090E090931101C9
:100A30008093100180910501813431F487E090E0CA
:100A400090931101809310010E941A080E943A109D
:100A500083E090E090930101809300018DE2809308
:100A6000050160910501809106010C946A104A9974
:100A70001BC081E380930B010E944F076093B90173
:100A80007093BA018093BB019093BC012091100137
:100A9000309111018091B5019091B601821B930BA9
:100AA0009093B6018093B5014B991BC081E380936D
:100AB0000B010E944F076093B9017093BA018093B4
:100AC000BB019093BC0120911001309111018091E4
:100AD000B5019091B601820F931F9093B601809358
:100AE000B5014D9929C081E380930B010E944F0706
:100AF0006093B9017093BA018093BB019093BC01DC
:100B000020911001309111018091B3019091B401B5
:100B1000820F931F9093B4018093B3012091100131
:100B20003091110180910C0190910D01821B930B6A
:100B300090930D0180930C014C9929C081E380931F
:100B40000B010E944F076093B9017093BA01809323
:100B5000BB019093BC012091100130911101809153
:100B6000B3019091B401821B930B9093B4018093D5
:100B7000B301209110013091110180910C019091ED
:100B80000D01820F931F90930D0180930C014E99DC
:100B90000FC081E380930B010E9405010E944F0763
:100BA0006093B9017093BA018093BB019093BC012B
:100BB0004F990FC081E380930B010E94EB000E94CC
:100BC0004F076093B9017093BA018093BB01909372
:100BD000BC01359922C081E380930B010E944F072D
:100BE0006093B9017093BA018093BB019093BC01EB
:100BF00083E090E090930101809300010E941A0825
:100C00000E943A108DE28093060180930501609165
:100C10000501809106010E946A1034991FC081E38A
:100C200080930B010E944F076093B9017093BA0142
:100C30008093BB019093BC018091000190910101D0
:100C4000892B39F481E090E09093010180930001B9
:100C50000895109201011092000108950895809165
:100C6000AA019091AB01A091AC01B091AD0180912E
:100C7000AE019091AF01A091B001B091B10160912E
:100C8000B3017091B4012091B7013091B801809106
:100C90000C0190910D01621B730B0E94D012809188
:100CA0000C0190910D010E949C12409107015091FE
:100CB00008016091B5017091B60120E385E090E0F4
:100CC0000C94F112CF93DF938091040181508093B3
:100CD000040180910401811111C01092AE011092A3
:100CE000AF011092B0011092B10183E08093040132
:100CF00082E090E090931101809310010E941A0805
:100D00000E9483280E94EC27809104010E949A117E
:100D10006091AE017091AF018091B0019091B101ED
:100D20000E940A1085E090E090930D0180930C01E1
:100D300080910C0190910D010E94B612C1E0D0E0AB
:100D4000D0930801C0930701409107015091080119
:100D500020E360E070E085E090E00E94F1121092E4
:100D6000B4011092B3011092B6011092B501109225
:100D7000B20183E090E09093030180930201D0934D
:100D80000101C0930001DF91CF9108950E945A079D
:100D900084E00E94E40684E00E94FF060E94662A26
:100DA0000E9418078AB183708AB98BB18C6F8BB996
:100DB00087B18F7C87B988B1806388B90E94C807E2
:100DC0000E9483280C94EC2797B121E030E0082E94
:100DD00001C0220F0A94EAF72095292327B997E842
:100DE00090937A00806480937C0080917A00806484
:100DF00080937A0080917A0086FDFCCF08959091CF
:100E00007C00907F90937C0090917C008F70982B59
:100E100090937C0080917A00806480937A00809126
:100E20007A0086FDFCCF809178009091790008953A
:100E30001092B20082E08093B00085E08093B10010
:100E40008DE78093B300E0E7F0E0808182608083EB
:100E5000789408951F920F920FB60F9211248F93DA
:100E60009F93AF93BF938091E2019091E301A09192
:100E7000E401B091E5010196A11DB11D8093E2014D
:100E80009093E301A093E401B093E501BF91AF918A
:100E90009F918F910F900FBE0F901F901895F8940F
:100EA0006091E2017091E3018091E4019091E5018C
:100EB00078940895E1ECF0E080818861808387E692
:100EC00090E09093C5008093C40008959091C00075
:100ED00095FFFCCF8093C60080E090E00895CF930B
:100EE000DF93EC018991882319F00E946607FACFFD
:100EF000DF91CF9108951F93CF93DF93EC01FE0113
:100F00001491812F0E946607112311F02196F7CFCB
:100F1000DF91CF911F910895CF93DF93CDB7DEB7C7
:100F20002A970FB6F894DEBF0FBECDBF4AE0BE01D0
:100F30006F5F7F4F0E94712ACE0101960E946F075A
:100F40002A960FB6F894DEBF0FBECDBFDF91CF91CA
:100F500008958091C00087FFFCCF8091C60008955E
:100F60006111299A27E030E090E02D98AC01022E23
:100F700002C0559547950A94E2F740FF02C02B9AAC
:100F800001C02B982D9A2150310978F7299808959E
:100F9000CF93DF93259A239A249A219A209A2C9A08
:100FA00029982D98289A85E38A95F1F700002898CA
:100FB00060E081EF0E94B00760E087E60E94B00722
:100FC00060E086EC0E94B00760E080E40E94B00719
:100FD00060E080E50E94B00760E08BE20E94B0070D
:100FE00060E08BEE0E94B00760E081E80E94B007ED
:100FF00060E08FE50E94B00760E089E80E94B007DA
:10100000C0E4D0E161E080E00E94B0072197D1F711
:1010100060E080E00E94B00760E080E10E94B007DD
:1010200060E080E60E94B00760E08FEADF91CF9138
:101030000C94B007CF93DF9360E080E00E94B0078C
:1010400060E080E10E94B00760E080E60E94B007A7
:10105000C0E4D0E161E080E00E94B0072197D1F7C1
:1010600060E080E00E94B00760E080E10E94B0078D
:1010700060E080E6DF91CF910C94B0071F93CF938F
:10108000DF93C82F162FD42F60E08F700E94B00717
:101090008C2F82958F7060E0805F0E94B00760E0C7
:1010A00080E6810F0E94B00761E08D2FDF91CF9124
:1010B0001F910C94B00780528B3330F4E82FF0E08E
:1010C000E95EFE4F8081089580E00895CF92DF921F
:1010D000EF92FF920F931F93CF93DF93803A910586
:1010E00008F051C06936710508F04DC0042F7C012D
:1010F000EB01D595C795D595C7956B0183E0C822BF
:10110000DD24C114D10421F46C2F8E2D0E943E08E1
:1011100081E0C816D10411F484E00BC082E0C81647
:10112000D10411F480E105C083E0C816D10459F55B
:1011300080E4089F80011124D02E8091BD0190E0B1
:10114000E816F90649F48091BE0190E0C817D90766
:1011500019F4D090BF01D02A4D2D6C2F8E2D0E94F6
:101160003E08E092BD01C093BE01D092BF01CF5FA7
:10117000412F6C2F8E2D0E943E08E092BD01C0933E
:10118000BE011093BF01DF91CF911F910F91FF908E
:10119000EF90DF90CF900895CF92DF92EF92FF9281
:1011A0000F931F93CF93DF93082E000C990BAA0B7C
:1011B000BB0BFC01BD97EE32F10508F0DBC6042F36
:1011C000C62FEC5CFF4F0C94FB2910E0D0E040EF01
:1011D000B801CE010E946608780184E0E80EF11C97
:1011E0004FE3B701CE010E9466086E018FEFC81A67
:1011F000D80A4CE0B801C6010E9466084CECB70161
:10120000C6010E9466086E0182E0C80ED11C4CE047
:10121000B801C6010E94660843ECB701C6010E94EE
:1012200066082396A9C210E0D0E040E3B801CE01E1
:101230000E946608780184E0E80EF11C40ECB701DA
:10124000CE010E9466086E018FEFC81AD80A4CEFD3
:10125000B801C6010E9466084FEFB701C6010E949F
:1012600066086E0182E0C80ED11C40E0B801C601DC
:101270000E94660840ECB701C6010E9466082396EA
:1012800040E0B801CE010E94660840E0B701CE01FF
:1012900067C610E0D0E040E3B801CE010E946608C6
:1012A000780184E0E80EF11C40EFB701CE010E9406
:1012B00066086E018FEFC81AD80A4CE0B801C60163
:1012C0000E9466084CECB701C6010E9466086E01D8
:1012D00082E0C80ED11C4CE0B801C6010E9466082D
:1012E00043ECB701C6010E9466082396B9C410E01A
:1012F000D0E040E3B801CE010E946608780184E0A6
:10130000E80EF11C40E3B701CE010E9466086E01B1
:101310008FEFC81AD80A4CE0B801C6010E946608CF
:1013200040ECEBC010E0D0E040ECB801CE010E94F0
:101330006608780184E0E80EF11C4FE0B701CE01A9
:101340000E9466086E018FEFC81AD80A40E3B80100
:10135000C6010E9466084CE0B701C6010E946608FB
:101360006E0182E0C80ED11C4CEFB801C6010E948C
:1013700066084FEFB701C6010E94660823964CE04D
:10138000B701CE010E94660840E0B80180CF10E0AE
:10139000D0E04CEFB801CE010E946608780184E0ED
:1013A000E80EF11C43ECB701CE010E9466086E0105
:1013B0008FEFC81AD80A4CE0B801C6010E9466082F
:1013C00043ECB701C6010E9466086E0182E0C80EB8
:1013D000D11C4CE0B801C6010E94660843ECB7017D
:1013E000C6010E94660823964CE005C510E0D0E0D7
:1013F00040ECB801CE010E946608780184E0E80E56
:10140000F11C4FE3B701CE010E9466086E018FEF19
:10141000C81AD80A40E3B801C6010E94660843EC26
:10142000B701C6010E9466086E0182E0C80ED11C99
:101430004CE0B801C6010E94660843ECB701C60142
:101440000E94660823964CE0B801CE010E9466080F
:101450004CE31CCF10E0D0E04CE3B801CE010E9479
:1014600066086E018FEFC81AD80A4CE0B801C601B1
:101470000E946608780184E0E80EF11C4CEFB70189
:10148000C6010E9466086E0182E0C80ED11C4CE0C5
:10149000B801C6010E94660843E0B701C6010E9478
:1014A00066086E0183E0C80ED11C4CEFB801C6017E
:1014B0000E94660840E0B701CE010E94660840E045
:1014C000B701C6014DC510E0D0E040EFB801CE0134
:1014D0000E946608780184E0E80EF11C4CE3B70135
:1014E000CE010E9466086E018FEFC81AD80A4CE040
:1014F000B801C6010E94660843ECB701C6010E940C
:1015000066086E0182E0C80ED11C4CE0B801C6012D
:101510000E94660843ECB701C6010E946608239644
:1015200040EF92CF10E0D0E040EFB801CE010E9432
:1015300066086E018FEFC81AD80A4CE0B801C601E0
:101540000E946608780184E0E80EF11C43ECB701C4
:10155000C6010E9466086E0182E0C80ED11C4CE0F4
:10156000B801C6010E94660843ECB701C6010E949B
:1015700066086E0183E0C80ED11C40EFB801C601B9
:101580000E9466084FE3B701C6017DCE10E0D0E0AF
:1015900040EFB801CE010E946608780184E0E80EB1
:1015A000F11C4FEFB701CE010E9466086E018FEF6C
:1015B000C81AD80A4CE0B801C6010E94660843E088
:1015C000B701C6010E9466086E0182E0C80ED11CF8
:1015D0004CE0B801C6010E94660843E0B701C601AD
:1015E0000E9466086E0183E0C80ED11C4CE0B80171
:1015F000C6010E94660843E0B701C6010E94660862
:10160000249640EFF8C310E0D0E04CEFB801CE01D3
:101610000E946608780184E0E80EF11C4FEFB701E4
:10162000CE010E9466086E018FEFC81AD80A4CE0FE
:10163000B801C6010E94660843ECB701C6010E94CA
:1016400066086E0182E0C80ED11C4CE0B801C601EC
:101650000E94660843ECB701C6010E9466086E014D
:1016600083E0C80ED11C4CE0B801C6010E94660898
:1016700043ECB701C6010E946608249651CF10E0E2
:10168000D0E040EFB801CE010E946608780184E006
:10169000E80EF11C4FE3B701CE010E9466086E010F
:1016A0008FEFC81AD80A4CE0B801C6010E9466083C
:1016B00040ECB701C6010E9466086E0182E0C80EC8
:1016C000D11C4CE0B801C6010E94660840ECB7018D
:1016D000C6010E9466086E0183E0C80ED11C4CE072
:1016E000B801C6010E94660840ECB701C6010E941D
:1016F0006608249640E3B801CE010E94660840E3E4
:10170000C5CD10E0D0E04CEFB801CE010E946608D4
:10171000780184E0E80EF11C4FEFB701CE010E9482
:1017200066086E018FEFC81AD80A4CE0B801C601EE
:101730000E94660840ECB701C6010E9466086E016F
:1017400082E0C80ED11C4CE0B801C6010E946608B8
:1017500040ECB701C6010E9466086E0183E0C80E26
:10176000D11C4CE0B801C6010E94660840ECB701EC
:10177000C6010E946608249640EFB801CE010E947F
:1017800066084FE383CD10E0D0E04CEFB801CE0106
:101790000E946608780184E0E80EF11C4FEFB70163
:1017A000CE010E9466086E018FEFC81AD80A4CE07D
:1017B000B801C6010E94660843ECB701C6010E9449
:1017C00066086E0182E0C80ED11C4CE0B801C6016B
:1017D0000E94660843ECB701C6010E9466086E01CC
:1017E00083E0C80ED11C4CE0B801C6010E94660817
:1017F00043ECB701C6010E9466082496AEC010E013
:10180000D0E04CEFB801CE010E946608780184E078
:10181000E80EF11C4FEFB701CE010E9466086E0181
:101820008FEFC81AD80A4CE0B801C6010E946608BA
:1018300043E0B701C6010E9466086E0182E0C80E4F
:10184000D11C4CE0B801C6010E94660843E0B70114
:10185000C6010E9466086E0183E0C80ED11C4CE0F0
:10186000B801C6010E94660843E0B701C60157C22D
:1018700010E0D0E040EFB801CE010E946608780188
:1018800084E0E80EF11C4FE3B701CE010E94660828
:101890006E018FEFC81AD80A4CE0B801C6010E9449
:1018A000660840ECB701C6010E9466086E0182E03E
:1018B000C80ED11C4CE0B801C6010E94660843EC7A
:1018C000B701C6010E9466086E0183E0C80ED11CF4
:1018D0004CE0B801C6010E94660843ECB701C6019E
:1018E0000E946608249640E3AFCD10E0D0E04CEFB4
:1018F000B801CE010E946608780184E0E80EF11C70
:101900004FEFB701CE010E94660843E0B701CE0158
:1019100001960E94660843E0B701D6C010E0D0E00F
:101920004CE0B801CE010E946608780184E0E80E20
:10193000F11C40ECB701CE010E9466086E018FEFEA
:10194000C81AD80A4CEFB801C6010E9466084FEFCA
:10195000B701C6010E94660822964CE0E8C210E07A
:10196000D0E04CE0B801CE010E946608780184E026
:10197000E80EF11C40E3B701CE010E9466086E013B
:101980008FEFC81AD80A4CE0B801C6010E94660859
:1019900040ECB701C6010E9466086E0182E0C80EE5
:1019A000D11C4CE0B801C6010E94660840ECB701AA
:1019B000C6010E9466082396D9C110E0D0E04CEF22
:1019C000B801CE010E946608780184E0E80EF11C9F
:1019D0004FEFB701CE010E9466086E018FEFC81A63
:1019E000D80A43E0B801C6010E94660843E0B70187
:1019F000C6010E9466086E0182E0C80ED11C40EC50
:101A0000B801C6010E9466084CE0B701C6010E94F9
:101A10006608239629C210E0D0E04CEFB801CE0151
:101A20000E9466080C5F1F4F4FEFB801CE010E9465
:101A3000660840ECB801CE0101960E94660840ECB1
:101A4000B801CE0102960E94660840ECB801CE01B2
:101A500003960E94660840EC2AC210E0D0E04CEFEA
:101A6000B801CE010E946608780184E0E80EF11CFE
:101A70004FEFB701CE010E94660840E3B801CE01E6
:101A800001960E94660840ECB801CE0102960E94C1
:101A9000660840E3B801A9C110E0D0E04CEFB801FE
:101AA000CE010E946608780184E0E80EF11C4FEF39
:101AB000B701CE010E94660840E3B801CE0101964D
:101AC0000E94660840ECB801CE0102960E946608AA
:101AD00043E08AC110E0D0E040EFB801CE010E949F
:101AE0006608780184E0E80EF11C4FE316CE10E0A2
:101AF000D0E04CEFB801CE010E946608780184E086
:101B0000E80EF11C4FEFB701CE010E9466086E018E
:101B10008FEFC81AD80A4CE0B801C6010E946608C7
:101B200043E0B701C6010E9466086E0182E0C80E5C
:101B3000D11C4CE0B801C6010E94660843E0B70121
:101B4000C6010E9466086E0183E0C80ED11C4CE0FD
:101B5000B801C6010E94660843E0B701C6010E94B1
:101B6000660840EFA4C110E0D0E040EFB801CE011C
:101B70000E946608780184E0E80EF11C4FE3B7018B
:101B8000CE010E9466086E018FEFC81AD80A4CE099
:101B9000B801C6010E94660840ECB701C6010E9468
:101BA00066086E0182E0C80ED11C4CE0B801C60187
:101BB0000E9466084CECB701C6010E9466086E01DF
:101BC00083E0C80ED11C4CE0B801C6010E94660833
:101BD00040E3B701C6010E946608249640EFB801B1
:101BE000CE010E9466084FEC51CB10E0D0E040EFF0
:101BF000B801CE010E946608780184E0E80EF11C6D
:101C00004FEFB701CE010E9466086E018FEFC81A30
:101C1000D80A4CE0B801C6010E94660843E0B7014B
:101C2000C6010E9466086E0182E0C80ED11C4CE01D
:101C3000B801C6010E9466084FE0B701C6010E94C4
:101C400066086E0183E0C80ED11C4CE0B801C601E5
:101C50000E94660843E3B701C6010E946608249605
:101C600040EF65C110E0D0E040EFB801CE010E9426
:101C70006608780184E0E80EF11C40ECB701CE0163
:101C80000E9466086E018FEFC81AD80A4CE0B801AE
:101C9000C6010E94660843ECB701C6010E946608AF
:101CA0006E0182E0C80ED11C4CE0B801C6010E9452
:101CB000660843ECB701C6010E9466086E0183E026
:101CC000C80ED11C4CE0B801C6010E94660843EC66
:101CD000B701C6010E9466082496B5CB10E0D0E09B
:101CE0004CE0B801CE010E9466084CE0B801CE017C
:101CF00001960E9466087E0182E0E80EF11C4CEF1E
:101D0000B801C7010E946608B8016C5F7F4F4FEFB2
:101D1000C7010E9466084CE0B801CE0103960E94FC
:101D200066084CE0C4C010E0D0E04CEFB801CE0132
:101D30000E946608780184E0E80EF11C4FE3B701C9
:101D4000CE010E94660840ECB701CE0101960E94C8
:101D5000660840ECB701CE0102960E94660840EC8E
:101D6000B701CE0103960E94660824964CEF05CD7C
:101D700010E0D0E04CEFB801CE010E946608780177
:101D800084E0E80EF11C4FE0B701CE0101960E94FD
:101D9000660840EFB701CE0102960E9466084FE048
:101DA000B701CE0103960E9466084CEF80C010E098
:101DB000D0E04CEFB801CE010E946608780184E0C3
:101DC000E80EF11C4FEFB701CE010E94660840E318
:101DD000B701CE0101960E9466084CE0B701CE0122
:101DE00002960E94660840E3B701CE0103960E9466
:101DF000660824964CEFB801CE010E9466084FEFAA
:101E000045CA10E0D0E04CE3B801CE010E9466085C
:101E1000780184E0E80EF11C40EFB701CE010E948A
:101E200066086E018FEFC81AD80A40ECB801C601E7
:101E30000E9466084CE0B701C6010E94660843E0B4
:101E4000B701CE0102960E9466086E0183E0C80EBB
:101E5000D11C40ECB801C6010E9466084CE0B701F5
:101E6000C6010E94660824964CE3B801CE010E9488
:101E7000660840EF0BCA10E0D0E04CE3B801CE0199
:101E80000E94660840ECB801CE0101960E946608E7
:101E9000B8016C5F7F4F4FEFCE0102960E9466083B
:101EA00040ECB801CE0103960E9466084CE3B801ED
:101EB000CE01049655C010E0D0E04CE0B801CE0150
:101EC0000E946608780184E0E80EF11C40EFB7013B
:101ED000CE010E9466086E018FEFC81AD80A4CE046
:101EE000B801C6010E9466084CECB701C6010E9409
:101EF00066086E0182E0C80ED11C4CE0B801C60134
:101F00000E94660843ECB701C6010E9466086E0194
:101F100083E0C80ED11C4CECB801C6010E946608D3
:101F200040ECB701C6010E94660824964CE3B80154
:101F3000CE010E94660840ECA9C910E00C5F1F4F5B
:101F4000D0E043E0B801CE010E94660843E0B8014A
:101F5000CE0101960E94660843E0B801CE010296C8
:101F6000DF91CF911F910F91FF90EF90DF90CF9075
:101F70000C946608DF91CF911F910F91FF90EF9025
:101F8000DF90CF900895AF92BF92CF92DF92EF9201
:101F9000FF920F931F93CF93DF93D62EC42E8C0105
:101FA000D0E0C0E0E62EF12C5801F80180818823B2
:101FB00031F1C7018C0F911D8B3991054CF04D2FDC
:101FC0004C0D6C2F6D0D8DE20E94CC08D75FC0E0E8
:101FD0004D2F4C0D6C2F6D0DD8018D918D010E94F0
:101FE000CC08D501EC91E052EB3328F4F0E0E95E47
:101FF000FE4F608101C060E0C60FCF5FD5CFDF919B
:10200000CF911F910F91FF90EF90DF90CF90BF90F5
:10201000AF9008950F931F93CF93DF93CDB7DEB7A3
:1020200062970FB6F894DEBF0FBECDBF9F938F931C
:102030007F936F9381E691E09F938F938E010F5F63
:102040001F4F1F930F930E94962A40E66DE6C8012A
:102050000E94C30F0FB6F894DEBF0FBECDBF6296CD
:102060000FB6F894DEBF0FBECDBFDF91CF911F91A9
:102070000F91089549E167E387E691E00E94C30F5D
:102080004DE267E382E791E00E94C30F47E367E315
:102090008EE791E00E94C30F41E467E388E891E096
:1020A0000C94C30F49E167E388E891E00E94C30FF5
:1020B0004DE267E385E991E00E94C30F47E367E3E0
:1020C0008CE991E00E94C30F41E467E383EA91E069
:1020D0000C94C30FCF92DF92EF92FF920F931F9356
:1020E000CF93DF93062F10E0C82FD0E040ECB8016B
:1020F000CE010E946608780184E0E80EF11C4CE0F5
:10210000B701CE010E9466086E018FEFC81AD80A87
:1021100040ECB801C6010E9466084CE0B701C60158
:102120000E9466086E0182E0C80ED11C40ECB80126
:10213000C6010E9466084CE0B701C6010E9466080D
:102140006E0183E0C80ED11C40ECB801C6010E94AC
:1021500066084CE0B701C6010E9466086E0184E083
:10216000C80ED11C40ECB801C6010E9466084CE0C4
:10217000B701C6010E9466086E0185E0C80ED11C39
:102180004CE0B801C6010E94660840ECB701C601E8
:102190000E9466086E0186E0C80ED11C4CE3B801AF
:1021A000C6010E94660840EFB701C6010E9466089A
:1021B0006E0187E0C80ED11C40EFB801C6010E9435
:1021C00066084CE3B701C6010E9466086E0188E00C
:1021D000C80ED11C40ECB801C6010E9466084FE051
:1021E000B701C6010E94660843E0B701CE01099617
:1021F000DF91CF911F910F91FF90EF90DF90CF90E3
:102200000C946608CF92DF92EF92FF920F931F9388
:10221000CF93DF93062F10E0C82FD0E040E0B80145
:10222000CE010E946608780184E0E80EF11C40E0CF
:10223000B701CE010E9466086E018FEFC81AD80A56
:1022400040E0B801C6010E94660840E0B701C6013F
:102250000E9466086E0182E0C80ED11C40E0B80101
:10226000C6010E94660840E0B701C6010E946608E8
:102270006E0183E0C80ED11C40E0B801C6010E9487
:10228000660840E0B701C6010E9466086E0184E05E
:10229000C80ED11C40E0B801C6010E94660840E0AB
:1022A000B701C6010E9466086E0185E0C80ED11C08
:1022B00040E0B801C6010E94660840E0B701C601CF
:1022C0000E9466086E0186E0C80ED11C40E0B8018D
:1022D000C6010E94660840E0B701C6010E94660878
:1022E0006E0187E0C80ED11C40E0B801C6010E9413
:1022F000660840E0B701C6010E9466086E0188E0EA
:10230000C80ED11C40E0B801C6010E94660840E03A
:10231000B701C6010E94660840E0B701CE010996E8
:10232000DF91CF911F910F91FF90EF90DF90CF90B1
:102330000C946608EF92FF920F931F93CF93DF9355
:1023400092E3E92EF12C00E010E0C82FD0E00C174A
:102350001D075CF460E670E0C7010E9404160F5F81
:102360001F4F88E0E80EF11CF2CFDF91CF911F9153
:102370000F91FF90EF900895EF92FF920F931F93AC
:10238000CF93DF937B01EC018C01040F111DC0176B
:10239000D10734F4B701CE010E9485162F96F7CFEE
:1023A000DF91CF911F910F91FF90EF900895AF9221
:1023B000BF92CF92DF92EF92FF920F931F93CF9332
:1023C000DF936C018B01EC01C40FD11D5E018FEF17
:1023D000A81AB80A40E0C5010E946608780184E0A6
:1023E000E80EF11C40E0B701C5010E9466085E01DD
:1023F00082E0A80EB11C40E0B801C5010E94660849
:1024000040E0B701C5010E9466085E0183E0A80EA6
:10241000B11C40E0B801C5010E94660840E0B70168
:10242000C5010E9466085E0184E0A80EB11C40E070
:10243000B801C5010E94660840E0B701C5010E94CD
:1024400066085E0185E0A80EB11C40E0B801C50138
:102450000E94660840E0B701C5010E9466085E015F
:1024600086E0A80EB11C40E0B801C5010E946608D4
:1024700040E0B701C5010E9466085E0187E0A80E32
:10248000B11C40E0B801C5010E94660840E0B701F8
:10249000C5010E9466085E0188E0A80EB11C40E0FC
:1024A000B801C5010E94660840E0B701C5010E945D
:1024B00066085E0189E0A80EB11C40E0B801C501C4
:1024C0000E94660840E0B701C5010E9466085E01EF
:1024D0008AE0A80EB11C40E0B801C5010E94660860
:1024E00040E0B701C5010E9466085E018BE0A80EBE
:1024F000B11C40E0B801C5010E94660840E0B70188
:10250000C5010E9466082C9640E0B801CE010E94E9
:10251000660840E0B701CE010E946608B801C60116
:10252000DF91CF911F910F91FF90EF90DF90CF90AF
:10253000BF90AF900C9485160F931F93CF93DF93AA
:102540008C01C3EDD1E06A817B81888199814C81C6
:10255000800F911F0E94D711259681E0C23ED807B7
:1025600091F7DF91CF911F910F9108950F931F93D2
:10257000CF93DF938C01C3EDD1E06A817B818881A9
:1025800099814C81800F911F0E94BC11259681E09A
:10259000C23ED80791F7DF91CF911F910F91089517
:1025A000EF92FF920F931F93CF93DF938C017B01E8
:1025B000C1ECD1E04C815D816A817B818881998108
:1025C0009701800F911F0E946417269681E0C33DFA
:1025D000D80781F7DF91CF911F910F91FF90EF9076
:1025E00008952F923F924F925F926F927F928F92B7
:1025F0009F92AF92BF92CF92DF92EF92FF920F9392
:102600001F93CF93DF93CDB7DEB76A970FB6F894D9
:10261000DEBF0FBECDBF9A8F898F2B015A018A0171
:10262000085F1F4F40E0B8010E946608750184E012
:10263000E80EF11C898D9A8D0196988B8F8740E06A
:10264000B7010E94660840E0B8018F8598890E9412
:10265000660865019CE0C90ED11C40E0B6018F857B
:1026600098890E946608898D9A8D02969A8B898B2B
:1026700040E0B7010E94660840E0B80189899A8964
:102680000E94660840E0B60189899A890E9466081E
:10269000898D9A8D03969C8B8B8B40E0B7010E94AD
:1026A000660840E0B8018B899C890E94660840E07A
:1026B000B6018B899C890E946608898D9A8D049643
:1026C0009A83898340E0B5010E94660840E0B70123
:1026D00089819A810E94660840E0B80189819A81C7
:1026E0000E94660840E0B60189819A810E946608CE
:1026F000898D9A8D05969C838B8340E0B5010E945D
:10270000660840E0B7018B819C810E94660840E02A
:10271000B8018B819C810E94660840E0B6018B81E4
:102720009C810E946608898D9A8D06969E838D8372
:1027300040E0B5010E94660840E0B7018D819E81AE
:102740000E94660840E0B8018D819E810E94660863
:1027500040E0B6018D819E810E946608898D9A8D28
:10276000079698878F8340E0B5010E94660840E095
:10277000B7018F8198850E94660840E0B8018F817B
:1027800098850E94660840E0B6018F8198850E9476
:102790006608898D9A8D08969A87898740E0B501E9
:1027A0000E94660840E0B70189859A850E94660804
:1027B00040E0B80189859A850E94660840E0B6012C
:1027C00089859A850E946608898D9A8D09969E8BC7
:1027D0008D8B40E0B7010E94660840E0B8018D890A
:1027E0009E890E94660840E0B6018D899E890E94FC
:1027F0006608898D9A8D0A96988F8F8B40E0B50177
:102800000E94660840E0B7018F89988D0E94660893
:1028100040E0B8018F89988D0E946608898D9A8D55
:102820000B969C878B8740E0B5010E94660840E0CC
:10283000B7018B859C850E94660840E0B8018B85B6
:102840009C850E94660840E0B6018B859C850E94AD
:102850006608898D9A8D0C969E878D8740E0B5011C
:102860000E94660840E0B7018D859E850E9466083B
:1028700040E0B8018D859E850E94660840E0B60163
:102880008D859E850E946608298C3A8C9DE0290ED4
:10289000311C40E0B501C1010E94660840E0B7016B
:1028A000C1010E94660840E0B801C1010E946608AB
:1028B00040E0B601C1010E946608698C7A8C8EE006
:1028C000680E711C40E0B501C3010E94660840E03B
:1028D000B701C3010E94660840E0B801C3010E942D
:1028E000660840E0B601C3010E946608898C9A8C94
:1028F0009FE0890E911C40E0B501C4010E9466086A
:1029000040E0B701C4010E94660840E0B801C4017C
:102910000E94660840E0B601C4010E946608820178
:10292000085F1F4F42E0B801898D9A8D0E946608AA
:10293000C20104969A8F898F40EFBC018F859889D8
:102940000E9466084BE0B8018F8598890E9466084E
:1029500072019CE0E90EF11C42E0B7018F85988975
:102960000E9466084CEF698D7A8D89899A890E9448
:1029700066084FEBB80189899A890E94660840EF82
:10298000B70189899A890E9466084FE3698D7A8D1B
:102990008B899C890E94660840EAB8018B899C89D2
:1029A0000E9466084DEFB7018B899C890E946608DA
:1029B00043E0B20189819A810E9466084FEF698DD8
:1029C0007A8D89819A810E9466084BE7B8018981D6
:1029D0009A810E94660845E3B70189819A810E9425
:1029E00066084FEFB2018B819C810E9466084AEF16
:1029F000698D7A8D8B819C810E9466084FEFB801AA
:102A00008B819C810E94660845E1B7018B819C8186
:102A10000E9466084FEFB2018D819E810E94660878
:102A200047EA698D7A8D8D819E810E9466084EEFFE
:102A3000B8018D819E810E94660844E5B7018D81B1
:102A40009E810E9466084FEDB2018F8198850E9499
:102A5000660847E5698D7A8D8F8198850E946608A2
:102A60004EEFB8018F8198850E94660843E5B70153
:102A70008F8198850E9466084CE5B20189859A8508
:102A80000E94660847E5698D7A8D89859A850E943E
:102A900066084DEFB80189859A850E9466084FEF58
:102AA000B70189859A850E9466084FEF698D7A8DF6
:102AB0008D899E890E94660843E0B8018D899E89B0
:102AC0000E9466084FEFB7018D899E890E946608B3
:102AD00040ECB2018F89988D0E9466084FEF698D96
:102AE0007A8D8F89988D0E9466084FEFB8018F8983
:102AF000988D0E94660840EFB2018B859C850E94EC
:102B000066084AEA698D7A8D8B859C850E946608E5
:102B10004AEAB8018B859C850E94660843E0B701AC
:102B20008B859C850E9466084CEAB2018D859E8546
:102B30000E94660845E5698D7A8D8D859E850E9487
:102B4000660845E9B8018D859E850E9466084EE0BD
:102B5000B7018D859E850E9466084CE6B201C101D1
:102B60000E94660845E7698D7A8DC1010E9466085A
:102B700045E5B801C1010E9466084EE0B701C101F8
:102B80000E9466084CE6B201C3010E9466084DEF40
:102B9000698D7A8DC3010E9466084FE5B801C301B3
:102BA0000E9466084EE0B701C3010E94660840EF2C
:102BB000B201C4010E9466084FEF698D7A8DC4018D
:102BC0000E9466084FEFB801C4010E94660843E006
:102BD000B701C4016A960FB6F894DEBF0FBECDBF31
:102BE000DF91CF911F910F91FF90EF90DF90CF90E9
:102BF000BF90AF909F908F907F906F905F904F901D
:102C00003F902F900C946608CF92DF92EF92FF9244
:102C10000F931F93CF93DF938C01EB014CEF0E9436
:102C2000660868018FEFC81AD80A4FEFBE01C601C7
:102C30000E9466087E0184E0E80EF11C43E0B701C3
:102C4000C6010E946608680182E0C80ED11C4FEFE1
:102C5000BE01C6010E9466084FE0B701C6010E948E
:102C60006608680183E0C80ED11C4CEFBE01C601A6
:102C70000E9466084FE3B701C6010E94660868011A
:102C800084E0C80ED11C40EFBE01C6010E94660858
:102C90004FEFB701C6010E946608680185E0C80EC3
:102CA000D11C4CEFBE01C6010E9466084FE3B7017C
:102CB000C6010E946608680186E0C80ED11C4FEF6D
:102CC000BE01C6010E9466084FE0B701C6010E941E
:102CD0006608680187E0C80ED11C4FEFBE01C6012F
:102CE0000E94660843E0B701C6010E9466084CEFE7
:102CF000BE01C8010896DF91CF911F910F91FF90FF
:102D0000EF90DF90CF900C946608CF92DF92EF9215
:102D1000FF920F931F93CF93DF93EC018B014FEF43
:102D20000E946608780184E0E80EF11C46E5B701D0
:102D3000CE010E9466086E018FEFC81AD80A4FEBC9
:102D4000B801C6010E94660846E5B701C6010E94A7
:102D500066086E0182E0C80ED11C4FEAB801C601B8
:102D60000E94660845E5B701C6010E9466086E012B
:102D700083E0C80ED11C4FE6B801C6010E94660868
:102D800045E5B701C6010E9466086E0184E0C80EE1
:102D9000D11C4FEAB801C6010E94660845E5B7019B
:102DA000C6010E9466086E0185E0C80ED11C4FEB7B
:102DB000B801C6010E94660846E5B701C6010E9437
:102DC00066086E0186E0C80ED11C4FEFB801C6013F
:102DD0000E9466084AE6B701C6010E9466086E01B5
:102DE00087E0C80ED11C4FEFB801C6010E946608EB
:102DF0004FE6B701C6010E9466086E0188E0C80E62
:102E0000D11C4FEFB801C6010E9466084BE6B7011E
:102E1000C6010E9466086E0189E0C80ED11C4FEF02
:102E2000B801C6010E9466084AE5B701C6010E94C2
:102E300066086E018AE0C80ED11C4FEBB801C601CE
:102E40000E94660846E5B701C6010E9466086E0149
:102E50008BE0C80ED11C4FEAB801C6010E9466087B
:102E600045E5B701C6010E9466086E018CE0C80EF8
:102E7000D11C4FE6B801C6010E94660845E5B701BE
:102E8000C6010E9466086E018DE0C80ED11C4FEA93
:102E9000B801C6010E94660845E5B701C6010E9457
:102EA00066082E964FEBB801CE010E94660846E5F3
:102EB000B701CE01DF91CF911F910F91FF90EF905D
:102EC000DF90CF900C9466084F925F926F927F9242
:102ED0008F929F92AF92BF92CF92DF92EF92FF922A
:102EE0000F931F93CF93DF932C013B01EA017901EC
:102EF00000E010E06C0188E0C80ED11C5B0184E0AA
:102F0000A80EB11C0E151F0584F44601800E911EFB
:102F100040E0B301C4010E94660840E0B501C4016D
:102F20000E9466080F5F1F4FEDCFC330D10509F433
:102F3000E3C008F048C0C130D10509F490C0229721
:102F400009F00AC24CEFB301C2010E946608E30116
:102F500024964FE3BE01C2010E94660882010F5F02
:102F60001F4F4FE7B301C8010E9466084FEFBE0133
:102F7000C8010E9466080F5F1F4F4FE7B301C801E9
:102F80000E94660845EFBE01C8010E9466080F5FF7
:102F90001F4F4FEFB301C8010E94660847EDBE0105
:102FA000C8010E9466080F5F1F4F47E5B301C801C3
:102FB0000E9466084FEDBE01C8010E9466080F5FBF
:102FC0001F4F47E7EBC0C830D10509F4F4C0C93042
:102FD000D10509F44FC1279709F0BEC144EFB301F1
:102FE000C2010E946608E301249647E3BE01C201C4
:102FF0000E94660882010F5F1F4F4DEDB301C801AB
:103000000E9466084DEDBE01C8010E9466080F5F70
:103010001F4F47E5B301C8010E94660845EFBE0196
:10302000C8010E9466080F5F1F4F4FEFB301C80130
:103030000E94660847EFBE01C8010E9466080F5F44
:103040001F4F4FEFB301C8010E94660847EFBE0152
:10305000C8010E9466080F5F1F4F4FEF9FC044E7F3
:10306000B301C2010E946608E301249647E1BE0154
:10307000C2010E94660882010F5F1F4F4DEDB30130
:10308000C8010E94660845E5BE01C8010E946608A5
:103090000F5F1F4F47E5B301C8010E94660845E571
:1030A000BE01C8010E9466080F5F1F4F47EDB301C4
:1030B000C8010E9466084FE7BE01C8010E94660869
:1030C0000F5F1F4F4DE7B301C8010E94660845E737
:1030D000BE01C8010E9466080F5F1F4F45E5B3019E
:1030E000C8010E94660845E7BE01C8010E94660843
:1030F0000F5F1F4F4DEFABC044E7B301C2010E9409
:103100006608E301249645E1BE01C2010E946608FB
:1031100082010F5F1F4F4DEDB301C8010E94660889
:1031200045E5BE01C8010E9466080F5F1F4F4DEFC5
:10313000B301C8010E9466084FE7BE01C8010E94A2
:1031400066080F5F1F4F45E5B301C8010E9466087E
:1031500045E7BE01C8010E9466080F5F1F4F45E5A5
:10316000B301C8010E9466084FE5BE01C8010E9474
:1031700066080F5F1F4F45EDB301C8010E94660846
:1031800045E5BE01C8010E9466080F5F1F4F4DE76D
:10319000B301C8010E94660845E5BDC0B301C8017E
:1031A0000E9466084FEDBE01C8010E9466080F5FCD
:1031B0001F4F47E5ABC044E5B301C2010E9466085A
:1031C000E301249645E1BE01C2010E946608820126
:1031D0000F5F1F4F45E7B301C8010E94660845E530
:1031E000BE01C8010E9466080F5F1F4F4DEDB3017D
:1031F000C8010E94660845E5BE01C8010E94660834
:103200000F5F1F4F4DEDB301C8010E94660845E5F1
:10321000BE01C8010E9466080F5F1F4F4DEDB3014C
:10322000C8010E94660845E7BE01C8010E94660801
:103230000F5F1F4F4DEDB301C8010E9466084DEDB1
:10324000BE01C8010E9466080F5F1F4F47E5B3012A
:10325000C8010E9466084FE7BE01C8010E946608C7
:1032600087E0480E511C44E5B301C2010E94660884
:1032700045E15EC04CEDB301C2010E946608E30166
:1032800024964FE3BE01C2010E94660882010F5FCF
:103290001F4F47E7B301C8010E9466084FEFBE0108
:1032A000C8010E9466080F5F1F4F4FE5B301C801B8
:1032B0000E94660845EDBE01C8010E9466080F5FC6
:1032C0001F4F4FEFB301C8010E9466084FEDBE01CA
:1032D000C8010E9466080F5F1F4F4FEFB301C8017E
:1032E0000E9466084FEDBE01C8010E9466080F5F8C
:1032F0001F4F4FEFB301C8010E9466084FEDBE019A
:10330000C8010E9466080F5F1F4F45E5B301C80161
:103310000E94660845EDBE01C8010E94660887E06C
:10332000480E511C4CEFB301C2010E9466084FE3E6
:10333000BE01C201DF91CF911F910F91FF90EF90DD
:10334000DF90CF90BF90AF909F908F907F906F90C5
:103350005F904F900C946608DF91CF911F910F9171
:10336000FF90EF90DF90CF90BF90AF909F908F90A5
:103370007F906F905F904F900895CF92DF92EF9281
:10338000FF920F931F93CF93DF93EC018B0140E0EB
:103390000E946608780184E0E80EF11C40E0B70165
:1033A000CE010E9466086E018FEFC81AD80A40E06D
:1033B000B801C6010E94660840E0B701C6010E943C
:1033C00066086E0182E0C80ED11C40E0B801C6015B
:1033D0000E94660840E0B701C6010E9466086E01BF
:1033E00083E0C80ED11C40E0B801C6010E94660807
:1033F00040E0B701C6010E9466086E0184E0C80E75
:10340000D11C40E0B801C6010E94660840E0B70147
:10341000C6010E9466086E0185E0C80ED11C40E01E
:10342000B801C6010E94660840E0B701C6010E94CB
:1034300066086E0186E0C80ED11C40E0B801C601E6
:103440000E94660840E0B701C6010E946608279600
:1034500040E0B801CE010E94660840E0B701CE010D
:10346000DF91CF911F910F91FF90EF90DF90CF9060
:103470000C946608EF92FF920F931F93CF93DF9304
:103480004CE060E270E082E190E00E94660843E078
:1034900060E270E083E190E00E94660843E060E251
:1034A00070E084E190E00E94660843E060E270E032
:1034B00085E190E00E9466084CE368E270E085E1F7
:1034C00090E00E94660840EC6CE170E086E190E0DC
:1034D0000E94660843E060E270E086E190E00E94AE
:1034E000660840EC64E270E086E190E00E946608C5
:1034F0004FE068E270E086E190E00E9466084FE0ED
:1035000060E370E086E190E00E9466084CEF64E3BF
:1035100070E086E190E00E9466084FEF68E370E09B
:1035200086E190E00E94660840EC6CE170E087E183
:1035300090E00E94660840EF64E270E087E190E06E
:103540000E94660843E068E270E087E190E00E9434
:1035500066084CEF6CE270E087E190E00E9466083C
:10356000C4E3D0E04FEFBE0187E190E00E9466081F
:103570002496C034D105B1F740EF6CE170E088E1EA
:1035800090E00E9466084FEF64E270E088E190E00E
:103590000E94660840EF68E270E088E190E00E94D7
:1035A00066084FE06CE270E088E190E00E946608F7
:1035B0004CEF68E370E088E190E00E9466084FEF0E
:1035C0006CE370E088E190E00E9466084FE360E4FD
:1035D00070E088E190E00E94660840EF6CE170E0E6
:1035E00089E190E00E94660840EC60E270E089E1C9
:1035F00090E00E9466084FE364E270E089E190E0A9
:103600000E9466084FE368E270E089E190E00E9462
:1036100066084FE060E370E089E190E00E94660890
:103620004CEF60E470E089E190E00E94660843E0BE
:1036300064E470E089E190E00E94660840EF6CE18C
:1036400070E08AE190E00E94660840EC60E270E081
:103650008AE190E00E9466084FEF64E270E08AE140
:1036600090E00E9466084FE068E270E08AE190E036
:103670000E94660840EF6CE270E08AE190E00E94F0
:1036800066084FEC60E370E08AE190E00E94660813
:1036900004E310E04FEFB8018AE190E00E94660871
:1036A0000C5F1F4F00341105A9F74FE360E470E091
:1036B0008AE190E00E9466084FE364E470E08AE1EA
:1036C00090E00E94660840EF6CE170E08BE190E0D2
:1036D0000E94660840EF60E270E08BE190E00E949B
:1036E00066084FEF64E270E08BE190E00E946608AC
:1036F00040E368E270E08BE190E00E946608CCE273
:10370000D0E04FEFBE018BE190E00E946608249666
:10371000C834D105B1F740EF6CE170E08CE190E086
:103720000E9466084CEF60E270E08CE190E00E943D
:1037300066084FE364E270E08CE190E00E94660866
:103740004CEF68E270E08CE190E00E946608CCE209
:10375000D0E04FEFBE018CE190E00E946608249615
:10376000C834D105B1F74FE068E470E08CE190E037
:103770000E9466084CEF6CE170E08DE190E00E94E1
:1037800066084CEF60E270E08DE190E00E94660810
:103790004FEC64E270E08DE190E00E946608C8E2C0
:1037A000D0E04FEFBE018DE190E00E9466082496C4
:1037B000C434D105B1F74FE364E470E08DE190E0EB
:1037C0000E9466084FE368E470E08DE190E00E949B
:1037D00066084CEF6CE170E08EE190E00E946608B4
:1037E0004FEF60E270E08EE190E00E94660843EFE8
:1037F00064E270E08EE190E00E94660888E2E82EC4
:10380000F12C4FEFB7018EE190E00E94660884E052
:10381000E80EF11C88E4E816F10499F740EF68E43B
:1038200070E08EE190E00E9466084CEF6CE170E081
:103830008FE190E00E946608B0E2EB2EF12C4FEF92
:10384000B7018FE190E00E94660884E0E80EF11C69
:1038500088E4E816F10499F743EC68E470E08FE13E
:1038600090E00E94660843E06CE470E08FE190E035
:103870000E94660840E364E170E080E290E00E940C
:10388000660843E068E470E080E290E00E94660829
:103890004CE06CE470E080E290E00E94660840E357
:1038A00064E170E081E290E00E946608ACE1EA2EFB
:1038B000F12C4FEFB70181E290E00E94660884E0AE
:1038C000E80EF11C88E4E816F10499F74FE068E48B
:1038D00070E081E290E00E94660840E36CE470E0F2
:1038E00081E290E00E9466084CE064E170E082E2D0
:1038F00090E00E94660840EC68E170E082E290E0AF
:103900000E9466084FEC6CE170E082E290E00E9459
:103910006608F0E2EF2EF12C4FEFB70182E290E063
:103920000E94660884E0E80EF11C88E4E816F104C1
:1039300099F74FE368E470E082E290E00E94660845
:103940004CE064E170E083E290E00E94660840EFA2
:1039500068E170E083E290E00E94660843EF6CE16A
:1039600070E083E290E00E946608E0E2EE2EF12C27
:103970004FEFB70183E290E00E94660884E0E80E12
:10398000F11C88E4E816F10499F74FE368E470E06D
:1039900083E290E00E9466084FE064E170E084E218
:1039A00090E00E94660840EF68E170E084E290E0F9
:1039B0000E9466084CEF6CE170E084E290E00E94A7
:1039C000660870E2E72EF12C4FEFB70184E290E039
:1039D0000E94660884E0E80EF11C8CE4E816F1040D
:1039E00099F74FE064E170E085E290E00E9466089C
:1039F0004CE368E170E085E290E00E9466086CE1CB
:103A0000E62EF12C4FEFB70185E290E00E946608A8
:103A100084E0E80EF11C8CE4E816F10499F740EC20
:103A200060E170E086E290E00E9466084FE064E1A9
:103A300070E086E290E00E9466084FE368E170E083
:103A400086E290E00E9466085CE1E52EF12C4FEFE3
:103A5000B70186E290E00E94660884E0E80EF11C5F
:103A60008CE4E816F10499F743E06CE470E086E238
:103A700090E00E94660840EC60E170E087E290E030
:103A80000E9466084FEF64E170E087E290E00E94D8
:103A900066084FEC68E170E087E290E00E946608FB
:103AA0004CE1E42EF12C4FEFB70187E290E00E9449
:103AB000660884E0E80EF11C8CE4E816F10499F73E
:103AC00043E06CE470E087E290E00E94660840EC1E
:103AD00060E170E088E290E00E9466084FEF64E1E8
:103AE00070E088E290E00E9466084FEC68E170E0C8
:103AF00088E290E00E9466083CE1E32EF12C4FEF53
:103B0000B70188E290E00E94660884E0E80EF11CAC
:103B10008CE4E816F10499F74FE06CE470E088E279
:103B200090E00E9466084CEF60E170E089E290E06E
:103B30000E9466084FEF64E170E089E290E00E9425
:103B4000660843EC68E170E089E290E00E94660854
:103B50002CE1E22EF12C4FEFB70189E290E00E94B8
:103B6000660884E0E80EF11C8CE4E816F10499F78D
:103B70004FE06CE470E089E290E00E9466084CEF50
:103B800060E170E08AE290E00E9466084FEF64E135
:103B900070E08AE290E00E94660843EF68E170E01E
:103BA0008AE290E00E9466089CE1E92EF12C4FEF3A
:103BB000B7018AE290E00E94660884E0E80EF11CFA
:103BC0008CE4E816F10499F74FE06CE470E08AE2C7
:103BD00090E00E9466084CEF60E170E08BE290E0BC
:103BE0000E9466084FEF64E170E08BE290E00E9473
:103BF00066084CEF68E170E08BE290E00E94660896
:103C00004FEF6CE170E08BE290E00E9466084FEFAE
:103C100060E270E08BE290E00E9466084FEF64E2A1
:103C200070E08BE290E00E9466084FEF68E270E07F
:103C30008BE290E00E94660843E06CE270E08BE269
:103C400090E00E9466084FE360E370E08BE290E052
:103C50000E94660840EF68E370E08BE290E00E940B
:103C600066084FEC6CE370E08BE290E00E9466081F
:103C700080E4E82EF12C4FEFB7018BE290E00E9438
:103C8000660884E0E80EF11C8CE4E816F10499F76C
:103C90004FE36CE470E08BE290E00E9466084CEF2A
:103CA00060E170E08CE290E00E94660843EF64E11E
:103CB00070E08CE290E00E9466084CEF68E170E0F2
:103CC0008CE290E00E946608BCE1EB2EF12C4FEFF5
:103CD000B7018CE290E00E94660884E0E80EF11CD7
:103CE0008CE2E816F10499F740EF60E370E08CE2B3
:103CF00090E00E94660840EC68E370E08CE290E09F
:103D00000E946608ACE3EA2EF12C4FEFB7018CE27B
:103D100090E00E94660884E0E80EF11C8CE4E8164E
:103D2000F10499F74FE36CE470E08CE290E00E94BC
:103D300066084CEF60E170E08DE290E00E9466085A
:103D400043E364E170E08DE290E00E946608F8E1F0
:103D5000EF2EF12C4FEFB7018DE290E00E94660844
:103D600084E0E80EF11C8CE2E816F10499F740ECCF
:103D700068E370E08DE290E00E9466084FE36CE338
:103D800070E08DE290E00E9466084CEF60E470E025
:103D90008DE290E00E946608E4E4EE2EF12C4FEFF5
:103DA000B7018DE290E00E94660884E0E80EF11C05
:103DB00080E5E816F10499F74CEF60E170E08EE2DF
:103DC00090E00E94660843E364E170E08EE290E0D8
:103DD0000E94660878E1E72EF12C4FEFB7018EE2E2
:103DE00090E00E94660884E0E80EF11C88E2E81684
:103DF000F10499F74FE368E270E08EE290E00E94F0
:103E000066084FE36CE370E08EE290E00E94660883
:103E10004CEF60E470E08EE290E00E94660864E49B
:103E2000E62EF12C4FEFB7018EE290E00E9466087B
:103E300084E0E80EF11C80E5E816F10499F740EF04
:103E400060E170E08FE290E00E94660843E064E188
:103E500070E08FE290E00E94660858E1E52EF12CB8
:103E60004FEFB7018FE290E00E94660884E0E80E11
:103E7000F11C88E2E816F10499F74FE368E270E07C
:103E80008FE290E00E9466084FE36CE370E08FE2FF
:103E900090E00E94660840EF60E470E08FE290E0FE
:103EA0000E94660844E4E42EF12C4FEFB7018FE244
:103EB00090E00E94660884E0E80EF11C80E5E816B8
:103EC000F10499F743E060E570E08FE290E00E9432
:103ED000660840EF60E170E080E390E00E946608D1
:103EE00043EC64E170E080E390E00E94660838E112
:103EF000E32EF12C4FEFB70180E390E00E946608BB
:103F000084E0E80EF11C8CE2E816F10499F74FE327
:103F10006CE370E080E390E00E94660843E060E4B8
:103F200070E080E390E00E9466084CEF64E470E08B
:103F300080E390E00E9466084FEF68E470E080E361
:103F400090E00E9466084FEF6CE470E080E390E040
:103F50000E94660843E060E570E080E390E00E9424
:103F600066084CEC60E170E081E390E00E94660836
:103F700043EC64E170E081E390E00E94660828E190
:103F8000E22EF12C4FEFB70181E390E00E9466082A
:103F900084E0E80EF11C8CE2E816F10499F74EE398
:103FA0006CE370E081E390E00E94660843E060E427
:103FB00070E081E390E00E94660894E4E92EF12C21
:103FC0004FEFB70181E390E00E94660884E0E80EBD
:103FD000F11C80E5E816F10499F74FE060E570E028
:103FE00081E390E00E9466084CEF60E170E082E3BC
:103FF00090E00E94660843EC64E170E082E390E0A8
:104000000E94660888E1E82EF12C4FEFB70182E3A9
:1040100090E00E94660884E0E80EF11C84E2E81655
:10402000F10499F74FEC64E270E082E390E00E94C3
:1040300066084FEF68E270E082E390E00E94660855
:104040004CEF6CE370E082E390E00E94660843E18D
:1040500060E470E082E390E00E946608B4E4EB2E36
:10406000F12C4FEFB70182E390E00E94660884E0F4
:10407000E80EF11C80E5E816F10499F74FE060E5E1
:1040800070E082E390E00E94660840EF60E170E03B
:1040900083E390E00E94660840EC64E170E083E313
:1040A00090E00E946608A8E1EA2EF12C4FEFB701DC
:1040B00083E390E00E94660884E0E80EF11C84E24D
:1040C000E816F10499F74FEC64E270E083E390E0C6
:1040D0000E9466084FEF68E270E083E390E00E9480
:1040E00066084CEF6CE370E083E390E00E946608A2
:1040F00043E360E470E083E390E00E946608F4E448
:10410000EF2EF12C4FEFB70183E390E00E94660899
:1041100084E0E80EF11C80E5E816F10499F74FE31E
:1041200060E570E083E390E00E9466084FEF60E195
:1041300070E084E390E00E9466084FEC64E170E078
:1041400084E390E00E9466084FEF68E170E084E34A
:1041500090E00E9466084FEF6CE170E084E390E02D
:104160000E9466084FEC60E270E084E390E00E94F9
:10417000660843EF64E270E084E390E00E94660822
:1041800043EF68E270E084E390E00E9466084CEF41
:104190006CE370E084E390E00E94660843E360E42F
:1041A00070E084E390E00E946608E4E4EE2EF12CD7
:1041B0004FEFB70184E390E00E94660884E0E80EC8
:1041C000F11C80E5E816F10499F74FE360E570E033
:1041D00084E390E00E9466084CEF60E170E085E3C4
:1041E00090E00E94660843EC64E170E085E390E0B3
:1041F0000E9466084FEF68E170E085E390E00E945E
:1042000066084FEF6CE170E085E390E00E9466087D
:1042100043EF60E270E085E390E00E94660840E3CF
:1042200064E270E085E390E00E9466084CEF68E28B
:1042300070E085E390E00E94660840EF6CE370E078
:1042400085E390E00E9466084FE360E470E085E358
:1042500090E00E94660874E4E72EF12C4FEFB7015E
:1042600085E390E00E94660884E0E80EF11C84E596
:10427000E816F10499F740EF60E170E086E390E022
:104280000E94660843EC64E170E086E390E00E94DF
:1042900066084FEF68E170E086E390E00E946608F0
:1042A0004FEF6CE170E086E390E00E94660843E324
:1042B00060E270E086E390E00E9466084FEF68E2FB
:1042C00070E086E390E00E94660843E06CE270E0F4
:1042D00086E390E00E94660840EF6CE370E086E3BE
:1042E00090E00E9466084FE360E470E086E390E0AF
:1042F0000E94660864E4E62EF12C4FEFB70186E3D6
:1043000090E00E94660884E0E80EF11C84E5E8165F
:10431000F10499F743E064E570E086E390E00E94E1
:10432000660840E36CE070E087E390E00E94660876
:1043300040EC60E170E087E390E00E9466084FEC9B
:1043400064E170E087E390E00E9466084FEF68E167
:1043500070E087E390E00E9466084FEF6CE170E048
:1043600087E390E00E94660840EC60E270E087E33B
:1043700090E00E94660843EF64E270E087E390E01B
:104380000E9466084FEF68E270E087E390E00E94C9
:10439000660843E06CE270E087E390E00E94660804
:1043A00040EC6CE370E087E390E00E9466084FE326
:1043B00060E470E087E390E00E94660854E4E52E34
:1043C000F12C4FEFB70187E390E00E94660884E08C
:1043D000E80EF11C84E5E816F10499F74FE064E576
:1043E00070E087E390E00E94660840EC6CE070E0CB
:1043F00088E390E00E94660840EC60E170E088E3AA
:1044000090E00E9466084FEC64E170E088E390E081
:104410000E94660848E1E42EF12C4FEFB70188E3D3
:1044200090E00E94660884E0E80EF11C8CE2E81639
:10443000F10499F74FE06CE270E088E390E00E94AD
:10444000660840EC6CE370E088E390E00E94660848
:104450004FE360E470E088E390E00E94660834E493
:10446000E32EF12C4FEFB70188E390E00E9466083D
:1044700084E0E80EF11C84E5E816F10499F74FE3B7
:1044800064E570E088E390E00E94660840EC6CE030
:1044900070E089E390E00E94660843E060E170E02C
:1044A00089E390E00E94660824E1E22EF12C4FEFB0
:1044B000B70189E390E00E94660884E0E80EF11CF1
:1044C0008CE2E816F10499F74FE36CE270E089E3BF
:1044D00090E00E94660840E46CE370E089E390E0BD
:1044E0000E9466084FE760E470E089E390E00E9474
:1044F000660894E4E92EF12C4FEFB70189E390E0D0
:104500000E94660884E0E80EF11C88E5E816F104D4
:1045100099F743E068E570E089E390E00E9466085F
:1045200080E1E82EF12C4FEFB7018AE390E00E9482
:10453000660884E0E80EF11C80E3E816F10499F7C0
:1045400043E060E370E08AE390E00E9466084FEF8A
:10455000B8018AE390E00E9466080C5F1F4F0035A7
:104560001105A9F743E060E570E08AE390E00E945E
:1045700066084FEF64E570E08AE390E00E94660809
:104580004FE068E570E08AE390E00E9466084FE340
:1045900064E070E08BE390E00E9466084CEF60E11D
:1045A00070E08BE390E00E94660804E110E04FEFBA
:1045B000B8018BE390E00E9466080C5F1F4F003348
:1045C0001105A9F74FE060E370E08BE390E00E94F3
:1045D00066084DEF60E470E08BE390E00E946608AF
:1045E0004DEF64E470E08BE390E00E9466084FEFCB
:1045F00068E470E08BE390E00E9466084FEF6CE4A3
:1046000070E08BE390E00E94660843E060E570E0B4
:104610008BE390E00E94660840EC64E570E08BE379
:1046200090E00E9466084FEF68E570E08BE390E051
:104630000E9466084FEF64E070E08CE390E00E9417
:10464000660843E068E070E08CE390E00E94660852
:1046500040EF60E170E08CE390E00E94660804E1C6
:1046600010E04FEFB8018CE390E00E9466080C5F09
:104670001F4F00331105A9F74FE360E370E08CE3AF
:1046800090E00E9466084CEF60E470E08CE390E0FC
:104690000E9466084CEF64E470E08CE390E00E94B6
:1046A00066084FEF68E470E08CE390E00E946608D3
:1046B0004FEF6CE470E08CE390E00E9466084FE0FE
:1046C00060E570E08CE390E00E94660840EF68E5EA
:1046D00070E08CE390E00E9466084FE36CE570E0C8
:1046E0008CE390E00E94660840EF64E070E08DE3A8
:1046F00090E00E9466084FE368E070E08DE390E090
:104700000E94660804E110E04FEFB8018DE390E0ED
:104710000E9466080C5F1F4F04331105A9F740E89B
:1047200068E370E08DE390E00E94660840EF60E48B
:1047300070E08DE390E00E9466084FEFBE018DE3CC
:1047400090E00E9466082496C435D105B1F740EF89
:104750006CE570E08DE390E00E9466084FEF60E644
:1047600070E08DE390E00E9466084FEF68E070E033
:104770008EE390E00E94660843E06CE070E08EE318
:1047800090E00E946608C5E04FEF64E170E08EE3C0
:1047900090E00E946608C150B9F740E868E270E016
:1047A0008EE390E00E9466084AE06CE270E08EE3DF
:1047B00090E00E9466084FEF60E370E08EE390E0C7
:1047C0000E94660843E064E370E08EE390E00E949C
:1047D000660840E868E370E08EE390E00E946608B7
:1047E00040EF60E470E08EE390E00E9466084FEFD7
:1047F00064E470E08EE390E00E9466084FEF68E4A6
:1048000070E08EE390E00E9466084FE06CE470E098
:104810008EE390E00E94660840EF68E070E08FE36E
:1048200090E00E9466084FE36CE070E08FE390E058
:104830000E9466084CEF64E170E08FE390E00E9414
:104840006608C8E1D0E04FEFBE018FE390E00E9420
:1048500066082496C432D105B1F74FE364E270E0F4
:104860008FE390E00E9466084AE26CE270E08FE31A
:1048700090E00E9466084CEF60E370E08FE390E008
:104880000E9466084FE364E370E08FE390E00E94CB
:1048900066084CEB68E370E08FE390E00E946608E6
:1048A00048E06CE370E08FE390E00E94660840EC23
:1048B00060E470E08FE390E00E9466084FEF64E4EC
:1048C00070E08FE390E00E9466084FEF68E470E0CC
:1048D0008FE390E00E9466084FE06CE470E08FE3A5
:1048E00090E00E946608CCE0D0E04FEFBE0180E48B
:1048F00090E00E9466082496C432D105B1F74FE3D8
:1049000064E270E080E490E00E94660848E26CE2B5
:1049100070E080E490E00E94660840EF60E370E0A1
:1049200080E490E00E9466084FEF64E370E080E46A
:1049300090E00E9466084FE368E370E080E490E056
:104940000E94660848E06CE370E080E490E00E941A
:10495000660840EC60E470E080E490E00E94660845
:104960004FEF64E470E080E490E00E94660843EF5B
:1049700068E470E080E490E00E9466084FE36CE435
:1049800070E080E490E00E9466084CEF6CE070E01C
:1049900081E490E00E946608C0E1D0E04FEFBE01E4
:1049A00081E490E00E9466082496C432D105B1F7F4
:1049B0004FE364E270E081E490E00E94660848E220
:1049C0006CE270E081E490E00E94660840EC60E3F5
:1049D00070E081E490E00E9466084FEF64E370E0CD
:1049E00081E490E00E9466084FEF68E370E081E4A4
:1049F00090E00E94660842E06CE370E081E490E0A1
:104A00000E9466084FEF64E470E081E490E00E9449
:104A1000660843EC68E470E081E490E00E94660878
:104A20004FE06CE470E081E490E00E94660840ECA6
:104A300060E170E082E490E00E946608C4E1D0E0AA
:104A40004FEFBE0182E490E00E9466082496C432D3
:104A5000D105B1F74FE364E270E082E490E00E9498
:104A6000660840E26CE270E082E490E00E94660832
:104A70004FEF64E370E082E490E00E9466084FEF3D
:104A800068E370E082E490E00E94660843E26CE331
:104A900070E082E490E00E9466084CEF64E470E00D
:104AA00082E490E00E9466084FE068E470E082E4EF
:104AB00090E00E9466084FEF68E170E083E490E0C8
:104AC0000E9466084FEF6CE170E083E490E00E9482
:104AD000660840EF60E270E083E490E00E946608C0
:104AE0004FEF64E270E083E490E00E94660840EAE1
:104AF0006CE270E083E490E00E9466084CEF64E3AF
:104B000070E083E490E00E9466084FEF68E370E095
:104B100083E490E00E94660848E26CE370E083E47E
:104B200090E00E94660840EF64E470E083E490E067
:104B30000E9466084FE068E470E083E490E00E9421
:104B400066084CEF64E170E084E490E00E9466083F
:104B50004FEF68E170E084E490E00E9466084FEF58
:104B60006CE170E084E490E00E94660840EC60E252
:104B700070E084E490E00E9466084FEF64E270E029
:104B800084E490E00E94660840EA6CE270E084E40D
:104B900090E00E94660842E060E370E084E490E008
:104BA0000E94660840EF64E370E084E490E00E94B5
:104BB00066084FEF68E370E084E490E00E946608C6
:104BC00042E06CE370E084E490E00E94660840EF0D
:104BD00064E470E084E490E00E9466084FE368E4D7
:104BE00070E084E490E00E94660840EF60E170E0CD
:104BF00085E490E00E9466084FEF64E170E085E490
:104C000090E00E9466084FEF68E170E085E490E074
:104C10000E9466084FEF6CE170E085E490E00E942E
:104C2000660843EC60E270E085E490E00E9466086C
:104C30004FEF64E270E085E490E00E94660840E88F
:104C40006CE270E085E490E00E94660842E060E378
:104C500070E085E490E00E94660840EC64E370E058
:104C600085E490E00E9466084FEF68E370E085E419
:104C700090E00E94660840E26CE370E085E490E01A
:104C80000E94660840EC64E470E085E490E00E94D5
:104C900066084FEF68E470E085E490E00E946608E3
:104CA00040EC6CE170E086E490E00E9466084FE022
:104CB00060E270E086E490E00E9466084FEF64E2F4
:104CC00070E086E490E00E94660843E068E270E0ED
:104CD00086E490E00E94660842E060E370E086E4CB
:104CE00090E00E94660840EF64E370E086E490E0A4
:104CF0000E9466084FEF68E370E086E490E00E944F
:104D000066084AE06CE370E086E490E00E94660882
:104D10004FEF68E470E086E490E00E9466084CEF94
:104D200060E270E087E490E00E9466084FEF64E282
:104D300070E087E490E00E94660843E068E270E07B
:104D400087E490E00E94660848E060E370E087E452
:104D500090E00E94660840EF64E370E087E490E032
:104D60000E9466084FE368E370E087E490E00E94E9
:104D700066084CEF68E470E087E490E00E94660803
:104D800043E06CE470E087E490E00E94660840EF46
:104D900060E270E088E490E00E9466084FEF64E211
:104DA00070E088E490E00E9466084FE068E270E0FE
:104DB00088E490E00E94660840E260E370E088E4E6
:104DC00090E00E94660840EC68E470E088E490E0BF
:104DD0000E9466084FE06CE470E088E490E00E9476
:104DE000660840EC60E270E089E490E00E946608AA
:104DF0004FEF64E270E089E490E00E9466084FE0C3
:104E000068E270E089E490E00E9466084FEF6CE48D
:104E100070E089E490E00E9466084FEF64E270E081
:104E20008AE490E00E9466084FE368E270E08AE45A
:104E300090E00E94660840EF6CE470E08AE490E045
:104E40000E94660843E060E570E08AE490E00E941A
:104E5000660840EF64E270E08BE490E00E94660830
:104E60004FE368E270E08BE490E00E9466084FE355
:104E700060E570E08BE490E00E94660840EF64E239
:104E800070E08CE490E00E9466084FE368E270E016
:104E90008CE490E00E94660840EF60E570E08CE4EE
:104EA00090E00E94660843E064E570E08CE490E0E6
:104EB0000E94660840EC64E270E08DE490E00E949D
:104EC00066084FEF68E270E08DE490E00E946608AB
:104ED00040EC64E270E08EE490E00E9466084FEFE0
:104EE00068E270E08EE490E00E9466084FEF68E2AE
:104EF00070E08FE490E00E94660843E06CE270E0AE
:104F00008FE490E00E9466084FEF68E270E080E571
:104F100090E00E94660843E06CE270E080E590E07B
:104F20000E9466084FEF68E270E081E590E00E9421
:104F300066084FEC6CE270E081E590E00E94660844
:104F400043E060E370E081E590E00E9466084CEF8A
:104F500068E270E082E590E00E9466084FEF6CE244
:104F600070E082E590E00E9466084CEF68E270E035
:104F700083E590E00E9466084FEF6CE270E083E505
:104F800090E00E9466084CEF68E270E084E590E0F3
:104F90000E9466084FE36CE270E084E590E00E94B6
:104FA00066084CEF68E270E085E590E00E946608D4
:104FB0004FE06CE270E085E590E00E94660840EF0B
:104FC00068E270E086E590E0DF91CF911F910F914C
:104FD000FF90EF900C946608E1ECF1E086EF9FEF14
:104FE00091838083938382831582148287EF9FEF5E
:104FF00097838683918780871386128688EF9FEF39
:105000009587848797878687118A108A089580916B
:10501000C1019091C2012091C7013091C8012817A8
:1050200039071CF09C0180E001C081E04091CD0176
:105030005091CE01421753070CF482E008950F936C
:105040001F93CF93DF9300D000D01F92CDB7DEB770
:1050500049835A836B837C838D8389010E9407284F
:105060002B813C812850310946E08402C001112483
:10507000FC01EF53FE4F6D8170E0C8010E94C5290D
:1050800049815A81840F951F9183808333832283C2
:10509000C8016AE070E00E94C529958384830F905F
:1050A0000F900F900F900F90DF91CF911F910F9164
:1050B0000895E3EDF1E090E041E050E880E06481A4
:1050C00020813181260F311D4217530714F4A901A5
:1050D000892F35969F5F933091F70895E3EDF1E0C6
:1050E00090E04FEF5FE780E0648120813181260FFF
:1050F000311D2417350714F4A901892F35969F5FB8
:10510000933091F7089585E0E2E5F1E0A3EDB1E099
:1051100001900D928A95E1F785E0E7E5F1E0A8EDD1
:10512000B1E001900D928A95E1F785E0ECE5F1E0C0
:10513000ADEDB1E001900D928A95E1F70895DF920F
:10514000EF92FF920F931F93CF93DF93CDB7DEB70C
:105150002F970FB6F894DEBF0FBECDBF4B875C878D
:105160008F87D22E0E94612A60E074E00E94C529D8
:105170009C01780144E0EE0CFF1C4A95E1F76D2D8F
:1051800070E06F5F7F4F0E94C52902969FE0899F64
:10519000D02C1124B80155E0660F771F5A95E1F71E
:1051A0006F5F7F4F6E197F09C9010E94C529E80E04
:1051B000F91E4F858B859C85840F911DE80EF91E85
:1051C000C90163E170E00E94C5298C010C5F1F4F8B
:1051D000000F111F000F111F4E2DFF82EE82602F56
:1051E000198708875F8179858D2D0E941F28FA8293
:1051F000E9821C830B832E2D3A81402F5C816D2D1B
:1052000070E080E090E02F960FB6F894DEBF0FBEFE
:10521000CDBFDF91CF911F910F91FF90EF90DF9065
:105220000895CF92DF92EF92FF920F931F93CF9347
:10523000DF936C01F62E8A010E946E2895E0E92E1C
:10524000E89EC0011124EC01CD52DE4F2C818881F3
:105250009981820F911D25E0C21AD1088C159D05F8
:10526000ACF40E945928E89EC0011124FC01ED52C3
:10527000FE4F2F2D408151816281738184810E9474
:105280009F28288339834A835B836C83DF91CF9186
:105290001F910F91FF90EF90DF90CF9008950E94A3
:1052A000C60680E50E9466072FEF83ED90E321504C
:1052B00080409040E1F700C000008AE00E9466074D
:1052C0002FEF83ED90E3215080409040E1F700C044
:1052D00000000E943A1A2FEF83ED90E321508040A6
:1052E0009040E1F700C000000E941A0883E090E0BF
:1052F000909301018093000188E2809306018DE282
:10530000809305010E943A10609105018091060189
:105310000E946A1082E2882E912CA12CB12CC0E34D
:105320000E944F07A50194010E94D929672B682B81
:10533000692BA1F48091000190910101029711F471
:105340000E9462060E941B0480910001909101015D
:10535000892B21F40E940F030E942F06C090B901EF
:10536000D090BA01E090BB01F090BC010E944F07C1
:1053700026E9C20ED11CE11CF11C6C157D058E05C1
:105380009F0570F2C0930B01CBCF97FB072E16F44D
:10539000009407D077FD09D00E94012A07FC05D0B0
:1053A0003EF4909581959F4F0895709561957F4F3C
:1053B0000895A1E21A2EAA1BBB1BFD010DC0AA1F56
:1053C000BB1FEE1FFF1FA217B307E407F50720F06E
:1053D000A21BB30BE40BF50B661F771F881F991FE9
:1053E0001A9469F760957095809590959B01AC0132
:1053F000BD01CF010895EE0FFF1F0590F491E02D40
:105400000994AA1BBB1B51E107C0AA1FBB1FA6170B
:10541000B70710F0A61BB70B881F991F5A95A9F75D
:1054200080959095BC01CD0108958F929F92AF9287
:10543000BF92CF92DF92EF92FF92CF93DF93EC0176
:10544000688179818A819B8161157105810591054A
:1054500021F464E279ED8BE597E02DE133EF41E053
:1054600050E00E94592D49015A019B01AC01A7EA65
:10547000B1E40E94782D6B017C01ACEEB4EFA50184
:1054800094010E94862DDC01CB018C0D9D1DAE1D6B
:10549000BF1DB7FF03C00197A109B0488883998356
:1054A000AA83BB839F77DF91CF91FF90EF90DF902E
:1054B000CF90BF90AF909F908F9008950E94152A33
:1054C000089583E191E00E94152A0895A0E0B0E0DC
:1054D0008093130190931401A0931501B0931601CA
:1054E0000895BB274A3031F4992322F4BDE2909508
:1054F00081959F4F0C947D2ABB27FB015527AA2736
:10550000880F991FAA1FA41710F0A41B8395505150
:10551000B9F7A05DAA3308F0A95DA193009779F7C8
:10552000B111B1931192CB010C94AF2CAEE0B0E06D
:10553000ECE9FAE20C94992D0D891E8986E08C83A2
:105540001A8309838FEF9FE79E838D83AE01475EA9
:105550005F4F6F89788DCE0101960E94B82AEF8146
:10556000F885E00FF11F10822E96E4E00C94B52D23
:10557000ABE0B0E0EEEBFAE20C948B2D6C017B011A
:105580008A01FC0117821682838181FFCCC1CE0182
:1055900001963C01F6019381F70193FD859193FFFC
:1055A00081917F01882309F4BAC1853239F493FDD2
:1055B000859193FF81917F01853229F4B60190E0B6
:1055C0000E94BF2CE7CF912C212C312CFFE1F31549
:1055D000D8F08B3279F038F4803279F08332A1F44C
:1055E000232D20611DC08D3261F0803369F4232D9D
:1055F000216016C0832D8260382EE32DE4603E2E9C
:105600002AC0F32DF8601DC037FC2DC020ED280FF7
:105610002A3040F08E32B9F436FC81C1232D20644B
:10562000322E19C036FE06C08AE0989E200D112445
:10563000922E11C0EAE02E9E200D1124222EF32D71
:10564000F0623F2E08C08C3621F4832D8068382EFE
:1056500002C0883641F4F70193FD859193FF819153
:105660007F018111B3CF982F9F7D9554933028F4FB
:105670000C5F1F4F9FE399830DC0833631F0833752
:1056800071F0833509F059C021C0F8018081898308
:105690000E5F1F4F88248394912C530113C028015F
:1056A000F2E04F0E511CF801A080B18036FE03C01D
:1056B000692D70E002C06FEF7FEFC5010E94A42C3E
:1056C0004C018201F32DFF773F2E16C0280122E006
:1056D000420E511CF801A080B18036FE03C0692D36
:1056E00070E002C06FEF7FEFC5010E94992C4C0162
:1056F000F32DF0683F2E820133FC1BC0822D90E019
:1057000088169906B0F4B60180E290E00E94BF2CA2
:105710002A94F4CFF50137FC859137FE81915F0122
:10572000B60190E00E94BF2C21102A9421E0821A39
:1057300091088114910471F7E8C0843611F089361C
:1057400041F5F80137FE07C0608171818281938144
:105750000C5F1F4F08C060817181072E000C880B01
:10576000990B0E5F1F4FF32DFF763F2E97FF09C059
:1057700090958095709561957F4F8F4F9F4FF06802
:105780003F2E2AE030E0A3010E94FB2C882E8618D1
:1057900045C0853731F4232D2F7EB22E2AE030E02C
:1057A00025C0932D997FB92E8F36C1F018F4883516
:1057B00079F0B5C0803719F0883721F0B0C0E92FF3
:1057C000E061BE2EB4FE0DC0FB2DF460BF2E09C0FB
:1057D00034FE0AC0292F2660B22E06C028E030E031
:1057E00005C020E130E002C020E132E0F801B7FE60
:1057F00007C060817181828193810C5F1F4F06C059
:105800006081718180E090E00E5F1F4FA3010E94D4
:10581000FB2C882E8618FB2DFF773F2E36FE0DC001
:10582000232D2E7FA22E891458F434FE0BC032FC97
:1058300009C0832D8E7EA82E05C0B82CA32C03C0D2
:10584000B82C01C0B92CA4FE0FC0FE01E80DF11D5B
:105850008081803321F49A2D997EA92E09C0A2FE61
:1058600006C0B394B39404C08A2D867809F0B3942B
:10587000A3FC11C0A0FE06C0B21488F4280C922C20
:105880009B180EC0B21460F4B60180E290E00E9452
:10589000BF2CB394F7CFB21418F42B1802C0982C75
:1058A000212CA4FE10C0B60180E390E00E94BF2C22
:1058B000A2FE17C0A1FC03C088E790E002C088E503
:1058C00090E0B6010CC08A2D867859F0A1FE02C086
:1058D0008BE201C080E2A7FC8DE2B60190E00E945D
:1058E000BF2C891438F4B60180E390E00E94BF2CED
:1058F0009A94F7CF8A94F301E80DF11D8081B601E7
:1059000090E00E94BF2C8110F5CF222009F442CEF6
:10591000B60180E290E00E94BF2C2A94F6CFF601F7
:105920008681978102C08FEF9FEF2B96E2E10C9466
:10593000A72DFC010590615070400110D8F78095AB
:1059400090958E0F9F1F0895FC016150704001904B
:105950000110D8F7809590958E0F9F1F0895DC0158
:10596000FC01672F71917723E1F7329704C07C9196
:105970006D9370836291AE17BF07C8F308950F93BC
:105980001F93CF93DF93FB01238121FD03C08FEF92
:105990009FEF2CC022FF16C046815781248135819C
:1059A0004217530744F4A081B1819D012F5F3F4FFF
:1059B000318320838C93268137812F5F3F4F37833C
:1059C000268314C08B01EC01FB010084F185E02DDE
:1059D0000995892BE1F6D80116968D919C91179720
:1059E000019617969C938E931697CE01DF91CF91D7
:1059F0001F910F910895FA01AA27283051F1203103
:105A000081F1E8946F936E7F6E5F7F4F8F4F9F4F52
:105A1000AF4FB1E03ED0B4E03CD0670F781F891F94
:105A20009A1FA11D680F791F8A1F911DA11D6A0F62
:105A3000711D811D911DA11D20D009F468943F9115
:105A40002AE0269F11243019305D3193DEF6CF0114
:105A50000895462F4770405D4193B3E00FD0C9F7DA
:105A6000F6CF462F4F70405D4A3318F0495D31FD47
:105A70004052419302D0A9F7EACFB4E0A69597959A
:105A8000879577956795BA95C9F700976105710570
:105A900008959B01AC010A2E0694579547953795BA
:105AA0002795BA95C9F7620F731F841F951FA01D14
:105AB0000895052E97FB1EF400940E94702D57FD4B
:105AC00007D00E94D92907FC03D04EF40C94702D06
:105AD00050954095309521953F4F4F4F5F4F08951A
