:100000000C9434000C9446000C9446000C9446006A
:100010000C9446000C9446000C9446000C94F70097
:100020000C9446000C9446000C9446000C94460038
:100030000C9446000C9446000C9446000C94460028
:100040000C9446000C9446000C9446000C94460018
:100050000C9446000C9446000C9446000C94460008
:100060000C9446000C94460011241FBECFEFD8E03C
:10007000DEBFCDBF21E0A0E0B1E001C01D92A53000
:10008000B207E1F70E9428020C94D1020C94000000
:10009000CF93DF93C0E0D0E04C2F6AE084E60E946B
:1000A0000B024C2F6AE086E60E940B024C2F6AE09E
:1000B00088E60E940B024C2F6AE08AE60E940B023F
:1000C0002196C11581E0D80739F7DF91CF910895C6
:1000D0004FEF6DE00C940B0240E06DE00C940B02CE
:1000E000809100018F5F0E946C000E941C0122E23F
:1000F00030E040E050E00E947A02672B682B692BC9
:10010000B9F4809100010E946C008091000181117E
:1001100006C0809100010E946C008FE907C08091A9
:1001200000010E946C0080910001815080930001C9
:10013000809100010C9468000E94270180E00E94D9
:10014000B1000E94E5008AB183708AB98BB18C6FCF
:100150008BB987B18F7C87B988B1806388B90C94DB
:10016000950197B121E030E0082E01C0220F0A94DA
:10017000EAF72095292327B997E890937A008064BD
:1001800080937C0080917A00806480937A008091D3
:100190007A0086FDFCCF089590917C00907F90932B
:1001A0007C0090917C008F70982B90937C008091C4
:1001B0007A00806480937A0080917A0086FDFCCF7B
:1001C000809178009091790008951092B20082E0B9
:1001D0008093B00085E08093B1008DE78093B300F9
:1001E000E0E7F0E0808182608083789408951F9238
:1001F0000F920FB60F9211248F939F93AF93BF93DB
:100200008091010190910201A0910301B09104013C
:100210000196A11DB11D8093010190930201A0934D
:100220000301B0930401BF91AF919F918F910F9003
:100230000FBE0F901F901895F89460910101709176
:100240000201809103019091040178940895E1ECFA
:10025000F0E080818861808387E690E09093C5001C
:100260008093C40008959091C00095FFFCCF8093C7
:10027000C60080E090E00895CF93DF93EC01899170
:10028000882319F00E943301FACFDF91CF910895AE
:100290001F93CF93DF93EC01FE011491812F0E94F5
:1002A0003301112311F02196F7CFDF91CF911F91E8
:1002B0000895CF93DF93CDB7DEB72A970FB6F894A2
:1002C000DEBF0FBECDBF4AE0BE016F5F7F4F0E9411
:1002D0009C02CE0101960E943C012A960FB6F8942A
:1002E000DEBF0FBECDBFDF91CF9108958091C000DA
:1002F00087FFFCCF8091C60008956111299A27E0FD
:1003000030E090E02D98AC01022E02C05595479543
:100310000A94E2F740FF02C02B9A01C02B982D9A55
:100320002150310978F729980895CF93DF93259AC2
:10033000239A249A219A209A2C9A29982D98289ABF
:1003400085E38A95F1F70000289860E081EF0E942C
:100350007D0160E087E60E947D0160E086EC0E94FE
:100360007D0160E080E40E947D0160E080E50E9404
:100370007D0160E08BE20E947D0160E08BEE0E94D7
:100380007D0160E081E80E947D0160E08FE50E94D0
:100390007D0160E089E80E947D01C0E4D0E161E078
:1003A00080E00E947D012197D1F760E080E00E940B
:1003B0007D0160E080E10E947D0160E080E60E94B6
:1003C0007D0160E08FEADF91CF910C947D01CF93A6
:1003D000DF9360E080E00E947D0160E080E10E94A8
:1003E0007D0160E080E60E947D01C0E4D0E161E033
:1003F00080E00E947D012197D1F760E080E00E94BB
:100400007D0160E080E10E947D0160E080E6DF9197
:10041000CF910C947D011F93CF93DF93C82F162F9C
:10042000D42F60E08F700E947D018C2F82958F7099
:1004300060E0805F0E947D0160E080E6810F0E94A5
:100440007D0161E08D2FDF91CF911F910C947D0193
:100450000E949C0080E50E9433012FEF83ED90E322
:10046000215080409040E1F700C000008AE00E94E7
:1004700033012FEF83ED90E3215080409040E1F76E
:1004800000C0000086E9809300014FEF6DE082E339
:100490000E940B024FEF6DE083E30E940B020E946B
:1004A0007000359903C084E10E943301349903C080
:1004B0008EE10E9433014A9903C082E30E94330116
:1004C0004B9903C08CE30E9433014D9903C086E42D
:1004D0000E9433014C9903C080E50E9433014E997C
:1004E00003C08AE50E9433014F99D9CF84E60E9468
:1004F0003301D5CFA1E21A2EAA1BBB1BFD010DC0F3
:10050000AA1FBB1FEE1FFF1FA217B307E407F507C3
:1005100020F0A21BB30BE40BF50B661F771F881F9F
:10052000991F1A9469F760957095809590959B0135
:10053000AC01BD01CF010895BB274A3031F49923A6
:1005400022F4BDE2909581959F4F0C94A802BB27A1
:10055000FB015527AA27880F991FAA1FA41710F07F
:10056000A41B83955051B9F7A05DAA3308F0A95D8B
:10057000A193009779F7B111B1931192CB010C942B
:10058000C102DC01FC01672F71917723E1F73297FB
:1005900004C07C916D9370836291AE17BF07C8F35E
:0605A0000895F894FFCF5E
:00000001FF
