:100000000C9434000C9451000C9451000C94510049
:100010000C9451000C9451000C9451000C948E02DD
:100020000C9451000C9451000C9451000C9451000C
:100030000C9451000C9451000C9451000C945100FC
:100040000C9451000C9451000C9451000C945100EC
:100050000C9451000C9451000C9451000C945100DC
:100060000C9451000C94510011241FBECFEFD8E026
:10007000DEBFCDBF11E0A0E0B1E0EAE1FCE002C0EC
:1000800005900D92A031B107D9F727E0A0E1B1E0CA
:1000900001C01D92A630B207E1F70E9463050C94DF
:1000A0000B060C940000CF93DF93C5E0D0E04FEF38
:1000B00064E370E0CE010E94D8044FEF68E370E083
:1000C000CE010E94D8042196CD30D10581F7DF9171
:1000D000CF910895CF93DF93C0911201D091130176
:1000E000809112019091130107968C179D07A4F03F
:1000F00060911401709115014FEFCE010E94D80458
:1001000060911401709115016C5F7F4F4FEFCE012C
:100110000E94D8042196E4CFDF91CF910895EF9209
:10012000FF920F931F93CF93DF937B01EC018C0120
:10013000040F111DC017D1073CF44FEFB701CE01DA
:100140000E94D8042196F6CFDF91CF911F910F9195
:10015000FF90EF9008954FEF69E18FE90E94A203AD
:1001600080910701181684F481E090E090930501D6
:10017000809304011092110186E080931104809114
:100180000701815080930701089580910601181698
:1001900084F482E090E0909305018093040188EF5D
:1001A0008093110110921104809106018150809377
:1001B00006010895209111014091140150911501FB
:1001C0008091090190910A01420F511D27FD5A9516
:1001D00020910201309103014817590764F14091C1
:1001E000140150911501BC01641B750BAB01485003
:1001F0005109241B350B30930301209302014091D8
:100200001401509115012091140130911501841BA6
:10021000950B0897820F931F9093150180931401FB
:10022000109205011092040184E08093070182E09E
:1002300080930601089540911101809114019091DD
:100240001501840F911D47FD9A9590931501809398
:10025000140180911101281B310987FD33953093DA
:10026000030120930201809111018F5F809311019E
:10027000089580910401909105010297029740F43E
:1002800083E090E090930501809304010E94DA00DE
:10029000809111041816F4F48091040190910501E5
:1002A0000197C1F4809111048150809311048091D1
:1002B0001201909113010296909313018093120101
:1002C0008091000190910101029790930101809328
:1002D000000112C08091110481110EC080910401AF
:1002E00090910501019741F483E090E0909305011E
:1002F000809304010E94DA00809112019091130111
:1003000001969093130180931201809100019091C6
:10031000010101979093010180930001089580915C
:100320000B01803309F07CC035990DC081E38093C7
:100330000B010E94B302609318017093190180931E
:100340001A0190931B0134990DC081E380930B0136
:100350000E94B302609318017093190180931A01EF
:1003600090931B014A990DC081E380930B010E9479
:10037000B302609318017093190180931A0190934E
:100380001B014B990DC081E380930B010E94B302C6
:10039000609318017093190180931A0190931B01C7
:1003A0004D990DC081E380930B010E94B3026093CD
:1003B00018017093190180931A0190931B014C99B5
:1003C0000DC081E380930B010E94B302609318017A
:1003D0007093190180931A0190931B014E990FC0DD
:1003E00081E380930B010E94C5000E94B3026093D9
:1003F00018017093190180931A0190931B014F9972
:100400000FC081E380930B010E94AB000E94B302F6
:10041000609318017093190180931A0190931B0146
:1004200008950E946A000E94530060910901709132
:100430000A018091020190910301680F791F2091B8
:1004400016013091170180910001909101014091B6
:100450000801820F931F0E948F000E9428050C94B0
:1004600060040E94BE0280E00E9448020E947C025A
:100470008AB183708AB98BB18C6F8BB987B18F7C4D
:1004800087B988B1806388B90E942C030C94020458
:1004900097B121E030E0082E01C0220F0A94EAF75C
:1004A0002095292327B997E890937A008064809358
:1004B0007C0080917A00806480937A0080917A0039
:1004C00086FDFCCF089590917C00907F90937C00F6
:1004D00090917C008F70982B90937C0080917A0093
:1004E000806480937A0080917A0086FDFCCF8091B1
:1004F00078009091790008951092B20082E0809384
:10050000B00085E08093B1008DE78093B300E0E711
:10051000F0E0808182608083789408951F920F922A
:100520000FB60F9211248F939F93AF93BF93809137
:10053000020790910307A0910407B0910507019667
:10054000A11DB11D8093020790930307A093040798
:10055000B0930507BF91AF919F918F910F900FBE00
:100560000F901F901895F8946091020770910307FF
:10057000809104079091050778940895E1ECF0E0EC
:1005800080818861808387E690E09093C5008093A6
:10059000C40008959091C00095FFFCCF8093C600E1
:1005A00080E090E00895CF93DF93EC018991882358
:1005B00019F00E94CA02FACFDF91CF9108951F93DC
:1005C000CF93DF93EC01FE011491812F0E94CA02A8
:1005D000112311F02196F7CFDF91CF911F9108954C
:1005E000CF93DF93CDB7DEB72A970FB6F894DEBF6F
:1005F0000FBECDBF4AE0BE016F5F7F4F0E94D605A0
:10060000CE0101960E94D3022A960FB6F894DEBF5F
:100610000FBECDBFDF91CF9108958091C00087FFBD
:10062000FCCF8091C60008956111299A27E030E03F
:1006300090E02D98AC01022E02C0559547950A9482
:10064000E2F740FF02C02B9A01C02B982D9A21504F
:10065000310978F729980895CF93DF93259A239A43
:10066000249A219A209A2C9A29982D98289A85E3E1
:100670008A95F1F70000289860E081EF0E9414034A
:1006800060E087E60E94140360E086EC0E94140399
:1006900060E080E40E94140360E080E50E9414039F
:1006A00060E08BE20E94140360E08BEE0E94140372
:1006B00060E081E80E94140360E08FE50E9414036B
:1006C00060E089E80E941403C0E4D0E161E080E0CA
:1006D0000E9414032197D1F760E080E00E94140388
:1006E00060E080E10E94140360E080E60E94140351
:1006F00060E08FEADF91CF910C941403CF93DF93E6
:1007000060E080E00E94140360E080E10E94140336
:1007100060E080E60E941403C0E4D0E161E080E084
:100720000E9414032197D1F760E080E00E94140337
:1007300060E080E10E94140360E080E6DF91CF91E9
:100740000C9414031F93CF93DF93C82F162FD42F2D
:1007500060E08F700E9414038C2F82958F7060E090
:10076000805F0E94140360E080E6810F0E94140302
:1007700061E08D2FDF91CF911F910C94140384E1E0
:1007800094E09093100480930F048AEF90E02091FE
:100790000C0130910D0140910E01E0910F04F09198
:1007A0001004219331934193F0931004E0930F04CC
:1007B000019769F784E194E09093100480930F040B
:1007C000089581E291E090931304809312048AEFDC
:1007D00090E020910C0130910D0140910E01209389
:1007E0002101309322014093230120910F04309185
:1007F00010042D5F3F4F3093100420930F04019796
:1008000041F7089584E194E09093100480930F04DD
:1008100081E291E090931304809312048AEF90E0B8
:1008200020910C0130910D0140910E01A0910F0417
:10083000B09110042D933D934D9320910C01309174
:100840000D0140910E01E0911204F09113042193E7
:1008500031934193B0931004A0930F04F0931304C9
:10086000E09312040197E1F684E194E09093100480
:1008700080930F0481E291E090931304809312041B
:100880000895803AE0F46536D0F4E0910F04F091D9
:1008900010048083618342833396F0931004E093C5
:1008A0000F04809120018F5F8093200180912001AF
:1008B0008B3F28F04FEF60E080E00C94A203089596
:1008C000FF920F931F93CF93DF9381E291E0909378
:1008D000130480931204C0E0D0E0E0911204F09180
:1008E000130480818F3F71F040E061810E94A20378
:1008F00080911204909113040396909313048093B3
:10090000120402C0CAEFD0E02196CA3FD1052CF3F1
:1009100081E291E090931304809312040E94E1031A
:1009200084E194E09093100480930F04C0E0D0E041
:10093000E0910F04F091100410811F3FE9F0F18065
:100940000281402F6F2D812F0E94A203E09112049B
:10095000F09113041083F18202833396F093130411
:10096000E093120480910F049091100403969093E9
:10097000100480930F0402C0CAEFD0E02196CA3F52
:10098000D105B4F284E194E09093100480930F04B5
:1009900081E291E090931304809312040E94BF03BC
:1009A00010922001DF91CF911F910F91FF90089538
:1009B000CF92DF92EF92FF920F931F93CF93DF932B
:1009C000803A9105E0F569367105C8F5C42F7C01C0
:1009D0008B0115950795159507956B0183E0C82246
:1009E000DD24C114D10421F4602F8E2D0E94410416
:1009F00081E0C816D10411F484E00BC082E0C8166F
:100A0000D10411F480E105C083E0C816D104B9F423
:100A100080E4C89FE00111244C2F602F8E2D0E948E
:100A2000410461E0600F4D2F8E2DDF91CF911F911A
:100A30000F91FF90EF90DF90CF900C944104DF91E5
:100A4000CF911F910F91FF90EF90DF90CF9008957D
:100A500080E090E0A7E1B4E0E4E1F4E020812F3F02
:100A600059F131817281AC016C916F3FD1F0621309
:100A700016C011966C911197631311C012966C9168
:100A80001297672B2083318362832C9311963C93BA
:100A9000119712966C93129720813181728113966F
:100AA00002C04AEF50E04F5F5F4F4A3F5105E4F20A
:100AB000DF011696339602C08AEF90E001968A3FD6
:100AC000910564F208950E94310280E50E94CA02F5
:100AD0002FEF83ED90E3215080409040E1F700C07C
:100AE00000008AE00E94CA022FEF83ED90E32150BC
:100AF00080409040E1F700C0000088E290E09093D1
:100B00001D0180931C0190931F0180931E0182E2BE
:100B1000882E912CA12CB12CC0E30E94B302A50118
:100B200094010E94B405672B682B692B31F40E9455
:100B30008F010E9439010E941102C0901801D090CB
:100B40001901E0901A01F0901B010E94B30228E203
:100B5000C20ED11CE11CF11C6C157D058E059F0594
:100B6000E0F2C0930B01D9CFA1E21A2EAA1BBB1B46
:100B7000FD010DC0AA1FBB1FEE1FFF1FA217B30769
:100B8000E407F50720F0A21BB30BE40BF50B661F7F
:100B9000771F881F991F1A9469F760957095809543
:100BA00090959B01AC01BD01CF010895BB274A3050
:100BB00031F4992322F4BDE2909581959F4F0C94D6
:100BC000E205BB27FB015527AA27880F991FAA1FFB
:100BD000A41710F0A41B83955051B9F7A05DAA3358
:100BE00008F0A95DA193009779F7B111B193119223
:100BF000CB010C94FB05DC01FC01672F719177237D
:100C0000E1F7329704C07C916D9370836291AE17C7
:0A0C1000BF07C8F30895F894FFCF62
:100C1A000500340003000203500C0030FFFFFF0000
:00000001FF
