:100000000C9434000C9451000C9451000C94510049
:100010000C9451000C9451000C9451000C94E50187
:100020000C9451000C9451000C9451000C9451000C
:100030000C9451000C9451000C9451000C945100FC
:100040000C9451000C9451000C9451000C945100EC
:100050000C9451000C9451000C9451000C945100DC
:100060000C9451000C94510011241FBECFEFD8E026
:10007000DEBFCDBF11E0A0E0B1E0E4E8F7E002C0F0
:1000800005900D92A230B107D9F721E0A2E0B1E0CE
:1000900001C01D92AE30B207E1F70E9416030C9426
:1000A000C0030C9400000F931F93CF93DF93C82FCE
:1000B000162FD62FD695D69529F040E06FEF6D0F0D
:1000C0000E94F90240E06D2F8C2F0E94F90201E09E
:1000D0000D0F40E0602F8C2F0E94F902612F63709A
:1000E00019F44FEF6D2F19C0613039F44CEF6D2FBB
:1000F0008C2F0E94F90243E00FC0623039F440EFC8
:100100006D2F8C2F0E94F9024FE006C040EC6D2F3E
:100110008C2F0E94F9024FE3602F8C2FDF91CF913B
:100120001F910F910C94F902CF93DF93C0E0D0E0C0
:100130004C2F6AE084E60E94F9024C2F6AE086E6C2
:100140000E94F9024C2F6AE088E60E94F9024C2FC7
:100150006AE08AE60E94F9022196C11581E0D8077B
:1001600039F7DF91CF9108954FEF6DE00C94F902CC
:10017000CF93C82F40E06DE00E94F90240E06DE0AF
:1001800081E08C0F0E94F90240E06DE082E08C0F6C
:100190000E94F90240E06DE083E08C0FCF910C9457
:1001A000F902803A20F4653610F40C945300089557
:1001B00080910001803309F08CC035990DC081E336
:1001C000809300010E940A02609302017093030170
:1001D000809304019093050134990DC081E38093CD
:1001E00000010E940A026093020170930301809350
:1001F0000401909305014A9912C081E380930001A4
:100200000E940A026093020170930301809304012B
:1002100090930501809107018150809307014B99CC
:1002200012C081E3809300010E940A0260930201E0
:10023000709303018093040190930501809107015D
:100240008F5F809307014D9912C081E38093000175
:100250000E940A02609302017093030180930401DB
:1002600090930501809106018F5F809306014C9960
:1002700012C081E3809300010E940A026093020190
:10028000709303018093040190930501809106010E
:100290008150809306014E990DC081E38093000147
:1002A0000E940A026093020170930301809304018B
:1002B000909305014F990DC081E3809300010E9446
:1002C0000A026093020170930301809304019093EA
:1002D00005010895CF93DF93D4E3C4E36D2F8C2FF2
:1002E0000E94D100CF5FC834C9F7DF5FD834A9F7C7
:1002F0006091070180910601DF91CF910C94D100AC
:1003000008958091080180930601809109018093EE
:10031000070108950E94150280E00E949F010E943B
:10032000D3018AB183708AB98BB18C6F8BB987B1D5
:100330008F7C87B988B1806388B90C94830297B1A8
:1003400021E030E0082E01C0220F0A94EAF7209540
:10035000292327B997E890937A00806480937C00E2
:1003600080917A00806480937A0080917A0086FD83
:10037000FCCF089590917C00907F90937C009091A9
:100380007C008F70982B90937C0080917A00806421
:1003900080937A0080917A0086FDFCCF809178006E
:1003A0009091790008951092B20082E08093B0009D
:1003B00085E08093B1008DE78093B300E0E7F0E043
:1003C000808182608083789408951F920F920FB687
:1003D0000F9211248F939F93AF93BF9380910A0143
:1003E00090910B01A0910C01B0910D010196A11DFE
:1003F000B11D80930A0190930B01A0930C01B0935F
:100400000D01BF91AF919F918F910F900FBE0F90F3
:100410001F901895F89460910A0170910B018091DA
:100420000C0190910D0178940895E1ECF0E0808149
:100430008861808387E690E09093C5008093C40034
:1004400008959091C00095FFFCCF8093C60080E096
:1004500090E00895CF93DF93EC018991882319F000
:100460000E942102FACFDF91CF9108951F93CF937D
:10047000DF93EC01FE011491812F0E9421021123D0
:1004800011F02196F7CFDF91CF911F910895CF936F
:10049000DF93CDB7DEB72A970FB6F894DEBF0FBE55
:1004A000CDBF4AE0BE016F5F7F4F0E948B03CE013C
:1004B00001960E942A022A960FB6F894DEBF0FBE5C
:1004C000CDBFDF91CF9108958091C00087FFFCCF11
:1004D0008091C60008956111299A27E030E090E0EC
:1004E0002D98AC01022E02C0559547950A94E2F76B
:1004F00040FF02C02B9A01C02B982D9A2150310940
:1005000078F729980895CF93DF93259A239A249A10
:10051000219A209A2C9A29982D98289A85E38A95D1
:10052000F1F70000289860E081EF0E946B0260E024
:1005300087E60E946B0260E086EC0E946B0260E03E
:1005400080E40E946B0260E080E50E946B0260E044
:100550008BE20E946B0260E08BEE0E946B0260E017
:1005600081E80E946B0260E08FE50E946B0260E010
:1005700089E80E946B02C0E4D0E161E080E00E9463
:100580006B022197D1F760E080E00E946B0260E08F
:1005900080E10E946B0260E080E60E946B0260E0F6
:1005A0008FEADF91CF910C946B02CF93DF9360E0E1
:1005B00080E00E946B0260E080E10E946B0260E0DC
:1005C00080E60E946B02C0E4D0E161E080E00E941E
:1005D0006B022197D1F760E080E00E946B0260E03F
:1005E00080E10E946B0260E080E6DF91CF910C9485
:1005F0006B021F93CF93DF93C82F162FD42F60E089
:100600008F700E946B028C2F82958F7060E0805FEC
:100610000E946B0260E080E6810F0E946B0261E045
:100620008D2FDF91CF911F910C946B020E948A0154
:1006300080E50E9421022FEF83ED90E3215080405E
:100640009040E1F700C000008AE00E9421022FEFF5
:1006500083ED90E3215080409040E1F700C000001E
:1006600084E3809309018093080188E28093060166
:100670008093070164E684E30E94530082E2882E9F
:10068000912CA12CB12CC0E30E940A02A501940177
:100690000E946903672B682B692B21F40E94D80004
:1006A0000E946A01C0900201D0900301E090040111
:1006B000F09005010E940A0226E9C20ED11CE11C3D
:1006C000F11C6C157D058E059F05F0F2C0930001AD
:1006D000DBCFA1E21A2EAA1BBB1BFD010DC0AA1F76
:1006E000BB1FEE1FFF1FA217B307E407F50720F09B
:1006F000A21BB30BE40BF50B661F771F881F991F16
:100700001A9469F760957095809590959B01AC015E
:10071000BD01CF010895BB274A3031F4992322F45B
:10072000BDE2909581959F4F0C949703BB27FB01E9
:100730005527AA27880F991FAA1FA41710F0A41BDA
:1007400083955051B9F7A05DAA3308F0A95DA19334
:10075000009779F7B111B1931192CB010C94B003CA
:10076000DC01FC01672F71917723E1F7329704C018
:100770007C916D9370836291AE17BF07C8F30895A3
:04078000F894FFCF1B
:02078400300043
:00000001FF
