:100000000C9434000C9451000C9451000C94510049
:100010000C9451000C9451000C9451000C941D014F
:100020000C9451000C9451000C9451000C9451000C
:100030000C9451000C9451000C9451000C945100FC
:100040000C9451000C9451000C9451000C945100EC
:100050000C9451000C9451000C9451000C945100DC
:100060000C9451000C94510011241FBECFEFD8E026
:10007000DEBFCDBF11E0A0E0B1E0E8EDF5E002C0E9
:1000800005900D92A430B107D9F721E0A4E0B1E0CA
:1000900001C01D92A830B207E1F70E944E020C94F5
:1000A000EA020C940000CF93DF93C0E0D0E04C2F25
:1000B0006AE084E60E9431024C2F6AE086E60E94E4
:1000C00031024C2F6AE088E60E9431024C2F6AE030
:1000D0008AE60E9431022196C11581E0D80739F7DE
:1000E000DF91CF910895CF93C82F4FEF6DE00E941D
:1000F00031024FEF6DE081E08C0F0E9431024FEF33
:100100006DE082E08C0F0E9431024FEF6DE083E0E2
:100110008C0FCF910C94310240E06DE084E60E9498
:10012000310240E06DE085E60E94310240E06DE082
:1001300086E60E94310240E06DE087E60C943102D1
:100140000E94420122E230E040E050E00E9493022F
:10015000672B682B692BA9F4809100019091010114
:10016000A0910201B09103010197A109B109809307
:10017000000190930101A0930201B09303010C943C
:10018000730008950E944D0180E00E94D7000E94F4
:100190000B018AB183708AB98BB18C6F8BB987B12F
:1001A0008F7C87B988B1806388B90C94BB0197B103
:1001B00021E030E0082E01C0220F0A94EAF72095D2
:1001C000292327B997E890937A00806480937C0074
:1001D00080917A00806480937A0080917A0086FD15
:1001E000FCCF089590917C00907F90937C0090913B
:1001F0007C008F70982B90937C0080917A008064B3
:1002000080937A0080917A0086FDFCCF80917800FF
:100210009091790008951092B20082E08093B0002E
:1002200085E08093B1008DE78093B300E0E7F0E0D4
:10023000808182608083789408951F920F920FB618
:100240000F9211248F939F93AF93BF9380910401DA
:1002500090910501A0910601B09107010196A11DA1
:10026000B11D8093040190930501A0930601B09302
:100270000701BF91AF919F918F910F900FBE0F908B
:100280001F901895F8946091040170910501809178
:1002900006019091070178940895E1ECF0E08081E7
:1002A0008861808387E690E09093C5008093C400C6
:1002B00008959091C00095FFFCCF8093C60080E028
:1002C00090E00895CF93DF93EC018991882319F092
:1002D0000E945901FACFDF91CF9108951F93CF93D8
:1002E000DF93EC01FE011491812F0E94590111232B
:1002F00011F02196F7CFDF91CF911F910895CF9301
:10030000DF93CDB7DEB72A970FB6F894DEBF0FBEE6
:10031000CDBF4AE0BE016F5F7F4F0E94B502CE01A4
:1003200001960E9462012A960FB6F894DEBF0FBEB6
:10033000CDBFDF91CF9108958091C00087FFFCCFA2
:100340008091C60008956111299A27E030E090E07D
:100350002D98AC01022E02C0559547950A94E2F7FC
:1003600040FF02C02B9A01C02B982D9A21503109D1
:1003700078F729980895CF93DF93259A239A249AA2
:10038000219A209A2C9A29982D98289A85E38A9563
:10039000F1F70000289860E081EF0E94A30160E07F
:1003A00087E60E94A30160E086EC0E94A30160E062
:1003B00080E40E94A30160E080E50E94A30160E068
:1003C0008BE20E94A30160E08BEE0E94A30160E03B
:1003D00081E80E94A30160E08FE50E94A30160E034
:1003E00089E80E94A301C0E4D0E161E080E00E94BE
:1003F000A3012197D1F760E080E00E94A30160E0B3
:1004000080E10E94A30160E080E60E94A30160E019
:100410008FEADF91CF910C94A301CF93DF9360E03B
:1004200080E00E94A30160E080E10E94A30160E0FF
:1004300080E60E94A301C0E4D0E161E080E00E9478
:10044000A3012197D1F760E080E00E94A30160E062
:1004500080E10E94A30160E080E6DF91CF910C94DF
:10046000A3011F93CF93DF93C82F162FD42F60E0E3
:100470008F700E94A3018C2F82958F7060E0805F47
:100480000E94A30160E080E6810F0E94A30161E069
:100490008D2FDF91CF911F910C94A3010E94C20078
:1004A00080E50E9459012FEF83ED90E321508040B9
:1004B0009040E1F700C000008AE00E9459012FEF50
:1004C00083ED90E3215080409040E1F700C00000B0
:1004D0000E94A000359903C084E10E94590134991B
:1004E00003C08EE10E9459014A9903C082E30E9431
:1004F00059014B9903C08CE30E9459014D9903C0E7
:1005000086E40E9459014C9903C080E50E9459017C
:100510004E9903C08AE50E9459014F99D9CF84E6CC
:100520000E945901D5CFA1E21A2EAA1BBB1BFD01C7
:100530000DC0AA1FBB1FEE1FFF1FA217B307E407C2
:10054000F50720F0A21BB30BE40BF50B661F771F1A
:10055000881F991F1A9469F76095709580959095FA
:100560009B01AC01BD01CF010895BB274A3031F496
:10057000992322F4BDE2909581959F4F0C94C1027E
:10058000BB27FB015527AA27880F991FAA1FA4176D
:1005900010F0A41B83955051B9F7A05DAA3308F061
:1005A000A95DA193009779F7B111B1931192CB0195
:1005B0000C94DA02DC01FC01672F71917723E1F7DB
:1005C000329704C07C916D9370836291AE17BF0720
:0805D000C8F30895F894FFCF71
:0405D80064000000BB
:00000001FF
