:100000000C9434000C9451000C9451000C94510049
:100010000C9451000C9451000C9451000C94C606A1
:100020000C9451000C9451000C9451000C9451000C
:100030000C9451000C9451000C9451000C945100FC
:100040000C9451000C9451000C9451000C945100EC
:100050000C9451000C9451000C9451000C945100DC
:100060000C9451000C94510011241FBECFEFD8E026
:10007000DEBFCDBF11E0A0E0B1E0E6EEF6E102C0E8
:1000800005900D92A233B107D9F728E0A2E3B1E0C1
:1000900001C01D92AF36B207E1F70E940B0A0C9423
:1000A000710B0C940000CF93DF9300D000D01F920F
:1000B000CDB7DEB725E0829FC0011124FC01EE5AC6
:1000C000F74F85E0DE01119601900D928A95E1F7D8
:1000D00029813A814B815C816D8170E080E090E004
:1000E0000F900F900F900F900F90DF91CF91089588
:1000F000CF93DF9390E041E050E820E085E0E2E537
:10010000F8E0608171813481EB01C30FD11DDA0108
:10011000A20FB11DAC17BD071CF4232FAB01892F13
:1001200035969F5F953069F7DF91CF910895CF9312
:10013000DF9390E04FEF5FE720E085E0E2E5F8E055
:10014000608171813481EB01C30FD11DDA01A20FEF
:10015000B11DCA17DB071CF4232FAB01892F35967D
:100160009F5F953069F7DF91CF91089585E0EDE0CD
:10017000F1E0A2E5B8E001900D928A95E1F785E003
:10018000E2E1F1E0A7E5B8E001900D928A95E1F790
:1001900085E0E7E1F1E0ACE5B8E001900D928A95E9
:1001A000E1F785E0ECE1F1E0A1E6B8E001900D9225
:1001B0008A95E1F785E0E1E2F1E0A6E6B8E001909A
:1001C0000D928A95E1F70895EF92FF920F931F9396
:1001D000CF93DF937B01EC018C01040F111DC0173D
:1001E000D1073CF44FEFB701CE010E94750921966B
:1001F000F6CFDF91CF911F910F91FF90EF9008956F
:10020000CF93DF93C2E5D8E06091070170910801B8
:10021000E0910501F09106012A813B81620F731F75
:10022000888199814C818E0F9F1F0E94E400259642
:1002300088E0CB36D80741F7DF91CF9108950F932F
:100240001F93CF93DF93CDB7DEB72A970FB6F894FD
:10025000DEBF0FBECDBF4E835F83688779878A87F5
:100260000E94C90A60E074E00E94550A8C0164E6AD
:1002700070E00E94550AC297E885F985E80FF91FDA
:100280008A852E813F81280F311DC80169E170E008
:100290000E94550A0196280F391F3A832983FC834F
:1002A000EB83C80166E470E00E94550A6EE1680FB6
:1002B0003A814E2F5C8170E080E090E02A960FB684
:1002C000F894DEBF0FBECDBFDF91CF911F910F918C
:1002D0000895CF93DF9300D000D01F92CDB7DEB743
:1002E00029833A834B835C836D83853068F495E082
:1002F000899FD0011124AE5AB74F85E0FE01319697
:1003000001900D928A95E1F70F900F900F900F904A
:100310000F90DF91CF9108951F93CF93DF93CDB7C7
:10032000DEB72F970FB6F894DEBF0FBECDBF0E9489
:100330009700182F0E9453002B873C874D875E87BC
:100340006F8720913701309138018B859C85860F0E
:10035000911D8217930774F40E9478000E94530045
:10036000942F752F862FA901692F0E941F01812FBD
:100370000E9469012F960FB6F894DEBF0FBECDBF65
:10038000DF91CF911F9108958091370190913801AD
:1003900088399A4394F1E2E5F8E0209137013091F1
:1003A000380180819181821B930B918380833596E4
:1003B00088E0EB36F80789F7209137013091380152
:1003C0008091370190913801821B930B90933801F3
:1003D00080933701209137013091380180910501D8
:1003E00090910601820F931F90930601809305015F
:1003F0004FEF60E080E00C94DA070895CF93DF932D
:10040000C5E0D0E04FEF64E370E0CE010E947509D3
:100410004FEF68E370E0CE010E9475092196CD3060
:10042000D10581F7DF91CF910895CF93DF93C091EC
:100430003701D091380180913701909138010796AA
:100440008C179D07A4F06091390170913A014FEF2C
:10045000CE010E9475096091390170913A016C5F7B
:100460007F4F4FEFCE010E9475092196E4CFDF91B7
:10047000CF9108954FEF69E18FE90E94DA078091EB
:100480000301181684F481E090E0909301018093B9
:1004900000011092360186E08093CB048091030125
:1004A000815080930301089580910201181684F40D
:1004B00082E090E0909301018093000188EF8093A7
:1004C00036011092CB048091020181508093020189
:1004D0000895AF92CF92EF92FF920F931F93F8017E
:1004E000EC0DF11D8E179F07A4F4840F911D0817C2
:1004F00019077CF4C7018A0D911D681779074CF420
:10050000620F711D81E090E0E616F70624F080E0AE
:1005100002C080E090E01F910F91FF90EF90CF908C
:10052000AF9008954F925F926F927F928F929F92B9
:10053000AF92CF92EF92FF920F931F93CF93DF93DF
:1005400000D000D01F92CDB7DEB792E5892E98E09B
:10055000992E662E712C482E512CE0900701F090B8
:1005600008010091050110910601F4018281938137
:10057000E80EF91E80819181080F191F88E0A82ECE
:10058000C48020E140E1B301C2010E946902892BCD
:1005900019F085E0F4010BC0F5E08F0E911C8BE69D
:1005A000881688E09806C9F685E0E6E2F1E0DE010B
:1005B000119601900D928A95E1F729813A814B813C
:1005C0005C816D8170E080E090E00F900F900F9063
:1005D0000F900F90DF91CF911F910F91FF90EF90AF
:1005E000CF90AF909F908F907F906F905F904F9043
:1005F0000895AF92BF92CF92DF92EF92FF920F9346
:100600001F93CF93DF93C82FD0E06E018FE0C80E09
:10061000D11C062F10E058018FE0A80EB11CCC169B
:10062000DD067CF07801AE14BF044CF040E0B70169
:10063000CE010E94750984E0E80EF11CF4CF2196EA
:10064000EECFDF91CF911F910F91FF90EF90DF9050
:10065000CF90BF90AF9008950F931F93CF93DF93E8
:1006600000D000D01F92CDB7DEB700E010E0612FC0
:10067000802F0E94920229833A8389819A81019670
:1006800021F0612F802F0E94F902105F103779F757
:10069000005F003A59F70F900F900F900F900F9056
:1006A000DF91CF911F910F910895AF92EF92FF923A
:1006B000C7018A0D911D681779074CF4620F711DEF
:1006C00081E090E0E616F70624F080E002C080E0CA
:1006D00090E0FF90EF90AF900895EF92FF92620F3D
:1006E000711D81E090E0E616F70614F080E090E0DE
:1006F000FF90EF900895AF92EF92FF92EA0CF11CF9
:1007000081E090E06E157F0514F080E090E0FF90AE
:10071000EF90AF9008958F929F92AF92BF92CF9239
:10072000DF92EF92FF920F931F93CF93DF93D090BE
:10073000340135E0B32E25E0D29EC0011124AC0176
:100740004E5A574F4A01FA01C281D3816091390153
:1007500070913A01809137019091380100811181A7
:1007600028E0A22EC4807E0128E048E00E946902B1
:10077000009709F49DC0D09234019092CA048092EF
:10078000C904109236012091390130913A018091CB
:10079000390190913A01285F3F4F2C1B3D0B37FFE9
:1007A00003C03195219531098C1B9D0B089697FF4D
:1007B00003C0919581959109281739076CF14FEF86
:1007C00060E084E60E94DA071092010110920001B5
:1007D0002091390130913A01E091C904F091CA04A5
:1007E00082818850821B082E000C990B20913901C0
:1007F00030913A01280F391F30933A012093390183
:100800002091070130910801A901481B590B509311
:1008100008014093070161C02091390130913A01EC
:100820008091390190913A01285F3F4F2C1B3D0B7D
:1008300037FF03C03195219531098C1B9D0B08961C
:1008400097FF03C0919581959109821793070CF446
:1008500044C04FEF60E084E60E94DA07209139013E
:1008600030913A01E091C904F091CA048281885F15
:10087000821B082E000C990B2091390130913A010E
:10088000280F391F30933A01209339012091070135
:1008900030910801F901E81BF90BF0930801E0938E
:1008A000070183E090E0909301018093000115C05F
:1008B000D394F4E0FD1508F4D12CBA94B1103BCFD9
:1008C000D09234019092CA048092C90423E030E0AF
:1008D000309301012093000102C081E090E0DF919C
:1008E000CF911F910F91FF90EF90DF90CF90BF902D
:1008F000AF909F908F9008950E948C010E94C40138
:100900008091000190910101892B39F482E080935C
:100910000201809303010E948B038091000190915A
:100920000101029711F40E948B038091CB04209166
:100930000001309101011816D4F421303105B9F4C9
:100940008091CB0481508093CB04809137019091AA
:100950003801049690933801809337018091050106
:100960009091060104979093060180930501809170
:10097000CB04811105C02130310511F40E948B0395
:100980008091000190910101039719F520913601A2
:100990008091390190913A01820F911D27FD9A951E
:1009A00090933A018093390120913601809107019B
:1009B00090910801821B910927FD9395909308015E
:1009C00080930701809136018F5F809336010E94EA
:1009D0008B038091370190913801029690933801F2
:1009E00080933701809105019091060102979093C1
:1009F000060180930501089580910401803309F078
:100A0000DCC035990DC081E3809304010E94EB06A0
:100A100060933B0170933C0180933D0190933E01B4
:100A200034991EC081E3809304010E94EB06609319
:100A30003B0170933C0180933D0190933E01809176
:100A4000320190913301892B39F481E090E0909349
:100A500033018093320104C01092330110923201AD
:100A60008091320190913301892B09F0A6C04A99F7
:100A70001FC081E3809304010E94EB0660933B0159
:100A800070933C0180933D0190933E018091390128
:100A900090913A01029790933A01809339018091A5
:100AA0000701909108010296909308018093070135
:100AB0004B991FC081E3809304010E94EB06609371
:100AC0003B0170933C0180933D0190933E018091E6
:100AD000390190913A01029690933A01809339013D
:100AE00080910701909108010297909308018093EB
:100AF00007014D991FC081E3809304010E94EB061A
:100B000060933B0170933C0180933D0190933E01C3
:100B1000809137019091380102969093380180932B
:100B2000370180910501909106010297909306018B
:100B3000809305014C991FC081E3809304010E94BA
:100B4000EB0660933B0170933C0180933D019093D1
:100B50003E018091370190913801029790933801BE
:100B60008093370180910501909106010296909340
:100B70000601809305014E990FC081E38093040123
:100B80000E9454020E94EB0660933B0170933C016B
:100B900080933D0190933E014F990FC081E3809374
:100BA00004010E943A020E94EB0660933B0170939D
:100BB0003C0180933D0190933E010895CF92DF92D6
:100BC000EF92FF920F931F93CF93DF93062F10E0C6
:100BD000C82FD0E04CE3B801CE010E94750978011E
:100BE00084E0E80EF11C4FE3B701CE010E947509C5
:100BF0006E018FEFC81AD80A48E0B801C6010E94FA
:100C0000750947E5B701C6010E9475096E0182E0CA
:100C1000C80ED11C4AE0B801C6010E94750947E51B
:100C2000B701C6010E9475096E0183E0C80ED11C90
:100C30004AE0B801C6010E94750947E5B701C6013F
:100C40000E9475096E0184E0C80ED11C4AE0B8010B
:100C5000C6010E9475094BE5B701C6010E947509DE
:100C60006E0185E0C80ED11C4AEEB801C6010E9493
:100C7000750947E5B701C6010E9475096E0186E056
:100C8000C80ED11C42ECB801C6010E94750943E0B0
:100C9000B701C6010E94750942E0B801CE0107966E
:100CA000DF91CF911F910F91FF90EF90DF90CF9048
:100CB0000C94750964E370E085E090E00E94DE0525
:100CC0000C9400010E94F60684E00E94800684E0F5
:100CD0000E949B060E94CE0A0E94B4068AB18370CD
:100CE0008AB98BB18C6F8BB987B18F7C87B988B18A
:100CF000806388B90E9464070E94F7070C94B600CD
:100D000097B121E030E0082E01C0220F0A94EAF7E3
:100D10002095292327B997E890937A0080648093DF
:100D20007C0080917A00806480937A0080917A00C0
:100D300086FDFCCF089590917C00907F90937C007D
:100D400090917C008F70982B90937C0080917A001A
:100D5000806480937A0080917A0086FDFCCF809138
:100D600078009091790008951092B20082E080930B
:100D7000B00085E08093B1008DE78093B300E0E799
:100D8000F0E0808182608083789408951F920F92B2
:100D90000FB60F9211248F939F93AF93BF938091BF
:100DA0006B0890916C08A0916D08B0916E08019647
:100DB000A11DB11D80936B0890936C08A0936D08E2
:100DC000B0936E08BF91AF919F918F910F900FBE1E
:100DD0000F901F901895F89460916B0870916C08B3
:100DE00080916D0890916E0878940895E1ECF0E0A0
:100DF00080818861808387E690E09093C50080932E
:100E0000C40008959091C00095FFFCCF8093C60068
:100E100080E090E00895CF93DF93EC0189918823DF
:100E200019F00E940207FACFDF91CF9108951F9326
:100E3000CF93DF93EC01FE011491812F0E940207F2
:100E4000112311F02196F7CFDF91CF911F910895D3
:100E5000CF93DF93CDB7DEB72A970FB6F894DEBFF6
:100E60000FBECDBF4AE0BE016F5F7F4F0E94D90A1F
:100E7000CE0101960E940B072A960FB6F894DEBFAA
:100E80000FBECDBFDF91CF9108958091C00087FF45
:100E9000FCCF8091C60008956111299A27E030E0C7
:100EA00090E02D98AC01022E02C0559547950A940A
:100EB000E2F740FF02C02B9A01C02B982D9A2150D7
:100EC000310978F729980895CF93DF93259A239ACB
:100ED000249A219A209A2C9A29982D98289A85E369
:100EE0008A95F1F70000289860E081EF0E944C0796
:100EF00060E087E60E944C0760E086EC0E944C07A9
:100F000060E080E40E944C0760E080E50E944C07AE
:100F100060E08BE20E944C0760E08BEE0E944C0781
:100F200060E081E80E944C0760E08FE50E944C077A
:100F300060E089E80E944C07C0E4D0E161E080E015
:100F40000E944C072197D1F760E080E00E944C0797
:100F500060E080E10E944C0760E080E60E944C0760
:100F600060E08FEADF91CF910C944C07CF93DF9331
:100F700060E080E00E944C0760E080E10E944C0746
:100F800060E080E60E944C07C0E4D0E161E080E0D0
:100F90000E944C072197D1F760E080E00E944C0747
:100FA00060E080E10E944C0760E080E6DF91CF9135
:100FB0000C944C071F93CF93DF93C82F162FD42F79
:100FC00060E08F700E944C078C2F82958F7060E0DC
:100FD000805F0E944C0760E080E6810F0E944C0712
:100FE00061E08D2FDF91CF911F910C944C07CF932F
:100FF000DF93CEECD4E0E3E4F1E080912B0190911B
:101000002C01A0912D0189939993A9938193919398
:10101000A19324E0E73CF207B1F7DF91CF91089567
:10102000843629F0853631F4E3E4F1E005C0EEECD6
:10103000F4E002C0E0E0F0E0CF018C579C4F20913B
:101040002B0130912C0140912D012193319341933B
:10105000E817F907D1F70895443619F4EEECF4E0F7
:1010600004C04536D9F4E3E4F1E020E030E00EC0FE
:101070004181741779F09F3F11F42CE231E03396EF
:101080002F5F3F4F2C3291E0390744F49081691370
:10109000F2CFEECF42818413EECF03C080E090E028
:1010A000089581E090E00895CF92DF92EF92443668
:1010B00029F0453631F4E3E4F1E005C0EEECF4E06C
:1010C00002C0E0E0F0E020E030E0C0902E01D090DF
:1010D0002F01E09030019081961309C09181971300
:1010E00006C09281981303C0C082D182E2829081AF
:1010F0009F3F11F42CE231E033962F5F3F4F2C32AB
:1011000091E0390744F3EF90DF90CF900895FF927C
:101110000F931F93CF93DF93603AD8F57536C8F5D8
:10112000C42FF82E072F162F0E942C08892B89F523
:10113000C43629F0C53631F4C3E4D1E005C0CEECA5
:10114000D4E002C0C0E0D0E045E6612F702F8F2DC3
:101150000E942C08892B59F045E6612F702F8F2DA6
:10116000DF91CF911F910F91FF900C94540880E074
:1011700090E028812F3F11F0283C29F4188309833F
:10118000FA828CE291E0239601968C3221E092075C
:1011900084F3DF91CF911F910F91FF900895CF922B
:1011A000DF92EF92FF920F931F93CF93DF93C0E0F4
:1011B000D0E0E3E4F1E080818F3F59F08F010D5FD3
:1011C0001F4F883C21F040E061810E94DA07F8015E
:1011D00002C0CCE2D1E02196CC3221E0D2075CF310
:1011E00085E60E941008E12CF12CCEECD4E003E45B
:1011F00011E088818F3FB1F0FE0133966F01883C8A
:1012000079F04A8169810E94DA0799818A8128816F
:10121000F801208391838283E6010D5F1F4F06C092
:10122000EF0104C08CE2E82EFF24F394FFEFEF1AE5
:10123000FF0A2CE2E21621E0F206DCF284E6DF91FE
:10124000CF911F910F91FF90EF90DF90CF900C9472
:101250001008CF92DF92EF92FF920F931F93CF93DC
:10126000DF93803A9105C0F569367105A8F5C42F62
:101270007C018B0115950795159507956B0183E00A
:10128000C822DD24C114D10431F444E66E2D702F40
:101290008C2F0E94870881E0C816D10411F484E0E5
:1012A0000BC082E0C816D10411F480E105C083E0D0
:1012B000C816D10489F480E4C89FE001112444E6F3
:1012C0006E2D702F8C2F0E94870871E0700F44E6FE
:1012D0006E2D8D2F0E948708DF91CF911F910F9166
:1012E000FF90EF90DF90CF900895CF92DF92EF9232
:1012F000FF920F931F93CF93DF93803A9105E0F510
:1013000069367105C8F5C42F7C018B0115950795C9
:10131000159507956B0183E0C822DD24C114D10423
:1013200021F4602F8E2D0E94DA0781E0C816D104C7
:1013300011F484E00BC082E0C816D10411F480E1FE
:1013400005C083E0C816D104B9F480E4C89FE00169
:1013500011244C2F602F8E2D0E94DA0761E0600F60
:101360004D2F8E2DDF91CF911F910F91FF90EF9018
:10137000DF90CF900C94DA07DF91CF911F910F91FE
:10138000FF90EF90DF90CF900895CF92DF92EF9291
:1013900080E090E0A1EDB4E0EEECF4E0C0902E012E
:1013A000D0902F01E090300140814F3F49F15181B1
:1013B00072819C016C916F3FB9F0641313C0119658
:1013C0006C91119765130EC012966C911297672B52
:1013D000408351836283CD92DD92EC9212974081DB
:1013E00051817281139602C02CE231E02F5F3F4F92
:1013F0002C3261E03607F4F2DF011696339602C014
:101400008CE291E001968C3221E092076CF2EF9031
:10141000DF90CF9008950E94620680E50E94020747
:101420002FEF83ED90E3215080409040E1F700C022
:1014300000008AE00E9402072FEF83ED90E3215025
:1014400080409040E1F700C0000088E290E0909377
:10145000400180933F019093420180934101C0E39A
:101460000E94FC048091320190913301892B31F468
:101470000E942C030E947C040E945A06C0903B01EB
:10148000D0903C01E0903D01F0903E010E94EB06BF
:1014900026E9C20ED11CE11CF11C6C157D058E05E0
:1014A0009F05F0F2C0930401DBCF97FB072E16F4E3
:1014B000009407D077FD09D00E94690A07FC05D087
:1014C0003EF4909581959F4F0895709561957F4F5B
:1014D0000895AA1BBB1B51E107C0AA1FBB1FA6177B
:1014E000B70710F0A61BB70B881F991F5A95A9F7CD
:1014F00080959095BC01CD0108958F929F92AF92F7
:10150000BF92CF92DF92EF92FF92CF93DF93EC01E5
:10151000688179818A819B816115710581059105B9
:1015200021F464E279ED8BE597E02DE133EF41E0C2
:1015300050E00E940E0B49015A019B01AC01A7EA41
:10154000B1E40E942D0B6B017C01ACEEB4EFA50160
:1015500094010E943B0BDC01CB018C0D9D1DAE1D47
:10156000BF1DB7FF03C00197A109B04888839983C5
:10157000AA83BB839F77DF91CF91FF90EF90DF909D
:10158000CF90BF90AF909F908F9008950E947D0A5A
:10159000089589E091E00E947D0A0895A0E0B0E0FE
:1015A0008093090190930A01A0930B01B0930C0161
:1015B0000895BB274A3031F4992322F4BDE2909577
:1015C00081959F4F0C94E50ABB27FB015527AA275D
:1015D000880F991FAA1FA41710F0A41B83955051C0
:1015E000B9F7A05DAA3308F0A95DA193009779F738
:1015F000B111B1931192CB010C94FE0ADC01FC01F4
:10160000672F71917723E1F7329704C07C916D9336
:1016100070836291AE17BF07C8F30895052E97FB3C
:101620001EF400940E94250B57FD07D00E94400B2A
:1016300007FC03D04EF40C94250B50954095309543
:1016400021953F4F4F4F5F4F08959095809570952E
:1016500061957F4F8F4F9F4F08950E94620BA59F0A
:10166000900DB49F900DA49F800D911D112408959D
:10167000B7FF0C942D0B0E942D0B821B930B08952A
:10168000A1E21A2EAA1BBB1BFD010DC0AA1FBB1F86
:10169000EE1FFF1FA217B307E407F50720F0A21BF8
:1016A000B30BE40BF50B661F771F881F991F1A9465
:1016B00069F760957095809590959B01AC01BD018F
:1016C000CF010895A29FB001B39FC001A39F700DE9
:1016D000811D1124911DB29F700D811D1124911D3A
:0616E0000895F894FFCF0D
:1016E6000300020230050034000100000000000C77
:1016F60000505A001E0028C8001400322C011E009B
:10170600329001280032FFFFFFFF00FFFFFFC8C82D
:02171600C80009
:00000001FF
