:100000000C9434000C9451000C9451000C94510049
:100010000C9451000C9451000C9451000C941A064D
:100020000C9451000C9451000C9451000C9451000C
:100030000C9451000C9451000C9451000C945100FC
:100040000C9451000C9451000C9451000C945100EC
:100050000C9451000C9451000C9451000C945100DC
:100060000C9451000C94510011241FBECFEFD8E026
:10007000DEBFCDBF11E0A0E0B1E0ECEFF4E102C0E3
:1000800005900D92AC32B107D9F728E0ACE2B1E0AF
:1000900001C01D92A736B207E1F70E940F090C9428
:1000A0007C0A0C940000CF93DF9300D000D01F9205
:1000B000CDB7DEB725E0829FC0011124FC01E65BCD
:1000C000F74F85E0DE01119601900D928A95E1F7D8
:1000D00029813A814B815C816D8170E080E090E004
:1000E0000F900F900F900F900F90DF91CF91089588
:1000F000CF93DF9390E041E050E820E085E0EAE430
:10010000F8E0608171813481EB01C30FD11DDA0108
:10011000A20FB11DAC17BD071CF4232FAB01892F13
:1001200035969F5F953069F7DF91CF910895CF9312
:10013000DF9390E04FEF5FE720E085E0EAE4F8E04E
:10014000608171813481EB01C30FD11DDA01A20FEF
:10015000B11DCA17DB071CF4232FAB01892F35967D
:100160009F5F953069F7DF91CF91089585E0EDE0CD
:10017000F1E0AAE4B8E001900D928A95E1F785E0FC
:10018000E2E1F1E0AFE4B8E001900D928A95E1F789
:1001900085E0E7E1F1E0A4E5B8E001900D928A95F1
:1001A000E1F785E0ECE1F1E0A9E5B8E001900D921E
:1001B0008A95E1F785E0E1E2F1E0AEE5B8E0019093
:1001C0000D928A95E1F70895EF92FF920F931F9396
:1001D000CF93DF937B01EC018C01040F111DC0173D
:1001E000D1073CF44FEFB701CE010E947D08219664
:1001F000F6CFDF91CF911F910F91FF90EF9008956F
:10020000CF93DF93CAE4D8E06091070170910801B1
:10021000E0910501F09106012A813B81620F731F75
:10022000888199814C818E0F9F1F0E94E400259642
:1002300088E0C336D80741F7DF91CF9108950F9337
:100240001F93CF93DF93CDB7DEB72A970FB6F894FD
:10025000DEBF0FBECDBF4E835F83688779878A87F5
:100260000E94F60960E074E00E9460098C0164E677
:1002700070E00E946009C297E885F985E80FF91FD0
:100280008A852E813F81280F311DC80169E170E008
:100290000E9460090196280F391F3A832983FC8345
:1002A000EB83C80166E470E00E9460096EE1680FAC
:1002B0003A814E2F5C8170E080E090E02A960FB684
:1002C000F894DEBF0FBECDBFDF91CF911F910F918C
:1002D0000895CF93DF9300D000D01F92CDB7DEB743
:1002E00029833A834B835C836D83853068F495E082
:1002F000899FD0011124A65BB74F85E0FE0131969E
:1003000001900D928A95E1F70F900F900F900F904A
:100310000F90DF91CF9108951F93CF93DF93CDB7C7
:10032000DEB72F970FB6F894DEBF0FBECDBF0E9489
:100330009700182F0E9453002B873C874D875E87BC
:100340006F8720912F01309130018B859C85860F1E
:10035000911D8217930774F40E9478000E94530045
:10036000942F752F862FA901692F0E941F01812FBD
:100370000E9469012F960FB6F894DEBF0FBECDBF65
:10038000DF91CF911F91089580912F0190913001BD
:1003900088399A4394F1EAE4F8E020912F013091F2
:1003A000300180819181821B930B918380833596EC
:1003B00088E0E336F80789F720912F01309130016A
:1003C00080912F0190913001821B930B909330010B
:1003D00080932F0120912F013091300180910501F0
:1003E00090910601820F931F90930601809305015F
:1003F0004FEF60E080E00C942E070895CF93DF93D9
:10040000C5E0D0E04FEF64E370E0CE010E947D08CC
:100410004FEF68E370E0CE010E947D082196CD3059
:10042000D10581F7DF91CF910895CF93DF93C091EC
:100430002F01D091300180912F01909130010796CA
:100440008C179D07A4F060913101709132014FEF3C
:10045000CE010E947D0860913101709132016C5F84
:100460007F4F4FEFCE010E947D082196E4CFDF91B0
:10047000CF9108954FEF69E18FE90E942E07809197
:100480000301181684F481E090E0909301018093B9
:10049000000110922E0186E08093C3048091030135
:1004A000815080930301089580910201181684F40D
:1004B00082E090E0909301018093000188EF8093A7
:1004C0002E011092C3048091020181508093020199
:1004D0000895AF92CF92EF92FF920F931F93F8017E
:1004E000EC0DF11D8E179F07A4F4840F911D0817C2
:1004F00019077CF4C7018A0D911D681779074CF420
:10050000620F711D81E090E0E616F70624F080E0AE
:1005100002C080E090E01F910F91FF90EF90CF908C
:10052000AF900895AF92EF92FF92C7018A0D911D8F
:10053000681779074CF4620F711D81E090E0E616B0
:10054000F70624F080E002C080E090E0FF90EF909A
:10055000AF9008958F929F92AF92BF92CF92DF9209
:10056000EF92FF920F931F93CF93DF93D0902C01C4
:1005700035E0B32E25E0D29EC0011124FC01E65BDC
:10058000F74F4F01C281D3816091310170913201E7
:1005900080912F01909130010081118124E0A22EE1
:1005A000C4807E0128E048E00E9469020097E1F1E2
:1005B000D0922C019092C2048092C1041092010149
:1005C0001092000110922E01809131019091320120
:1005D00020912F01309130019E012C5F3F4F8217F7
:1005E0009307BCF50896C817D9079CF5809131018F
:1005F00090913201C81BC8500C2E000CDD0B80916D
:100600003101909132018C0F9D1F909332018093A4
:10061000310180910701909108018C1B9D0B9093F3
:1006200008018093070115C0D394F4E0FD1508F488
:10063000D12CBA94B1109ECFD0922C019092C204CA
:100640008092C10423E030E0309301012093000147
:1006500002C081E090E0DF91CF911F910F91FF9058
:10066000EF90DF90CF90BF90AF909F908F900895C4
:100670000E948C010E94C4018091000190910101AF
:10068000892B39F482E080930201809303010E9458
:10069000AA028091000190910101029711F40E9439
:1006A000AA028091C3042091000130910101181623
:1006B000D4F421303105B9F48091C3048150809382
:1006C000C30480912F0190913001049690933001E2
:1006D00080932F01809105019091060104979093DA
:1006E0000601809305018091C304811105C021306A
:1006F000310511F40E94AA0280910001909101013C
:10070000039719F520912E018091310190913201CA
:10071000820F911D27FD9A959093320180933101AC
:1007200020912E018091070190910801821B91096F
:1007300027FD9395909308018093070180912E01E6
:100740008F5F80932E010E94AA0280912F019091C9
:10075000300102969093300180932F018091050122
:1007600090910601029790930601809305010895E8
:1007700080910401803309F0C4C035990DC081E334
:10078000809304010E943F0660933301709334010B
:10079000809335019093360134990DC081E38093A5
:1007A00004010E943F0660933301709334018093EB
:1007B0003501909336014A991FC081E3809304016B
:1007C0000E943F066093330170933401809335019A
:1007D000909336018091310190913201029790936C
:1007E00032018093310180910701909108010296B6
:1007F00090930801809307014B991FC081E3809378
:1008000004010E943F06609333017093340180938A
:100810003501909336018091310190913201029619
:1008200090933201809331018091070190910801EA
:10083000029790930801809307014D991FC081E3AF
:10084000809304010E943F0660933301709334014A
:10085000809335019093360180912F019091300162
:1008600002969093300180932F0180910501909121
:100870000601029790930601809305014C991FC0D1
:1008800081E3809304010E943F06609333017093DB
:100890003401809335019093360180912F0190911E
:1008A000300102979093300180932F0180910501D0
:1008B00090910601029690930601809305014E994E
:1008C0000FC081E3809304010E9454020E943F06FE
:1008D0006093330170933401809335019093360116
:1008E0004F990FC081E3809304010E943A020E9455
:1008F0003F066093330170933401809335019093E8
:10090000360108958F929F92AF92BF92CF92DF925D
:10091000EF92FF920F931F93CF93DF93C62FD0E0F8
:100920007E0198E0E90EF11C882E912C640184E090
:10093000C80ED11C40E1B701C6010E947D088E019E
:10094000045F1F4F4CEFB801C6010E947D0864018F
:1009500095E0C90ED11C4CE0B701C6010E947D088C
:1009600048E2B801C6010E947D08540186E0A80E45
:10097000B11C40EFBE01C5010E947D086E0194E0EC
:10098000C90ED11C4FE5B601C5010E947D0843E0A8
:10099000B701C5010E947D084AE0B801C5010E9467
:1009A0007D08540187E0A80EB11C4CE7BE01C501CB
:1009B0000E947D0845E5B601C5010E947D0843E01F
:1009C000B701C5010E947D084AE0B801C5010E9437
:1009D0007D08540198E0A90EB11C4CE7BE01C50189
:1009E0000E947D0845E5B601C5010E947D084FEBD8
:1009F000B701C5010E947D0842E0B801C5010E940F
:100A00007D08540189E0A80EB11C4FE7BE01C50165
:100A10000E947D0845E5B601C5010E947D084FEBA7
:100A2000B701C5010E947D0842E0B801C5010E94DE
:100A30007D0854019AE0A90EB11C4FE7BE01C50123
:100A40000E947D0845E5B601C5010E947D084FEB77
:100A5000B701C5010E947D0842E0B801C5010E94AE
:100A60007D0854018BE0A80EB11C4FE7BE01C50103
:100A70000E947D0847E7B601C5010E947D084FEB43
:100A8000B701C5010E947D0842E0B801C5010E947E
:100A90007D0854019CE0A90EB11C4FE7BE01C501C1
:100AA0000E947D0845E7B601C5010E947D0843E824
:100AB000B701C5010E947D084AEEB801C5010E9438
:100AC0007D0854018DE0A80EB11C4FE3BE01C501A5
:100AD0000E947D0843E0B701C5010E947D084AEEEF
:100AE000B801C5010E947D0874019EE0E90EF11C69
:100AF0004FE0BE01C7010E947D0840ECB601C7016E
:100B00000E947D0840ECB801C7010E947D088FE07B
:100B1000880E911C4FE0BE01C4010E947D0840E197
:100B2000B601C401DF91CF911F910F91FF90EF901B
:100B3000DF90CF90BF90AF909F908F900C947D08E6
:100B4000609131017091320180912F0190913001BB
:100B50000E94820464E370E085E090E00E948204D9
:100B60000E9400010E94C9080C9423080E944A06B2
:100B700084E00E94D40584E00E94EF050E94FB09F6
:100B80000E9408068AB183708AB98BB18C6F8BB9C9
:100B900087B18F7C87B988B1806388B90E94B80615
:100BA0000E944B070C94B60097B121E030E0082E6C
:100BB00001C0220F0A94EAF72095292327B997E864
:100BC00090937A00806480937C0080917A008064A6
:100BD00080937A0080917A0086FDFCCF08959091F1
:100BE0007C00907F90937C0090917C008F70982B7C
:100BF00090937C0080917A00806480937A00809149
:100C00007A0086FDFCCF809178009091790008955C
:100C10001092B20082E08093B00085E08093B10032
:100C20008DE78093B300E0E7F0E08081826080830D
:100C3000789408951F920F920FB60F9211248F93FC
:100C40009F93AF93BF938091630890916408A091A4
:100C50006508B09166080196A11DB11D80936308D7
:100C600090936408A0936508B0936608BF91AF9114
:100C70009F918F910F900FBE0F901F901895F89431
:100C8000609163087091640880916508909166088E
:100C900078940895E1ECF0E080818861808387E6B4
:100CA00090E09093C5008093C40008959091C00097
:100CB00095FFFCCF8093C60080E090E00895CF932D
:100CC000DF93EC018991882319F00E945606FACF30
:100CD000DF91CF9108951F93CF93DF93EC01FE0135
:100CE0001491812F0E945606112311F02196F7CFFF
:100CF000DF91CF911F910895CF93DF93CDB7DEB7EA
:100D00002A970FB6F894DEBF0FBECDBF4AE0BE01F2
:100D10006F5F7F4F0E94060ACE0101960E945F0618
:100D20002A960FB6F894DEBF0FBECDBFDF91CF91EC
:100D300008958091C00087FFFCCF8091C600089580
:100D40006111299A27E030E090E02D98AC01022E45
:100D500002C0559547950A94E2F740FF02C02B9ACE
:100D600001C02B982D9A2150310978F729980895C0
:100D7000CF93DF93259A239A249A219A209A2C9A2A
:100D800029982D98289A85E38A95F1F700002898EC
:100D900060E081EF0E94A00660E087E60E94A00666
:100DA00060E086EC0E94A00660E080E40E94A0065D
:100DB00060E080E50E94A00660E08BE20E94A00651
:100DC00060E08BEE0E94A00660E081E80E94A00631
:100DD00060E08FE50E94A00660E089E80E94A0061E
:100DE000C0E4D0E161E080E00E94A0062197D1F745
:100DF00060E080E00E94A00660E080E10E94A00622
:100E000060E080E60E94A00660E08FEADF91CF916B
:100E10000C94A006CF93DF9360E080E00E94A006D0
:100E200060E080E10E94A00660E080E60E94A006EB
:100E3000C0E4D0E161E080E00E94A0062197D1F7F4
:100E400060E080E00E94A00660E080E10E94A006D1
:100E500060E080E6DF91CF910C94A0061F93CF93C2
:100E6000DF93C82F162FD42F60E08F700E94A0064A
:100E70008C2F82958F7060E0805F0E94A00660E0FA
:100E800080E6810F0E94A00661E08D2FDF91CF9157
:100E90001F910C94A006CF93DF93C6ECD4E0EBE354
:100EA000F1E08091260190912701A091280189937A
:100EB0009993A99381939193A19324E0EF3BF20737
:100EC000B1F7DF91CF910895843629F0853631F45A
:100ED000EBE3F1E005C0E6ECF4E002C0E0E0F0E0B6
:100EE000CF018C579C4F20912601309127014091D2
:100EF0002801219331934193E817F907D1F7089519
:100F0000443619F4E6ECF4E004C04536D9F4EBE3DA
:100F1000F1E020E030E00EC04181741779F09F3F8E
:100F200011F42CE231E033962F5F3F4F2C3291E0E9
:100F3000390744F490816913F2CFEECF42818413D4
:100F4000EECF03C080E090E0089581E090E0089546
:100F5000CF92DF92EF92443629F0453631F4EBE33D
:100F6000F1E005C0E6ECF4E002C0E0E0F0E020E0F3
:100F700030E0C0902901D0902A01E0902B019081AF
:100F8000961309C09181971306C09281981303C0EC
:100F9000C082D182E28290819F3F11F42CE231E045
:100FA00033962F5F3F4F2C3291E0390744F3EF9097
:100FB000DF90CF900895FF920F931F93CF93DF930D
:100FC000603AD8F57536C8F5C42FF82E072F162FBE
:100FD0000E948007892B89F5C43629F0C53631F483
:100FE000CBE3D1E005C0C6ECD4E002C0C0E0D0E065
:100FF00045E6612F702F8F2D0E948007892B59F0B5
:1010000045E6612F702F8F2DDF91CF911F910F91AA
:10101000FF900C94A80780E090E028812F3F11F00A
:10102000283C29F418830983FA828CE291E0239604
:1010300001968C3221E0920784F3DF91CF911F91CA
:101040000F91FF900895CF92DF92EF92FF920F934E
:101050001F93CF93DF93C0E0D0E0EBE3F1E080811A
:101060008F3F59F08F010D5F1F4F883C21F040E00A
:1010700061810E942E07F80102C0CCE2D1E02196E6
:10108000CC3221E0D2075CF385E60E946407E12CB4
:10109000F12CC6ECD4E00BE311E088818F3FB1F076
:1010A000FE0133966F01883C79F04A8169810E9484
:1010B0002E0799818A812881F80120839183828378
:1010C000E6010D5F1F4F06C0EF0104C08CE2E82E61
:1010D000FF24F394FFEFEF1AFF0A2CE2E21621E05F
:1010E000F206DCF284E6DF91CF911F910F91FF9021
:1010F000EF90DF90CF900C946407CF92DF92EF9245
:10110000FF920F931F93CF93DF93803A9105C0F521
:1011100069367105A8F5C42F7C018B0115950795DB
:10112000159507956B0183E0C822DD24C114D10415
:1011300031F444E66E2D702F8C2F0E94DB0781E086
:10114000C816D10411F484E00BC082E0C816D104A3
:1011500011F480E105C083E0C816D10489F480E46D
:10116000C89FE001112444E66E2D702F8C2F0E9441
:10117000DB0771E0700F44E66E2D8D2F0E94DB07B8
:10118000DF91CF911F910F91FF90EF90DF90CF9063
:101190000895CF92DF92EF9280E090E0A9ECB4E066
:1011A000E6ECF4E0C0902901D0902A01E0902B01F8
:1011B00040814F3F49F1518172819C016C916F3F99
:1011C000B9F0641313C011966C91119765130EC09A
:1011D00012966C911297672B408351836283CD9254
:1011E000DD92EC921297408151817281139602C078
:1011F0002CE231E02F5F3F4F2C3261E03607F4F2F2
:10120000DF011696339602C08CE291E001968C3293
:1012100021E092076CF2EF90DF90CF9008950E944A
:10122000B60580E50E9456062FEF83ED90E321502E
:1012300080409040E1F700C000008AE00E9456061E
:101240002FEF83ED90E3215080409040E1F700C004
:10125000000088E290E090933801809337019093EA
:101260003A018093390182E2882E912CA12CB12C75
:10127000C0E30E943F06A50194010E947409672BF8
:10128000682B692B31F40E94B8030E9438030E9436
:10129000A005C0903301D0903401E0903501F0906A
:1012A00036010E943F0626E9C20ED11CE11CF11C4A
:1012B0006C157D058E059F05E0F2C0930401D9CF22
:1012C00097FB072E16F4009407D077FD09D00E94F3
:1012D000960907FC05D03EF4909581959F4F08959F
:1012E000709561957F4F0895A1E21A2EAA1BBB1B32
:1012F000FD010DC0AA1FBB1FEE1FFF1FA217B307E2
:10130000E407F50720F0A21BB30BE40BF50B661FF7
:10131000771F881F991F1A9469F7609570958095BB
:1013200090959B01AC01BD01CF010895AA1BBB1B89
:1013300051E107C0AA1FBB1FA617B70710F0A61BD5
:10134000B70B881F991F5A95A9F780959095BC01F6
:10135000CD0108958F929F92AF92BF92CF92DF926C
:10136000EF92FF92CF93DF93EC01688179818A81BC
:101370009B81611571058105910521F464E279ED88
:101380008BE597E02DE133EF41E050E00E943B0A0E
:1013900049015A019B01AC01A7EAB1E40E945A0A33
:1013A0006B017C01ACEEB4EFA50194010E94680AC8
:1013B000DC01CB018C0D9D1DAE1DBF1DB7FF03C011
:1013C0000197A109B04888839983AA83BB839F773B
:1013D000DF91CF91FF90EF90DF90CF90BF90AF90D3
:1013E0009F908F9008950E94AA09089589E091E046
:1013F0000E94AA090895A0E0B0E0809309019093AB
:101400000A01A0930B01B0930C010895BB274A3049
:1014100031F4992322F4BDE2909581959F4F0C946D
:10142000120ABB27FB015527AA27880F991FAA1F5D
:10143000A41710F0A41B83955051B9F7A05DAA33EF
:1014400008F0A95DA193009779F7B111B1931192BA
:10145000CB010C942B0ADC01FC01672F71917723DF
:10146000E1F7329704C07C916D9370836291AE175F
:10147000BF07C8F30895052E97FB1EF400940E9441
:10148000520A57FD07D00E94740907FC03D04EF49E
:101490000C94520A50954095309521953F4F4F4FEF
:1014A0005F4F089590958095709561957F4F8F4F10
:1014B0009F4F08950E946D0AA59F900DB49F900DB7
:1014C000A49F800D911D11240895B7FF0C945A0A12
:1014D0000E945A0A821B930B0895A29FB001B39FEA
:1014E000C001A39F700D811D1124911DB29F700D2D
:0C14F000811D1124911D0895F894FFCF78
:1014FC000300020230050034000100000000000C63
:10150C0000505A001E0028C8001400322C011E0086
:0C151C00329001280032FFFFFFC8C8C851
:00000001FF
